{
  "_format": "hh-sol-artifact-1",
  "contractName": "MedicalRecords",
  "sourceName": "contracts/MedicalRecords.sol",
  "abi": [
    {
      "inputs": [],
      "stateMutability": "nonpayable",
      "type": "constructor"
    },
    {
      "inputs": [],
      "name": "AccessAlreadyGranted",
      "type": "error"
    },
    {
      "inputs": [
        {
          "internalType": "address",
          "name": "target",
          "type": "address"
        }
      ],
      "name": "AddressEmptyCode",
      "type": "error"
    },
    {
      "inputs": [],
      "name": "AlreadyRegistered",
      "type": "error"
    },
    {
      "inputs": [],
      "name": "CannotRegisterAsAdmin",
      "type": "error"
    },
    {
      "inputs": [
        {
          "internalType": "address",
          "name": "implementation",
          "type": "address"
        }
      ],
      "name": "ERC1967InvalidImplementation",
      "type": "error"
    },
    {
      "inputs": [],
      "name": "ERC1967NonPayable",
      "type": "error"
    },
    {
      "inputs": [],
      "name": "FailedCall",
      "type": "error"
    },
    {
      "inputs": [],
      "name": "HospitalNotVerified",
      "type": "error"
    },
    {
      "inputs": [],
      "name": "InputArrayLengthMismatch",
      "type": "error"
    },
    {
      "inputs": [],
      "name": "InvalidInitialization",
      "type": "error"
    },
    {
      "inputs": [],
      "name": "NoAccessToRevoke",
      "type": "error"
    },
    {
      "inputs": [],
      "name": "NotAPatient",
      "type": "error"
    },
    {
      "inputs": [],
      "name": "NotAVerifiedProfessional",
      "type": "error"
    },
    {
      "inputs": [],
      "name": "NotAnInsuranceProvider",
      "type": "error"
    },
    {
      "inputs": [],
      "name": "NotAuthorized",
      "type": "error"
    },
    {
      "inputs": [],
      "name": "NotHospitalAdmin",
      "type": "error"
    },
    {
      "inputs": [],
      "name": "NotInitializing",
      "type": "error"
    },
    {
      "inputs": [],
      "name": "NotRecordOwner",
      "type": "error"
    },
    {
      "inputs": [],
      "name": "NotRegistered",
      "type": "error"
    },
    {
      "inputs": [],
      "name": "NotSuperAdmin",
      "type": "error"
    },
    {
      "inputs": [
        {
          "internalType": "address",
          "name": "owner",
          "type": "address"
        }
      ],
      "name": "OwnableInvalidOwner",
      "type": "error"
    },
    {
      "inputs": [
        {
          "internalType": "address",
          "name": "account",
          "type": "address"
        }
      ],
      "name": "OwnableUnauthorizedAccount",
      "type": "error"
    },
    {
      "inputs": [],
      "name": "PublicKeyAlreadySet",
      "type": "error"
    },
    {
      "inputs": [],
      "name": "RecordNotFound",
      "type": "error"
    },
    {
      "inputs": [],
      "name": "RequestNotFound",
      "type": "error"
    },
    {
      "inputs": [],
      "name": "RequestNotFoundOrAlreadyHandled",
      "type": "error"
    },
    {
      "inputs": [],
      "name": "RoleNotAllowed",
      "type": "error"
    },
    {
      "inputs": [],
      "name": "UUPSUnauthorizedCallContext",
      "type": "error"
    },
    {
      "inputs": [
        {
          "internalType": "bytes32",
          "name": "slot",
          "type": "bytes32"
        }
      ],
      "name": "UUPSUnsupportedProxiableUUID",
      "type": "error"
    },
    {
      "inputs": [],
      "name": "UserAlreadyInHospital",
      "type": "error"
    },
    {
      "inputs": [],
      "name": "UserNotFound",
      "type": "error"
    },
    {
      "inputs": [],
      "name": "UserNotInHospital",
      "type": "error"
    },
    {
      "anonymous": false,
      "inputs": [
        {
          "indexed": true,
          "internalType": "uint256",
          "name": "recordId",
          "type": "uint256"
        },
        {
          "indexed": true,
          "internalType": "address",
          "name": "owner",
          "type": "address"
        },
        {
          "indexed": true,
          "internalType": "address",
          "name": "grantee",
          "type": "address"
        },
        {
          "indexed": false,
          "internalType": "uint256",
          "name": "expiration",
          "type": "uint256"
        },
        {
          "indexed": false,
          "internalType": "bytes",
          "name": "encryptedDek",
          "type": "bytes"
        }
      ],
      "name": "AccessGranted",
      "type": "event"
    },
    {
      "anonymous": false,
      "inputs": [
        {
          "indexed": true,
          "internalType": "uint256",
          "name": "requestId",
          "type": "uint256"
        },
        {
          "indexed": true,
          "internalType": "address",
          "name": "patient",
          "type": "address"
        },
        {
          "indexed": true,
          "internalType": "address",
          "name": "provider",
          "type": "address"
        },
        {
          "indexed": false,
          "internalType": "string",
          "name": "claimId",
          "type": "string"
        }
      ],
      "name": "AccessRequested",
      "type": "event"
    },
    {
      "anonymous": false,
      "inputs": [
        {
          "indexed": true,
          "internalType": "uint256",
          "name": "hospitalId",
          "type": "uint256"
        }
      ],
      "name": "HospitalRevoked",
      "type": "event"
    },
    {
      "anonymous": false,
      "inputs": [
        {
          "indexed": true,
          "internalType": "uint256",
          "name": "hospitalId",
          "type": "uint256"
        },
        {
          "indexed": true,
          "internalType": "address",
          "name": "adminAddress",
          "type": "address"
        }
      ],
      "name": "HospitalVerified",
      "type": "event"
    },
    {
      "anonymous": false,
      "inputs": [
        {
          "indexed": false,
          "internalType": "uint64",
          "name": "version",
          "type": "uint64"
        }
      ],
      "name": "Initialized",
      "type": "event"
    },
    {
      "anonymous": false,
      "inputs": [
        {
          "indexed": true,
          "internalType": "address",
          "name": "previousOwner",
          "type": "address"
        },
        {
          "indexed": true,
          "internalType": "address",
          "name": "newOwner",
          "type": "address"
        }
      ],
      "name": "OwnershipTransferred",
      "type": "event"
    },
    {
      "anonymous": false,
      "inputs": [
        {
          "indexed": true,
          "internalType": "address",
          "name": "user",
          "type": "address"
        },
        {
          "indexed": false,
          "internalType": "string",
          "name": "name",
          "type": "string"
        },
        {
          "indexed": false,
          "internalType": "string",
          "name": "contactInfo",
          "type": "string"
        },
        {
          "indexed": false,
          "internalType": "string",
          "name": "profileMetadataURI",
          "type": "string"
        }
      ],
      "name": "ProfileUpdated",
      "type": "event"
    },
    {
      "anonymous": false,
      "inputs": [
        {
          "indexed": true,
          "internalType": "address",
          "name": "user",
          "type": "address"
        }
      ],
      "name": "PublicKeySaved",
      "type": "event"
    },
    {
      "anonymous": false,
      "inputs": [
        {
          "indexed": true,
          "internalType": "uint256",
          "name": "recordId",
          "type": "uint256"
        },
        {
          "indexed": true,
          "internalType": "address",
          "name": "professionalAddress",
          "type": "address"
        }
      ],
      "name": "RecordAccessRevoked",
      "type": "event"
    },
    {
      "anonymous": false,
      "inputs": [
        {
          "indexed": true,
          "internalType": "uint256",
          "name": "recordId",
          "type": "uint256"
        },
        {
          "indexed": true,
          "internalType": "address",
          "name": "owner",
          "type": "address"
        },
        {
          "indexed": false,
          "internalType": "string",
          "name": "title",
          "type": "string"
        },
        {
          "indexed": false,
          "internalType": "string",
          "name": "ipfsHash",
          "type": "string"
        },
        {
          "indexed": false,
          "internalType": "string",
          "name": "category",
          "type": "string"
        },
        {
          "indexed": false,
          "internalType": "bool",
          "name": "isVerified",
          "type": "bool"
        },
        {
          "indexed": false,
          "internalType": "address",
          "name": "uploadedBy",
          "type": "address"
        },
        {
          "indexed": false,
          "internalType": "uint256",
          "name": "timestamp",
          "type": "uint256"
        }
      ],
      "name": "RecordAdded",
      "type": "event"
    },
    {
      "anonymous": false,
      "inputs": [
        {
          "indexed": true,
          "internalType": "uint256",
          "name": "hospitalId",
          "type": "uint256"
        },
        {
          "indexed": false,
          "internalType": "string",
          "name": "name",
          "type": "string"
        },
        {
          "indexed": true,
          "internalType": "address",
          "name": "requester",
          "type": "address"
        }
      ],
      "name": "RegistrationRequested",
      "type": "event"
    },
    {
      "anonymous": false,
      "inputs": [
        {
          "indexed": true,
          "internalType": "uint256",
          "name": "requestId",
          "type": "uint256"
        },
        {
          "indexed": true,
          "internalType": "address",
          "name": "patient",
          "type": "address"
        },
        {
          "indexed": false,
          "internalType": "uint256",
          "name": "accessDuration",
          "type": "uint256"
        }
      ],
      "name": "RequestApproved",
      "type": "event"
    },
    {
      "anonymous": false,
      "inputs": [
        {
          "indexed": true,
          "internalType": "address",
          "name": "user",
          "type": "address"
        },
        {
          "indexed": false,
          "internalType": "enum Storage.Role",
          "name": "role",
          "type": "uint8"
        },
        {
          "indexed": true,
          "internalType": "uint256",
          "name": "hospitalId",
          "type": "uint256"
        }
      ],
      "name": "RoleAssigned",
      "type": "event"
    },
    {
      "anonymous": false,
      "inputs": [
        {
          "indexed": true,
          "internalType": "address",
          "name": "user",
          "type": "address"
        },
        {
          "indexed": false,
          "internalType": "enum Storage.Role",
          "name": "role",
          "type": "uint8"
        },
        {
          "indexed": true,
          "internalType": "uint256",
          "name": "hospitalId",
          "type": "uint256"
        }
      ],
      "name": "RoleRevoked",
      "type": "event"
    },
    {
      "anonymous": false,
      "inputs": [
        {
          "indexed": true,
          "internalType": "address",
          "name": "implementation",
          "type": "address"
        }
      ],
      "name": "Upgraded",
      "type": "event"
    },
    {
      "anonymous": false,
      "inputs": [
        {
          "indexed": true,
          "internalType": "address",
          "name": "userAddress",
          "type": "address"
        },
        {
          "indexed": false,
          "internalType": "string",
          "name": "name",
          "type": "string"
        },
        {
          "indexed": false,
          "internalType": "enum Storage.Role",
          "name": "role",
          "type": "uint8"
        }
      ],
      "name": "UserRegistered",
      "type": "event"
    },
    {
      "anonymous": false,
      "inputs": [
        {
          "indexed": true,
          "internalType": "address",
          "name": "admin",
          "type": "address"
        },
        {
          "indexed": true,
          "internalType": "address",
          "name": "userAddress",
          "type": "address"
        }
      ],
      "name": "UserVerified",
      "type": "event"
    },
    {
      "inputs": [],
      "name": "UPGRADE_INTERFACE_VERSION",
      "outputs": [
        {
          "internalType": "string",
          "name": "",
          "type": "string"
        }
      ],
      "stateMutability": "view",
      "type": "function"
    },
    {
      "inputs": [
        {
          "internalType": "string",
          "name": "_ipfsHash",
          "type": "string"
        },
        {
          "internalType": "string",
          "name": "_title",
          "type": "string"
        },
        {
          "internalType": "string",
          "name": "_category",
          "type": "string"
        }
      ],
      "name": "addSelfUploadedRecord",
      "outputs": [],
      "stateMutability": "nonpayable",
      "type": "function"
    },
    {
      "inputs": [
        {
          "internalType": "address",
          "name": "_patient",
          "type": "address"
        },
        {
          "internalType": "string",
          "name": "_ipfsHash",
          "type": "string"
        },
        {
          "internalType": "string",
          "name": "_title",
          "type": "string"
        },
        {
          "internalType": "string",
          "name": "_category",
          "type": "string"
        },
        {
          "internalType": "bytes",
          "name": "_encryptedKeyForPatient",
          "type": "bytes"
        },
        {
          "internalType": "bytes",
          "name": "_encryptedKeyForHospital",
          "type": "bytes"
        }
      ],
      "name": "addVerifiedRecord",
      "outputs": [],
      "stateMutability": "nonpayable",
      "type": "function"
    },
    {
      "inputs": [
        {
          "internalType": "uint256",
          "name": "_requestId",
          "type": "uint256"
        },
        {
          "internalType": "uint256",
          "name": "_durationInDays",
          "type": "uint256"
        }
      ],
      "name": "approveRequest",
      "outputs": [],
      "stateMutability": "nonpayable",
      "type": "function"
    },
    {
      "inputs": [
        {
          "internalType": "address",
          "name": "user",
          "type": "address"
        },
        {
          "internalType": "enum Storage.Role",
          "name": "role",
          "type": "uint8"
        },
        {
          "internalType": "uint256",
          "name": "hospitalId",
          "type": "uint256"
        }
      ],
      "name": "assignRole",
      "outputs": [],
      "stateMutability": "nonpayable",
      "type": "function"
    },
    {
      "inputs": [
        {
          "internalType": "uint256",
          "name": "_recordId",
          "type": "uint256"
        },
        {
          "internalType": "address",
          "name": "_viewer",
          "type": "address"
        }
      ],
      "name": "checkRecordAccess",
      "outputs": [
        {
          "internalType": "bool",
          "name": "",
          "type": "bool"
        }
      ],
      "stateMutability": "view",
      "type": "function"
    },
    {
      "inputs": [
        {
          "internalType": "address",
          "name": "_patientAddress",
          "type": "address"
        }
      ],
      "name": "getPatientRecordIds",
      "outputs": [
        {
          "internalType": "uint256[]",
          "name": "",
          "type": "uint256[]"
        }
      ],
      "stateMutability": "view",
      "type": "function"
    },
    {
      "inputs": [
        {
          "internalType": "address",
          "name": "_patientAddress",
          "type": "address"
        },
        {
          "internalType": "uint256",
          "name": "_index",
          "type": "uint256"
        }
      ],
      "name": "getPatientRequestAtIndex",
      "outputs": [
        {
          "components": [
            {
              "internalType": "uint256",
              "name": "id",
              "type": "uint256"
            },
            {
              "internalType": "address",
              "name": "patient",
              "type": "address"
            },
            {
              "internalType": "address",
              "name": "provider",
              "type": "address"
            },
            {
              "internalType": "string",
              "name": "claimId",
              "type": "string"
            },
            {
              "internalType": "enum Storage.RequestStatus",
              "name": "status",
              "type": "uint8"
            }
          ],
          "internalType": "struct Storage.AccessRequest",
          "name": "",
          "type": "tuple"
        }
      ],
      "stateMutability": "view",
      "type": "function"
    },
    {
      "inputs": [
        {
          "internalType": "address",
          "name": "_patientAddress",
          "type": "address"
        }
      ],
      "name": "getPatientRequestsCount",
      "outputs": [
        {
          "internalType": "uint256",
          "name": "",
          "type": "uint256"
        }
      ],
      "stateMutability": "view",
      "type": "function"
    },
    {
      "inputs": [
        {
          "internalType": "uint256",
          "name": "_recordId",
          "type": "uint256"
        }
      ],
      "name": "getRecordById",
      "outputs": [
        {
          "components": [
            {
              "internalType": "uint256",
              "name": "id",
              "type": "uint256"
            },
            {
              "internalType": "string",
              "name": "title",
              "type": "string"
            },
            {
              "internalType": "string",
              "name": "ipfsHash",
              "type": "string"
            },
            {
              "internalType": "uint256",
              "name": "timestamp",
              "type": "uint256"
            },
            {
              "internalType": "address",
              "name": "uploadedBy",
              "type": "address"
            },
            {
              "internalType": "address",
              "name": "owner",
              "type": "address"
            },
            {
              "internalType": "bool",
              "name": "isVerified",
              "type": "bool"
            },
            {
              "internalType": "string",
              "name": "category",
              "type": "string"
            },
            {
              "internalType": "bytes",
              "name": "encryptedKeyForPatient",
              "type": "bytes"
            },
            {
              "internalType": "bytes",
              "name": "encryptedKeyForHospital",
              "type": "bytes"
            }
          ],
          "internalType": "struct Storage.Record",
          "name": "",
          "type": "tuple"
        }
      ],
      "stateMutability": "view",
      "type": "function"
    },
    {
      "inputs": [
        {
          "internalType": "uint256[]",
          "name": "_recordIds",
          "type": "uint256[]"
        },
        {
          "internalType": "address",
          "name": "_grantee",
          "type": "address"
        },
        {
          "internalType": "uint256",
          "name": "_durationInDays",
          "type": "uint256"
        },
        {
          "internalType": "bytes[]",
          "name": "_encryptedDeks",
          "type": "bytes[]"
        }
      ],
      "name": "grantMultipleRecordAccess",
      "outputs": [],
      "stateMutability": "nonpayable",
      "type": "function"
    },
    {
      "inputs": [
        {
          "internalType": "uint256",
          "name": "_recordId",
          "type": "uint256"
        },
        {
          "internalType": "address",
          "name": "_grantee",
          "type": "address"
        },
        {
          "internalType": "uint256",
          "name": "_durationInDays",
          "type": "uint256"
        },
        {
          "internalType": "bytes",
          "name": "_encryptedDek",
          "type": "bytes"
        }
      ],
      "name": "grantRecordAccess",
      "outputs": [],
      "stateMutability": "nonpayable",
      "type": "function"
    },
    {
      "inputs": [],
      "name": "hospitalIdCounter",
      "outputs": [
        {
          "internalType": "uint256",
          "name": "",
          "type": "uint256"
        }
      ],
      "stateMutability": "view",
      "type": "function"
    },
    {
      "inputs": [
        {
          "internalType": "uint256",
          "name": "",
          "type": "uint256"
        }
      ],
      "name": "hospitals",
      "outputs": [
        {
          "internalType": "uint256",
          "name": "hospitalId",
          "type": "uint256"
        },
        {
          "internalType": "string",
          "name": "name",
          "type": "string"
        },
        {
          "internalType": "address",
          "name": "adminAddress",
          "type": "address"
        },
        {
          "internalType": "bool",
          "name": "isVerified",
          "type": "bool"
        }
      ],
      "stateMutability": "view",
      "type": "function"
    },
    {
      "inputs": [
        {
          "internalType": "address",
          "name": "initialOwner",
          "type": "address"
        }
      ],
      "name": "initialize",
      "outputs": [],
      "stateMutability": "nonpayable",
      "type": "function"
    },
    {
      "inputs": [],
      "name": "owner",
      "outputs": [
        {
          "internalType": "address",
          "name": "",
          "type": "address"
        }
      ],
      "stateMutability": "view",
      "type": "function"
    },
    {
      "inputs": [
        {
          "internalType": "address",
          "name": "",
          "type": "address"
        },
        {
          "internalType": "uint256",
          "name": "",
          "type": "uint256"
        }
      ],
      "name": "patientRecordIds",
      "outputs": [
        {
          "internalType": "uint256",
          "name": "",
          "type": "uint256"
        }
      ],
      "stateMutability": "view",
      "type": "function"
    },
    {
      "inputs": [
        {
          "internalType": "address",
          "name": "",
          "type": "address"
        },
        {
          "internalType": "uint256",
          "name": "",
          "type": "uint256"
        }
      ],
      "name": "patientRequests",
      "outputs": [
        {
          "internalType": "uint256",
          "name": "id",
          "type": "uint256"
        },
        {
          "internalType": "address",
          "name": "patient",
          "type": "address"
        },
        {
          "internalType": "address",
          "name": "provider",
          "type": "address"
        },
        {
          "internalType": "string",
          "name": "claimId",
          "type": "string"
        },
        {
          "internalType": "enum Storage.RequestStatus",
          "name": "status",
          "type": "uint8"
        }
      ],
      "stateMutability": "view",
      "type": "function"
    },
    {
      "inputs": [
        {
          "internalType": "address",
          "name": "",
          "type": "address"
        }
      ],
      "name": "professionalToHospitalId",
      "outputs": [
        {
          "internalType": "uint256",
          "name": "",
          "type": "uint256"
        }
      ],
      "stateMutability": "view",
      "type": "function"
    },
    {
      "inputs": [],
      "name": "proxiableUUID",
      "outputs": [
        {
          "internalType": "bytes32",
          "name": "",
          "type": "bytes32"
        }
      ],
      "stateMutability": "view",
      "type": "function"
    },
    {
      "inputs": [
        {
          "internalType": "uint256",
          "name": "",
          "type": "uint256"
        },
        {
          "internalType": "address",
          "name": "",
          "type": "address"
        }
      ],
      "name": "recordAccess",
      "outputs": [
        {
          "internalType": "uint256",
          "name": "",
          "type": "uint256"
        }
      ],
      "stateMutability": "view",
      "type": "function"
    },
    {
      "inputs": [
        {
          "internalType": "uint256",
          "name": "",
          "type": "uint256"
        }
      ],
      "name": "records",
      "outputs": [
        {
          "internalType": "uint256",
          "name": "id",
          "type": "uint256"
        },
        {
          "internalType": "string",
          "name": "title",
          "type": "string"
        },
        {
          "internalType": "string",
          "name": "ipfsHash",
          "type": "string"
        },
        {
          "internalType": "uint256",
          "name": "timestamp",
          "type": "uint256"
        },
        {
          "internalType": "address",
          "name": "uploadedBy",
          "type": "address"
        },
        {
          "internalType": "address",
          "name": "owner",
          "type": "address"
        },
        {
          "internalType": "bool",
          "name": "isVerified",
          "type": "bool"
        },
        {
          "internalType": "string",
          "name": "category",
          "type": "string"
        },
        {
          "internalType": "bytes",
          "name": "encryptedKeyForPatient",
          "type": "bytes"
        },
        {
          "internalType": "bytes",
          "name": "encryptedKeyForHospital",
          "type": "bytes"
        }
      ],
      "stateMutability": "view",
      "type": "function"
    },
    {
      "inputs": [
        {
          "internalType": "string",
          "name": "_name",
          "type": "string"
        },
        {
          "internalType": "enum Storage.Role",
          "name": "_role",
          "type": "uint8"
        }
      ],
      "name": "registerUser",
      "outputs": [],
      "stateMutability": "nonpayable",
      "type": "function"
    },
    {
      "inputs": [
        {
          "internalType": "uint256",
          "name": "",
          "type": "uint256"
        }
      ],
      "name": "registrationRequests",
      "outputs": [
        {
          "internalType": "uint256",
          "name": "hospitalId",
          "type": "uint256"
        },
        {
          "internalType": "string",
          "name": "name",
          "type": "string"
        },
        {
          "internalType": "address",
          "name": "requesterAddress",
          "type": "address"
        },
        {
          "internalType": "enum Storage.RequestStatus",
          "name": "status",
          "type": "uint8"
        }
      ],
      "stateMutability": "view",
      "type": "function"
    },
    {
      "inputs": [],
      "name": "renounceOwnership",
      "outputs": [],
      "stateMutability": "nonpayable",
      "type": "function"
    },
    {
      "inputs": [
        {
          "internalType": "address",
          "name": "_patientAddress",
          "type": "address"
        },
        {
          "internalType": "string",
          "name": "_claimId",
          "type": "string"
        }
      ],
      "name": "requestAccess",
      "outputs": [],
      "stateMutability": "nonpayable",
      "type": "function"
    },
    {
      "inputs": [
        {
          "internalType": "string",
          "name": "hospitalName",
          "type": "string"
        }
      ],
      "name": "requestRegistration",
      "outputs": [],
      "stateMutability": "nonpayable",
      "type": "function"
    },
    {
      "inputs": [
        {
          "internalType": "uint256",
          "name": "hospitalId",
          "type": "uint256"
        }
      ],
      "name": "revokeHospital",
      "outputs": [],
      "stateMutability": "nonpayable",
      "type": "function"
    },
    {
      "inputs": [
        {
          "internalType": "uint256",
          "name": "recordId",
          "type": "uint256"
        },
        {
          "internalType": "address",
          "name": "professionalAddress",
          "type": "address"
        }
      ],
      "name": "revokeRecordAccess",
      "outputs": [],
      "stateMutability": "nonpayable",
      "type": "function"
    },
    {
      "inputs": [
        {
          "internalType": "address",
          "name": "user",
          "type": "address"
        },
        {
          "internalType": "enum Storage.Role",
          "name": "role",
          "type": "uint8"
        },
        {
          "internalType": "uint256",
          "name": "hospitalId",
          "type": "uint256"
        }
      ],
      "name": "revokeRole",
      "outputs": [],
      "stateMutability": "nonpayable",
      "type": "function"
    },
    {
      "inputs": [
        {
          "internalType": "string",
          "name": "_publicKey",
          "type": "string"
        }
      ],
      "name": "savePublicKey",
      "outputs": [],
      "stateMutability": "nonpayable",
      "type": "function"
    },
    {
      "inputs": [
        {
          "internalType": "address",
          "name": "newOwner",
          "type": "address"
        }
      ],
      "name": "transferOwnership",
      "outputs": [],
      "stateMutability": "nonpayable",
      "type": "function"
    },
    {
      "inputs": [
        {
          "internalType": "string",
          "name": "_name",
          "type": "string"
        },
        {
          "internalType": "string",
          "name": "_contactInfo",
          "type": "string"
        },
        {
          "internalType": "string",
          "name": "_profileMetadataURI",
          "type": "string"
        }
      ],
      "name": "updateUserProfile",
      "outputs": [],
      "stateMutability": "nonpayable",
      "type": "function"
    },
    {
      "inputs": [
        {
          "internalType": "address",
          "name": "newImplementation",
          "type": "address"
        },
        {
          "internalType": "bytes",
          "name": "data",
          "type": "bytes"
        }
      ],
      "name": "upgradeToAndCall",
      "outputs": [],
      "stateMutability": "payable",
      "type": "function"
    },
    {
      "inputs": [
        {
          "internalType": "address",
          "name": "",
          "type": "address"
        }
      ],
      "name": "userProfiles",
      "outputs": [
        {
          "internalType": "string",
          "name": "name",
          "type": "string"
        },
        {
          "internalType": "string",
          "name": "contactInfo",
          "type": "string"
        },
        {
          "internalType": "string",
          "name": "profileMetadataURI",
          "type": "string"
        }
      ],
      "stateMutability": "view",
      "type": "function"
    },
    {
      "inputs": [
        {
          "internalType": "address",
          "name": "",
          "type": "address"
        }
      ],
      "name": "userToHospital",
      "outputs": [
        {
          "internalType": "uint256",
          "name": "",
          "type": "uint256"
        }
      ],
      "stateMutability": "view",
      "type": "function"
    },
    {
      "inputs": [
        {
          "internalType": "address",
          "name": "",
          "type": "address"
        }
      ],
      "name": "users",
      "outputs": [
        {
          "internalType": "address",
          "name": "walletAddress",
          "type": "address"
        },
        {
          "internalType": "string",
          "name": "name",
          "type": "string"
        },
        {
          "internalType": "enum Storage.Role",
          "name": "role",
          "type": "uint8"
        },
        {
          "internalType": "bool",
          "name": "isVerified",
          "type": "bool"
        },
        {
          "internalType": "string",
          "name": "publicKey",
          "type": "string"
        }
      ],
      "stateMutability": "view",
      "type": "function"
    },
    {
      "inputs": [
        {
          "internalType": "uint256",
          "name": "hospitalId",
          "type": "uint256"
        },
        {
          "internalType": "address",
          "name": "adminAddress",
          "type": "address"
        }
      ],
      "name": "verifyHospital",
      "outputs": [],
      "stateMutability": "nonpayable",
      "type": "function"
    }
  ],
  "bytecode": "0x60a0604052306080523480156200001557600080fd5b506200002062000026565b620000da565b7ff0c57e16840df040f15088dc2f81fe391c3923bec73e23a9662efc9c229c6a00805468010000000000000000900460ff1615620000775760405163f92ee8a960e01b815260040160405180910390fd5b80546001600160401b0390811614620000d75780546001600160401b0319166001600160401b0390811782556040519081527fc7f505b2f371ae2175ee4913f4499e1f2633a7b5936321eed1cdaeb6115181d29060200160405180910390a15b50565b6080516147c862000104600039600081816133e20152818161340b015261354c01526147c86000f3fe6080604052600436106102255760003560e01c80639afd8efe11610123578063c4d66de8116100ab578063e6e8c76b1161006f578063e6e8c76b14610703578063e75b8b2314610730578063ea4d598e1461075d578063f2fde38b1461077d578063f79051381461079d57600080fd5b8063c4d66de814610663578063cbf47a7e14610683578063cfeab136146106a3578063d8eb8e90146106c3578063e699ffcd146106e357600080fd5b8063b8604fba116100f2578063b8604fba146105ab578063bace0290146105cb578063beccc1c8146105eb578063c3f1a9491461060b578063c459a8ce1461062b57600080fd5b80639afd8efe146104ef578063a00977bf1461051c578063a87430ba1461053c578063ad3cb1cc1461056d57600080fd5b806352d1902d116101b15780636b3c6fd6116101755780636b3c6fd614610420578063715018a61461045057806381dc6fd2146104655780638da5cb5b1461049557806395b5a65b146104c257600080fd5b806352d1902d1461037e5780635a82375b146103935780635af28ce3146103b35780635e2547f2146103d35780636248204e146103f357600080fd5b80633217bc72116101f85780633217bc72146102b5578063332d56d7146102e6578063338e12eb1461031557806334461067146103355780634f1ef2861461036b57600080fd5b8063072f77521461022a57806328f183a11461024c5780632c0a90a9146102755780632f6d4a5914610295575b600080fd5b34801561023657600080fd5b5061024a610245366004613964565b6107cd565b005b34801561025857600080fd5b5061026260085481565b6040519081526020015b60405180910390f35b34801561028157600080fd5b5061024a6102903660046139eb565b610845565b3480156102a157600080fd5b5061024a6102b0366004613a29565b610ac9565b3480156102c157600080fd5b506102d56102d0366004613a76565b610c8f565b60405161026c959493929190613b1a565b3480156102f257600080fd5b50610306610301366004613b65565b610d76565b60405161026c93929190613b80565b34801561032157600080fd5b5061024a610330366004613bc8565b610f30565b34801561034157600080fd5b50610355610350366004613c15565b611157565b60405161026c9a99989796959493929190613c2e565b61024a610379366004613a29565b611475565b34801561038a57600080fd5b50610262611494565b34801561039f57600080fd5b5061024a6103ae366004613d83565b6114b1565b3480156103bf57600080fd5b506102626103ce366004613b65565b611720565b3480156103df57600080fd5b506102626103ee366004613a76565b611767565b3480156103ff57600080fd5b5061041361040e366004613b65565b611798565b60405161026c9190613e58565b34801561042c57600080fd5b5061044061043b366004613c15565b61182d565b60405161026c9493929190613e9c565b34801561045c57600080fd5b5061024a6118ee565b34801561047157600080fd5b50610485610480366004613c15565b611902565b60405161026c9493929190613ed3565b3480156104a157600080fd5b506104aa611924565b6040516001600160a01b03909116815260200161026c565b3480156104ce57600080fd5b506102626104dd366004613b65565b600b6020526000908152604090205481565b3480156104fb57600080fd5b5061050f61050a366004613a76565b611952565b60405161026c9190613f0d565b34801561052857600080fd5b5061024a610537366004613f71565b611aec565b34801561054857600080fd5b5061055c610557366004613b65565b611c08565b60405161026c959493929190613fbd565b34801561057957600080fd5b5061059e604051806040016040528060058152602001640352e302e360dc1b81525081565b60405161026c9190614014565b3480156105b757600080fd5b5061024a6105c6366004614027565b611d5a565b3480156105d757600080fd5b5061024a6105e63660046140ab565b611efe565b3480156105f757600080fd5b5061024a610606366004613c15565b611ffd565b34801561061757600080fd5b5061024a610626366004614144565b612084565b34801561063757600080fd5b50610262610646366004614144565b600460209081526000928352604080842090915290825290205481565b34801561066f57600080fd5b5061024a61067e366004613b65565b612457565b34801561068f57600080fd5b5061024a61069e366004614167565b612559565b3480156106af57600080fd5b5061024a6106be3660046141bb565b61279a565b3480156106cf57600080fd5b5061024a6106de366004613f71565b6128b4565b3480156106ef57600080fd5b5061024a6106fe366004614027565b612973565b34801561070f57600080fd5b5061026261071e366004613b65565b600a6020526000908152604090205481565b34801561073c57600080fd5b5061075061074b366004613c15565b612bdf565b60405161026c919061429b565b34801561076957600080fd5b5061024a610778366004614144565b612fc9565b34801561078957600080fd5b5061024a610798366004613b65565b6130d7565b3480156107a957600080fd5b506107bd6107b8366004614144565b61311a565b604051901515815260200161026c565b3360009081526020819052604081206002015460ff1660088111156107f4576107f4613af0565b146108125760405163104a226f60e31b815260040160405180910390fd5b61084033848484600060405180602001604052806000815250604051806020016040528060008152506131be565b505050565b3360009081526020819052604081206002015460ff16600881111561086c5761086c613af0565b1461088a5760405163104a226f60e31b815260040160405180910390fd5b33600090815260056020526040812090805b8254811015610aa457848382815481106108b8576108b8614387565b906000526020600020906005020160000154148015610910575060008382815481106108e6576108e6614387565b600091825260209091206004600590920201015460ff16600281111561090e5761090e613af0565b145b15610a9c57600183828154811061092957610929614387565b60009182526020909120600460059092020101805460ff1916600183600281111561095657610956613af0565b0217905550600061096a85620151806143b3565b61097490426143ca565b9050600084838154811061098a5761098a614387565b60009182526020808320600260059093020191909101543383526003909152604082206001600160a01b039091169250905b8154811015610a585760008282815481106109d9576109d9614387565b6000918252602080832091909101548083526004825260408084206001600160a01b0389168086529084528185208a905581518a8152938401829052908301939093529250339083907f1c795c24f232a1e8a341c63546a2631ab532f7bf10169ff1b3c74187ad48a0f19060600160405180910390a4506001016109bc565b5060405187815260019550339089907f4def62da440b39db2661de60aa3dad0479ac27d4c22597d6e14c7441774f8a319060200160405180910390a3505050610aa4565b60010161089c565b5080610ac357604051632589d98f60e11b815260040160405180910390fd5b50505050565b60033360009081526020819052604090206002015460ff166008811115610af257610af2613af0565b14610b1057604051630d52912160e21b815260040160405180910390fd5b6001600160a01b03821660009081526020819052604081206002015460ff166008811115610b4057610b40613af0565b14610b5e5760405163104a226f60e31b815260040160405180910390fd5b6006805460009182610b6f836143dd565b909155506001600160a01b038481166000818152600560208181526040808420815160a08101835288815280840196875233928101928352606081018b81526080820187905282546001808201855593885294909620815194909502909401928355945194820180549587166001600160a01b031996871617905551600282018054919096169416939093179093555192935090916003820190610c139082614478565b50608082015160048201805460ff19166001836002811115610c3757610c37613af0565b02179055505050336001600160a01b0316836001600160a01b0316827f21eb886073c5fec0f227f76ef8335d82939c7aa4b537be2e0943f4c1dc74553e85604051610c829190614014565b60405180910390a4505050565b60056020528160005260406000208181548110610cab57600080fd5b600091825260209091206005909102018054600182015460028301546003840180549396506001600160a01b03928316955091169291610cea906143f6565b80601f0160208091040260200160405190810160405280929190818152602001828054610d16906143f6565b8015610d635780601f10610d3857610100808354040283529160200191610d63565b820191906000526020600020905b815481529060010190602001808311610d4657829003601f168201915b5050506004909301549192505060ff1685565b600160205260009081526040902080548190610d91906143f6565b80601f0160208091040260200160405190810160405280929190818152602001828054610dbd906143f6565b8015610e0a5780601f10610ddf57610100808354040283529160200191610e0a565b820191906000526020600020905b815481529060010190602001808311610ded57829003601f168201915b505050505090806001018054610e1f906143f6565b80601f0160208091040260200160405190810160405280929190818152602001828054610e4b906143f6565b8015610e985780601f10610e6d57610100808354040283529160200191610e98565b820191906000526020600020905b815481529060010190602001808311610e7b57829003601f168201915b505050505090806002018054610ead906143f6565b80601f0160208091040260200160405190810160405280929190818152602001828054610ed9906143f6565b8015610f265780601f10610efb57610100808354040283529160200191610f26565b820191906000526020600020905b815481529060010190602001808311610f0957829003601f168201915b5050505050905083565b336000908152602081905260409020546001600160a01b031615610f6757604051630ea075bf60e21b815260040160405180910390fd5b6002816008811115610f7b57610f7b613af0565b1480610f9857506008816008811115610f9657610f96613af0565b145b15610fb657604051630bc9e58560e31b815260040160405180910390fd5b6040518060a00160405280336001600160a01b03168152602001838152602001826008811115610fe857610fe8613af0565b81526000602080830182905260408051808301825283815293810193909352338252818152919020825181546001600160a01b0319166001600160a01b0390911617815590820151600182019061103f9082614478565b50604082015160028201805460ff1916600183600881111561106357611063613af0565b021790555060608201516002820180549115156101000261ff00199092169190911790556080820151600382019061109b9082614478565b5050604080516060810182528481528151602081810184526000808352818401929092528351808201855282815283850152338252600190529190912081519192509081906110ea9082614478565b50602082015160018201906110ff9082614478565b50604082015160028201906111149082614478565b50506040513391507fc2e5d5da58bd71d1a2d14cdef02a4256d971b728088f8190d067ccfbae3bd73e9061114b9085908590614537565b60405180910390a25050565b6002818154811061116757600080fd5b6000918252602090912060099091020180546001820180549193509061118c906143f6565b80601f01602080910402602001604051908101604052809291908181526020018280546111b8906143f6565b80156112055780601f106111da57610100808354040283529160200191611205565b820191906000526020600020905b8154815290600101906020018083116111e857829003601f168201915b50505050509080600201805461121a906143f6565b80601f0160208091040260200160405190810160405280929190818152602001828054611246906143f6565b80156112935780601f1061126857610100808354040283529160200191611293565b820191906000526020600020905b81548152906001019060200180831161127657829003601f168201915b50505050600383015460048401546005850154600686018054959693956001600160a01b03938416955092821693600160a01b90920460ff16926112d6906143f6565b80601f0160208091040260200160405190810160405280929190818152602001828054611302906143f6565b801561134f5780601f106113245761010080835404028352916020019161134f565b820191906000526020600020905b81548152906001019060200180831161133257829003601f168201915b505050505090806007018054611364906143f6565b80601f0160208091040260200160405190810160405280929190818152602001828054611390906143f6565b80156113dd5780601f106113b2576101008083540402835291602001916113dd565b820191906000526020600020905b8154815290600101906020018083116113c057829003601f168201915b5050505050908060080180546113f2906143f6565b80601f016020809104026020016040519081016040528092919081815260200182805461141e906143f6565b801561146b5780601f106114405761010080835404028352916020019161146b565b820191906000526020600020905b81548152906001019060200180831161144e57829003601f168201915b505050505090508a565b61147d6133d7565b6114868261347c565b6114908282613484565b5050565b600061149e613541565b5060008051602061477383398151915290565b80518451146114d3576040516343714afd60e01b815260040160405180910390fd5b6001600160a01b03831660009081526020819052604090206001600282015460ff16600881111561150657611506613af0565b1415801561152d57506007600282015460ff16600881111561152a5761152a613af0565b14155b801561155257506003600282015460ff16600881111561154f5761154f613af0565b14155b801561157757506004600282015460ff16600881111561157457611574613af0565b14155b801561159c57506005600282015460ff16600881111561159957611599613af0565b14155b806115b157506002810154610100900460ff16155b156115cf57604051635f10e00b60e01b815260040160405180910390fd5b60006115de84620151806143b3565b6115e890426143ca565b905060005b865181101561171757600087828151811061160a5761160a614387565b602002602001015190506002805490508110801561165f5750336001600160a01b03166002828154811061164057611640614387565b60009182526020909120600560099092020101546001600160a01b0316145b1561170e5760008181526004602090815260408083206001600160a01b038b168452909152902054421061170e5760008181526004602090815260408083206001600160a01b038b1680855292529091208490558551339083907f1c795c24f232a1e8a341c63546a2631ab532f7bf10169ff1b3c74187ad48a0f19087908a90889081106116ef576116ef614387565b6020026020010151604051611705929190614559565b60405180910390a45b506001016115ed565b50505050505050565b6000336001600160a01b0383161461174b5760405163ea8e4eb560e01b815260040160405180910390fd5b506001600160a01b031660009081526005602052604090205490565b6003602052816000526040600020818154811061178357600080fd5b90600052602060002001600091509150505481565b6060336001600160a01b038316146117c35760405163ea8e4eb560e01b815260040160405180910390fd5b6001600160a01b0382166000908152600360209081526040918290208054835181840281018401909452808452909183018282801561182157602002820191906000526020600020905b81548152602001906001019080831161180d575b50505050509050919050565b6009602052600090815260409020805460018201805491929161184f906143f6565b80601f016020809104026020016040519081016040528092919081815260200182805461187b906143f6565b80156118c85780601f1061189d576101008083540402835291602001916118c8565b820191906000526020600020905b8154815290600101906020018083116118ab57829003601f168201915b505050600290930154919250506001600160a01b0381169060ff600160a01b9091041684565b6118f661358a565b61190060006135bc565b565b6007602052600090815260409020805460018201805491929161184f906143f6565b7f9016d09d72d40fdae2fd8ceac6b6234c7706214fd39c1cd1e609a0528c199300546001600160a01b031690565b6119806040805160a08101825260008082526020820181905291810182905260608082015290608082015290565b336001600160a01b038416146119a95760405163ea8e4eb560e01b815260040160405180910390fd5b6001600160a01b03831660009081526005602052604090208054839081106119d3576119d3614387565b60009182526020918290206040805160a08101825260059093029091018054835260018101546001600160a01b0390811694840194909452600281015490931690820152600382018054919291606084019190611a2f906143f6565b80601f0160208091040260200160405190810160405280929190818152602001828054611a5b906143f6565b8015611aa85780601f10611a7d57610100808354040283529160200191611aa8565b820191906000526020600020905b815481529060010190602001808311611a8b57829003601f168201915b5050509183525050600482015460209091019060ff166002811115611acf57611acf613af0565b6002811115611ae057611ae0613af0565b90525090505b92915050565b6008805460009182611afd836143dd565b9190505590506040518060800160405280828152602001838152602001336001600160a01b0316815260200160006002811115611b3c57611b3c613af0565b9052600082815260096020908152604090912082518155908201516001820190611b669082614478565b506040820151600280830180546001600160a01b039093166001600160a01b031984168117825560608601519391926001600160a81b03199092161790600160a01b908490811115611bba57611bba613af0565b0217905550905050336001600160a01b0316817fbf61b5cace25ee4d225724bee5d3875a59e7468e6524c619b1bcc3361ba9a8e684604051611bfc9190614014565b60405180910390a35050565b600060208190529081526040902080546001820180546001600160a01b039092169291611c34906143f6565b80601f0160208091040260200160405190810160405280929190818152602001828054611c60906143f6565b8015611cad5780601f10611c8257610100808354040283529160200191611cad565b820191906000526020600020905b815481529060010190602001808311611c9057829003601f168201915b505050506002830154600384018054939460ff8084169561010090940416935091611cd7906143f6565b80601f0160208091040260200160405190810160405280929190818152602001828054611d03906143f6565b8015611d505780601f10611d2557610100808354040283529160200191611d50565b820191906000526020600020905b815481529060010190602001808311611d3357829003601f168201915b5050505050905085565b611d62611924565b6001600160a01b0316336001600160a01b031614611e155760023360009081526020819052604090206002015460ff166008811115611da357611da3613af0565b141580611dc8575033600090815260208190526040902060020154610100900460ff16155b15611de65760405163248b437160e21b815260040160405180910390fd5b336000908152600a60205260409020548114611e155760405163ea8e4eb560e01b815260040160405180910390fd5b6001600160a01b0383811660009081526020819052604090205416611e4d576040516319c29a3360e21b815260040160405180910390fd5b6001600160a01b0383166000908152600a60205260409020548114611e8557604051637aa3308d60e11b815260040160405180910390fd5b6001600160a01b038316600081815260208181526040808320600201805461ffff19169055600a8252808320839055600b90915280822091909155518291907f656386f7fbf5fbd79ebb5d508870678c1d0ba774d3af78f5971f7d32d0da18bd90611ef1908690614572565b60405180910390a3505050565b336000908152602081905260409020546001600160a01b0316611f345760405163aba4733960e01b815260040160405180910390fd5b336000908152600160205260409020611f4e868883614580565b5033600090815260016020819052604090912001611f6d848683614580565b50336000908152600160205260409020600201611f8b828483614580565b50336000908152602081905260409020600101611fa9868883614580565b50336001600160a01b03167f6420daf1b58438e85465ef21dee378d307a509caab491149e3f066c5caf1266d878787878787604051611fed96959493929190614669565b60405180910390a2505050505050565b61200561358a565b600081815260076020526040902060020154600160a01b900460ff1661203e57604051634d2310eb60e11b815260040160405180910390fd5b600081815260076020526040808220600201805460ff60a01b191690555182917fde3170d9273315de9a8b381190baac26e017d2c9ac99d1ca5b428bea7161f89291a250565b61208c61358a565b600080838152600960205260409020600290810154600160a01b900460ff16908111156120bb576120bb613af0565b146120d9576040516317f4986760e31b815260040160405180910390fd5b6001600160a01b03818116600090815260208190526040902054161561211257604051630ea075bf60e21b815260040160405180910390fd5b600082815260096020818152604080842060028101805460ff60a01b1916600160a01b17905581516080810190925286825293869052918152600190920180549192830191612160906143f6565b80601f016020809104026020016040519081016040528092919081815260200182805461218c906143f6565b80156121d95780601f106121ae576101008083540402835291602001916121d9565b820191906000526020600020905b8154815290600101906020018083116121bc57829003601f168201915b50505091835250506001600160a01b0383166020808301919091526001604092830181905260008681526007835292909220835181559083015190918201906122229082614478565b50604082810151600292830180546060909501511515600160a01b026001600160a81b03199095166001600160a01b039283161794909417909355805160a081018252928416835280518082018252600581526420b236b4b760d91b6020828101919091528401528201908152600160208083018290526040805180830182526000808252948201526001600160a01b0386811685528483529320845181546001600160a01b0319169416939093178355830151908201906122e49082614478565b50604082015160028201805460ff1916600183600881111561230857612308613af0565b021790555060608201516002820180549115156101000261ff0019909216919091179055608082015160038201906123409082614478565b50506040805160a0810182526005606082019081526420b236b4b760d91b6080830152815281516020818101845260008083528184019290925283518082018552828152838501526001600160a01b0386168252600190529190912081519192509081906123ae9082614478565b50602082015160018201906123c39082614478565b50604082015160028201906123d89082614478565b5050506001600160a01b0381166000818152600a60205260408082208590555184917f1421bdc12a61f8ad34351cd7dd151822ac06730e7b43ee4bdfd4aaeb1ff5311c91a3806001600160a01b03167fc2e5d5da58bd71d1a2d14cdef02a4256d971b728088f8190d067ccfbae3bd73e600260405161114b91906146b2565b600061246161362d565b805490915060ff600160401b82041615906001600160401b03166000811580156124885750825b90506000826001600160401b031660011480156124a45750303b155b9050811580156124b2575080155b156124d05760405163f92ee8a960e01b815260040160405180910390fd5b845467ffffffffffffffff1916600117855583156124fa57845460ff60401b1916600160401b1785555b61250386613656565b61250b613667565b831561255157845460ff60401b19168555604051600181527fc7f505b2f371ae2175ee4913f4499e1f2633a7b5936321eed1cdaeb6115181d29060200160405180910390a15b505050505050565b600254841061257b57604051633e07f1a160e01b815260040160405180910390fd5b60006002858154811061259057612590614387565b600091825260209091206005600990920201908101549091506001600160a01b031633146125d157604051635e27834560e01b815260040160405180910390fd5b6001600160a01b03841660009081526020819052604090206001600282015460ff16600881111561260457612604613af0565b1415801561262b57506007600282015460ff16600881111561262857612628613af0565b14155b801561265057506003600282015460ff16600881111561264d5761264d613af0565b14155b801561267557506004600282015460ff16600881111561267257612672613af0565b14155b801561269a57506005600282015460ff16600881111561269757612697613af0565b14155b806126af57506002810154610100900460ff16155b156126cd57604051635f10e00b60e01b815260040160405180910390fd5b60008681526004602090815260408083206001600160a01b0389168452909152902054421015612710576040516342beec5560e11b815260040160405180910390fd5b600061271f85620151806143b3565b61272990426143ca565b60008881526004602090815260408083206001600160a01b038b16808552925291829020839055905191925090339089907f1c795c24f232a1e8a341c63546a2631ab532f7bf10169ff1b3c74187ad48a0f1906127899086908a90614559565b60405180910390a450505050505050565b6001600160a01b03868116600090815260208190526040902054166127d2576040516319c29a3360e21b815260040160405180910390fd5b6001600160a01b03861660009081526020819052604081206002015460ff16600881111561280257612802613af0565b146128205760405163104a226f60e31b815260040160405180910390fd5b3360009081526020819052604090206001600282015460ff16600881111561284a5761284a613af0565b1415801561287157506007600282015460ff16600881111561286e5761286e613af0565b14155b8061288657506002810154610100900460ff16155b156128a457604051635f10e00b60e01b815260040160405180910390fd5b61171787878787600188886131be565b336000908152602081905260409020546001600160a01b03166128ea5760405163aba4733960e01b815260040160405180910390fd5b3360009081526020819052604081206003018054612907906143f6565b90501115612928576040516303b3cf9760e41b815260040160405180910390fd5b3360009081526020819052604090206003016129448282614478565b5060405133907f6cf02651ef9f7a72105bbc0f5800cb97cf05271672cc25280ab53491280c827e90600090a250565b61297b611924565b6001600160a01b0316336001600160a01b031614612a2e5760023360009081526020819052604090206002015460ff1660088111156129bc576129bc613af0565b1415806129e1575033600090815260208190526040902060020154610100900460ff16155b156129ff5760405163248b437160e21b815260040160405180910390fd5b336000908152600a60205260409020548114612a2e5760405163ea8e4eb560e01b815260040160405180910390fd5b6001826008811115612a4257612a42613af0565b14158015612a6257506007826008811115612a5f57612a5f613af0565b14155b15612a8057604051631b32d0dd60e11b815260040160405180910390fd5b6001600160a01b0383811660009081526020819052604090205416612ab8576040516319c29a3360e21b815260040160405180910390fd5b6001600160a01b0383166000908152600a602052604090205415612aef576040516339e5825f60e11b815260040160405180910390fd5b6001600160a01b0383166000908152602081905260409020600201805483919060ff19166001836008811115612b2757612b27613af0565b02179055506001600160a01b038316600081815260208181526040808320600201805461ff001916610100179055600a8252808320859055600b90915290819020839055518291907fb7f677009e40b63d956ecadcfcb1f65c754aa8f19532b58a315c47d23dfcbdcb90612b9c908690614572565b60405180910390a36040516001600160a01b0384169033907fbfb2fa25f828a712fda370028ecc8813c7082c69b239a579753b10e24dd472cc90600090a3505050565b612c496040518061014001604052806000815260200160608152602001606081526020016000815260200160006001600160a01b0316815260200160006001600160a01b031681526020016000151581526020016060815260200160608152602001606081525090565b612c53823361311a565b612c705760405163ea8e4eb560e01b815260040160405180910390fd5b60028281548110612c8357612c83614387565b90600052602060002090600902016040518061014001604052908160008201548152602001600182018054612cb7906143f6565b80601f0160208091040260200160405190810160405280929190818152602001828054612ce3906143f6565b8015612d305780601f10612d0557610100808354040283529160200191612d30565b820191906000526020600020905b815481529060010190602001808311612d1357829003601f168201915b50505050508152602001600282018054612d49906143f6565b80601f0160208091040260200160405190810160405280929190818152602001828054612d75906143f6565b8015612dc25780601f10612d9757610100808354040283529160200191612dc2565b820191906000526020600020905b815481529060010190602001808311612da557829003601f168201915b50505091835250506003820154602082015260048201546001600160a01b03908116604083015260058301549081166060830152600160a01b900460ff161515608082015260068201805460a090920191612e1c906143f6565b80601f0160208091040260200160405190810160405280929190818152602001828054612e48906143f6565b8015612e955780601f10612e6a57610100808354040283529160200191612e95565b820191906000526020600020905b815481529060010190602001808311612e7857829003601f168201915b50505050508152602001600782018054612eae906143f6565b80601f0160208091040260200160405190810160405280929190818152602001828054612eda906143f6565b8015612f275780601f10612efc57610100808354040283529160200191612f27565b820191906000526020600020905b815481529060010190602001808311612f0a57829003601f168201915b50505050508152602001600882018054612f40906143f6565b80601f0160208091040260200160405190810160405280929190818152602001828054612f6c906143f6565b8015612fb95780601f10612f8e57610100808354040283529160200191612fb9565b820191906000526020600020905b815481529060010190602001808311612f9c57829003601f168201915b5050505050815250509050919050565b6002548210612feb57604051633e07f1a160e01b815260040160405180910390fd5b60006002838154811061300057613000614387565b600091825260209091206005600990920201908101549091506001600160a01b0316331461304157604051635e27834560e01b815260040160405180910390fd5b60008381526004602090815260408083206001600160a01b0386168452909152812054900361308357604051639cf4448960e01b815260040160405180910390fd5b60008381526004602090815260408083206001600160a01b038616808552925280832083905551909185917f07aca9e88df76b26773787218a5664b178842e080be07be33d29f8a84853ecbc9190a3505050565b6130df61358a565b6001600160a01b03811661310e57604051631e4fbdf760e01b8152600060048201526024015b60405180910390fd5b613117816135bc565b50565b600254600090831061312e57506000611ae6565b60006002848154811061314357613143614387565b6000918252602090912060099091020160058101549091506001600160a01b0384811691161480613183575060048101546001600160a01b038481169116145b15613192576001915050611ae6565b505060009182526004602090815260408084206001600160a01b03939093168452919052902054421090565b600280546040805161014081018252828152602081018981529181018a90524260608201523360808201526001600160a01b038b1660a082015286151560c082015260e08101889052610100810186905261012081018590526001830184556000939093528251600983027f405787fa12a823e0f2b7631cc41b3ba8828b3321ca811111fa75cd3aa3bb5ace8101918255915192939290917f405787fa12a823e0f2b7631cc41b3ba8828b3321ca811111fa75cd3aa3bb5acf01906132839082614478565b50604082015160028201906132989082614478565b506060820151600382015560808201516004820180546001600160a01b0319166001600160a01b0392831617905560a083015160058301805460c0860151929093166001600160a81b031990931692909217600160a01b9115159190910217905560e0820151600682019061330d9082614478565b5061010082015160078201906133239082614478565b5061012082015160088201906133399082614478565b5050506001600160a01b038816600081815260036020908152604080832080546001810182559084528284200185905584835260048252808320848452909152808220600019908190553380845292829020555183917fb632f49a2b1091a845031e8101343ccd4984d5766d7be4c768f1217991b563c6916133c5918b918d918c918c919042906146dc565b60405180910390a35050505050505050565b306001600160a01b037f000000000000000000000000000000000000000000000000000000000000000016148061345e57507f00000000000000000000000000000000000000000000000000000000000000006001600160a01b0316613452600080516020614773833981519152546001600160a01b031690565b6001600160a01b031614155b156119005760405163703e46dd60e11b815260040160405180910390fd5b61311761358a565b816001600160a01b03166352d1902d6040518163ffffffff1660e01b8152600401602060405180830381865afa9250505080156134de575060408051601f3d908101601f191682019092526134db9181019061473d565b60015b61350657604051634c9c8ce360e01b81526001600160a01b0383166004820152602401613105565b600080516020614773833981519152811461353757604051632a87526960e21b815260048101829052602401613105565b610840838361366f565b306001600160a01b037f000000000000000000000000000000000000000000000000000000000000000016146119005760405163703e46dd60e11b815260040160405180910390fd5b33613593611924565b6001600160a01b0316146119005760405163118cdaa760e01b8152336004820152602401613105565b7f9016d09d72d40fdae2fd8ceac6b6234c7706214fd39c1cd1e609a0528c19930080546001600160a01b031981166001600160a01b03848116918217845560405192169182907f8be0079c531659141344cd1fd0a4f28419497f9722a3daafe3b4186f6b6457e090600090a3505050565b6000807ff0c57e16840df040f15088dc2f81fe391c3923bec73e23a9662efc9c229c6a00611ae6565b61365e6136c5565b613117816136ea565b6119006136c5565b613678826136fb565b6040516001600160a01b038316907fbc7cd75a20ee27fd9adebab32041f755214dbc6bffa90cc0225b39da2e5c2d3b90600090a28051156136bd576108408282613760565b6114906137d6565b6136cd6137f5565b61190057604051631afcd79f60e31b815260040160405180910390fd5b6136f26136c5565b6131178161380f565b806001600160a01b03163b60000361373157604051634c9c8ce360e01b81526001600160a01b0382166004820152602401613105565b60008051602061477383398151915280546001600160a01b0319166001600160a01b0392909216919091179055565b6060600080846001600160a01b03168460405161377d9190614756565b600060405180830381855af49150503d80600081146137b8576040519150601f19603f3d011682016040523d82523d6000602084013e6137bd565b606091505b50915091506137cd858383613820565b95945050505050565b34156119005760405163b398979f60e01b815260040160405180910390fd5b60006137ff61362d565b54600160401b900460ff16919050565b6138176136c5565b6131178161387f565b6060826138355761383082613887565b613878565b815115801561384c57506001600160a01b0384163b155b1561387557604051639996b31560e01b81526001600160a01b0385166004820152602401613105565b50805b9392505050565b6130df6136c5565b80511561389657805160208201fd5b60405163d6bda27560e01b815260040160405180910390fd5b634e487b7160e01b600052604160045260246000fd5b604051601f8201601f191681016001600160401b03811182821017156138ed576138ed6138af565b604052919050565b600082601f83011261390657600080fd5b81356001600160401b0381111561391f5761391f6138af565b613932601f8201601f19166020016138c5565b81815284602083860101111561394757600080fd5b816020850160208301376000918101602001919091529392505050565b60008060006060848603121561397957600080fd5b83356001600160401b038082111561399057600080fd5b61399c878388016138f5565b945060208601359150808211156139b257600080fd5b6139be878388016138f5565b935060408601359150808211156139d457600080fd5b506139e1868287016138f5565b9150509250925092565b600080604083850312156139fe57600080fd5b50508035926020909101359150565b80356001600160a01b0381168114613a2457600080fd5b919050565b60008060408385031215613a3c57600080fd5b613a4583613a0d565b915060208301356001600160401b03811115613a6057600080fd5b613a6c858286016138f5565b9150509250929050565b60008060408385031215613a8957600080fd5b613a9283613a0d565b946020939093013593505050565b60005b83811015613abb578181015183820152602001613aa3565b50506000910152565b60008151808452613adc816020860160208601613aa0565b601f01601f19169290920160200192915050565b634e487b7160e01b600052602160045260246000fd5b60038110613b1657613b16613af0565b9052565b8581526001600160a01b0385811660208301528416604082015260a060608201819052600090613b4c90830185613ac4565b9050613b5b6080830184613b06565b9695505050505050565b600060208284031215613b7757600080fd5b61387882613a0d565b606081526000613b936060830186613ac4565b8281036020840152613ba58186613ac4565b90508281036040840152613b5b8185613ac4565b803560098110613a2457600080fd5b60008060408385031215613bdb57600080fd5b82356001600160401b03811115613bf157600080fd5b613bfd858286016138f5565b925050613c0c60208401613bb9565b90509250929050565b600060208284031215613c2757600080fd5b5035919050565b60006101408c8352806020840152613c488184018d613ac4565b90508281036040840152613c5c818c613ac4565b606084018b90526001600160a01b038a81166080860152891660a085015287151560c085015283810360e08501529050613c968187613ac4565b9050828103610100840152613cab8186613ac4565b9050828103610120840152613cc08185613ac4565b9d9c50505050505050505050505050565b60006001600160401b03821115613cea57613cea6138af565b5060051b60200190565b600082601f830112613d0557600080fd5b81356020613d1a613d1583613cd1565b6138c5565b82815260059290921b84018101918181019086841115613d3957600080fd5b8286015b84811015613d785780356001600160401b03811115613d5c5760008081fd5b613d6a8986838b01016138f5565b845250918301918301613d3d565b509695505050505050565b60008060008060808587031215613d9957600080fd5b84356001600160401b0380821115613db057600080fd5b818701915087601f830112613dc457600080fd5b81356020613dd4613d1583613cd1565b82815260059290921b8401810191818101908b841115613df357600080fd5b948201945b83861015613e1157853582529482019490820190613df8565b9850613e209050898201613a0d565b96505050604087013593506060870135915080821115613e3f57600080fd5b50613e4c87828801613cf4565b91505092959194509250565b6020808252825182820181905260009190848201906040850190845b81811015613e9057835183529284019291840191600101613e74565b50909695505050505050565b848152608060208201526000613eb56080830186613ac4565b6001600160a01b038516604084015290506137cd6060830184613b06565b848152608060208201526000613eec6080830186613ac4565b6001600160a01b039490941660408301525090151560609091015292915050565b60208152815160208201526000602083015160018060a01b0380821660408501528060408601511660608501525050606083015160a06080840152613f5560c0840182613ac4565b90506080840151613f6960a0850182613b06565b509392505050565b600060208284031215613f8357600080fd5b81356001600160401b03811115613f9957600080fd5b613fa5848285016138f5565b949350505050565b60098110613b1657613b16613af0565b6001600160a01b038616815260a060208201819052600090613fe190830187613ac4565b613fee6040840187613fad565b841515606084015282810360808401526140088185613ac4565b98975050505050505050565b6020815260006138786020830184613ac4565b60008060006060848603121561403c57600080fd5b61404584613a0d565b925061405360208501613bb9565b9150604084013590509250925092565b60008083601f84011261407557600080fd5b5081356001600160401b0381111561408c57600080fd5b6020830191508360208285010111156140a457600080fd5b9250929050565b600080600080600080606087890312156140c457600080fd5b86356001600160401b03808211156140db57600080fd5b6140e78a838b01614063565b9098509650602089013591508082111561410057600080fd5b61410c8a838b01614063565b9096509450604089013591508082111561412557600080fd5b5061413289828a01614063565b979a9699509497509295939492505050565b6000806040838503121561415757600080fd5b82359150613c0c60208401613a0d565b6000806000806080858703121561417d57600080fd5b8435935061418d60208601613a0d565b92506040850135915060608501356001600160401b038111156141af57600080fd5b613e4c878288016138f5565b60008060008060008060c087890312156141d457600080fd5b6141dd87613a0d565b955060208701356001600160401b03808211156141f957600080fd5b6142058a838b016138f5565b9650604089013591508082111561421b57600080fd5b6142278a838b016138f5565b9550606089013591508082111561423d57600080fd5b6142498a838b016138f5565b9450608089013591508082111561425f57600080fd5b61426b8a838b016138f5565b935060a089013591508082111561428157600080fd5b5061428e89828a016138f5565b9150509295509295509295565b6020815281516020820152600060208301516101408060408501526142c4610160850183613ac4565b91506040850151601f19808685030160608701526142e28483613ac4565b9350606087015160808701526080870151915061430a60a08701836001600160a01b03169052565b60a08701516001600160a01b03811660c0880152915060c087015180151560e0880152915060e0870151915061010081878603018188015261434c8584613ac4565b94508088015192505061012081878603018188015261436b8584613ac4565b908801518782039092018488015293509050613b5b8382613ac4565b634e487b7160e01b600052603260045260246000fd5b634e487b7160e01b600052601160045260246000fd5b8082028115828204841417611ae657611ae661439d565b80820180821115611ae657611ae661439d565b6000600182016143ef576143ef61439d565b5060010190565b600181811c9082168061440a57607f821691505b60208210810361442a57634e487b7160e01b600052602260045260246000fd5b50919050565b601f821115610840576000816000526020600020601f850160051c810160208610156144595750805b601f850160051c820191505b8181101561255157828155600101614465565b81516001600160401b03811115614491576144916138af565b6144a58161449f84546143f6565b84614430565b602080601f8311600181146144da57600084156144c25750858301515b600019600386901b1c1916600185901b178555612551565b600085815260208120601f198616915b82811015614509578886015182559484019460019091019084016144ea565b50858210156145275787850151600019600388901b60f8161c191681555b5050505050600190811b01905550565b60408152600061454a6040830185613ac4565b90506138786020830184613fad565b828152604060208201526000613fa56040830184613ac4565b60208101611ae68284613fad565b6001600160401b03831115614597576145976138af565b6145ab836145a583546143f6565b83614430565b6000601f8411600181146145df57600085156145c75750838201355b600019600387901b1c1916600186901b178355614639565b600083815260209020601f19861690835b8281101561461057868501358255602094850194600190920191016145f0565b508682101561462d5760001960f88860031b161c19848701351681555b505060018560011b0183555b5050505050565b81835281816020850137506000828201602090810191909152601f909101601f19169091010190565b60608152600061467d60608301888a614640565b8281036020840152614690818789614640565b905082810360408401526146a5818587614640565b9998505050505050505050565b60408082526005908201526420b236b4b760d91b606082015260808101611ae66020830184613fad565b60c0815260006146ef60c0830189613ac4565b82810360208401526147018189613ac4565b905082810360408401526147158188613ac4565b951515606084015250506001600160a01b0392909216608083015260a0909101529392505050565b60006020828403121561474f57600080fd5b5051919050565b60008251614768818460208701613aa0565b919091019291505056fe360894a13ba1a3210667c828492db98dca3e2076cc3735a920a3ca505d382bbca2646970667358221220f9deaed6668bd064a9c39585a73c8f17e193a05ffbe3de62bb65202bc9597dcf64736f6c63430008180033",
  "linkReferences": {},
  "deployedLinkReferences": {}
}