{
  "_format": "hh-sol-artifact-1",
  "contractName": "MedicalRecords",
  "sourceName": "contracts/MedicalRecords.sol",
  "abi": [
    {
      "inputs": [],
      "stateMutability": "nonpayable",
      "type": "constructor"
    },
    {
      "inputs": [],
      "name": "AccessAlreadyGranted",
      "type": "error"
    },
    {
      "inputs": [
        {
          "internalType": "address",
          "name": "target",
          "type": "address"
        }
      ],
      "name": "AddressEmptyCode",
      "type": "error"
    },
    {
      "inputs": [],
      "name": "AlreadyRegistered",
      "type": "error"
    },
    {
      "inputs": [],
      "name": "CannotRegisterAsAdmin",
      "type": "error"
    },
    {
      "inputs": [
        {
          "internalType": "address",
          "name": "implementation",
          "type": "address"
        }
      ],
      "name": "ERC1967InvalidImplementation",
      "type": "error"
    },
    {
      "inputs": [],
      "name": "ERC1967NonPayable",
      "type": "error"
    },
    {
      "inputs": [],
      "name": "EmptyInputArray",
      "type": "error"
    },
    {
      "inputs": [],
      "name": "FailedCall",
      "type": "error"
    },
    {
      "inputs": [],
      "name": "HospitalNotVerified",
      "type": "error"
    },
    {
      "inputs": [],
      "name": "InputArrayLengthMismatch",
      "type": "error"
    },
    {
      "inputs": [],
      "name": "InvalidInitialization",
      "type": "error"
    },
    {
      "inputs": [],
      "name": "NoAccessToRevoke",
      "type": "error"
    },
    {
      "inputs": [],
      "name": "NotAPatient",
      "type": "error"
    },
    {
      "inputs": [],
      "name": "NotAVerifiedProfessional",
      "type": "error"
    },
    {
      "inputs": [],
      "name": "NotAnInsuranceProvider",
      "type": "error"
    },
    {
      "inputs": [],
      "name": "NotAuthorized",
      "type": "error"
    },
    {
      "inputs": [],
      "name": "NotHospitalAdmin",
      "type": "error"
    },
    {
      "inputs": [],
      "name": "NotInitializing",
      "type": "error"
    },
    {
      "inputs": [],
      "name": "NotRecordOwner",
      "type": "error"
    },
    {
      "inputs": [],
      "name": "NotRegistered",
      "type": "error"
    },
    {
      "inputs": [],
      "name": "NotSuperAdmin",
      "type": "error"
    },
    {
      "inputs": [
        {
          "internalType": "address",
          "name": "owner",
          "type": "address"
        }
      ],
      "name": "OwnableInvalidOwner",
      "type": "error"
    },
    {
      "inputs": [
        {
          "internalType": "address",
          "name": "account",
          "type": "address"
        }
      ],
      "name": "OwnableUnauthorizedAccount",
      "type": "error"
    },
    {
      "inputs": [],
      "name": "PublicKeyAlreadySet",
      "type": "error"
    },
    {
      "inputs": [],
      "name": "RecordNotFound",
      "type": "error"
    },
    {
      "inputs": [],
      "name": "RequestNotFound",
      "type": "error"
    },
    {
      "inputs": [],
      "name": "RequestNotFoundOrAlreadyHandled",
      "type": "error"
    },
    {
      "inputs": [],
      "name": "RoleNotAllowed",
      "type": "error"
    },
    {
      "inputs": [],
      "name": "UUPSUnauthorizedCallContext",
      "type": "error"
    },
    {
      "inputs": [
        {
          "internalType": "bytes32",
          "name": "slot",
          "type": "bytes32"
        }
      ],
      "name": "UUPSUnsupportedProxiableUUID",
      "type": "error"
    },
    {
      "inputs": [],
      "name": "UserAlreadyInHospital",
      "type": "error"
    },
    {
      "inputs": [],
      "name": "UserNotFound",
      "type": "error"
    },
    {
      "inputs": [],
      "name": "UserNotInHospital",
      "type": "error"
    },
    {
      "anonymous": false,
      "inputs": [
        {
          "indexed": true,
          "internalType": "uint256",
          "name": "recordId",
          "type": "uint256"
        },
        {
          "indexed": true,
          "internalType": "address",
          "name": "owner",
          "type": "address"
        },
        {
          "indexed": true,
          "internalType": "address",
          "name": "grantee",
          "type": "address"
        },
        {
          "indexed": false,
          "internalType": "uint256",
          "name": "expiration",
          "type": "uint256"
        },
        {
          "indexed": false,
          "internalType": "bytes",
          "name": "encryptedDek",
          "type": "bytes"
        }
      ],
      "name": "AccessGranted",
      "type": "event"
    },
    {
      "anonymous": false,
      "inputs": [
        {
          "indexed": true,
          "internalType": "uint256",
          "name": "requestId",
          "type": "uint256"
        },
        {
          "indexed": true,
          "internalType": "address",
          "name": "patient",
          "type": "address"
        },
        {
          "indexed": true,
          "internalType": "address",
          "name": "provider",
          "type": "address"
        },
        {
          "indexed": false,
          "internalType": "string",
          "name": "claimId",
          "type": "string"
        }
      ],
      "name": "AccessRequested",
      "type": "event"
    },
    {
      "anonymous": false,
      "inputs": [
        {
          "indexed": true,
          "internalType": "address",
          "name": "patient",
          "type": "address"
        },
        {
          "indexed": true,
          "internalType": "address",
          "name": "professional",
          "type": "address"
        },
        {
          "indexed": false,
          "internalType": "uint256[]",
          "name": "recordIds",
          "type": "uint256[]"
        }
      ],
      "name": "AccessRevoked",
      "type": "event"
    },
    {
      "anonymous": false,
      "inputs": [
        {
          "indexed": true,
          "internalType": "uint256",
          "name": "hospitalId",
          "type": "uint256"
        }
      ],
      "name": "HospitalRevoked",
      "type": "event"
    },
    {
      "anonymous": false,
      "inputs": [
        {
          "indexed": true,
          "internalType": "uint256",
          "name": "hospitalId",
          "type": "uint256"
        },
        {
          "indexed": true,
          "internalType": "address",
          "name": "adminAddress",
          "type": "address"
        }
      ],
      "name": "HospitalVerified",
      "type": "event"
    },
    {
      "anonymous": false,
      "inputs": [
        {
          "indexed": false,
          "internalType": "uint64",
          "name": "version",
          "type": "uint64"
        }
      ],
      "name": "Initialized",
      "type": "event"
    },
    {
      "anonymous": false,
      "inputs": [
        {
          "indexed": true,
          "internalType": "address",
          "name": "previousOwner",
          "type": "address"
        },
        {
          "indexed": true,
          "internalType": "address",
          "name": "newOwner",
          "type": "address"
        }
      ],
      "name": "OwnershipTransferred",
      "type": "event"
    },
    {
      "anonymous": false,
      "inputs": [
        {
          "indexed": true,
          "internalType": "uint256",
          "name": "requestId",
          "type": "uint256"
        },
        {
          "indexed": false,
          "internalType": "uint256[]",
          "name": "recordIds",
          "type": "uint256[]"
        },
        {
          "indexed": true,
          "internalType": "address",
          "name": "professional",
          "type": "address"
        },
        {
          "indexed": true,
          "internalType": "address",
          "name": "patient",
          "type": "address"
        }
      ],
      "name": "ProfessionalAccessRequested",
      "type": "event"
    },
    {
      "anonymous": false,
      "inputs": [
        {
          "indexed": true,
          "internalType": "address",
          "name": "user",
          "type": "address"
        },
        {
          "indexed": false,
          "internalType": "string",
          "name": "name",
          "type": "string"
        },
        {
          "indexed": false,
          "internalType": "string",
          "name": "contactInfo",
          "type": "string"
        },
        {
          "indexed": false,
          "internalType": "string",
          "name": "profileMetadataURI",
          "type": "string"
        }
      ],
      "name": "ProfileUpdated",
      "type": "event"
    },
    {
      "anonymous": false,
      "inputs": [
        {
          "indexed": true,
          "internalType": "address",
          "name": "user",
          "type": "address"
        }
      ],
      "name": "PublicKeySaved",
      "type": "event"
    },
    {
      "anonymous": false,
      "inputs": [
        {
          "indexed": true,
          "internalType": "uint256",
          "name": "recordId",
          "type": "uint256"
        },
        {
          "indexed": true,
          "internalType": "address",
          "name": "professionalAddress",
          "type": "address"
        }
      ],
      "name": "RecordAccessRevoked",
      "type": "event"
    },
    {
      "anonymous": false,
      "inputs": [
        {
          "indexed": true,
          "internalType": "uint256",
          "name": "recordId",
          "type": "uint256"
        },
        {
          "indexed": true,
          "internalType": "address",
          "name": "owner",
          "type": "address"
        },
        {
          "indexed": false,
          "internalType": "string",
          "name": "title",
          "type": "string"
        },
        {
          "indexed": false,
          "internalType": "string",
          "name": "ipfsHash",
          "type": "string"
        },
        {
          "indexed": false,
          "internalType": "string",
          "name": "category",
          "type": "string"
        },
        {
          "indexed": false,
          "internalType": "bool",
          "name": "isVerified",
          "type": "bool"
        },
        {
          "indexed": false,
          "internalType": "address",
          "name": "uploadedBy",
          "type": "address"
        },
        {
          "indexed": false,
          "internalType": "uint256",
          "name": "timestamp",
          "type": "uint256"
        }
      ],
      "name": "RecordAdded",
      "type": "event"
    },
    {
      "anonymous": false,
      "inputs": [
        {
          "indexed": true,
          "internalType": "uint256",
          "name": "hospitalId",
          "type": "uint256"
        },
        {
          "indexed": false,
          "internalType": "string",
          "name": "name",
          "type": "string"
        },
        {
          "indexed": true,
          "internalType": "address",
          "name": "requester",
          "type": "address"
        }
      ],
      "name": "RegistrationRequested",
      "type": "event"
    },
    {
      "anonymous": false,
      "inputs": [
        {
          "indexed": true,
          "internalType": "uint256",
          "name": "requestId",
          "type": "uint256"
        },
        {
          "indexed": true,
          "internalType": "address",
          "name": "patient",
          "type": "address"
        },
        {
          "indexed": false,
          "internalType": "uint256",
          "name": "accessDuration",
          "type": "uint256"
        }
      ],
      "name": "RequestApproved",
      "type": "event"
    },
    {
      "anonymous": false,
      "inputs": [
        {
          "indexed": true,
          "internalType": "address",
          "name": "user",
          "type": "address"
        },
        {
          "indexed": false,
          "internalType": "enum Storage.Role",
          "name": "role",
          "type": "uint8"
        },
        {
          "indexed": true,
          "internalType": "uint256",
          "name": "hospitalId",
          "type": "uint256"
        }
      ],
      "name": "RoleAssigned",
      "type": "event"
    },
    {
      "anonymous": false,
      "inputs": [
        {
          "indexed": true,
          "internalType": "address",
          "name": "user",
          "type": "address"
        },
        {
          "indexed": false,
          "internalType": "enum Storage.Role",
          "name": "role",
          "type": "uint8"
        },
        {
          "indexed": true,
          "internalType": "uint256",
          "name": "hospitalId",
          "type": "uint256"
        }
      ],
      "name": "RoleRevoked",
      "type": "event"
    },
    {
      "anonymous": false,
      "inputs": [
        {
          "indexed": true,
          "internalType": "address",
          "name": "implementation",
          "type": "address"
        }
      ],
      "name": "Upgraded",
      "type": "event"
    },
    {
      "anonymous": false,
      "inputs": [
        {
          "indexed": true,
          "internalType": "address",
          "name": "userAddress",
          "type": "address"
        },
        {
          "indexed": false,
          "internalType": "string",
          "name": "name",
          "type": "string"
        },
        {
          "indexed": false,
          "internalType": "enum Storage.Role",
          "name": "role",
          "type": "uint8"
        }
      ],
      "name": "UserRegistered",
      "type": "event"
    },
    {
      "anonymous": false,
      "inputs": [
        {
          "indexed": true,
          "internalType": "address",
          "name": "admin",
          "type": "address"
        },
        {
          "indexed": true,
          "internalType": "address",
          "name": "userAddress",
          "type": "address"
        }
      ],
      "name": "UserVerified",
      "type": "event"
    },
    {
      "inputs": [],
      "name": "UPGRADE_INTERFACE_VERSION",
      "outputs": [
        {
          "internalType": "string",
          "name": "",
          "type": "string"
        }
      ],
      "stateMutability": "view",
      "type": "function"
    },
    {
      "inputs": [
        {
          "internalType": "string",
          "name": "_ipfsHash",
          "type": "string"
        },
        {
          "internalType": "string",
          "name": "_title",
          "type": "string"
        },
        {
          "internalType": "string",
          "name": "_category",
          "type": "string"
        }
      ],
      "name": "addSelfUploadedRecord",
      "outputs": [],
      "stateMutability": "nonpayable",
      "type": "function"
    },
    {
      "inputs": [
        {
          "internalType": "address",
          "name": "_patient",
          "type": "address"
        },
        {
          "internalType": "string",
          "name": "_ipfsHash",
          "type": "string"
        },
        {
          "internalType": "string",
          "name": "_title",
          "type": "string"
        },
        {
          "internalType": "string",
          "name": "_category",
          "type": "string"
        },
        {
          "internalType": "bytes",
          "name": "_encryptedKeyForPatient",
          "type": "bytes"
        },
        {
          "internalType": "bytes",
          "name": "_encryptedKeyForHospital",
          "type": "bytes"
        }
      ],
      "name": "addVerifiedRecord",
      "outputs": [],
      "stateMutability": "nonpayable",
      "type": "function"
    },
    {
      "inputs": [
        {
          "internalType": "uint256",
          "name": "_requestId",
          "type": "uint256"
        },
        {
          "internalType": "uint256",
          "name": "_durationInDays",
          "type": "uint256"
        }
      ],
      "name": "approveRequest",
      "outputs": [],
      "stateMutability": "nonpayable",
      "type": "function"
    },
    {
      "inputs": [
        {
          "internalType": "address",
          "name": "user",
          "type": "address"
        },
        {
          "internalType": "enum Storage.Role",
          "name": "role",
          "type": "uint8"
        },
        {
          "internalType": "uint256",
          "name": "hospitalId",
          "type": "uint256"
        }
      ],
      "name": "assignRole",
      "outputs": [],
      "stateMutability": "nonpayable",
      "type": "function"
    },
    {
      "inputs": [
        {
          "internalType": "uint256",
          "name": "_recordId",
          "type": "uint256"
        },
        {
          "internalType": "address",
          "name": "_viewer",
          "type": "address"
        }
      ],
      "name": "checkRecordAccess",
      "outputs": [
        {
          "internalType": "bool",
          "name": "",
          "type": "bool"
        }
      ],
      "stateMutability": "view",
      "type": "function"
    },
    {
      "inputs": [
        {
          "internalType": "address",
          "name": "_patientAddress",
          "type": "address"
        }
      ],
      "name": "getPatientRecordIds",
      "outputs": [
        {
          "internalType": "uint256[]",
          "name": "",
          "type": "uint256[]"
        }
      ],
      "stateMutability": "view",
      "type": "function"
    },
    {
      "inputs": [
        {
          "internalType": "address",
          "name": "_patientAddress",
          "type": "address"
        },
        {
          "internalType": "uint256",
          "name": "_index",
          "type": "uint256"
        }
      ],
      "name": "getPatientRequestAtIndex",
      "outputs": [
        {
          "components": [
            {
              "internalType": "uint256",
              "name": "id",
              "type": "uint256"
            },
            {
              "internalType": "address",
              "name": "patient",
              "type": "address"
            },
            {
              "internalType": "address",
              "name": "provider",
              "type": "address"
            },
            {
              "internalType": "string",
              "name": "claimId",
              "type": "string"
            },
            {
              "internalType": "enum Storage.RequestStatus",
              "name": "status",
              "type": "uint8"
            }
          ],
          "internalType": "struct Storage.AccessRequest",
          "name": "",
          "type": "tuple"
        }
      ],
      "stateMutability": "view",
      "type": "function"
    },
    {
      "inputs": [
        {
          "internalType": "address",
          "name": "_patientAddress",
          "type": "address"
        }
      ],
      "name": "getPatientRequestsCount",
      "outputs": [
        {
          "internalType": "uint256",
          "name": "",
          "type": "uint256"
        }
      ],
      "stateMutability": "view",
      "type": "function"
    },
    {
      "inputs": [
        {
          "internalType": "uint256",
          "name": "_recordId",
          "type": "uint256"
        }
      ],
      "name": "getRecordById",
      "outputs": [
        {
          "components": [
            {
              "internalType": "uint256",
              "name": "id",
              "type": "uint256"
            },
            {
              "internalType": "string",
              "name": "title",
              "type": "string"
            },
            {
              "internalType": "string",
              "name": "ipfsHash",
              "type": "string"
            },
            {
              "internalType": "uint256",
              "name": "timestamp",
              "type": "uint256"
            },
            {
              "internalType": "address",
              "name": "uploadedBy",
              "type": "address"
            },
            {
              "internalType": "address",
              "name": "owner",
              "type": "address"
            },
            {
              "internalType": "bool",
              "name": "isVerified",
              "type": "bool"
            },
            {
              "internalType": "string",
              "name": "category",
              "type": "string"
            },
            {
              "internalType": "bytes",
              "name": "encryptedKeyForPatient",
              "type": "bytes"
            },
            {
              "internalType": "bytes",
              "name": "encryptedKeyForHospital",
              "type": "bytes"
            }
          ],
          "internalType": "struct Storage.Record",
          "name": "",
          "type": "tuple"
        }
      ],
      "stateMutability": "view",
      "type": "function"
    },
    {
      "inputs": [
        {
          "internalType": "uint256[]",
          "name": "_recordIds",
          "type": "uint256[]"
        },
        {
          "internalType": "address",
          "name": "_grantee",
          "type": "address"
        },
        {
          "internalType": "uint256",
          "name": "_durationInDays",
          "type": "uint256"
        },
        {
          "internalType": "bytes[]",
          "name": "_encryptedDeks",
          "type": "bytes[]"
        }
      ],
      "name": "grantMultipleRecordAccess",
      "outputs": [],
      "stateMutability": "nonpayable",
      "type": "function"
    },
    {
      "inputs": [
        {
          "internalType": "uint256",
          "name": "_recordId",
          "type": "uint256"
        },
        {
          "internalType": "address",
          "name": "_grantee",
          "type": "address"
        },
        {
          "internalType": "uint256",
          "name": "_durationInDays",
          "type": "uint256"
        },
        {
          "internalType": "bytes",
          "name": "_encryptedDek",
          "type": "bytes"
        }
      ],
      "name": "grantRecordAccess",
      "outputs": [],
      "stateMutability": "nonpayable",
      "type": "function"
    },
    {
      "inputs": [],
      "name": "hospitalIdCounter",
      "outputs": [
        {
          "internalType": "uint256",
          "name": "",
          "type": "uint256"
        }
      ],
      "stateMutability": "view",
      "type": "function"
    },
    {
      "inputs": [
        {
          "internalType": "uint256",
          "name": "",
          "type": "uint256"
        }
      ],
      "name": "hospitals",
      "outputs": [
        {
          "internalType": "uint256",
          "name": "hospitalId",
          "type": "uint256"
        },
        {
          "internalType": "string",
          "name": "name",
          "type": "string"
        },
        {
          "internalType": "address",
          "name": "adminAddress",
          "type": "address"
        },
        {
          "internalType": "bool",
          "name": "isVerified",
          "type": "bool"
        }
      ],
      "stateMutability": "view",
      "type": "function"
    },
    {
      "inputs": [
        {
          "internalType": "address",
          "name": "initialOwner",
          "type": "address"
        }
      ],
      "name": "initialize",
      "outputs": [],
      "stateMutability": "nonpayable",
      "type": "function"
    },
    {
      "inputs": [],
      "name": "owner",
      "outputs": [
        {
          "internalType": "address",
          "name": "",
          "type": "address"
        }
      ],
      "stateMutability": "view",
      "type": "function"
    },
    {
      "inputs": [
        {
          "internalType": "address",
          "name": "",
          "type": "address"
        },
        {
          "internalType": "uint256",
          "name": "",
          "type": "uint256"
        }
      ],
      "name": "patientRecordIds",
      "outputs": [
        {
          "internalType": "uint256",
          "name": "",
          "type": "uint256"
        }
      ],
      "stateMutability": "view",
      "type": "function"
    },
    {
      "inputs": [
        {
          "internalType": "address",
          "name": "",
          "type": "address"
        },
        {
          "internalType": "uint256",
          "name": "",
          "type": "uint256"
        }
      ],
      "name": "patientRequests",
      "outputs": [
        {
          "internalType": "uint256",
          "name": "id",
          "type": "uint256"
        },
        {
          "internalType": "address",
          "name": "patient",
          "type": "address"
        },
        {
          "internalType": "address",
          "name": "provider",
          "type": "address"
        },
        {
          "internalType": "string",
          "name": "claimId",
          "type": "string"
        },
        {
          "internalType": "enum Storage.RequestStatus",
          "name": "status",
          "type": "uint8"
        }
      ],
      "stateMutability": "view",
      "type": "function"
    },
    {
      "inputs": [
        {
          "internalType": "address",
          "name": "",
          "type": "address"
        }
      ],
      "name": "professionalToHospitalId",
      "outputs": [
        {
          "internalType": "uint256",
          "name": "",
          "type": "uint256"
        }
      ],
      "stateMutability": "view",
      "type": "function"
    },
    {
      "inputs": [],
      "name": "proxiableUUID",
      "outputs": [
        {
          "internalType": "bytes32",
          "name": "",
          "type": "bytes32"
        }
      ],
      "stateMutability": "view",
      "type": "function"
    },
    {
      "inputs": [
        {
          "internalType": "uint256",
          "name": "",
          "type": "uint256"
        },
        {
          "internalType": "address",
          "name": "",
          "type": "address"
        }
      ],
      "name": "recordAccess",
      "outputs": [
        {
          "internalType": "uint256",
          "name": "",
          "type": "uint256"
        }
      ],
      "stateMutability": "view",
      "type": "function"
    },
    {
      "inputs": [
        {
          "internalType": "uint256",
          "name": "",
          "type": "uint256"
        }
      ],
      "name": "records",
      "outputs": [
        {
          "internalType": "uint256",
          "name": "id",
          "type": "uint256"
        },
        {
          "internalType": "string",
          "name": "title",
          "type": "string"
        },
        {
          "internalType": "string",
          "name": "ipfsHash",
          "type": "string"
        },
        {
          "internalType": "uint256",
          "name": "timestamp",
          "type": "uint256"
        },
        {
          "internalType": "address",
          "name": "uploadedBy",
          "type": "address"
        },
        {
          "internalType": "address",
          "name": "owner",
          "type": "address"
        },
        {
          "internalType": "bool",
          "name": "isVerified",
          "type": "bool"
        },
        {
          "internalType": "string",
          "name": "category",
          "type": "string"
        },
        {
          "internalType": "bytes",
          "name": "encryptedKeyForPatient",
          "type": "bytes"
        },
        {
          "internalType": "bytes",
          "name": "encryptedKeyForHospital",
          "type": "bytes"
        }
      ],
      "stateMutability": "view",
      "type": "function"
    },
    {
      "inputs": [
        {
          "internalType": "string",
          "name": "_name",
          "type": "string"
        },
        {
          "internalType": "enum Storage.Role",
          "name": "_role",
          "type": "uint8"
        }
      ],
      "name": "registerUser",
      "outputs": [],
      "stateMutability": "nonpayable",
      "type": "function"
    },
    {
      "inputs": [
        {
          "internalType": "uint256",
          "name": "",
          "type": "uint256"
        }
      ],
      "name": "registrationRequests",
      "outputs": [
        {
          "internalType": "uint256",
          "name": "hospitalId",
          "type": "uint256"
        },
        {
          "internalType": "string",
          "name": "name",
          "type": "string"
        },
        {
          "internalType": "address",
          "name": "requesterAddress",
          "type": "address"
        },
        {
          "internalType": "enum Storage.RequestStatus",
          "name": "status",
          "type": "uint8"
        }
      ],
      "stateMutability": "view",
      "type": "function"
    },
    {
      "inputs": [],
      "name": "renounceOwnership",
      "outputs": [],
      "stateMutability": "nonpayable",
      "type": "function"
    },
    {
      "inputs": [
        {
          "internalType": "address",
          "name": "_patientAddress",
          "type": "address"
        },
        {
          "internalType": "string",
          "name": "_claimId",
          "type": "string"
        }
      ],
      "name": "requestAccess",
      "outputs": [],
      "stateMutability": "nonpayable",
      "type": "function"
    },
    {
      "inputs": [
        {
          "internalType": "address",
          "name": "_patient",
          "type": "address"
        },
        {
          "internalType": "uint256[]",
          "name": "_recordIds",
          "type": "uint256[]"
        }
      ],
      "name": "requestRecordAccess",
      "outputs": [],
      "stateMutability": "nonpayable",
      "type": "function"
    },
    {
      "inputs": [
        {
          "internalType": "string",
          "name": "hospitalName",
          "type": "string"
        }
      ],
      "name": "requestRegistration",
      "outputs": [],
      "stateMutability": "nonpayable",
      "type": "function"
    },
    {
      "inputs": [
        {
          "internalType": "uint256",
          "name": "hospitalId",
          "type": "uint256"
        }
      ],
      "name": "revokeHospital",
      "outputs": [],
      "stateMutability": "nonpayable",
      "type": "function"
    },
    {
      "inputs": [
        {
          "internalType": "address",
          "name": "professional",
          "type": "address"
        },
        {
          "internalType": "uint256[]",
          "name": "recordIds",
          "type": "uint256[]"
        }
      ],
      "name": "revokeMultipleRecordAccess",
      "outputs": [],
      "stateMutability": "nonpayable",
      "type": "function"
    },
    {
      "inputs": [
        {
          "internalType": "uint256",
          "name": "recordId",
          "type": "uint256"
        },
        {
          "internalType": "address",
          "name": "professionalAddress",
          "type": "address"
        }
      ],
      "name": "revokeRecordAccess",
      "outputs": [],
      "stateMutability": "nonpayable",
      "type": "function"
    },
    {
      "inputs": [
        {
          "internalType": "address",
          "name": "user",
          "type": "address"
        },
        {
          "internalType": "enum Storage.Role",
          "name": "role",
          "type": "uint8"
        },
        {
          "internalType": "uint256",
          "name": "hospitalId",
          "type": "uint256"
        }
      ],
      "name": "revokeRole",
      "outputs": [],
      "stateMutability": "nonpayable",
      "type": "function"
    },
    {
      "inputs": [
        {
          "internalType": "string",
          "name": "_publicKey",
          "type": "string"
        }
      ],
      "name": "savePublicKey",
      "outputs": [],
      "stateMutability": "nonpayable",
      "type": "function"
    },
    {
      "inputs": [
        {
          "internalType": "address",
          "name": "newOwner",
          "type": "address"
        }
      ],
      "name": "transferOwnership",
      "outputs": [],
      "stateMutability": "nonpayable",
      "type": "function"
    },
    {
      "inputs": [
        {
          "internalType": "string",
          "name": "_name",
          "type": "string"
        },
        {
          "internalType": "string",
          "name": "_contactInfo",
          "type": "string"
        },
        {
          "internalType": "string",
          "name": "_profileMetadataURI",
          "type": "string"
        }
      ],
      "name": "updateUserProfile",
      "outputs": [],
      "stateMutability": "nonpayable",
      "type": "function"
    },
    {
      "inputs": [
        {
          "internalType": "address",
          "name": "newImplementation",
          "type": "address"
        },
        {
          "internalType": "bytes",
          "name": "data",
          "type": "bytes"
        }
      ],
      "name": "upgradeToAndCall",
      "outputs": [],
      "stateMutability": "payable",
      "type": "function"
    },
    {
      "inputs": [
        {
          "internalType": "address",
          "name": "",
          "type": "address"
        }
      ],
      "name": "userProfiles",
      "outputs": [
        {
          "internalType": "string",
          "name": "name",
          "type": "string"
        },
        {
          "internalType": "string",
          "name": "contactInfo",
          "type": "string"
        },
        {
          "internalType": "string",
          "name": "profileMetadataURI",
          "type": "string"
        }
      ],
      "stateMutability": "view",
      "type": "function"
    },
    {
      "inputs": [
        {
          "internalType": "address",
          "name": "",
          "type": "address"
        }
      ],
      "name": "userToHospital",
      "outputs": [
        {
          "internalType": "uint256",
          "name": "",
          "type": "uint256"
        }
      ],
      "stateMutability": "view",
      "type": "function"
    },
    {
      "inputs": [
        {
          "internalType": "address",
          "name": "",
          "type": "address"
        }
      ],
      "name": "users",
      "outputs": [
        {
          "internalType": "address",
          "name": "walletAddress",
          "type": "address"
        },
        {
          "internalType": "string",
          "name": "name",
          "type": "string"
        },
        {
          "internalType": "enum Storage.Role",
          "name": "role",
          "type": "uint8"
        },
        {
          "internalType": "bool",
          "name": "isVerified",
          "type": "bool"
        },
        {
          "internalType": "string",
          "name": "publicKey",
          "type": "string"
        }
      ],
      "stateMutability": "view",
      "type": "function"
    },
    {
      "inputs": [
        {
          "internalType": "uint256",
          "name": "hospitalId",
          "type": "uint256"
        },
        {
          "internalType": "address",
          "name": "adminAddress",
          "type": "address"
        }
      ],
      "name": "verifyHospital",
      "outputs": [],
      "stateMutability": "nonpayable",
      "type": "function"
    }
  ],
  "bytecode": "0x60a0604052306080523480156200001557600080fd5b506200002062000026565b620000da565b7ff0c57e16840df040f15088dc2f81fe391c3923bec73e23a9662efc9c229c6a00805468010000000000000000900460ff1615620000775760405163f92ee8a960e01b815260040160405180910390fd5b80546001600160401b0390811614620000d75780546001600160401b0319166001600160401b0390811782556040519081527fc7f505b2f371ae2175ee4913f4499e1f2633a7b5936321eed1cdaeb6115181d29060200160405180910390a15b50565b608051614b7162000104600039600081816136cd015281816136f601526138370152614b716000f3fe60806040526004361061023b5760003560e01c8063a00977bf1161012e578063cd1829d9116100ab578063e6e8c76b1161006f578063e6e8c76b14610759578063e75b8b2314610786578063ea4d598e146107b3578063f2fde38b146107d3578063f7905138146107f357600080fd5b8063cd1829d9146106b9578063cfeab136146106d9578063d8eb8e90146106f9578063dd95f65414610719578063e699ffcd1461073957600080fd5b8063beccc1c8116100f2578063beccc1c814610601578063c3f1a94914610621578063c459a8ce14610641578063c4d66de814610679578063cbf47a7e1461069957600080fd5b8063a00977bf14610532578063a87430ba14610552578063ad3cb1cc14610583578063b8604fba146105c1578063bace0290146105e157600080fd5b80635a82375b116101bc578063715018a611610180578063715018a61461046657806381dc6fd21461047b5780638da5cb5b146104ab57806395b5a65b146104d85780639afd8efe1461050557600080fd5b80635a82375b146103a95780635af28ce3146103c95780635e2547f2146103e95780636248204e146104095780636b3c6fd61461043657600080fd5b8063332d56d711610203578063332d56d7146102fc578063338e12eb1461032b578063344610671461034b5780634f1ef2861461038157806352d1902d1461039457600080fd5b8063072f77521461024057806328f183a1146102625780632c0a90a91461028b5780632f6d4a59146102ab5780633217bc72146102cb575b600080fd5b34801561024c57600080fd5b5061026061025b366004613c4f565b610823565b005b34801561026e57600080fd5b5061027860085481565b6040519081526020015b60405180910390f35b34801561029757600080fd5b506102606102a6366004613cd6565b61089b565b3480156102b757600080fd5b506102606102c6366004613d14565b610b1f565b3480156102d757600080fd5b506102eb6102e6366004613d61565b610ce5565b604051610282959493929190613e05565b34801561030857600080fd5b5061031c610317366004613e50565b610dcc565b60405161028293929190613e6b565b34801561033757600080fd5b50610260610346366004613eb3565b610f86565b34801561035757600080fd5b5061036b610366366004613f00565b6111ad565b6040516102829a99989796959493929190613f19565b61026061038f366004613d14565b6114cb565b3480156103a057600080fd5b506102786114ea565b3480156103b557600080fd5b506102606103c436600461406e565b611507565b3480156103d557600080fd5b506102786103e4366004613e50565b611798565b3480156103f557600080fd5b50610278610404366004613d61565b6117df565b34801561041557600080fd5b50610429610424366004613e50565b611810565b6040516102829190614143565b34801561044257600080fd5b50610456610451366004613f00565b6118a5565b6040516102829493929190614187565b34801561047257600080fd5b50610260611966565b34801561048757600080fd5b5061049b610496366004613f00565b61197a565b60405161028294939291906141be565b3480156104b757600080fd5b506104c061199c565b6040516001600160a01b039091168152602001610282565b3480156104e457600080fd5b506102786104f3366004613e50565b600b6020526000908152604090205481565b34801561051157600080fd5b50610525610520366004613d61565b6119ca565b60405161028291906141f8565b34801561053e57600080fd5b5061026061054d36600461425c565b611b64565b34801561055e57600080fd5b5061057261056d366004613e50565b611c80565b6040516102829594939291906142a8565b34801561058f57600080fd5b506105b4604051806040016040528060058152602001640352e302e360dc1b81525081565b60405161028291906142ff565b3480156105cd57600080fd5b506102606105dc366004614312565b611dd2565b3480156105ed57600080fd5b506102606105fc366004614396565b611f76565b34801561060d57600080fd5b5061026061061c366004613f00565b612075565b34801561062d57600080fd5b5061026061063c36600461442f565b6120fc565b34801561064d57600080fd5b5061027861065c36600461442f565b600460209081526000928352604080842090915290825290205481565b34801561068557600080fd5b50610260610694366004613e50565b6124cf565b3480156106a557600080fd5b506102606106b4366004614452565b6125d1565b3480156106c557600080fd5b506102606106d43660046144a6565b612812565b3480156106e557600080fd5b506102606106f436600461452b565b612947565b34801561070557600080fd5b5061026061071436600461425c565b612a61565b34801561072557600080fd5b506102606107343660046144a6565b612b20565b34801561074557600080fd5b50610260610754366004614312565b612c5e565b34801561076557600080fd5b50610278610774366004613e50565b600a6020526000908152604090205481565b34801561079257600080fd5b506107a66107a1366004613f00565b612eca565b604051610282919061460b565b3480156107bf57600080fd5b506102606107ce36600461442f565b6132b4565b3480156107df57600080fd5b506102606107ee366004613e50565b6133c2565b3480156107ff57600080fd5b5061081361080e36600461442f565b613405565b6040519015158152602001610282565b3360009081526020819052604081206002015460ff16600881111561084a5761084a613ddb565b146108685760405163104a226f60e31b815260040160405180910390fd5b61089633848484600060405180602001604052806000815250604051806020016040528060008152506134a9565b505050565b3360009081526020819052604081206002015460ff1660088111156108c2576108c2613ddb565b146108e05760405163104a226f60e31b815260040160405180910390fd5b33600090815260056020526040812090805b8254811015610afa578483828154811061090e5761090e6146f7565b9060005260206000209060050201600001541480156109665750600083828154811061093c5761093c6146f7565b600091825260209091206004600590920201015460ff16600281111561096457610964613ddb565b145b15610af257600183828154811061097f5761097f6146f7565b60009182526020909120600460059092020101805460ff191660018360028111156109ac576109ac613ddb565b021790555060006109c08562015180614723565b6109ca904261473a565b905060008483815481106109e0576109e06146f7565b60009182526020808320600260059093020191909101543383526003909152604082206001600160a01b039091169250905b8154811015610aae576000828281548110610a2f57610a2f6146f7565b6000918252602080832091909101548083526004825260408084206001600160a01b0389168086529084528185208a905581518a8152938401829052908301939093529250339083907f1c795c24f232a1e8a341c63546a2631ab532f7bf10169ff1b3c74187ad48a0f19060600160405180910390a450600101610a12565b5060405187815260019550339089907f4def62da440b39db2661de60aa3dad0479ac27d4c22597d6e14c7441774f8a319060200160405180910390a3505050610afa565b6001016108f2565b5080610b1957604051632589d98f60e11b815260040160405180910390fd5b50505050565b60033360009081526020819052604090206002015460ff166008811115610b4857610b48613ddb565b14610b6657604051630d52912160e21b815260040160405180910390fd5b6001600160a01b03821660009081526020819052604081206002015460ff166008811115610b9657610b96613ddb565b14610bb45760405163104a226f60e31b815260040160405180910390fd5b6006805460009182610bc58361474d565b909155506001600160a01b038481166000818152600560208181526040808420815160a08101835288815280840196875233928101928352606081018b81526080820187905282546001808201855593885294909620815194909502909401928355945194820180549587166001600160a01b031996871617905551600282018054919096169416939093179093555192935090916003820190610c6990826147e8565b50608082015160048201805460ff19166001836002811115610c8d57610c8d613ddb565b02179055505050336001600160a01b0316836001600160a01b0316827f21eb886073c5fec0f227f76ef8335d82939c7aa4b537be2e0943f4c1dc74553e85604051610cd891906142ff565b60405180910390a4505050565b60056020528160005260406000208181548110610d0157600080fd5b600091825260209091206005909102018054600182015460028301546003840180549396506001600160a01b03928316955091169291610d4090614766565b80601f0160208091040260200160405190810160405280929190818152602001828054610d6c90614766565b8015610db95780601f10610d8e57610100808354040283529160200191610db9565b820191906000526020600020905b815481529060010190602001808311610d9c57829003601f168201915b5050506004909301549192505060ff1685565b600160205260009081526040902080548190610de790614766565b80601f0160208091040260200160405190810160405280929190818152602001828054610e1390614766565b8015610e605780601f10610e3557610100808354040283529160200191610e60565b820191906000526020600020905b815481529060010190602001808311610e4357829003601f168201915b505050505090806001018054610e7590614766565b80601f0160208091040260200160405190810160405280929190818152602001828054610ea190614766565b8015610eee5780601f10610ec357610100808354040283529160200191610eee565b820191906000526020600020905b815481529060010190602001808311610ed157829003601f168201915b505050505090806002018054610f0390614766565b80601f0160208091040260200160405190810160405280929190818152602001828054610f2f90614766565b8015610f7c5780601f10610f5157610100808354040283529160200191610f7c565b820191906000526020600020905b815481529060010190602001808311610f5f57829003601f168201915b5050505050905083565b336000908152602081905260409020546001600160a01b031615610fbd57604051630ea075bf60e21b815260040160405180910390fd5b6002816008811115610fd157610fd1613ddb565b1480610fee57506008816008811115610fec57610fec613ddb565b145b1561100c57604051630bc9e58560e31b815260040160405180910390fd5b6040518060a00160405280336001600160a01b0316815260200183815260200182600881111561103e5761103e613ddb565b81526000602080830182905260408051808301825283815293810193909352338252818152919020825181546001600160a01b0319166001600160a01b0390911617815590820151600182019061109590826147e8565b50604082015160028201805460ff191660018360088111156110b9576110b9613ddb565b021790555060608201516002820180549115156101000261ff0019909216919091179055608082015160038201906110f190826147e8565b50506040805160608101825284815281516020818101845260008083528184019290925283518082018552828152838501523382526001905291909120815191925090819061114090826147e8565b506020820151600182019061115590826147e8565b506040820151600282019061116a90826147e8565b50506040513391507fc2e5d5da58bd71d1a2d14cdef02a4256d971b728088f8190d067ccfbae3bd73e906111a190859085906148a7565b60405180910390a25050565b600281815481106111bd57600080fd5b600091825260209091206009909102018054600182018054919350906111e290614766565b80601f016020809104026020016040519081016040528092919081815260200182805461120e90614766565b801561125b5780601f106112305761010080835404028352916020019161125b565b820191906000526020600020905b81548152906001019060200180831161123e57829003601f168201915b50505050509080600201805461127090614766565b80601f016020809104026020016040519081016040528092919081815260200182805461129c90614766565b80156112e95780601f106112be576101008083540402835291602001916112e9565b820191906000526020600020905b8154815290600101906020018083116112cc57829003601f168201915b50505050600383015460048401546005850154600686018054959693956001600160a01b03938416955092821693600160a01b90920460ff169261132c90614766565b80601f016020809104026020016040519081016040528092919081815260200182805461135890614766565b80156113a55780601f1061137a576101008083540402835291602001916113a5565b820191906000526020600020905b81548152906001019060200180831161138857829003601f168201915b5050505050908060070180546113ba90614766565b80601f01602080910402602001604051908101604052809291908181526020018280546113e690614766565b80156114335780601f1061140857610100808354040283529160200191611433565b820191906000526020600020905b81548152906001019060200180831161141657829003601f168201915b50505050509080600801805461144890614766565b80601f016020809104026020016040519081016040528092919081815260200182805461147490614766565b80156114c15780601f10611496576101008083540402835291602001916114c1565b820191906000526020600020905b8154815290600101906020018083116114a457829003601f168201915b505050505090508a565b6114d36136c2565b6114dc82613767565b6114e6828261376f565b5050565b60006114f461382c565b50600080516020614b1c83398151915290565b8051845114611529576040516343714afd60e01b815260040160405180910390fd5b835160000361154b5760405163af70781d60e01b815260040160405180910390fd5b6001600160a01b03831660009081526020819052604090206001600282015460ff16600881111561157e5761157e613ddb565b141580156115a557506007600282015460ff1660088111156115a2576115a2613ddb565b14155b80156115ca57506003600282015460ff1660088111156115c7576115c7613ddb565b14155b80156115ef57506004600282015460ff1660088111156115ec576115ec613ddb565b14155b801561161457506005600282015460ff16600881111561161157611611613ddb565b14155b8061162957506002810154610100900460ff16155b1561164757604051635f10e00b60e01b815260040160405180910390fd5b60006116568462015180614723565b611660904261473a565b905060005b865181101561178f576000878281518110611682576116826146f7565b60200260200101519050600280549050811080156116d75750336001600160a01b0316600282815481106116b8576116b86146f7565b60009182526020909120600560099092020101546001600160a01b0316145b156117865760008181526004602090815260408083206001600160a01b038b16845290915290205442106117865760008181526004602090815260408083206001600160a01b038b1680855292529091208490558551339083907f1c795c24f232a1e8a341c63546a2631ab532f7bf10169ff1b3c74187ad48a0f19087908a9088908110611767576117676146f7565b602002602001015160405161177d9291906148c9565b60405180910390a45b50600101611665565b50505050505050565b6000336001600160a01b038316146117c35760405163ea8e4eb560e01b815260040160405180910390fd5b506001600160a01b031660009081526005602052604090205490565b600360205281600052604060002081815481106117fb57600080fd5b90600052602060002001600091509150505481565b6060336001600160a01b0383161461183b5760405163ea8e4eb560e01b815260040160405180910390fd5b6001600160a01b0382166000908152600360209081526040918290208054835181840281018401909452808452909183018282801561189957602002820191906000526020600020905b815481526020019060010190808311611885575b50505050509050919050565b600960205260009081526040902080546001820180549192916118c790614766565b80601f01602080910402602001604051908101604052809291908181526020018280546118f390614766565b80156119405780601f1061191557610100808354040283529160200191611940565b820191906000526020600020905b81548152906001019060200180831161192357829003601f168201915b505050600290930154919250506001600160a01b0381169060ff600160a01b9091041684565b61196e613875565b61197860006138a7565b565b600760205260009081526040902080546001820180549192916118c790614766565b7f9016d09d72d40fdae2fd8ceac6b6234c7706214fd39c1cd1e609a0528c199300546001600160a01b031690565b6119f86040805160a08101825260008082526020820181905291810182905260608082015290608082015290565b336001600160a01b03841614611a215760405163ea8e4eb560e01b815260040160405180910390fd5b6001600160a01b0383166000908152600560205260409020805483908110611a4b57611a4b6146f7565b60009182526020918290206040805160a08101825260059093029091018054835260018101546001600160a01b0390811694840194909452600281015490931690820152600382018054919291606084019190611aa790614766565b80601f0160208091040260200160405190810160405280929190818152602001828054611ad390614766565b8015611b205780601f10611af557610100808354040283529160200191611b20565b820191906000526020600020905b815481529060010190602001808311611b0357829003601f168201915b5050509183525050600482015460209091019060ff166002811115611b4757611b47613ddb565b6002811115611b5857611b58613ddb565b90525090505b92915050565b6008805460009182611b758361474d565b9190505590506040518060800160405280828152602001838152602001336001600160a01b0316815260200160006002811115611bb457611bb4613ddb565b9052600082815260096020908152604090912082518155908201516001820190611bde90826147e8565b506040820151600280830180546001600160a01b039093166001600160a01b031984168117825560608601519391926001600160a81b03199092161790600160a01b908490811115611c3257611c32613ddb565b0217905550905050336001600160a01b0316817fbf61b5cace25ee4d225724bee5d3875a59e7468e6524c619b1bcc3361ba9a8e684604051611c7491906142ff565b60405180910390a35050565b600060208190529081526040902080546001820180546001600160a01b039092169291611cac90614766565b80601f0160208091040260200160405190810160405280929190818152602001828054611cd890614766565b8015611d255780601f10611cfa57610100808354040283529160200191611d25565b820191906000526020600020905b815481529060010190602001808311611d0857829003601f168201915b505050506002830154600384018054939460ff8084169561010090940416935091611d4f90614766565b80601f0160208091040260200160405190810160405280929190818152602001828054611d7b90614766565b8015611dc85780601f10611d9d57610100808354040283529160200191611dc8565b820191906000526020600020905b815481529060010190602001808311611dab57829003601f168201915b5050505050905085565b611dda61199c565b6001600160a01b0316336001600160a01b031614611e8d5760023360009081526020819052604090206002015460ff166008811115611e1b57611e1b613ddb565b141580611e40575033600090815260208190526040902060020154610100900460ff16155b15611e5e5760405163248b437160e21b815260040160405180910390fd5b336000908152600a60205260409020548114611e8d5760405163ea8e4eb560e01b815260040160405180910390fd5b6001600160a01b0383811660009081526020819052604090205416611ec5576040516319c29a3360e21b815260040160405180910390fd5b6001600160a01b0383166000908152600a60205260409020548114611efd57604051637aa3308d60e11b815260040160405180910390fd5b6001600160a01b038316600081815260208181526040808320600201805461ffff19169055600a8252808320839055600b90915280822091909155518291907f656386f7fbf5fbd79ebb5d508870678c1d0ba774d3af78f5971f7d32d0da18bd90611f699086906148e2565b60405180910390a3505050565b336000908152602081905260409020546001600160a01b0316611fac5760405163aba4733960e01b815260040160405180910390fd5b336000908152600160205260409020611fc68688836148f0565b5033600090815260016020819052604090912001611fe58486836148f0565b503360009081526001602052604090206002016120038284836148f0565b503360009081526020819052604090206001016120218688836148f0565b50336001600160a01b03167f6420daf1b58438e85465ef21dee378d307a509caab491149e3f066c5caf1266d878787878787604051612065969594939291906149d9565b60405180910390a2505050505050565b61207d613875565b600081815260076020526040902060020154600160a01b900460ff166120b657604051634d2310eb60e11b815260040160405180910390fd5b600081815260076020526040808220600201805460ff60a01b191690555182917fde3170d9273315de9a8b381190baac26e017d2c9ac99d1ca5b428bea7161f89291a250565b612104613875565b600080838152600960205260409020600290810154600160a01b900460ff169081111561213357612133613ddb565b14612151576040516317f4986760e31b815260040160405180910390fd5b6001600160a01b03818116600090815260208190526040902054161561218a57604051630ea075bf60e21b815260040160405180910390fd5b600082815260096020818152604080842060028101805460ff60a01b1916600160a01b179055815160808101909252868252938690529181526001909201805491928301916121d890614766565b80601f016020809104026020016040519081016040528092919081815260200182805461220490614766565b80156122515780601f1061222657610100808354040283529160200191612251565b820191906000526020600020905b81548152906001019060200180831161223457829003601f168201915b50505091835250506001600160a01b03831660208083019190915260016040928301819052600086815260078352929092208351815590830151909182019061229a90826147e8565b50604082810151600292830180546060909501511515600160a01b026001600160a81b03199095166001600160a01b039283161794909417909355805160a081018252928416835280518082018252600581526420b236b4b760d91b6020828101919091528401528201908152600160208083018290526040805180830182526000808252948201526001600160a01b0386811685528483529320845181546001600160a01b03191694169390931783558301519082019061235c90826147e8565b50604082015160028201805460ff1916600183600881111561238057612380613ddb565b021790555060608201516002820180549115156101000261ff0019909216919091179055608082015160038201906123b890826147e8565b50506040805160a0810182526005606082019081526420b236b4b760d91b6080830152815281516020818101845260008083528184019290925283518082018552828152838501526001600160a01b03861682526001905291909120815191925090819061242690826147e8565b506020820151600182019061243b90826147e8565b506040820151600282019061245090826147e8565b5050506001600160a01b0381166000818152600a60205260408082208590555184917f1421bdc12a61f8ad34351cd7dd151822ac06730e7b43ee4bdfd4aaeb1ff5311c91a3806001600160a01b03167fc2e5d5da58bd71d1a2d14cdef02a4256d971b728088f8190d067ccfbae3bd73e60026040516111a19190614a22565b60006124d9613918565b805490915060ff600160401b82041615906001600160401b03166000811580156125005750825b90506000826001600160401b0316600114801561251c5750303b155b90508115801561252a575080155b156125485760405163f92ee8a960e01b815260040160405180910390fd5b845467ffffffffffffffff19166001178555831561257257845460ff60401b1916600160401b1785555b61257b86613941565b612583613952565b83156125c957845460ff60401b19168555604051600181527fc7f505b2f371ae2175ee4913f4499e1f2633a7b5936321eed1cdaeb6115181d29060200160405180910390a15b505050505050565b60025484106125f357604051633e07f1a160e01b815260040160405180910390fd5b600060028581548110612608576126086146f7565b600091825260209091206005600990920201908101549091506001600160a01b0316331461264957604051635e27834560e01b815260040160405180910390fd5b6001600160a01b03841660009081526020819052604090206001600282015460ff16600881111561267c5761267c613ddb565b141580156126a357506007600282015460ff1660088111156126a0576126a0613ddb565b14155b80156126c857506003600282015460ff1660088111156126c5576126c5613ddb565b14155b80156126ed57506004600282015460ff1660088111156126ea576126ea613ddb565b14155b801561271257506005600282015460ff16600881111561270f5761270f613ddb565b14155b8061272757506002810154610100900460ff16155b1561274557604051635f10e00b60e01b815260040160405180910390fd5b60008681526004602090815260408083206001600160a01b0389168452909152902054421015612788576040516342beec5560e11b815260040160405180910390fd5b60006127978562015180614723565b6127a1904261473a565b60008881526004602090815260408083206001600160a01b038b16808552925291829020839055905191925090339089907f1c795c24f232a1e8a341c63546a2631ab532f7bf10169ff1b3c74187ad48a0f1906128019086908a906148c9565b60405180910390a450505050505050565b60008190036128345760405163af70781d60e01b815260040160405180910390fd5b60005b81811015612901576000838383818110612853576128536146f7565b905060200201359050600280549050811080156128a75750336001600160a01b031660028281548110612888576128886146f7565b60009182526020909120600560099092020101546001600160a01b0316145b156128f85760008181526004602090815260408083206001600160a01b0389168452909152902054156128f85760008181526004602090815260408083206001600160a01b03891684529091528120555b50600101612837565b50826001600160a01b0316336001600160a01b03167f75a0c7213e4da236e21ef6533f4f5e3b0227acbee7f076c8167ad583dbf3ee718484604051611f69929190614a4c565b6001600160a01b038681166000908152602081905260409020541661297f576040516319c29a3360e21b815260040160405180910390fd5b6001600160a01b03861660009081526020819052604081206002015460ff1660088111156129af576129af613ddb565b146129cd5760405163104a226f60e31b815260040160405180910390fd5b3360009081526020819052604090206001600282015460ff1660088111156129f7576129f7613ddb565b14158015612a1e57506007600282015460ff166008811115612a1b57612a1b613ddb565b14155b80612a3357506002810154610100900460ff16155b15612a5157604051635f10e00b60e01b815260040160405180910390fd5b61178f87878787600188886134a9565b336000908152602081905260409020546001600160a01b0316612a975760405163aba4733960e01b815260040160405180910390fd5b3360009081526020819052604081206003018054612ab490614766565b90501115612ad5576040516303b3cf9760e41b815260040160405180910390fd5b336000908152602081905260409020600301612af182826147e8565b5060405133907f6cf02651ef9f7a72105bbc0f5800cb97cf05271672cc25280ab53491280c827e90600090a250565b3360009081526020819052604090206001600282015460ff166008811115612b4a57612b4a613ddb565b14158015612b7157506007600282015460ff166008811115612b6e57612b6e613ddb565b14155b80612b8657506002810154610100900460ff16155b15612ba457604051635f10e00b60e01b815260040160405180910390fd5b6001600160a01b03841660009081526020819052604081206002015460ff166008811115612bd457612bd4613ddb565b14612bf25760405163104a226f60e31b815260040160405180910390fd5b6006805460009182612c038361474d565b919050559050846001600160a01b0316336001600160a01b0316827fa47823f482435dbae9948d4f3069aa1e6b73085d175b64df2f00cb83861e17b18787604051612c4f929190614a4c565b60405180910390a45050505050565b612c6661199c565b6001600160a01b0316336001600160a01b031614612d195760023360009081526020819052604090206002015460ff166008811115612ca757612ca7613ddb565b141580612ccc575033600090815260208190526040902060020154610100900460ff16155b15612cea5760405163248b437160e21b815260040160405180910390fd5b336000908152600a60205260409020548114612d195760405163ea8e4eb560e01b815260040160405180910390fd5b6001826008811115612d2d57612d2d613ddb565b14158015612d4d57506007826008811115612d4a57612d4a613ddb565b14155b15612d6b57604051631b32d0dd60e11b815260040160405180910390fd5b6001600160a01b0383811660009081526020819052604090205416612da3576040516319c29a3360e21b815260040160405180910390fd5b6001600160a01b0383166000908152600a602052604090205415612dda576040516339e5825f60e11b815260040160405180910390fd5b6001600160a01b0383166000908152602081905260409020600201805483919060ff19166001836008811115612e1257612e12613ddb565b02179055506001600160a01b038316600081815260208181526040808320600201805461ff001916610100179055600a8252808320859055600b90915290819020839055518291907fb7f677009e40b63d956ecadcfcb1f65c754aa8f19532b58a315c47d23dfcbdcb90612e879086906148e2565b60405180910390a36040516001600160a01b0384169033907fbfb2fa25f828a712fda370028ecc8813c7082c69b239a579753b10e24dd472cc90600090a3505050565b612f346040518061014001604052806000815260200160608152602001606081526020016000815260200160006001600160a01b0316815260200160006001600160a01b031681526020016000151581526020016060815260200160608152602001606081525090565b612f3e8233613405565b612f5b5760405163ea8e4eb560e01b815260040160405180910390fd5b60028281548110612f6e57612f6e6146f7565b90600052602060002090600902016040518061014001604052908160008201548152602001600182018054612fa290614766565b80601f0160208091040260200160405190810160405280929190818152602001828054612fce90614766565b801561301b5780601f10612ff05761010080835404028352916020019161301b565b820191906000526020600020905b815481529060010190602001808311612ffe57829003601f168201915b5050505050815260200160028201805461303490614766565b80601f016020809104026020016040519081016040528092919081815260200182805461306090614766565b80156130ad5780601f10613082576101008083540402835291602001916130ad565b820191906000526020600020905b81548152906001019060200180831161309057829003601f168201915b50505091835250506003820154602082015260048201546001600160a01b03908116604083015260058301549081166060830152600160a01b900460ff161515608082015260068201805460a09092019161310790614766565b80601f016020809104026020016040519081016040528092919081815260200182805461313390614766565b80156131805780601f1061315557610100808354040283529160200191613180565b820191906000526020600020905b81548152906001019060200180831161316357829003601f168201915b5050505050815260200160078201805461319990614766565b80601f01602080910402602001604051908101604052809291908181526020018280546131c590614766565b80156132125780601f106131e757610100808354040283529160200191613212565b820191906000526020600020905b8154815290600101906020018083116131f557829003601f168201915b5050505050815260200160088201805461322b90614766565b80601f016020809104026020016040519081016040528092919081815260200182805461325790614766565b80156132a45780601f10613279576101008083540402835291602001916132a4565b820191906000526020600020905b81548152906001019060200180831161328757829003601f168201915b5050505050815250509050919050565b60025482106132d657604051633e07f1a160e01b815260040160405180910390fd5b6000600283815481106132eb576132eb6146f7565b600091825260209091206005600990920201908101549091506001600160a01b0316331461332c57604051635e27834560e01b815260040160405180910390fd5b60008381526004602090815260408083206001600160a01b0386168452909152812054900361336e57604051639cf4448960e01b815260040160405180910390fd5b60008381526004602090815260408083206001600160a01b038616808552925280832083905551909185917f07aca9e88df76b26773787218a5664b178842e080be07be33d29f8a84853ecbc9190a3505050565b6133ca613875565b6001600160a01b0381166133f957604051631e4fbdf760e01b8152600060048201526024015b60405180910390fd5b613402816138a7565b50565b600254600090831061341957506000611b5e565b60006002848154811061342e5761342e6146f7565b6000918252602090912060099091020160058101549091506001600160a01b038481169116148061346e575060048101546001600160a01b038481169116145b1561347d576001915050611b5e565b505060009182526004602090815260408084206001600160a01b03939093168452919052902054421090565b600280546040805161014081018252828152602081018981529181018a90524260608201523360808201526001600160a01b038b1660a082015286151560c082015260e08101889052610100810186905261012081018590526001830184556000939093528251600983027f405787fa12a823e0f2b7631cc41b3ba8828b3321ca811111fa75cd3aa3bb5ace8101918255915192939290917f405787fa12a823e0f2b7631cc41b3ba8828b3321ca811111fa75cd3aa3bb5acf019061356e90826147e8565b506040820151600282019061358390826147e8565b506060820151600382015560808201516004820180546001600160a01b0319166001600160a01b0392831617905560a083015160058301805460c0860151929093166001600160a81b031990931692909217600160a01b9115159190910217905560e082015160068201906135f890826147e8565b50610100820151600782019061360e90826147e8565b50610120820151600882019061362490826147e8565b5050506001600160a01b038816600081815260036020908152604080832080546001810182559084528284200185905584835260048252808320848452909152808220600019908190553380845292829020555183917fb632f49a2b1091a845031e8101343ccd4984d5766d7be4c768f1217991b563c6916136b0918b918d918c918c91904290614a85565b60405180910390a35050505050505050565b306001600160a01b037f000000000000000000000000000000000000000000000000000000000000000016148061374957507f00000000000000000000000000000000000000000000000000000000000000006001600160a01b031661373d600080516020614b1c833981519152546001600160a01b031690565b6001600160a01b031614155b156119785760405163703e46dd60e11b815260040160405180910390fd5b613402613875565b816001600160a01b03166352d1902d6040518163ffffffff1660e01b8152600401602060405180830381865afa9250505080156137c9575060408051601f3d908101601f191682019092526137c691810190614ae6565b60015b6137f157604051634c9c8ce360e01b81526001600160a01b03831660048201526024016133f0565b600080516020614b1c833981519152811461382257604051632a87526960e21b8152600481018290526024016133f0565b610896838361395a565b306001600160a01b037f000000000000000000000000000000000000000000000000000000000000000016146119785760405163703e46dd60e11b815260040160405180910390fd5b3361387e61199c565b6001600160a01b0316146119785760405163118cdaa760e01b81523360048201526024016133f0565b7f9016d09d72d40fdae2fd8ceac6b6234c7706214fd39c1cd1e609a0528c19930080546001600160a01b031981166001600160a01b03848116918217845560405192169182907f8be0079c531659141344cd1fd0a4f28419497f9722a3daafe3b4186f6b6457e090600090a3505050565b6000807ff0c57e16840df040f15088dc2f81fe391c3923bec73e23a9662efc9c229c6a00611b5e565b6139496139b0565b613402816139d5565b6119786139b0565b613963826139e6565b6040516001600160a01b038316907fbc7cd75a20ee27fd9adebab32041f755214dbc6bffa90cc0225b39da2e5c2d3b90600090a28051156139a8576108968282613a4b565b6114e6613ac1565b6139b8613ae0565b61197857604051631afcd79f60e31b815260040160405180910390fd5b6139dd6139b0565b61340281613afa565b806001600160a01b03163b600003613a1c57604051634c9c8ce360e01b81526001600160a01b03821660048201526024016133f0565b600080516020614b1c83398151915280546001600160a01b0319166001600160a01b0392909216919091179055565b6060600080846001600160a01b031684604051613a689190614aff565b600060405180830381855af49150503d8060008114613aa3576040519150601f19603f3d011682016040523d82523d6000602084013e613aa8565b606091505b5091509150613ab8858383613b0b565b95945050505050565b34156119785760405163b398979f60e01b815260040160405180910390fd5b6000613aea613918565b54600160401b900460ff16919050565b613b026139b0565b61340281613b6a565b606082613b2057613b1b82613b72565b613b63565b8151158015613b3757506001600160a01b0384163b155b15613b6057604051639996b31560e01b81526001600160a01b03851660048201526024016133f0565b50805b9392505050565b6133ca6139b0565b805115613b8157805160208201fd5b60405163d6bda27560e01b815260040160405180910390fd5b634e487b7160e01b600052604160045260246000fd5b604051601f8201601f191681016001600160401b0381118282101715613bd857613bd8613b9a565b604052919050565b600082601f830112613bf157600080fd5b81356001600160401b03811115613c0a57613c0a613b9a565b613c1d601f8201601f1916602001613bb0565b818152846020838601011115613c3257600080fd5b816020850160208301376000918101602001919091529392505050565b600080600060608486031215613c6457600080fd5b83356001600160401b0380821115613c7b57600080fd5b613c8787838801613be0565b94506020860135915080821115613c9d57600080fd5b613ca987838801613be0565b93506040860135915080821115613cbf57600080fd5b50613ccc86828701613be0565b9150509250925092565b60008060408385031215613ce957600080fd5b50508035926020909101359150565b80356001600160a01b0381168114613d0f57600080fd5b919050565b60008060408385031215613d2757600080fd5b613d3083613cf8565b915060208301356001600160401b03811115613d4b57600080fd5b613d5785828601613be0565b9150509250929050565b60008060408385031215613d7457600080fd5b613d7d83613cf8565b946020939093013593505050565b60005b83811015613da6578181015183820152602001613d8e565b50506000910152565b60008151808452613dc7816020860160208601613d8b565b601f01601f19169290920160200192915050565b634e487b7160e01b600052602160045260246000fd5b60038110613e0157613e01613ddb565b9052565b8581526001600160a01b0385811660208301528416604082015260a060608201819052600090613e3790830185613daf565b9050613e466080830184613df1565b9695505050505050565b600060208284031215613e6257600080fd5b613b6382613cf8565b606081526000613e7e6060830186613daf565b8281036020840152613e908186613daf565b90508281036040840152613e468185613daf565b803560098110613d0f57600080fd5b60008060408385031215613ec657600080fd5b82356001600160401b03811115613edc57600080fd5b613ee885828601613be0565b925050613ef760208401613ea4565b90509250929050565b600060208284031215613f1257600080fd5b5035919050565b60006101408c8352806020840152613f338184018d613daf565b90508281036040840152613f47818c613daf565b606084018b90526001600160a01b038a81166080860152891660a085015287151560c085015283810360e08501529050613f818187613daf565b9050828103610100840152613f968186613daf565b9050828103610120840152613fab8185613daf565b9d9c50505050505050505050505050565b60006001600160401b03821115613fd557613fd5613b9a565b5060051b60200190565b600082601f830112613ff057600080fd5b8135602061400561400083613fbc565b613bb0565b82815260059290921b8401810191818101908684111561402457600080fd5b8286015b848110156140635780356001600160401b038111156140475760008081fd5b6140558986838b0101613be0565b845250918301918301614028565b509695505050505050565b6000806000806080858703121561408457600080fd5b84356001600160401b038082111561409b57600080fd5b818701915087601f8301126140af57600080fd5b813560206140bf61400083613fbc565b82815260059290921b8401810191818101908b8411156140de57600080fd5b948201945b838610156140fc578535825294820194908201906140e3565b985061410b9050898201613cf8565b9650505060408701359350606087013591508082111561412a57600080fd5b5061413787828801613fdf565b91505092959194509250565b6020808252825182820181905260009190848201906040850190845b8181101561417b5783518352928401929184019160010161415f565b50909695505050505050565b8481526080602082015260006141a06080830186613daf565b6001600160a01b03851660408401529050613ab86060830184613df1565b8481526080602082015260006141d76080830186613daf565b6001600160a01b039490941660408301525090151560609091015292915050565b60208152815160208201526000602083015160018060a01b0380821660408501528060408601511660608501525050606083015160a0608084015261424060c0840182613daf565b9050608084015161425460a0850182613df1565b509392505050565b60006020828403121561426e57600080fd5b81356001600160401b0381111561428457600080fd5b61429084828501613be0565b949350505050565b60098110613e0157613e01613ddb565b6001600160a01b038616815260a0602082018190526000906142cc90830187613daf565b6142d96040840187614298565b841515606084015282810360808401526142f38185613daf565b98975050505050505050565b602081526000613b636020830184613daf565b60008060006060848603121561432757600080fd5b61433084613cf8565b925061433e60208501613ea4565b9150604084013590509250925092565b60008083601f84011261436057600080fd5b5081356001600160401b0381111561437757600080fd5b60208301915083602082850101111561438f57600080fd5b9250929050565b600080600080600080606087890312156143af57600080fd5b86356001600160401b03808211156143c657600080fd5b6143d28a838b0161434e565b909850965060208901359150808211156143eb57600080fd5b6143f78a838b0161434e565b9096509450604089013591508082111561441057600080fd5b5061441d89828a0161434e565b979a9699509497509295939492505050565b6000806040838503121561444257600080fd5b82359150613ef760208401613cf8565b6000806000806080858703121561446857600080fd5b8435935061447860208601613cf8565b92506040850135915060608501356001600160401b0381111561449a57600080fd5b61413787828801613be0565b6000806000604084860312156144bb57600080fd5b6144c484613cf8565b925060208401356001600160401b03808211156144e057600080fd5b818601915086601f8301126144f457600080fd5b81358181111561450357600080fd5b8760208260051b850101111561451857600080fd5b6020830194508093505050509250925092565b60008060008060008060c0878903121561454457600080fd5b61454d87613cf8565b955060208701356001600160401b038082111561456957600080fd5b6145758a838b01613be0565b9650604089013591508082111561458b57600080fd5b6145978a838b01613be0565b955060608901359150808211156145ad57600080fd5b6145b98a838b01613be0565b945060808901359150808211156145cf57600080fd5b6145db8a838b01613be0565b935060a08901359150808211156145f157600080fd5b506145fe89828a01613be0565b9150509295509295509295565b602081528151602082015260006020830151610140806040850152614634610160850183613daf565b91506040850151601f19808685030160608701526146528483613daf565b9350606087015160808701526080870151915061467a60a08701836001600160a01b03169052565b60a08701516001600160a01b03811660c0880152915060c087015180151560e0880152915060e087015191506101008187860301818801526146bc8584613daf565b9450808801519250506101208187860301818801526146db8584613daf565b908801518782039092018488015293509050613e468382613daf565b634e487b7160e01b600052603260045260246000fd5b634e487b7160e01b600052601160045260246000fd5b8082028115828204841417611b5e57611b5e61470d565b80820180821115611b5e57611b5e61470d565b60006001820161475f5761475f61470d565b5060010190565b600181811c9082168061477a57607f821691505b60208210810361479a57634e487b7160e01b600052602260045260246000fd5b50919050565b601f821115610896576000816000526020600020601f850160051c810160208610156147c95750805b601f850160051c820191505b818110156125c9578281556001016147d5565b81516001600160401b0381111561480157614801613b9a565b6148158161480f8454614766565b846147a0565b602080601f83116001811461484a57600084156148325750858301515b600019600386901b1c1916600185901b1785556125c9565b600085815260208120601f198616915b828110156148795788860151825594840194600190910190840161485a565b50858210156148975787850151600019600388901b60f8161c191681555b5050505050600190811b01905550565b6040815260006148ba6040830185613daf565b9050613b636020830184614298565b8281526040602082015260006142906040830184613daf565b60208101611b5e8284614298565b6001600160401b0383111561490757614907613b9a565b61491b836149158354614766565b836147a0565b6000601f84116001811461494f57600085156149375750838201355b600019600387901b1c1916600186901b1783556149a9565b600083815260209020601f19861690835b828110156149805786850135825560209485019460019092019101614960565b508682101561499d5760001960f88860031b161c19848701351681555b505060018560011b0183555b5050505050565b81835281816020850137506000828201602090810191909152601f909101601f19169091010190565b6060815260006149ed60608301888a6149b0565b8281036020840152614a008187896149b0565b90508281036040840152614a158185876149b0565b9998505050505050505050565b60408082526005908201526420b236b4b760d91b606082015260808101611b5e6020830184614298565b6020808252810182905260006001600160fb1b03831115614a6c57600080fd5b8260051b80856040850137919091016040019392505050565b60c081526000614a9860c0830189613daf565b8281036020840152614aaa8189613daf565b90508281036040840152614abe8188613daf565b951515606084015250506001600160a01b0392909216608083015260a0909101529392505050565b600060208284031215614af857600080fd5b5051919050565b60008251614b11818460208701613d8b565b919091019291505056fe360894a13ba1a3210667c828492db98dca3e2076cc3735a920a3ca505d382bbca26469706673582212201cbab35c84898908ff97075bbab0135f9ca5b35e214715034271a5f450e51da064736f6c63430008180033",
  "linkReferences": {},
  "deployedLinkReferences": {}
}