{
  "_format": "hh-sol-artifact-1",
  "contractName": "MedicalRecords",
  "sourceName": "contracts/MedicalRecords.sol",
  "abi": [
    {
      "inputs": [],
      "name": "AccessAlreadyGranted",
      "type": "error"
    },
    {
      "inputs": [],
      "name": "AlreadyRegistered",
      "type": "error"
    },
    {
      "inputs": [],
      "name": "NoAccessToRevoke",
      "type": "error"
    },
    {
      "inputs": [],
      "name": "NotAPatient",
      "type": "error"
    },
    {
      "inputs": [],
      "name": "NotAVerifiedDoctor",
      "type": "error"
    },
    {
      "inputs": [],
      "name": "NotAnAdmin",
      "type": "error"
    },
    {
      "inputs": [],
      "name": "NotAnInsuranceProvider",
      "type": "error"
    },
    {
      "inputs": [],
      "name": "NotAuthorized",
      "type": "error"
    },
    {
      "inputs": [],
      "name": "NotRegistered",
      "type": "error"
    },
    {
      "inputs": [],
      "name": "RequestNotFound",
      "type": "error"
    },
    {
      "inputs": [],
      "name": "UserNotFound",
      "type": "error"
    },
    {
      "anonymous": false,
      "inputs": [
        {
          "indexed": true,
          "internalType": "address",
          "name": "patient",
          "type": "address"
        },
        {
          "indexed": true,
          "internalType": "address",
          "name": "doctor",
          "type": "address"
        }
      ],
      "name": "AccessGranted",
      "type": "event"
    },
    {
      "anonymous": false,
      "inputs": [
        {
          "indexed": true,
          "internalType": "uint256",
          "name": "requestId",
          "type": "uint256"
        },
        {
          "indexed": true,
          "internalType": "address",
          "name": "patient",
          "type": "address"
        },
        {
          "indexed": true,
          "internalType": "address",
          "name": "provider",
          "type": "address"
        },
        {
          "indexed": false,
          "internalType": "string",
          "name": "claimId",
          "type": "string"
        }
      ],
      "name": "AccessRequested",
      "type": "event"
    },
    {
      "anonymous": false,
      "inputs": [
        {
          "indexed": true,
          "internalType": "address",
          "name": "patient",
          "type": "address"
        },
        {
          "indexed": true,
          "internalType": "address",
          "name": "doctor",
          "type": "address"
        }
      ],
      "name": "AccessRevoked",
      "type": "event"
    },
    {
      "anonymous": false,
      "inputs": [
        {
          "indexed": true,
          "internalType": "address",
          "name": "patient",
          "type": "address"
        },
        {
          "indexed": false,
          "internalType": "string",
          "name": "ipfsHash",
          "type": "string"
        },
        {
          "indexed": false,
          "internalType": "uint256",
          "name": "timestamp",
          "type": "uint256"
        }
      ],
      "name": "RecordAdded",
      "type": "event"
    },
    {
      "anonymous": false,
      "inputs": [
        {
          "indexed": true,
          "internalType": "uint256",
          "name": "requestId",
          "type": "uint256"
        },
        {
          "indexed": true,
          "internalType": "address",
          "name": "patient",
          "type": "address"
        }
      ],
      "name": "RequestApproved",
      "type": "event"
    },
    {
      "anonymous": false,
      "inputs": [
        {
          "indexed": true,
          "internalType": "address",
          "name": "patient",
          "type": "address"
        },
        {
          "indexed": false,
          "internalType": "uint256",
          "name": "newLength",
          "type": "uint256"
        }
      ],
      "name": "RequestArrayUpdated",
      "type": "event"
    },
    {
      "anonymous": false,
      "inputs": [
        {
          "indexed": true,
          "internalType": "address",
          "name": "userAddress",
          "type": "address"
        },
        {
          "indexed": false,
          "internalType": "string",
          "name": "name",
          "type": "string"
        },
        {
          "indexed": false,
          "internalType": "enum MedicalRecords.Role",
          "name": "role",
          "type": "uint8"
        }
      ],
      "name": "UserRegistered",
      "type": "event"
    },
    {
      "anonymous": false,
      "inputs": [
        {
          "indexed": true,
          "internalType": "address",
          "name": "admin",
          "type": "address"
        },
        {
          "indexed": true,
          "internalType": "address",
          "name": "userAddress",
          "type": "address"
        }
      ],
      "name": "UserVerified",
      "type": "event"
    },
    {
      "inputs": [
        {
          "internalType": "address",
          "name": "",
          "type": "address"
        },
        {
          "internalType": "address",
          "name": "",
          "type": "address"
        }
      ],
      "name": "accessPermissions",
      "outputs": [
        {
          "internalType": "bool",
          "name": "",
          "type": "bool"
        }
      ],
      "stateMutability": "view",
      "type": "function"
    },
    {
      "inputs": [
        {
          "internalType": "string",
          "name": "_ipfsHash",
          "type": "string"
        }
      ],
      "name": "addRecord",
      "outputs": [],
      "stateMutability": "nonpayable",
      "type": "function"
    },
    {
      "inputs": [
        {
          "internalType": "uint256",
          "name": "_requestId",
          "type": "uint256"
        }
      ],
      "name": "approveRequest",
      "outputs": [],
      "stateMutability": "nonpayable",
      "type": "function"
    },
    {
      "inputs": [
        {
          "internalType": "address",
          "name": "_patientAddress",
          "type": "address"
        },
        {
          "internalType": "address",
          "name": "_doctorAddress",
          "type": "address"
        }
      ],
      "name": "checkAccess",
      "outputs": [
        {
          "internalType": "bool",
          "name": "",
          "type": "bool"
        }
      ],
      "stateMutability": "view",
      "type": "function"
    },
    {
      "inputs": [
        {
          "internalType": "address",
          "name": "_patientAddress",
          "type": "address"
        }
      ],
      "name": "getPatientRecords",
      "outputs": [
        {
          "components": [
            {
              "internalType": "string",
              "name": "ipfsHash",
              "type": "string"
            },
            {
              "internalType": "uint256",
              "name": "timestamp",
              "type": "uint256"
            },
            {
              "internalType": "address",
              "name": "uploadedBy",
              "type": "address"
            }
          ],
          "internalType": "struct MedicalRecords.Record[]",
          "name": "",
          "type": "tuple[]"
        }
      ],
      "stateMutability": "view",
      "type": "function"
    },
    {
      "inputs": [
        {
          "internalType": "address",
          "name": "_patientAddress",
          "type": "address"
        },
        {
          "internalType": "uint256",
          "name": "_index",
          "type": "uint256"
        }
      ],
      "name": "getPatientRequestAtIndex",
      "outputs": [
        {
          "components": [
            {
              "internalType": "uint256",
              "name": "id",
              "type": "uint256"
            },
            {
              "internalType": "address",
              "name": "patient",
              "type": "address"
            },
            {
              "internalType": "address",
              "name": "provider",
              "type": "address"
            },
            {
              "internalType": "string",
              "name": "claimId",
              "type": "string"
            },
            {
              "internalType": "enum MedicalRecords.RequestStatus",
              "name": "status",
              "type": "uint8"
            }
          ],
          "internalType": "struct MedicalRecords.AccessRequest",
          "name": "",
          "type": "tuple"
        }
      ],
      "stateMutability": "view",
      "type": "function"
    },
    {
      "inputs": [
        {
          "internalType": "address",
          "name": "_patientAddress",
          "type": "address"
        }
      ],
      "name": "getPatientRequestsCount",
      "outputs": [
        {
          "internalType": "uint256",
          "name": "",
          "type": "uint256"
        }
      ],
      "stateMutability": "view",
      "type": "function"
    },
    {
      "inputs": [
        {
          "internalType": "address",
          "name": "_doctorAddress",
          "type": "address"
        }
      ],
      "name": "grantAccess",
      "outputs": [],
      "stateMutability": "nonpayable",
      "type": "function"
    },
    {
      "inputs": [
        {
          "internalType": "address",
          "name": "",
          "type": "address"
        },
        {
          "internalType": "uint256",
          "name": "",
          "type": "uint256"
        }
      ],
      "name": "patientRecords",
      "outputs": [
        {
          "internalType": "string",
          "name": "ipfsHash",
          "type": "string"
        },
        {
          "internalType": "uint256",
          "name": "timestamp",
          "type": "uint256"
        },
        {
          "internalType": "address",
          "name": "uploadedBy",
          "type": "address"
        }
      ],
      "stateMutability": "view",
      "type": "function"
    },
    {
      "inputs": [
        {
          "internalType": "address",
          "name": "",
          "type": "address"
        },
        {
          "internalType": "uint256",
          "name": "",
          "type": "uint256"
        }
      ],
      "name": "patientRequests",
      "outputs": [
        {
          "internalType": "uint256",
          "name": "id",
          "type": "uint256"
        },
        {
          "internalType": "address",
          "name": "patient",
          "type": "address"
        },
        {
          "internalType": "address",
          "name": "provider",
          "type": "address"
        },
        {
          "internalType": "string",
          "name": "claimId",
          "type": "string"
        },
        {
          "internalType": "enum MedicalRecords.RequestStatus",
          "name": "status",
          "type": "uint8"
        }
      ],
      "stateMutability": "view",
      "type": "function"
    },
    {
      "inputs": [
        {
          "internalType": "string",
          "name": "_name",
          "type": "string"
        },
        {
          "internalType": "enum MedicalRecords.Role",
          "name": "_role",
          "type": "uint8"
        }
      ],
      "name": "registerUser",
      "outputs": [],
      "stateMutability": "nonpayable",
      "type": "function"
    },
    {
      "inputs": [
        {
          "internalType": "address",
          "name": "_patientAddress",
          "type": "address"
        },
        {
          "internalType": "string",
          "name": "_claimId",
          "type": "string"
        }
      ],
      "name": "requestAccess",
      "outputs": [],
      "stateMutability": "nonpayable",
      "type": "function"
    },
    {
      "inputs": [
        {
          "internalType": "address",
          "name": "_doctorAddress",
          "type": "address"
        }
      ],
      "name": "revokeAccess",
      "outputs": [],
      "stateMutability": "nonpayable",
      "type": "function"
    },
    {
      "inputs": [
        {
          "internalType": "address",
          "name": "",
          "type": "address"
        }
      ],
      "name": "users",
      "outputs": [
        {
          "internalType": "address",
          "name": "walletAddress",
          "type": "address"
        },
        {
          "internalType": "string",
          "name": "name",
          "type": "string"
        },
        {
          "internalType": "enum MedicalRecords.Role",
          "name": "role",
          "type": "uint8"
        },
        {
          "internalType": "bool",
          "name": "isVerified",
          "type": "bool"
        }
      ],
      "stateMutability": "view",
      "type": "function"
    },
    {
      "inputs": [
        {
          "internalType": "address",
          "name": "_userToVerify",
          "type": "address"
        }
      ],
      "name": "verifyUser",
      "outputs": [],
      "stateMutability": "nonpayable",
      "type": "function"
    }
  ],
  "bytecode": "0x608060405234801561001057600080fd5b50613141806100206000396000f3fe608060405234801561001057600080fd5b50600436106100f55760003560e01c806362e1f745116100975780639afd8efe116100665780639afd8efe146102ac578063a87430ba146102dc578063d7d1bbdb1461030f578063d81aa8c41461032b576100f5565b806362e1f745146101fe57806364b3b5251461022e57806385e685311461025e57806394f0df611461027a576100f5565b80633217bc72116100d35780633217bc7214610162578063338e12eb146101965780634d813120146101b25780635af28ce3146101ce576100f5565b80630ae5e739146100fa57806318bd4847146101165780632f6d4a5914610146575b600080fd5b610114600480360381019061010f9190612423565b610347565b005b610130600480360381019061012b9190612423565b610674565b60405161013d919061261a565b60405180910390f35b610160600480360381019061015b9190612771565b610a94565b005b61017c600480360381019061017791906127f9565b610eb0565b60405161018d959493929190612918565b60405180910390f35b6101b060048036038101906101ab9190612997565b610fd8565b005b6101cc60048036038101906101c79190612423565b61122d565b005b6101e860048036038101906101e39190612423565b61151e565b6040516101f591906129f3565b60405180910390f35b61021860048036038101906102139190612a0e565b6115cf565b6040516102259190612a69565b60405180910390f35b61024860048036038101906102439190612a0e565b611663565b6040516102559190612a69565b60405180910390f35b61027860048036038101906102739190612423565b611692565b005b610294600480360381019061028f91906127f9565b6118f0565b6040516102a393929190612a84565b60405180910390f35b6102c660048036038101906102c191906127f9565b6119df565b6040516102d39190612b47565b60405180910390f35b6102f660048036038101906102f19190612423565b611c41565b6040516103069493929190612bb1565b60405180910390f35b61032960048036038101906103249190612bfd565b611d33565b005b61034560048036038101906103409190612c2a565b61207c565b005b6000600681111561035b5761035a6128a1565b5b6000803373ffffffffffffffffffffffffffffffffffffffff1673ffffffffffffffffffffffffffffffffffffffff16815260200190815260200160002060020160009054906101000a900460ff1660068111156103bc576103bb6128a1565b5b146103f3576040517f8251137800000000000000000000000000000000000000000000000000000000815260040160405180910390fd5b60008060008373ffffffffffffffffffffffffffffffffffffffff1673ffffffffffffffffffffffffffffffffffffffff168152602001908152602001600020905060016006811115610449576104486128a1565b5b8160020160009054906101000a900460ff16600681111561046d5761046c6128a1565b5b14158061048957508060020160019054906101000a900460ff16155b156104c0576040517fe8dc534400000000000000000000000000000000000000000000000000000000815260040160405180910390fd5b600260003373ffffffffffffffffffffffffffffffffffffffff1673ffffffffffffffffffffffffffffffffffffffff16815260200190815260200160002060008373ffffffffffffffffffffffffffffffffffffffff1673ffffffffffffffffffffffffffffffffffffffff16815260200190815260200160002060009054906101000a900460ff1615610581576040517f857dd8aa00000000000000000000000000000000000000000000000000000000815260040160405180910390fd5b6001600260003373ffffffffffffffffffffffffffffffffffffffff1673ffffffffffffffffffffffffffffffffffffffff16815260200190815260200160002060008473ffffffffffffffffffffffffffffffffffffffff1673ffffffffffffffffffffffffffffffffffffffff16815260200190815260200160002060006101000a81548160ff0219169083151502179055508173ffffffffffffffffffffffffffffffffffffffff163373ffffffffffffffffffffffffffffffffffffffff167f9f520b3bfc56d06f7065d10b4683b3f57ac8895d5026cd176dee95ce1454cb8d60405160405180910390a35050565b60608173ffffffffffffffffffffffffffffffffffffffff163373ffffffffffffffffffffffffffffffffffffffff160361083757600160008373ffffffffffffffffffffffffffffffffffffffff1673ffffffffffffffffffffffffffffffffffffffff168152602001908152602001600020805480602002602001604051908101604052809291908181526020016000905b8282101561082c578382906000526020600020906003020160405180606001604052908160008201805461073b90612ca2565b80601f016020809104026020016040519081016040528092919081815260200182805461076790612ca2565b80156107b45780601f10610789576101008083540402835291602001916107b4565b820191906000526020600020905b81548152906001019060200180831161079757829003601f168201915b50505050508152602001600182015481526020016002820160009054906101000a900473ffffffffffffffffffffffffffffffffffffffff1673ffffffffffffffffffffffffffffffffffffffff1673ffffffffffffffffffffffffffffffffffffffff168152505081526020019060010190610708565b505050509050610a8f565b600260008373ffffffffffffffffffffffffffffffffffffffff1673ffffffffffffffffffffffffffffffffffffffff16815260200190815260200160002060003373ffffffffffffffffffffffffffffffffffffffff1673ffffffffffffffffffffffffffffffffffffffff16815260200190815260200160002060009054906101000a900460ff1615610a5457600160008373ffffffffffffffffffffffffffffffffffffffff1673ffffffffffffffffffffffffffffffffffffffff168152602001908152602001600020805480602002602001604051908101604052809291908181526020016000905b82821015610a49578382906000526020600020906003020160405180606001604052908160008201805461095890612ca2565b80601f016020809104026020016040519081016040528092919081815260200182805461098490612ca2565b80156109d15780601f106109a6576101008083540402835291602001916109d1565b820191906000526020600020905b8154815290600101906020018083116109b457829003601f168201915b50505050508152602001600182015481526020016002820160009054906101000a900473ffffffffffffffffffffffffffffffffffffffff1673ffffffffffffffffffffffffffffffffffffffff1673ffffffffffffffffffffffffffffffffffffffff168152505081526020019060010190610925565b505050509050610a8f565b6040517f08c379a0000000000000000000000000000000000000000000000000000000008152600401610a8690612d45565b60405180910390fd5b919050565b60036006811115610aa857610aa76128a1565b5b6000803373ffffffffffffffffffffffffffffffffffffffff1673ffffffffffffffffffffffffffffffffffffffff16815260200190815260200160002060020160009054906101000a900460ff166006811115610b0957610b086128a1565b5b14610b40576040517f354a448400000000000000000000000000000000000000000000000000000000815260040160405180910390fd5b60006006811115610b5457610b536128a1565b5b6000808473ffffffffffffffffffffffffffffffffffffffff1673ffffffffffffffffffffffffffffffffffffffff16815260200190815260200160002060020160009054906101000a900460ff166006811115610bb557610bb46128a1565b5b14610bec576040517f8251137800000000000000000000000000000000000000000000000000000000815260040160405180910390fd5b600060046000815480929190610c0190612d94565b919050559050600360008473ffffffffffffffffffffffffffffffffffffffff1673ffffffffffffffffffffffffffffffffffffffff1681526020019081526020016000206040518060a001604052808381526020018573ffffffffffffffffffffffffffffffffffffffff1681526020013373ffffffffffffffffffffffffffffffffffffffff16815260200184815260200160006002811115610ca957610ca86128a1565b5b81525090806001815401808255809150506001900390600052602060002090600502016000909190919091506000820151816000015560208201518160010160006101000a81548173ffffffffffffffffffffffffffffffffffffffff021916908373ffffffffffffffffffffffffffffffffffffffff16021790555060408201518160020160006101000a81548173ffffffffffffffffffffffffffffffffffffffff021916908373ffffffffffffffffffffffffffffffffffffffff1602179055506060820151816003019081610d829190612f88565b5060808201518160040160006101000a81548160ff02191690836002811115610dae57610dad6128a1565b5b021790555050503373ffffffffffffffffffffffffffffffffffffffff168373ffffffffffffffffffffffffffffffffffffffff16827f21eb886073c5fec0f227f76ef8335d82939c7aa4b537be2e0943f4c1dc74553e85604051610e13919061305a565b60405180910390a48273ffffffffffffffffffffffffffffffffffffffff167f73e28b9bdc3abd774a66a8eb8f74f1cf3ddb5fd37363b899e8463aa6f7c286b3600360008673ffffffffffffffffffffffffffffffffffffffff1673ffffffffffffffffffffffffffffffffffffffff16815260200190815260200160002080549050604051610ea391906129f3565b60405180910390a2505050565b60036020528160005260406000208181548110610ecc57600080fd5b9060005260206000209060050201600091509150508060000154908060010160009054906101000a900473ffffffffffffffffffffffffffffffffffffffff16908060020160009054906101000a900473ffffffffffffffffffffffffffffffffffffffff1690806003018054610f4290612ca2565b80601f0160208091040260200160405190810160405280929190818152602001828054610f6e90612ca2565b8015610fbb5780601f10610f9057610100808354040283529160200191610fbb565b820191906000526020600020905b815481529060010190602001808311610f9e57829003601f168201915b5050505050908060040160009054906101000a900460ff16905085565b600073ffffffffffffffffffffffffffffffffffffffff166000803373ffffffffffffffffffffffffffffffffffffffff1673ffffffffffffffffffffffffffffffffffffffff16815260200190815260200160002060000160009054906101000a900473ffffffffffffffffffffffffffffffffffffffff1673ffffffffffffffffffffffffffffffffffffffff161461109f576040517f3a81d6fc00000000000000000000000000000000000000000000000000000000815260040160405180910390fd5b60405180608001604052803373ffffffffffffffffffffffffffffffffffffffff1681526020018381526020018260068111156110df576110de6128a1565b5b8152602001600015158152506000803373ffffffffffffffffffffffffffffffffffffffff1673ffffffffffffffffffffffffffffffffffffffff16815260200190815260200160002060008201518160000160006101000a81548173ffffffffffffffffffffffffffffffffffffffff021916908373ffffffffffffffffffffffffffffffffffffffff16021790555060208201518160010190816111859190612f88565b5060408201518160020160006101000a81548160ff021916908360068111156111b1576111b06128a1565b5b021790555060608201518160020160016101000a81548160ff0219169083151502179055509050503373ffffffffffffffffffffffffffffffffffffffff167fc2e5d5da58bd71d1a2d14cdef02a4256d971b728088f8190d067ccfbae3bd73e838360405161122192919061307c565b60405180910390a25050565b600073ffffffffffffffffffffffffffffffffffffffff166000803373ffffffffffffffffffffffffffffffffffffffff1673ffffffffffffffffffffffffffffffffffffffff16815260200190815260200160002060000160009054906101000a900473ffffffffffffffffffffffffffffffffffffffff1673ffffffffffffffffffffffffffffffffffffffff16036112f4576040517faba4733900000000000000000000000000000000000000000000000000000000815260040160405180910390fd5b60026006811115611308576113076128a1565b5b6000803373ffffffffffffffffffffffffffffffffffffffff1673ffffffffffffffffffffffffffffffffffffffff16815260200190815260200160002060020160009054906101000a900460ff166006811115611369576113686128a1565b5b146113a0576040517f55098f2700000000000000000000000000000000000000000000000000000000815260040160405180910390fd5b600073ffffffffffffffffffffffffffffffffffffffff166000808373ffffffffffffffffffffffffffffffffffffffff1673ffffffffffffffffffffffffffffffffffffffff16815260200190815260200160002060000160009054906101000a900473ffffffffffffffffffffffffffffffffffffffff1673ffffffffffffffffffffffffffffffffffffffff1603611467576040517f670a68cc00000000000000000000000000000000000000000000000000000000815260040160405180910390fd5b60016000808373ffffffffffffffffffffffffffffffffffffffff1673ffffffffffffffffffffffffffffffffffffffff16815260200190815260200160002060020160016101000a81548160ff0219169083151502179055508073ffffffffffffffffffffffffffffffffffffffff163373ffffffffffffffffffffffffffffffffffffffff167fbfb2fa25f828a712fda370028ecc8813c7082c69b239a579753b10e24dd472cc60405160405180910390a350565b60008173ffffffffffffffffffffffffffffffffffffffff163373ffffffffffffffffffffffffffffffffffffffff1614611585576040517fea8e4eb500000000000000000000000000000000000000000000000000000000815260040160405180910390fd5b600360008373ffffffffffffffffffffffffffffffffffffffff1673ffffffffffffffffffffffffffffffffffffffff168152602001908152602001600020805490509050919050565b6000600260008473ffffffffffffffffffffffffffffffffffffffff1673ffffffffffffffffffffffffffffffffffffffff16815260200190815260200160002060008373ffffffffffffffffffffffffffffffffffffffff1673ffffffffffffffffffffffffffffffffffffffff16815260200190815260200160002060009054906101000a900460ff16905092915050565b60026020528160005260406000206020528060005260406000206000915091509054906101000a900460ff1681565b600060068111156116a6576116a56128a1565b5b6000803373ffffffffffffffffffffffffffffffffffffffff1673ffffffffffffffffffffffffffffffffffffffff16815260200190815260200160002060020160009054906101000a900460ff166006811115611707576117066128a1565b5b1461173e576040517f8251137800000000000000000000000000000000000000000000000000000000815260040160405180910390fd5b600260003373ffffffffffffffffffffffffffffffffffffffff1673ffffffffffffffffffffffffffffffffffffffff16815260200190815260200160002060008273ffffffffffffffffffffffffffffffffffffffff1673ffffffffffffffffffffffffffffffffffffffff16815260200190815260200160002060009054906101000a900460ff166117fe576040517f9cf4448900000000000000000000000000000000000000000000000000000000815260040160405180910390fd5b6000600260003373ffffffffffffffffffffffffffffffffffffffff1673ffffffffffffffffffffffffffffffffffffffff16815260200190815260200160002060008373ffffffffffffffffffffffffffffffffffffffff1673ffffffffffffffffffffffffffffffffffffffff16815260200190815260200160002060006101000a81548160ff0219169083151502179055508073ffffffffffffffffffffffffffffffffffffffff163373ffffffffffffffffffffffffffffffffffffffff167f825c8be24eb0df19500f63e86c29e7d0d951e73056b889b891d85e40938d9b6e60405160405180910390a350565b6001602052816000526040600020818154811061190c57600080fd5b90600052602060002090600302016000915091505080600001805461193090612ca2565b80601f016020809104026020016040519081016040528092919081815260200182805461195c90612ca2565b80156119a95780601f1061197e576101008083540402835291602001916119a9565b820191906000526020600020905b81548152906001019060200180831161198c57829003601f168201915b5050505050908060010154908060020160009054906101000a900473ffffffffffffffffffffffffffffffffffffffff16905083565b6119e7612344565b8273ffffffffffffffffffffffffffffffffffffffff163373ffffffffffffffffffffffffffffffffffffffff1614611a4c576040517fea8e4eb500000000000000000000000000000000000000000000000000000000815260040160405180910390fd5b600360008473ffffffffffffffffffffffffffffffffffffffff1673ffffffffffffffffffffffffffffffffffffffff1681526020019081526020016000208281548110611a9d57611a9c6130ac565b5b90600052602060002090600502016040518060a0016040529081600082015481526020016001820160009054906101000a900473ffffffffffffffffffffffffffffffffffffffff1673ffffffffffffffffffffffffffffffffffffffff1673ffffffffffffffffffffffffffffffffffffffff1681526020016002820160009054906101000a900473ffffffffffffffffffffffffffffffffffffffff1673ffffffffffffffffffffffffffffffffffffffff1673ffffffffffffffffffffffffffffffffffffffff168152602001600382018054611b7c90612ca2565b80601f0160208091040260200160405190810160405280929190818152602001828054611ba890612ca2565b8015611bf55780601f10611bca57610100808354040283529160200191611bf5565b820191906000526020600020905b815481529060010190602001808311611bd857829003601f168201915b505050505081526020016004820160009054906101000a900460ff166002811115611c2357611c226128a1565b5b6002811115611c3557611c346128a1565b5b81525050905092915050565b60006020528060005260406000206000915090508060000160009054906101000a900473ffffffffffffffffffffffffffffffffffffffff1690806001018054611c8a90612ca2565b80601f0160208091040260200160405190810160405280929190818152602001828054611cb690612ca2565b8015611d035780601f10611cd857610100808354040283529160200191611d03565b820191906000526020600020905b815481529060010190602001808311611ce657829003601f168201915b5050505050908060020160009054906101000a900460ff16908060020160019054906101000a900460ff16905084565b60006006811115611d4757611d466128a1565b5b6000803373ffffffffffffffffffffffffffffffffffffffff1673ffffffffffffffffffffffffffffffffffffffff16815260200190815260200160002060020160009054906101000a900460ff166006811115611da857611da76128a1565b5b14611ddf576040517f8251137800000000000000000000000000000000000000000000000000000000815260040160405180910390fd5b6000600360003373ffffffffffffffffffffffffffffffffffffffff1673ffffffffffffffffffffffffffffffffffffffff16815260200190815260200160002090506000805b828054905081101561203f5783838281548110611e4657611e456130ac565b5b906000526020600020906005020160000154148015611eba575060006002811115611e7457611e736128a1565b5b838281548110611e8757611e866130ac565b5b906000526020600020906005020160040160009054906101000a900460ff166002811115611eb857611eb76128a1565b5b145b15612032576001838281548110611ed457611ed36130ac565b5b906000526020600020906005020160040160006101000a81548160ff02191690836002811115611f0757611f066128a1565b5b02179055506001600260003373ffffffffffffffffffffffffffffffffffffffff1673ffffffffffffffffffffffffffffffffffffffff1681526020019081526020016000206000858481548110611f6257611f616130ac565b5b906000526020600020906005020160020160009054906101000a900473ffffffffffffffffffffffffffffffffffffffff1673ffffffffffffffffffffffffffffffffffffffff1673ffffffffffffffffffffffffffffffffffffffff16815260200190815260200160002060006101000a81548160ff021916908315150217905550600191503373ffffffffffffffffffffffffffffffffffffffff16847ff3dc904660a0ea05aba8dfa1e21fbc4fb2914be2a3029da7b0fdd3e5eee20ddb60405160405180910390a361203f565b8080600101915050611e26565b5080612077576040517f4b13b31e00000000000000000000000000000000000000000000000000000000815260040160405180910390fd5b505050565b600073ffffffffffffffffffffffffffffffffffffffff166000803373ffffffffffffffffffffffffffffffffffffffff1673ffffffffffffffffffffffffffffffffffffffff16815260200190815260200160002060000160009054906101000a900473ffffffffffffffffffffffffffffffffffffffff1673ffffffffffffffffffffffffffffffffffffffff1603612143576040517faba4733900000000000000000000000000000000000000000000000000000000815260040160405180910390fd5b60006006811115612157576121566128a1565b5b6000803373ffffffffffffffffffffffffffffffffffffffff1673ffffffffffffffffffffffffffffffffffffffff16815260200190815260200160002060020160009054906101000a900460ff1660068111156121b8576121b76128a1565b5b146121ef576040517f8251137800000000000000000000000000000000000000000000000000000000815260040160405180910390fd5b600160003373ffffffffffffffffffffffffffffffffffffffff1673ffffffffffffffffffffffffffffffffffffffff16815260200190815260200160002060405180606001604052808381526020014281526020013373ffffffffffffffffffffffffffffffffffffffff168152509080600181540180825580915050600190039060005260206000209060030201600090919091909150600082015181600001908161229d9190612f88565b506020820151816001015560408201518160020160006101000a81548173ffffffffffffffffffffffffffffffffffffffff021916908373ffffffffffffffffffffffffffffffffffffffff16021790555050503373ffffffffffffffffffffffffffffffffffffffff167f4b92a41aaac1d087148ec39a65a261cc6ac88ed7765dece5374bb3893fcfcf9e82426040516123399291906130db565b60405180910390a250565b6040518060a0016040528060008152602001600073ffffffffffffffffffffffffffffffffffffffff168152602001600073ffffffffffffffffffffffffffffffffffffffff16815260200160608152602001600060028111156123ab576123aa6128a1565b5b81525090565b6000604051905090565b600080fd5b600080fd5b600073ffffffffffffffffffffffffffffffffffffffff82169050919050565b60006123f0826123c5565b9050919050565b612400816123e5565b811461240b57600080fd5b50565b60008135905061241d816123f7565b92915050565b600060208284031215612439576124386123bb565b5b60006124478482850161240e565b91505092915050565b600081519050919050565b600082825260208201905092915050565b6000819050602082019050919050565b600081519050919050565b600082825260208201905092915050565b60005b838110156124b657808201518184015260208101905061249b565b60008484015250505050565b6000601f19601f8301169050919050565b60006124de8261247c565b6124e88185612487565b93506124f8818560208601612498565b612501816124c2565b840191505092915050565b6000819050919050565b61251f8161250c565b82525050565b61252e816123e5565b82525050565b6000606083016000830151848203600086015261255182826124d3565b91505060208301516125666020860182612516565b5060408301516125796040860182612525565b508091505092915050565b60006125908383612534565b905092915050565b6000602082019050919050565b60006125b082612450565b6125ba818561245b565b9350836020820285016125cc8561246c565b8060005b8581101561260857848403895281516125e98582612584565b94506125f483612598565b925060208a019950506001810190506125d0565b50829750879550505050505092915050565b6000602082019050818103600083015261263481846125a5565b905092915050565b600080fd5b600080fd5b7f4e487b7100000000000000000000000000000000000000000000000000000000600052604160045260246000fd5b61267e826124c2565b810181811067ffffffffffffffff8211171561269d5761269c612646565b5b80604052505050565b60006126b06123b1565b90506126bc8282612675565b919050565b600067ffffffffffffffff8211156126dc576126db612646565b5b6126e5826124c2565b9050602081019050919050565b82818337600083830152505050565b600061271461270f846126c1565b6126a6565b9050828152602081018484840111156127305761272f612641565b5b61273b8482856126f2565b509392505050565b600082601f8301126127585761275761263c565b5b8135612768848260208601612701565b91505092915050565b60008060408385031215612788576127876123bb565b5b60006127968582860161240e565b925050602083013567ffffffffffffffff8111156127b7576127b66123c0565b5b6127c385828601612743565b9150509250929050565b6127d68161250c565b81146127e157600080fd5b50565b6000813590506127f3816127cd565b92915050565b600080604083850312156128105761280f6123bb565b5b600061281e8582860161240e565b925050602061282f858286016127e4565b9150509250929050565b6128428161250c565b82525050565b612851816123e5565b82525050565b600082825260208201905092915050565b60006128738261247c565b61287d8185612857565b935061288d818560208601612498565b612896816124c2565b840191505092915050565b7f4e487b7100000000000000000000000000000000000000000000000000000000600052602160045260246000fd5b600381106128e1576128e06128a1565b5b50565b60008190506128f2826128d0565b919050565b6000612902826128e4565b9050919050565b612912816128f7565b82525050565b600060a08201905061292d6000830188612839565b61293a6020830187612848565b6129476040830186612848565b81810360608301526129598185612868565b90506129686080830184612909565b9695505050505050565b6007811061297f57600080fd5b50565b60008135905061299181612972565b92915050565b600080604083850312156129ae576129ad6123bb565b5b600083013567ffffffffffffffff8111156129cc576129cb6123c0565b5b6129d885828601612743565b92505060206129e985828601612982565b9150509250929050565b6000602082019050612a086000830184612839565b92915050565b60008060408385031215612a2557612a246123bb565b5b6000612a338582860161240e565b9250506020612a448582860161240e565b9150509250929050565b60008115159050919050565b612a6381612a4e565b82525050565b6000602082019050612a7e6000830184612a5a565b92915050565b60006060820190508181036000830152612a9e8186612868565b9050612aad6020830185612839565b612aba6040830184612848565b949350505050565b612acb816128f7565b82525050565b600060a083016000830151612ae96000860182612516565b506020830151612afc6020860182612525565b506040830151612b0f6040860182612525565b5060608301518482036060860152612b2782826124d3565b9150506080830151612b3c6080860182612ac2565b508091505092915050565b60006020820190508181036000830152612b618184612ad1565b905092915050565b60078110612b7a57612b796128a1565b5b50565b6000819050612b8b82612b69565b919050565b6000612b9b82612b7d565b9050919050565b612bab81612b90565b82525050565b6000608082019050612bc66000830187612848565b8181036020830152612bd88186612868565b9050612be76040830185612ba2565b612bf46060830184612a5a565b95945050505050565b600060208284031215612c1357612c126123bb565b5b6000612c21848285016127e4565b91505092915050565b600060208284031215612c4057612c3f6123bb565b5b600082013567ffffffffffffffff811115612c5e57612c5d6123c0565b5b612c6a84828501612743565b91505092915050565b7f4e487b7100000000000000000000000000000000000000000000000000000000600052602260045260246000fd5b60006002820490506001821680612cba57607f821691505b602082108103612ccd57612ccc612c73565b5b50919050565b7f596f7520646f206e6f742068617665207065726d697373696f6e20746f20766960008201527f6577207468657365207265636f7264732e000000000000000000000000000000602082015250565b6000612d2f603183612857565b9150612d3a82612cd3565b604082019050919050565b60006020820190508181036000830152612d5e81612d22565b9050919050565b7f4e487b7100000000000000000000000000000000000000000000000000000000600052601160045260246000fd5b6000612d9f8261250c565b91507fffffffffffffffffffffffffffffffffffffffffffffffffffffffffffffffff8203612dd157612dd0612d65565b5b600182019050919050565b60008190508160005260206000209050919050565b60006020601f8301049050919050565b600082821b905092915050565b600060088302612e3e7fffffffffffffffffffffffffffffffffffffffffffffffffffffffffffffffff82612e01565b612e488683612e01565b95508019841693508086168417925050509392505050565b6000819050919050565b6000612e85612e80612e7b8461250c565b612e60565b61250c565b9050919050565b6000819050919050565b612e9f83612e6a565b612eb3612eab82612e8c565b848454612e0e565b825550505050565b600090565b612ec8612ebb565b612ed3818484612e96565b505050565b5b81811015612ef757612eec600082612ec0565b600181019050612ed9565b5050565b601f821115612f3c57612f0d81612ddc565b612f1684612df1565b81016020851015612f25578190505b612f39612f3185612df1565b830182612ed8565b50505b505050565b600082821c905092915050565b6000612f5f60001984600802612f41565b1980831691505092915050565b6000612f788383612f4e565b9150826002028217905092915050565b612f918261247c565b67ffffffffffffffff811115612faa57612fa9612646565b5b612fb48254612ca2565b612fbf828285612efb565b600060209050601f831160018114612ff25760008415612fe0578287015190505b612fea8582612f6c565b865550613052565b601f19841661300086612ddc565b60005b8281101561302857848901518255600182019150602085019450602081019050613003565b868310156130455784890151613041601f891682612f4e565b8355505b6001600288020188555050505b505050505050565b600060208201905081810360008301526130748184612868565b905092915050565b600060408201905081810360008301526130968185612868565b90506130a56020830184612ba2565b9392505050565b7f4e487b7100000000000000000000000000000000000000000000000000000000600052603260045260246000fd5b600060408201905081810360008301526130f58185612868565b90506131046020830184612839565b939250505056fea264697066735822122074037df75e2b4c130420fb3fa1bc21c92e8a8a67cca395db59d983a71b13308064736f6c63430008180033",
  "linkReferences": {},
  "deployedLinkReferences": {}
}