{
  "_format": "hh-sol-artifact-1",
  "contractName": "MedicalRecords",
  "sourceName": "contracts/MedicalRecords.sol",
  "abi": [
    {
      "inputs": [],
      "stateMutability": "nonpayable",
      "type": "constructor"
    },
    {
      "inputs": [],
      "name": "AccessAlreadyGranted",
      "type": "error"
    },
    {
      "inputs": [
        {
          "internalType": "address",
          "name": "target",
          "type": "address"
        }
      ],
      "name": "AddressEmptyCode",
      "type": "error"
    },
    {
      "inputs": [],
      "name": "AlreadyRegistered",
      "type": "error"
    },
    {
      "inputs": [],
      "name": "CannotRegisterAsAdmin",
      "type": "error"
    },
    {
      "inputs": [
        {
          "internalType": "address",
          "name": "implementation",
          "type": "address"
        }
      ],
      "name": "ERC1967InvalidImplementation",
      "type": "error"
    },
    {
      "inputs": [],
      "name": "ERC1967NonPayable",
      "type": "error"
    },
    {
      "inputs": [],
      "name": "FailedCall",
      "type": "error"
    },
    {
      "inputs": [],
      "name": "HospitalNotVerified",
      "type": "error"
    },
    {
      "inputs": [],
      "name": "InputArrayLengthMismatch",
      "type": "error"
    },
    {
      "inputs": [],
      "name": "InvalidInitialization",
      "type": "error"
    },
    {
      "inputs": [],
      "name": "NoAccessToRevoke",
      "type": "error"
    },
    {
      "inputs": [],
      "name": "NotAPatient",
      "type": "error"
    },
    {
      "inputs": [],
      "name": "NotAVerifiedProfessional",
      "type": "error"
    },
    {
      "inputs": [],
      "name": "NotAnInsuranceProvider",
      "type": "error"
    },
    {
      "inputs": [],
      "name": "NotAuthorized",
      "type": "error"
    },
    {
      "inputs": [],
      "name": "NotHospitalAdmin",
      "type": "error"
    },
    {
      "inputs": [],
      "name": "NotInitializing",
      "type": "error"
    },
    {
      "inputs": [],
      "name": "NotRecordOwner",
      "type": "error"
    },
    {
      "inputs": [],
      "name": "NotRegistered",
      "type": "error"
    },
    {
      "inputs": [],
      "name": "NotSuperAdmin",
      "type": "error"
    },
    {
      "inputs": [
        {
          "internalType": "address",
          "name": "owner",
          "type": "address"
        }
      ],
      "name": "OwnableInvalidOwner",
      "type": "error"
    },
    {
      "inputs": [
        {
          "internalType": "address",
          "name": "account",
          "type": "address"
        }
      ],
      "name": "OwnableUnauthorizedAccount",
      "type": "error"
    },
    {
      "inputs": [],
      "name": "PublicKeyAlreadySet",
      "type": "error"
    },
    {
      "inputs": [],
      "name": "RecordNotFound",
      "type": "error"
    },
    {
      "inputs": [],
      "name": "RequestNotFound",
      "type": "error"
    },
    {
      "inputs": [],
      "name": "RequestNotFoundOrAlreadyHandled",
      "type": "error"
    },
    {
      "inputs": [],
      "name": "RoleNotAllowed",
      "type": "error"
    },
    {
      "inputs": [],
      "name": "UUPSUnauthorizedCallContext",
      "type": "error"
    },
    {
      "inputs": [
        {
          "internalType": "bytes32",
          "name": "slot",
          "type": "bytes32"
        }
      ],
      "name": "UUPSUnsupportedProxiableUUID",
      "type": "error"
    },
    {
      "inputs": [],
      "name": "UserAlreadyInHospital",
      "type": "error"
    },
    {
      "inputs": [],
      "name": "UserNotFound",
      "type": "error"
    },
    {
      "inputs": [],
      "name": "UserNotInHospital",
      "type": "error"
    },
    {
      "anonymous": false,
      "inputs": [
        {
          "indexed": true,
          "internalType": "uint256",
          "name": "recordId",
          "type": "uint256"
        },
        {
          "indexed": true,
          "internalType": "address",
          "name": "owner",
          "type": "address"
        },
        {
          "indexed": true,
          "internalType": "address",
          "name": "grantee",
          "type": "address"
        },
        {
          "indexed": false,
          "internalType": "uint256",
          "name": "expiration",
          "type": "uint256"
        },
        {
          "indexed": false,
          "internalType": "bytes",
          "name": "encryptedDek",
          "type": "bytes"
        }
      ],
      "name": "AccessGranted",
      "type": "event"
    },
    {
      "anonymous": false,
      "inputs": [
        {
          "indexed": true,
          "internalType": "uint256",
          "name": "requestId",
          "type": "uint256"
        },
        {
          "indexed": true,
          "internalType": "address",
          "name": "patient",
          "type": "address"
        },
        {
          "indexed": true,
          "internalType": "address",
          "name": "provider",
          "type": "address"
        },
        {
          "indexed": false,
          "internalType": "string",
          "name": "claimId",
          "type": "string"
        }
      ],
      "name": "AccessRequested",
      "type": "event"
    },
    {
      "anonymous": false,
      "inputs": [
        {
          "indexed": true,
          "internalType": "uint256",
          "name": "hospitalId",
          "type": "uint256"
        }
      ],
      "name": "HospitalRevoked",
      "type": "event"
    },
    {
      "anonymous": false,
      "inputs": [
        {
          "indexed": true,
          "internalType": "uint256",
          "name": "hospitalId",
          "type": "uint256"
        },
        {
          "indexed": true,
          "internalType": "address",
          "name": "adminAddress",
          "type": "address"
        }
      ],
      "name": "HospitalVerified",
      "type": "event"
    },
    {
      "anonymous": false,
      "inputs": [
        {
          "indexed": false,
          "internalType": "uint64",
          "name": "version",
          "type": "uint64"
        }
      ],
      "name": "Initialized",
      "type": "event"
    },
    {
      "anonymous": false,
      "inputs": [
        {
          "indexed": true,
          "internalType": "address",
          "name": "previousOwner",
          "type": "address"
        },
        {
          "indexed": true,
          "internalType": "address",
          "name": "newOwner",
          "type": "address"
        }
      ],
      "name": "OwnershipTransferred",
      "type": "event"
    },
    {
      "anonymous": false,
      "inputs": [
        {
          "indexed": true,
          "internalType": "address",
          "name": "user",
          "type": "address"
        },
        {
          "indexed": false,
          "internalType": "string",
          "name": "name",
          "type": "string"
        },
        {
          "indexed": false,
          "internalType": "string",
          "name": "contactInfo",
          "type": "string"
        },
        {
          "indexed": false,
          "internalType": "string",
          "name": "profileMetadataURI",
          "type": "string"
        }
      ],
      "name": "ProfileUpdated",
      "type": "event"
    },
    {
      "anonymous": false,
      "inputs": [
        {
          "indexed": true,
          "internalType": "address",
          "name": "user",
          "type": "address"
        }
      ],
      "name": "PublicKeySaved",
      "type": "event"
    },
    {
      "anonymous": false,
      "inputs": [
        {
          "indexed": true,
          "internalType": "uint256",
          "name": "recordId",
          "type": "uint256"
        },
        {
          "indexed": true,
          "internalType": "address",
          "name": "professionalAddress",
          "type": "address"
        }
      ],
      "name": "RecordAccessRevoked",
      "type": "event"
    },
    {
      "anonymous": false,
      "inputs": [
        {
          "indexed": true,
          "internalType": "uint256",
          "name": "recordId",
          "type": "uint256"
        },
        {
          "indexed": true,
          "internalType": "address",
          "name": "patient",
          "type": "address"
        },
        {
          "indexed": true,
          "internalType": "address",
          "name": "uploadedBy",
          "type": "address"
        },
        {
          "indexed": false,
          "internalType": "string",
          "name": "category",
          "type": "string"
        },
        {
          "indexed": false,
          "internalType": "bool",
          "name": "isVerified",
          "type": "bool"
        },
        {
          "indexed": false,
          "internalType": "bytes",
          "name": "encryptedKeyForPatient",
          "type": "bytes"
        },
        {
          "indexed": false,
          "internalType": "bytes",
          "name": "encryptedKeyForHospital",
          "type": "bytes"
        }
      ],
      "name": "RecordAdded",
      "type": "event"
    },
    {
      "anonymous": false,
      "inputs": [
        {
          "indexed": true,
          "internalType": "uint256",
          "name": "hospitalId",
          "type": "uint256"
        },
        {
          "indexed": false,
          "internalType": "string",
          "name": "name",
          "type": "string"
        },
        {
          "indexed": true,
          "internalType": "address",
          "name": "requester",
          "type": "address"
        }
      ],
      "name": "RegistrationRequested",
      "type": "event"
    },
    {
      "anonymous": false,
      "inputs": [
        {
          "indexed": true,
          "internalType": "uint256",
          "name": "requestId",
          "type": "uint256"
        },
        {
          "indexed": true,
          "internalType": "address",
          "name": "patient",
          "type": "address"
        },
        {
          "indexed": false,
          "internalType": "uint256",
          "name": "accessDuration",
          "type": "uint256"
        }
      ],
      "name": "RequestApproved",
      "type": "event"
    },
    {
      "anonymous": false,
      "inputs": [
        {
          "indexed": true,
          "internalType": "address",
          "name": "user",
          "type": "address"
        },
        {
          "indexed": false,
          "internalType": "enum Storage.Role",
          "name": "role",
          "type": "uint8"
        },
        {
          "indexed": true,
          "internalType": "uint256",
          "name": "hospitalId",
          "type": "uint256"
        }
      ],
      "name": "RoleAssigned",
      "type": "event"
    },
    {
      "anonymous": false,
      "inputs": [
        {
          "indexed": true,
          "internalType": "address",
          "name": "user",
          "type": "address"
        },
        {
          "indexed": false,
          "internalType": "enum Storage.Role",
          "name": "role",
          "type": "uint8"
        },
        {
          "indexed": true,
          "internalType": "uint256",
          "name": "hospitalId",
          "type": "uint256"
        }
      ],
      "name": "RoleRevoked",
      "type": "event"
    },
    {
      "anonymous": false,
      "inputs": [
        {
          "indexed": true,
          "internalType": "address",
          "name": "implementation",
          "type": "address"
        }
      ],
      "name": "Upgraded",
      "type": "event"
    },
    {
      "anonymous": false,
      "inputs": [
        {
          "indexed": true,
          "internalType": "address",
          "name": "userAddress",
          "type": "address"
        },
        {
          "indexed": false,
          "internalType": "string",
          "name": "name",
          "type": "string"
        },
        {
          "indexed": false,
          "internalType": "enum Storage.Role",
          "name": "role",
          "type": "uint8"
        }
      ],
      "name": "UserRegistered",
      "type": "event"
    },
    {
      "anonymous": false,
      "inputs": [
        {
          "indexed": true,
          "internalType": "address",
          "name": "admin",
          "type": "address"
        },
        {
          "indexed": true,
          "internalType": "address",
          "name": "userAddress",
          "type": "address"
        }
      ],
      "name": "UserVerified",
      "type": "event"
    },
    {
      "inputs": [],
      "name": "UPGRADE_INTERFACE_VERSION",
      "outputs": [
        {
          "internalType": "string",
          "name": "",
          "type": "string"
        }
      ],
      "stateMutability": "view",
      "type": "function"
    },
    {
      "inputs": [
        {
          "internalType": "string",
          "name": "_ipfsHash",
          "type": "string"
        },
        {
          "internalType": "string",
          "name": "_category",
          "type": "string"
        },
        {
          "internalType": "bytes",
          "name": "_encryptedKeyForPatient",
          "type": "bytes"
        }
      ],
      "name": "addSelfUploadedRecord",
      "outputs": [],
      "stateMutability": "nonpayable",
      "type": "function"
    },
    {
      "inputs": [
        {
          "internalType": "address",
          "name": "_patient",
          "type": "address"
        },
        {
          "internalType": "string",
          "name": "_ipfsHash",
          "type": "string"
        },
        {
          "internalType": "string",
          "name": "_category",
          "type": "string"
        },
        {
          "internalType": "bytes",
          "name": "_encryptedKeyForPatient",
          "type": "bytes"
        },
        {
          "internalType": "bytes",
          "name": "_encryptedKeyForHospital",
          "type": "bytes"
        }
      ],
      "name": "addVerifiedRecord",
      "outputs": [],
      "stateMutability": "nonpayable",
      "type": "function"
    },
    {
      "inputs": [
        {
          "internalType": "uint256",
          "name": "_requestId",
          "type": "uint256"
        },
        {
          "internalType": "uint256",
          "name": "_durationInDays",
          "type": "uint256"
        }
      ],
      "name": "approveRequest",
      "outputs": [],
      "stateMutability": "nonpayable",
      "type": "function"
    },
    {
      "inputs": [
        {
          "internalType": "address",
          "name": "user",
          "type": "address"
        },
        {
          "internalType": "enum Storage.Role",
          "name": "role",
          "type": "uint8"
        },
        {
          "internalType": "uint256",
          "name": "hospitalId",
          "type": "uint256"
        }
      ],
      "name": "assignRole",
      "outputs": [],
      "stateMutability": "nonpayable",
      "type": "function"
    },
    {
      "inputs": [
        {
          "internalType": "uint256",
          "name": "_recordId",
          "type": "uint256"
        },
        {
          "internalType": "address",
          "name": "_viewer",
          "type": "address"
        }
      ],
      "name": "checkRecordAccess",
      "outputs": [
        {
          "internalType": "bool",
          "name": "",
          "type": "bool"
        }
      ],
      "stateMutability": "view",
      "type": "function"
    },
    {
      "inputs": [
        {
          "internalType": "address",
          "name": "_patientAddress",
          "type": "address"
        }
      ],
      "name": "getPatientRecordIds",
      "outputs": [
        {
          "internalType": "uint256[]",
          "name": "",
          "type": "uint256[]"
        }
      ],
      "stateMutability": "view",
      "type": "function"
    },
    {
      "inputs": [
        {
          "internalType": "address",
          "name": "_patientAddress",
          "type": "address"
        },
        {
          "internalType": "uint256",
          "name": "_index",
          "type": "uint256"
        }
      ],
      "name": "getPatientRequestAtIndex",
      "outputs": [
        {
          "components": [
            {
              "internalType": "uint256",
              "name": "id",
              "type": "uint256"
            },
            {
              "internalType": "address",
              "name": "patient",
              "type": "address"
            },
            {
              "internalType": "address",
              "name": "provider",
              "type": "address"
            },
            {
              "internalType": "string",
              "name": "claimId",
              "type": "string"
            },
            {
              "internalType": "enum Storage.RequestStatus",
              "name": "status",
              "type": "uint8"
            }
          ],
          "internalType": "struct Storage.AccessRequest",
          "name": "",
          "type": "tuple"
        }
      ],
      "stateMutability": "view",
      "type": "function"
    },
    {
      "inputs": [
        {
          "internalType": "address",
          "name": "_patientAddress",
          "type": "address"
        }
      ],
      "name": "getPatientRequestsCount",
      "outputs": [
        {
          "internalType": "uint256",
          "name": "",
          "type": "uint256"
        }
      ],
      "stateMutability": "view",
      "type": "function"
    },
    {
      "inputs": [
        {
          "internalType": "uint256",
          "name": "_recordId",
          "type": "uint256"
        }
      ],
      "name": "getRecordById",
      "outputs": [
        {
          "components": [
            {
              "internalType": "uint256",
              "name": "id",
              "type": "uint256"
            },
            {
              "internalType": "string",
              "name": "ipfsHash",
              "type": "string"
            },
            {
              "internalType": "uint256",
              "name": "timestamp",
              "type": "uint256"
            },
            {
              "internalType": "address",
              "name": "uploadedBy",
              "type": "address"
            },
            {
              "internalType": "address",
              "name": "owner",
              "type": "address"
            },
            {
              "internalType": "bool",
              "name": "isVerified",
              "type": "bool"
            },
            {
              "internalType": "string",
              "name": "category",
              "type": "string"
            },
            {
              "internalType": "bytes",
              "name": "encryptedKeyForPatient",
              "type": "bytes"
            },
            {
              "internalType": "bytes",
              "name": "encryptedKeyForHospital",
              "type": "bytes"
            }
          ],
          "internalType": "struct Storage.Record",
          "name": "",
          "type": "tuple"
        }
      ],
      "stateMutability": "view",
      "type": "function"
    },
    {
      "inputs": [
        {
          "internalType": "uint256[]",
          "name": "_recordIds",
          "type": "uint256[]"
        },
        {
          "internalType": "address",
          "name": "_grantee",
          "type": "address"
        },
        {
          "internalType": "uint256",
          "name": "_durationInDays",
          "type": "uint256"
        },
        {
          "internalType": "bytes[]",
          "name": "_encryptedDeks",
          "type": "bytes[]"
        }
      ],
      "name": "grantMultipleRecordAccess",
      "outputs": [],
      "stateMutability": "nonpayable",
      "type": "function"
    },
    {
      "inputs": [
        {
          "internalType": "uint256",
          "name": "_recordId",
          "type": "uint256"
        },
        {
          "internalType": "address",
          "name": "_grantee",
          "type": "address"
        },
        {
          "internalType": "uint256",
          "name": "_durationInDays",
          "type": "uint256"
        },
        {
          "internalType": "bytes",
          "name": "_encryptedDek",
          "type": "bytes"
        }
      ],
      "name": "grantRecordAccess",
      "outputs": [],
      "stateMutability": "nonpayable",
      "type": "function"
    },
    {
      "inputs": [],
      "name": "hospitalIdCounter",
      "outputs": [
        {
          "internalType": "uint256",
          "name": "",
          "type": "uint256"
        }
      ],
      "stateMutability": "view",
      "type": "function"
    },
    {
      "inputs": [
        {
          "internalType": "uint256",
          "name": "",
          "type": "uint256"
        }
      ],
      "name": "hospitals",
      "outputs": [
        {
          "internalType": "uint256",
          "name": "hospitalId",
          "type": "uint256"
        },
        {
          "internalType": "string",
          "name": "name",
          "type": "string"
        },
        {
          "internalType": "address",
          "name": "adminAddress",
          "type": "address"
        },
        {
          "internalType": "bool",
          "name": "isVerified",
          "type": "bool"
        }
      ],
      "stateMutability": "view",
      "type": "function"
    },
    {
      "inputs": [
        {
          "internalType": "address",
          "name": "initialOwner",
          "type": "address"
        }
      ],
      "name": "initialize",
      "outputs": [],
      "stateMutability": "nonpayable",
      "type": "function"
    },
    {
      "inputs": [],
      "name": "owner",
      "outputs": [
        {
          "internalType": "address",
          "name": "",
          "type": "address"
        }
      ],
      "stateMutability": "view",
      "type": "function"
    },
    {
      "inputs": [
        {
          "internalType": "address",
          "name": "",
          "type": "address"
        },
        {
          "internalType": "uint256",
          "name": "",
          "type": "uint256"
        }
      ],
      "name": "patientRecordIds",
      "outputs": [
        {
          "internalType": "uint256",
          "name": "",
          "type": "uint256"
        }
      ],
      "stateMutability": "view",
      "type": "function"
    },
    {
      "inputs": [
        {
          "internalType": "address",
          "name": "",
          "type": "address"
        },
        {
          "internalType": "uint256",
          "name": "",
          "type": "uint256"
        }
      ],
      "name": "patientRequests",
      "outputs": [
        {
          "internalType": "uint256",
          "name": "id",
          "type": "uint256"
        },
        {
          "internalType": "address",
          "name": "patient",
          "type": "address"
        },
        {
          "internalType": "address",
          "name": "provider",
          "type": "address"
        },
        {
          "internalType": "string",
          "name": "claimId",
          "type": "string"
        },
        {
          "internalType": "enum Storage.RequestStatus",
          "name": "status",
          "type": "uint8"
        }
      ],
      "stateMutability": "view",
      "type": "function"
    },
    {
      "inputs": [
        {
          "internalType": "address",
          "name": "",
          "type": "address"
        }
      ],
      "name": "professionalToHospitalId",
      "outputs": [
        {
          "internalType": "uint256",
          "name": "",
          "type": "uint256"
        }
      ],
      "stateMutability": "view",
      "type": "function"
    },
    {
      "inputs": [],
      "name": "proxiableUUID",
      "outputs": [
        {
          "internalType": "bytes32",
          "name": "",
          "type": "bytes32"
        }
      ],
      "stateMutability": "view",
      "type": "function"
    },
    {
      "inputs": [
        {
          "internalType": "uint256",
          "name": "",
          "type": "uint256"
        },
        {
          "internalType": "address",
          "name": "",
          "type": "address"
        }
      ],
      "name": "recordAccess",
      "outputs": [
        {
          "internalType": "uint256",
          "name": "",
          "type": "uint256"
        }
      ],
      "stateMutability": "view",
      "type": "function"
    },
    {
      "inputs": [
        {
          "internalType": "uint256",
          "name": "",
          "type": "uint256"
        }
      ],
      "name": "records",
      "outputs": [
        {
          "internalType": "uint256",
          "name": "id",
          "type": "uint256"
        },
        {
          "internalType": "string",
          "name": "ipfsHash",
          "type": "string"
        },
        {
          "internalType": "uint256",
          "name": "timestamp",
          "type": "uint256"
        },
        {
          "internalType": "address",
          "name": "uploadedBy",
          "type": "address"
        },
        {
          "internalType": "address",
          "name": "owner",
          "type": "address"
        },
        {
          "internalType": "bool",
          "name": "isVerified",
          "type": "bool"
        },
        {
          "internalType": "string",
          "name": "category",
          "type": "string"
        },
        {
          "internalType": "bytes",
          "name": "encryptedKeyForPatient",
          "type": "bytes"
        },
        {
          "internalType": "bytes",
          "name": "encryptedKeyForHospital",
          "type": "bytes"
        }
      ],
      "stateMutability": "view",
      "type": "function"
    },
    {
      "inputs": [
        {
          "internalType": "string",
          "name": "_name",
          "type": "string"
        },
        {
          "internalType": "enum Storage.Role",
          "name": "_role",
          "type": "uint8"
        }
      ],
      "name": "registerUser",
      "outputs": [],
      "stateMutability": "nonpayable",
      "type": "function"
    },
    {
      "inputs": [
        {
          "internalType": "uint256",
          "name": "",
          "type": "uint256"
        }
      ],
      "name": "registrationRequests",
      "outputs": [
        {
          "internalType": "uint256",
          "name": "hospitalId",
          "type": "uint256"
        },
        {
          "internalType": "string",
          "name": "name",
          "type": "string"
        },
        {
          "internalType": "address",
          "name": "requesterAddress",
          "type": "address"
        },
        {
          "internalType": "enum Storage.RequestStatus",
          "name": "status",
          "type": "uint8"
        }
      ],
      "stateMutability": "view",
      "type": "function"
    },
    {
      "inputs": [],
      "name": "renounceOwnership",
      "outputs": [],
      "stateMutability": "nonpayable",
      "type": "function"
    },
    {
      "inputs": [
        {
          "internalType": "address",
          "name": "_patientAddress",
          "type": "address"
        },
        {
          "internalType": "string",
          "name": "_claimId",
          "type": "string"
        }
      ],
      "name": "requestAccess",
      "outputs": [],
      "stateMutability": "nonpayable",
      "type": "function"
    },
    {
      "inputs": [
        {
          "internalType": "string",
          "name": "hospitalName",
          "type": "string"
        }
      ],
      "name": "requestRegistration",
      "outputs": [],
      "stateMutability": "nonpayable",
      "type": "function"
    },
    {
      "inputs": [
        {
          "internalType": "uint256",
          "name": "hospitalId",
          "type": "uint256"
        }
      ],
      "name": "revokeHospital",
      "outputs": [],
      "stateMutability": "nonpayable",
      "type": "function"
    },
    {
      "inputs": [
        {
          "internalType": "uint256",
          "name": "recordId",
          "type": "uint256"
        },
        {
          "internalType": "address",
          "name": "professionalAddress",
          "type": "address"
        }
      ],
      "name": "revokeRecordAccess",
      "outputs": [],
      "stateMutability": "nonpayable",
      "type": "function"
    },
    {
      "inputs": [
        {
          "internalType": "address",
          "name": "user",
          "type": "address"
        },
        {
          "internalType": "enum Storage.Role",
          "name": "role",
          "type": "uint8"
        },
        {
          "internalType": "uint256",
          "name": "hospitalId",
          "type": "uint256"
        }
      ],
      "name": "revokeRole",
      "outputs": [],
      "stateMutability": "nonpayable",
      "type": "function"
    },
    {
      "inputs": [
        {
          "internalType": "string",
          "name": "_publicKey",
          "type": "string"
        }
      ],
      "name": "savePublicKey",
      "outputs": [],
      "stateMutability": "nonpayable",
      "type": "function"
    },
    {
      "inputs": [
        {
          "internalType": "address",
          "name": "newOwner",
          "type": "address"
        }
      ],
      "name": "transferOwnership",
      "outputs": [],
      "stateMutability": "nonpayable",
      "type": "function"
    },
    {
      "inputs": [
        {
          "internalType": "string",
          "name": "_name",
          "type": "string"
        },
        {
          "internalType": "string",
          "name": "_contactInfo",
          "type": "string"
        },
        {
          "internalType": "string",
          "name": "_profileMetadataURI",
          "type": "string"
        }
      ],
      "name": "updateUserProfile",
      "outputs": [],
      "stateMutability": "nonpayable",
      "type": "function"
    },
    {
      "inputs": [
        {
          "internalType": "address",
          "name": "newImplementation",
          "type": "address"
        },
        {
          "internalType": "bytes",
          "name": "data",
          "type": "bytes"
        }
      ],
      "name": "upgradeToAndCall",
      "outputs": [],
      "stateMutability": "payable",
      "type": "function"
    },
    {
      "inputs": [
        {
          "internalType": "address",
          "name": "",
          "type": "address"
        }
      ],
      "name": "userProfiles",
      "outputs": [
        {
          "internalType": "string",
          "name": "name",
          "type": "string"
        },
        {
          "internalType": "string",
          "name": "contactInfo",
          "type": "string"
        },
        {
          "internalType": "string",
          "name": "profileMetadataURI",
          "type": "string"
        }
      ],
      "stateMutability": "view",
      "type": "function"
    },
    {
      "inputs": [
        {
          "internalType": "address",
          "name": "",
          "type": "address"
        }
      ],
      "name": "userToHospital",
      "outputs": [
        {
          "internalType": "uint256",
          "name": "",
          "type": "uint256"
        }
      ],
      "stateMutability": "view",
      "type": "function"
    },
    {
      "inputs": [
        {
          "internalType": "address",
          "name": "",
          "type": "address"
        }
      ],
      "name": "users",
      "outputs": [
        {
          "internalType": "address",
          "name": "walletAddress",
          "type": "address"
        },
        {
          "internalType": "string",
          "name": "name",
          "type": "string"
        },
        {
          "internalType": "enum Storage.Role",
          "name": "role",
          "type": "uint8"
        },
        {
          "internalType": "bool",
          "name": "isVerified",
          "type": "bool"
        },
        {
          "internalType": "string",
          "name": "publicKey",
          "type": "string"
        }
      ],
      "stateMutability": "view",
      "type": "function"
    },
    {
      "inputs": [
        {
          "internalType": "uint256",
          "name": "hospitalId",
          "type": "uint256"
        },
        {
          "internalType": "address",
          "name": "adminAddress",
          "type": "address"
        }
      ],
      "name": "verifyHospital",
      "outputs": [],
      "stateMutability": "nonpayable",
      "type": "function"
    }
  ],
  "bytecode": "0x60a0604052306080523480156200001557600080fd5b506200002062000026565b620000da565b7ff0c57e16840df040f15088dc2f81fe391c3923bec73e23a9662efc9c229c6a00805468010000000000000000900460ff1615620000775760405163f92ee8a960e01b815260040160405180910390fd5b80546001600160401b0390811614620000d75780546001600160401b0319166001600160401b0390811782556040519081527fc7f505b2f371ae2175ee4913f4499e1f2633a7b5936321eed1cdaeb6115181d29060200160405180910390a15b50565b6080516145e36200010460003960008181613081015281816130aa01526131eb01526145e36000f3fe6080604052600436106102255760003560e01c80639afd8efe11610123578063c4d66de8116100ab578063e6e8c76b1161006f578063e6e8c76b14610702578063e75b8b231461072f578063ea4d598e1461075c578063f2fde38b1461077c578063f79051381461079c57600080fd5b8063c4d66de814610662578063c79a958614610682578063cbf47a7e146106a2578063d8eb8e90146106c2578063e699ffcd146106e257600080fd5b8063b8604fba116100f2578063b8604fba146105aa578063bace0290146105ca578063beccc1c8146105ea578063c3f1a9491461060a578063c459a8ce1461062a57600080fd5b80639afd8efe146104ee578063a00977bf1461051b578063a87430ba1461053b578063ad3cb1cc1461056c57600080fd5b80635a82375b116101b1578063715018a611610175578063715018a61461042f57806381dc6fd2146104445780638da5cb5b1461047457806394a9c3e0146104a157806395b5a65b146104c157600080fd5b80635a82375b146103725780635af28ce3146103925780635e2547f2146103b25780636248204e146103d25780636b3c6fd6146103ff57600080fd5b8063332d56d7116101f8578063332d56d7146102c6578063338e12eb146102f557806334461067146103155780634f1ef2861461034a57806352d1902d1461035d57600080fd5b806328f183a11461022a5780632c0a90a9146102535780632f6d4a59146102755780633217bc7214610295575b600080fd5b34801561023657600080fd5b5061024060085481565b6040519081526020015b60405180910390f35b34801561025f57600080fd5b5061027361026e36600461373a565b6107cc565b005b34801561028157600080fd5b5061027361029036600461382d565b610a50565b3480156102a157600080fd5b506102b56102b036600461387a565b610c16565b60405161024a95949392919061391e565b3480156102d257600080fd5b506102e66102e1366004613969565b610cfd565b60405161024a93929190613984565b34801561030157600080fd5b506102736103103660046139cc565b610eb7565b34801561032157600080fd5b50610335610330366004613a19565b6110de565b60405161024a99989796959493929190613a32565b61027361035836600461382d565b61136e565b34801561036957600080fd5b5061024061138d565b34801561037e57600080fd5b5061027361038d366004613b71565b6113aa565b34801561039e57600080fd5b506102406103ad366004613969565b611619565b3480156103be57600080fd5b506102406103cd36600461387a565b611660565b3480156103de57600080fd5b506103f26103ed366004613969565b611691565b60405161024a9190613c46565b34801561040b57600080fd5b5061041f61041a366004613a19565b611726565b60405161024a9493929190613c8a565b34801561043b57600080fd5b506102736117e7565b34801561045057600080fd5b5061046461045f366004613a19565b6117fb565b60405161024a9493929190613cc1565b34801561048057600080fd5b5061048961181d565b6040516001600160a01b03909116815260200161024a565b3480156104ad57600080fd5b506102736104bc366004613cfb565b61184b565b3480156104cd57600080fd5b506102406104dc366004613969565b600b6020526000908152604090205481565b3480156104fa57600080fd5b5061050e61050936600461387a565b6118a4565b60405161024a9190613d82565b34801561052757600080fd5b50610273610536366004613de6565b611a3e565b34801561054757600080fd5b5061055b610556366004613969565b611b5a565b60405161024a959493929190613e32565b34801561057857600080fd5b5061059d604051806040016040528060058152602001640352e302e360dc1b81525081565b60405161024a9190613e89565b3480156105b657600080fd5b506102736105c5366004613e9c565b611cac565b3480156105d657600080fd5b506102736105e5366004613f20565b611e50565b3480156105f657600080fd5b50610273610605366004613a19565b611f4f565b34801561061657600080fd5b50610273610625366004613fb9565b611fd6565b34801561063657600080fd5b50610240610645366004613fb9565b600460209081526000928352604080842090915290825290205481565b34801561066e57600080fd5b5061027361067d366004613969565b6123a9565b34801561068e57600080fd5b5061027361069d366004613fdc565b6124ab565b3480156106ae57600080fd5b506102736106bd366004614099565b6125c4565b3480156106ce57600080fd5b506102736106dd366004613de6565b612805565b3480156106ee57600080fd5b506102736106fd366004613e9c565b6128c4565b34801561070e57600080fd5b5061024061071d366004613969565b600a6020526000908152604090205481565b34801561073b57600080fd5b5061074f61074a366004613a19565b612b30565b60405161024a91906140ed565b34801561076857600080fd5b50610273610777366004613fb9565b612e81565b34801561078857600080fd5b50610273610797366004613969565b612f8f565b3480156107a857600080fd5b506107bc6107b7366004613fb9565b612fd2565b604051901515815260200161024a565b3360009081526020819052604081206002015460ff1660088111156107f3576107f36138f4565b146108115760405163104a226f60e31b815260040160405180910390fd5b33600090815260056020526040812090805b8254811015610a2b578483828154811061083f5761083f6141b7565b9060005260206000209060050201600001541480156108975750600083828154811061086d5761086d6141b7565b600091825260209091206004600590920201015460ff166002811115610895576108956138f4565b145b15610a235760018382815481106108b0576108b06141b7565b60009182526020909120600460059092020101805460ff191660018360028111156108dd576108dd6138f4565b021790555060006108f185620151806141e3565b6108fb90426141fa565b90506000848381548110610911576109116141b7565b60009182526020808320600260059093020191909101543383526003909152604082206001600160a01b039091169250905b81548110156109df576000828281548110610960576109606141b7565b6000918252602080832091909101548083526004825260408084206001600160a01b0389168086529084528185208a905581518a8152938401829052908301939093529250339083907f1c795c24f232a1e8a341c63546a2631ab532f7bf10169ff1b3c74187ad48a0f19060600160405180910390a450600101610943565b5060405187815260019550339089907f4def62da440b39db2661de60aa3dad0479ac27d4c22597d6e14c7441774f8a319060200160405180910390a3505050610a2b565b600101610823565b5080610a4a57604051632589d98f60e11b815260040160405180910390fd5b50505050565b60033360009081526020819052604090206002015460ff166008811115610a7957610a796138f4565b14610a9757604051630d52912160e21b815260040160405180910390fd5b6001600160a01b03821660009081526020819052604081206002015460ff166008811115610ac757610ac76138f4565b14610ae55760405163104a226f60e31b815260040160405180910390fd5b6006805460009182610af68361420d565b909155506001600160a01b038481166000818152600560208181526040808420815160a08101835288815280840196875233928101928352606081018b81526080820187905282546001808201855593885294909620815194909502909401928355945194820180549587166001600160a01b031996871617905551600282018054919096169416939093179093555192935090916003820190610b9a90826142a8565b50608082015160048201805460ff19166001836002811115610bbe57610bbe6138f4565b02179055505050336001600160a01b0316836001600160a01b0316827f21eb886073c5fec0f227f76ef8335d82939c7aa4b537be2e0943f4c1dc74553e85604051610c099190613e89565b60405180910390a4505050565b60056020528160005260406000208181548110610c3257600080fd5b600091825260209091206005909102018054600182015460028301546003840180549396506001600160a01b03928316955091169291610c7190614226565b80601f0160208091040260200160405190810160405280929190818152602001828054610c9d90614226565b8015610cea5780601f10610cbf57610100808354040283529160200191610cea565b820191906000526020600020905b815481529060010190602001808311610ccd57829003601f168201915b5050506004909301549192505060ff1685565b600160205260009081526040902080548190610d1890614226565b80601f0160208091040260200160405190810160405280929190818152602001828054610d4490614226565b8015610d915780601f10610d6657610100808354040283529160200191610d91565b820191906000526020600020905b815481529060010190602001808311610d7457829003601f168201915b505050505090806001018054610da690614226565b80601f0160208091040260200160405190810160405280929190818152602001828054610dd290614226565b8015610e1f5780601f10610df457610100808354040283529160200191610e1f565b820191906000526020600020905b815481529060010190602001808311610e0257829003601f168201915b505050505090806002018054610e3490614226565b80601f0160208091040260200160405190810160405280929190818152602001828054610e6090614226565b8015610ead5780601f10610e8257610100808354040283529160200191610ead565b820191906000526020600020905b815481529060010190602001808311610e9057829003601f168201915b5050505050905083565b336000908152602081905260409020546001600160a01b031615610eee57604051630ea075bf60e21b815260040160405180910390fd5b6002816008811115610f0257610f026138f4565b1480610f1f57506008816008811115610f1d57610f1d6138f4565b145b15610f3d57604051630bc9e58560e31b815260040160405180910390fd5b6040518060a00160405280336001600160a01b03168152602001838152602001826008811115610f6f57610f6f6138f4565b81526000602080830182905260408051808301825283815293810193909352338252818152919020825181546001600160a01b0319166001600160a01b03909116178155908201516001820190610fc690826142a8565b50604082015160028201805460ff19166001836008811115610fea57610fea6138f4565b021790555060608201516002820180549115156101000261ff00199092169190911790556080820151600382019061102290826142a8565b50506040805160608101825284815281516020818101845260008083528184019290925283518082018552828152838501523382526001905291909120815191925090819061107190826142a8565b506020820151600182019061108690826142a8565b506040820151600282019061109b90826142a8565b50506040513391507fc2e5d5da58bd71d1a2d14cdef02a4256d971b728088f8190d067ccfbae3bd73e906110d29085908590614367565b60405180910390a25050565b600281815481106110ee57600080fd5b6000918252602090912060089091020180546001820180549193509061111390614226565b80601f016020809104026020016040519081016040528092919081815260200182805461113f90614226565b801561118c5780601f106111615761010080835404028352916020019161118c565b820191906000526020600020905b81548152906001019060200180831161116f57829003601f168201915b50505050600283015460038401546004850154600586018054959693956001600160a01b03938416955092821693600160a01b90920460ff16926111cf90614226565b80601f01602080910402602001604051908101604052809291908181526020018280546111fb90614226565b80156112485780601f1061121d57610100808354040283529160200191611248565b820191906000526020600020905b81548152906001019060200180831161122b57829003601f168201915b50505050509080600601805461125d90614226565b80601f016020809104026020016040519081016040528092919081815260200182805461128990614226565b80156112d65780601f106112ab576101008083540402835291602001916112d6565b820191906000526020600020905b8154815290600101906020018083116112b957829003601f168201915b5050505050908060070180546112eb90614226565b80601f016020809104026020016040519081016040528092919081815260200182805461131790614226565b80156113645780601f1061133957610100808354040283529160200191611364565b820191906000526020600020905b81548152906001019060200180831161134757829003601f168201915b5050505050905089565b611376613076565b61137f8261311b565b6113898282613123565b5050565b60006113976131e0565b5060008051602061458e83398151915290565b80518451146113cc576040516343714afd60e01b815260040160405180910390fd5b6001600160a01b03831660009081526020819052604090206001600282015460ff1660088111156113ff576113ff6138f4565b1415801561142657506007600282015460ff166008811115611423576114236138f4565b14155b801561144b57506003600282015460ff166008811115611448576114486138f4565b14155b801561147057506004600282015460ff16600881111561146d5761146d6138f4565b14155b801561149557506005600282015460ff166008811115611492576114926138f4565b14155b806114aa57506002810154610100900460ff16155b156114c857604051635f10e00b60e01b815260040160405180910390fd5b60006114d784620151806141e3565b6114e190426141fa565b905060005b8651811015611610576000878281518110611503576115036141b7565b60200260200101519050600280549050811080156115585750336001600160a01b031660028281548110611539576115396141b7565b60009182526020909120600460089092020101546001600160a01b0316145b156116075760008181526004602090815260408083206001600160a01b038b16845290915290205442106116075760008181526004602090815260408083206001600160a01b038b1680855292529091208490558551339083907f1c795c24f232a1e8a341c63546a2631ab532f7bf10169ff1b3c74187ad48a0f19087908a90889081106115e8576115e86141b7565b60200260200101516040516115fe929190614389565b60405180910390a45b506001016114e6565b50505050505050565b6000336001600160a01b038316146116445760405163ea8e4eb560e01b815260040160405180910390fd5b506001600160a01b031660009081526005602052604090205490565b6003602052816000526040600020818154811061167c57600080fd5b90600052602060002001600091509150505481565b6060336001600160a01b038316146116bc5760405163ea8e4eb560e01b815260040160405180910390fd5b6001600160a01b0382166000908152600360209081526040918290208054835181840281018401909452808452909183018282801561171a57602002820191906000526020600020905b815481526020019060010190808311611706575b50505050509050919050565b6009602052600090815260409020805460018201805491929161174890614226565b80601f016020809104026020016040519081016040528092919081815260200182805461177490614226565b80156117c15780601f10611796576101008083540402835291602001916117c1565b820191906000526020600020905b8154815290600101906020018083116117a457829003601f168201915b505050600290930154919250506001600160a01b0381169060ff600160a01b9091041684565b6117ef613229565b6117f9600061325b565b565b6007602052600090815260409020805460018201805491929161174890614226565b7f9016d09d72d40fdae2fd8ceac6b6234c7706214fd39c1cd1e609a0528c199300546001600160a01b031690565b3360009081526020819052604081206002015460ff166008811115611872576118726138f4565b146118905760405163104a226f60e31b815260040160405180910390fd5b61189f338484600085866132cc565b505050565b6118d26040805160a08101825260008082526020820181905291810182905260608082015290608082015290565b336001600160a01b038416146118fb5760405163ea8e4eb560e01b815260040160405180910390fd5b6001600160a01b0383166000908152600560205260409020805483908110611925576119256141b7565b60009182526020918290206040805160a08101825260059093029091018054835260018101546001600160a01b039081169484019490945260028101549093169082015260038201805491929160608401919061198190614226565b80601f01602080910402602001604051908101604052809291908181526020018280546119ad90614226565b80156119fa5780601f106119cf576101008083540402835291602001916119fa565b820191906000526020600020905b8154815290600101906020018083116119dd57829003601f168201915b5050509183525050600482015460209091019060ff166002811115611a2157611a216138f4565b6002811115611a3257611a326138f4565b90525090505b92915050565b6008805460009182611a4f8361420d565b9190505590506040518060800160405280828152602001838152602001336001600160a01b0316815260200160006002811115611a8e57611a8e6138f4565b9052600082815260096020908152604090912082518155908201516001820190611ab890826142a8565b506040820151600280830180546001600160a01b039093166001600160a01b031984168117825560608601519391926001600160a81b03199092161790600160a01b908490811115611b0c57611b0c6138f4565b0217905550905050336001600160a01b0316817fbf61b5cace25ee4d225724bee5d3875a59e7468e6524c619b1bcc3361ba9a8e684604051611b4e9190613e89565b60405180910390a35050565b600060208190529081526040902080546001820180546001600160a01b039092169291611b8690614226565b80601f0160208091040260200160405190810160405280929190818152602001828054611bb290614226565b8015611bff5780601f10611bd457610100808354040283529160200191611bff565b820191906000526020600020905b815481529060010190602001808311611be257829003601f168201915b505050506002830154600384018054939460ff8084169561010090940416935091611c2990614226565b80601f0160208091040260200160405190810160405280929190818152602001828054611c5590614226565b8015611ca25780601f10611c7757610100808354040283529160200191611ca2565b820191906000526020600020905b815481529060010190602001808311611c8557829003601f168201915b5050505050905085565b611cb461181d565b6001600160a01b0316336001600160a01b031614611d675760023360009081526020819052604090206002015460ff166008811115611cf557611cf56138f4565b141580611d1a575033600090815260208190526040902060020154610100900460ff16155b15611d385760405163248b437160e21b815260040160405180910390fd5b336000908152600a60205260409020548114611d675760405163ea8e4eb560e01b815260040160405180910390fd5b6001600160a01b0383811660009081526020819052604090205416611d9f576040516319c29a3360e21b815260040160405180910390fd5b6001600160a01b0383166000908152600a60205260409020548114611dd757604051637aa3308d60e11b815260040160405180910390fd5b6001600160a01b038316600081815260208181526040808320600201805461ffff19169055600a8252808320839055600b90915280822091909155518291907f656386f7fbf5fbd79ebb5d508870678c1d0ba774d3af78f5971f7d32d0da18bd90611e439086906143a2565b60405180910390a3505050565b336000908152602081905260409020546001600160a01b0316611e865760405163aba4733960e01b815260040160405180910390fd5b336000908152600160205260409020611ea08688836143b0565b5033600090815260016020819052604090912001611ebf8486836143b0565b50336000908152600160205260409020600201611edd8284836143b0565b50336000908152602081905260409020600101611efb8688836143b0565b50336001600160a01b03167f6420daf1b58438e85465ef21dee378d307a509caab491149e3f066c5caf1266d878787878787604051611f3f96959493929190614499565b60405180910390a2505050505050565b611f57613229565b600081815260076020526040902060020154600160a01b900460ff16611f9057604051634d2310eb60e11b815260040160405180910390fd5b600081815260076020526040808220600201805460ff60a01b191690555182917fde3170d9273315de9a8b381190baac26e017d2c9ac99d1ca5b428bea7161f89291a250565b611fde613229565b600080838152600960205260409020600290810154600160a01b900460ff169081111561200d5761200d6138f4565b1461202b576040516317f4986760e31b815260040160405180910390fd5b6001600160a01b03818116600090815260208190526040902054161561206457604051630ea075bf60e21b815260040160405180910390fd5b600082815260096020818152604080842060028101805460ff60a01b1916600160a01b179055815160808101909252868252938690529181526001909201805491928301916120b290614226565b80601f01602080910402602001604051908101604052809291908181526020018280546120de90614226565b801561212b5780601f106121005761010080835404028352916020019161212b565b820191906000526020600020905b81548152906001019060200180831161210e57829003601f168201915b50505091835250506001600160a01b03831660208083019190915260016040928301819052600086815260078352929092208351815590830151909182019061217490826142a8565b50604082810151600292830180546060909501511515600160a01b026001600160a81b03199095166001600160a01b039283161794909417909355805160a081018252928416835280518082018252600581526420b236b4b760d91b6020828101919091528401528201908152600160208083018290526040805180830182526000808252948201526001600160a01b0386811685528483529320845181546001600160a01b03191694169390931783558301519082019061223690826142a8565b50604082015160028201805460ff1916600183600881111561225a5761225a6138f4565b021790555060608201516002820180549115156101000261ff00199092169190911790556080820151600382019061229290826142a8565b50506040805160a0810182526005606082019081526420b236b4b760d91b6080830152815281516020818101845260008083528184019290925283518082018552828152838501526001600160a01b03861682526001905291909120815191925090819061230090826142a8565b506020820151600182019061231590826142a8565b506040820151600282019061232a90826142a8565b5050506001600160a01b0381166000818152600a60205260408082208590555184917f1421bdc12a61f8ad34351cd7dd151822ac06730e7b43ee4bdfd4aaeb1ff5311c91a3806001600160a01b03167fc2e5d5da58bd71d1a2d14cdef02a4256d971b728088f8190d067ccfbae3bd73e60026040516110d291906144e2565b60006123b36134b8565b805490915060ff600160401b82041615906001600160401b03166000811580156123da5750825b90506000826001600160401b031660011480156123f65750303b155b905081158015612404575080155b156124225760405163f92ee8a960e01b815260040160405180910390fd5b845467ffffffffffffffff19166001178555831561244c57845460ff60401b1916600160401b1785555b612455866134e1565b61245d6134f2565b83156124a357845460ff60401b19168555604051600181527fc7f505b2f371ae2175ee4913f4499e1f2633a7b5936321eed1cdaeb6115181d29060200160405180910390a15b505050505050565b6001600160a01b03858116600090815260208190526040902054166124e3576040516319c29a3360e21b815260040160405180910390fd5b6001600160a01b03851660009081526020819052604081206002015460ff166008811115612513576125136138f4565b146125315760405163104a226f60e31b815260040160405180910390fd5b3360009081526020819052604090206001600282015460ff16600881111561255b5761255b6138f4565b1415801561258257506007600282015460ff16600881111561257f5761257f6138f4565b14155b8061259757506002810154610100900460ff16155b156125b557604051635f10e00b60e01b815260040160405180910390fd5b6124a3868686600187876132cc565b60025484106125e657604051633e07f1a160e01b815260040160405180910390fd5b6000600285815481106125fb576125fb6141b7565b600091825260209091206004600890920201908101549091506001600160a01b0316331461263c57604051635e27834560e01b815260040160405180910390fd5b6001600160a01b03841660009081526020819052604090206001600282015460ff16600881111561266f5761266f6138f4565b1415801561269657506007600282015460ff166008811115612693576126936138f4565b14155b80156126bb57506003600282015460ff1660088111156126b8576126b86138f4565b14155b80156126e057506004600282015460ff1660088111156126dd576126dd6138f4565b14155b801561270557506005600282015460ff166008811115612702576127026138f4565b14155b8061271a57506002810154610100900460ff16155b1561273857604051635f10e00b60e01b815260040160405180910390fd5b60008681526004602090815260408083206001600160a01b038916845290915290205442101561277b576040516342beec5560e11b815260040160405180910390fd5b600061278a85620151806141e3565b61279490426141fa565b60008881526004602090815260408083206001600160a01b038b16808552925291829020839055905191925090339089907f1c795c24f232a1e8a341c63546a2631ab532f7bf10169ff1b3c74187ad48a0f1906127f49086908a90614389565b60405180910390a450505050505050565b336000908152602081905260409020546001600160a01b031661283b5760405163aba4733960e01b815260040160405180910390fd5b336000908152602081905260408120600301805461285890614226565b90501115612879576040516303b3cf9760e41b815260040160405180910390fd5b33600090815260208190526040902060030161289582826142a8565b5060405133907f6cf02651ef9f7a72105bbc0f5800cb97cf05271672cc25280ab53491280c827e90600090a250565b6128cc61181d565b6001600160a01b0316336001600160a01b03161461297f5760023360009081526020819052604090206002015460ff16600881111561290d5761290d6138f4565b141580612932575033600090815260208190526040902060020154610100900460ff16155b156129505760405163248b437160e21b815260040160405180910390fd5b336000908152600a6020526040902054811461297f5760405163ea8e4eb560e01b815260040160405180910390fd5b6001826008811115612993576129936138f4565b141580156129b3575060078260088111156129b0576129b06138f4565b14155b156129d157604051631b32d0dd60e11b815260040160405180910390fd5b6001600160a01b0383811660009081526020819052604090205416612a09576040516319c29a3360e21b815260040160405180910390fd5b6001600160a01b0383166000908152600a602052604090205415612a40576040516339e5825f60e11b815260040160405180910390fd5b6001600160a01b0383166000908152602081905260409020600201805483919060ff19166001836008811115612a7857612a786138f4565b02179055506001600160a01b038316600081815260208181526040808320600201805461ff001916610100179055600a8252808320859055600b90915290819020839055518291907fb7f677009e40b63d956ecadcfcb1f65c754aa8f19532b58a315c47d23dfcbdcb90612aed9086906143a2565b60405180910390a36040516001600160a01b0384169033907fbfb2fa25f828a712fda370028ecc8813c7082c69b239a579753b10e24dd472cc90600090a3505050565b612b9360405180610120016040528060008152602001606081526020016000815260200160006001600160a01b0316815260200160006001600160a01b031681526020016000151581526020016060815260200160608152602001606081525090565b612b9d8233612fd2565b612bba5760405163ea8e4eb560e01b815260040160405180910390fd5b60028281548110612bcd57612bcd6141b7565b90600052602060002090600802016040518061012001604052908160008201548152602001600182018054612c0190614226565b80601f0160208091040260200160405190810160405280929190818152602001828054612c2d90614226565b8015612c7a5780601f10612c4f57610100808354040283529160200191612c7a565b820191906000526020600020905b815481529060010190602001808311612c5d57829003601f168201915b50505091835250506002820154602082015260038201546001600160a01b03908116604083015260048301549081166060830152600160a01b900460ff161515608082015260058201805460a090920191612cd490614226565b80601f0160208091040260200160405190810160405280929190818152602001828054612d0090614226565b8015612d4d5780601f10612d2257610100808354040283529160200191612d4d565b820191906000526020600020905b815481529060010190602001808311612d3057829003601f168201915b50505050508152602001600682018054612d6690614226565b80601f0160208091040260200160405190810160405280929190818152602001828054612d9290614226565b8015612ddf5780601f10612db457610100808354040283529160200191612ddf565b820191906000526020600020905b815481529060010190602001808311612dc257829003601f168201915b50505050508152602001600782018054612df890614226565b80601f0160208091040260200160405190810160405280929190818152602001828054612e2490614226565b8015612e715780601f10612e4657610100808354040283529160200191612e71565b820191906000526020600020905b815481529060010190602001808311612e5457829003601f168201915b5050505050815250509050919050565b6002548210612ea357604051633e07f1a160e01b815260040160405180910390fd5b600060028381548110612eb857612eb86141b7565b600091825260209091206004600890920201908101549091506001600160a01b03163314612ef957604051635e27834560e01b815260040160405180910390fd5b60008381526004602090815260408083206001600160a01b03861684529091528120549003612f3b57604051639cf4448960e01b815260040160405180910390fd5b60008381526004602090815260408083206001600160a01b038616808552925280832083905551909185917f07aca9e88df76b26773787218a5664b178842e080be07be33d29f8a84853ecbc9190a3505050565b612f97613229565b6001600160a01b038116612fc657604051631e4fbdf760e01b8152600060048201526024015b60405180910390fd5b612fcf8161325b565b50565b6002546000908310612fe657506000611a38565b600060028481548110612ffb57612ffb6141b7565b6000918252602090912060089091020160048101549091506001600160a01b038481169116148061303b575060038101546001600160a01b038481169116145b1561304a576001915050611a38565b505060009182526004602090815260408084206001600160a01b03939093168452919052902054421090565b306001600160a01b037f00000000000000000000000000000000000000000000000000000000000000001614806130fd57507f00000000000000000000000000000000000000000000000000000000000000006001600160a01b03166130f160008051602061458e833981519152546001600160a01b031690565b6001600160a01b031614155b156117f95760405163703e46dd60e11b815260040160405180910390fd5b612fcf613229565b816001600160a01b03166352d1902d6040518163ffffffff1660e01b8152600401602060405180830381865afa92505050801561317d575060408051601f3d908101601f1916820190925261317a9181019061450c565b60015b6131a557604051634c9c8ce360e01b81526001600160a01b0383166004820152602401612fbd565b60008051602061458e83398151915281146131d657604051632a87526960e21b815260048101829052602401612fbd565b61189f83836134fa565b306001600160a01b037f000000000000000000000000000000000000000000000000000000000000000016146117f95760405163703e46dd60e11b815260040160405180910390fd5b3361323261181d565b6001600160a01b0316146117f95760405163118cdaa760e01b8152336004820152602401612fbd565b7f9016d09d72d40fdae2fd8ceac6b6234c7706214fd39c1cd1e609a0528c19930080546001600160a01b031981166001600160a01b03848116918217845560405192169182907f8be0079c531659141344cd1fd0a4f28419497f9722a3daafe3b4186f6b6457e090600090a3505050565b6002805460408051610120810182528281526020810189815242928201929092523360608201526001600160a01b038a16608082015286151560a082015260c0810188905260e0810186905261010081018590526001830184556000939093528251600883027f405787fa12a823e0f2b7631cc41b3ba8828b3321ca811111fa75cd3aa3bb5ace8101918255915192939290917f405787fa12a823e0f2b7631cc41b3ba8828b3321ca811111fa75cd3aa3bb5acf019061338c90826142a8565b506040820151600282015560608201516003820180546001600160a01b0319166001600160a01b03928316179055608083015160048301805460a0860151929093166001600160a81b031990931692909217600160a01b9115159190910217905560c0820151600582019061340190826142a8565b5060e0820151600682019061341690826142a8565b50610100820151600782019061342c90826142a8565b5050506001600160a01b038716600081815260036020908152604080832080546001810182559084528284200185905584835260048252808320848452909152808220600019908190553380845292829020555190919083907fe690497cb6d93599f92530b10109bda8c2dbb9336623610786b5d3872e56d1a3906127f4908a908a908a908a90614525565b6000807ff0c57e16840df040f15088dc2f81fe391c3923bec73e23a9662efc9c229c6a00611a38565b6134e9613550565b612fcf81613575565b6117f9613550565b61350382613586565b6040516001600160a01b038316907fbc7cd75a20ee27fd9adebab32041f755214dbc6bffa90cc0225b39da2e5c2d3b90600090a28051156135485761189f82826135eb565b611389613661565b613558613680565b6117f957604051631afcd79f60e31b815260040160405180910390fd5b61357d613550565b612fcf8161369a565b806001600160a01b03163b6000036135bc57604051634c9c8ce360e01b81526001600160a01b0382166004820152602401612fbd565b60008051602061458e83398151915280546001600160a01b0319166001600160a01b0392909216919091179055565b6060600080846001600160a01b0316846040516136089190614571565b600060405180830381855af49150503d8060008114613643576040519150601f19603f3d011682016040523d82523d6000602084013e613648565b606091505b50915091506136588583836136ab565b95945050505050565b34156117f95760405163b398979f60e01b815260040160405180910390fd5b600061368a6134b8565b54600160401b900460ff16919050565b6136a2613550565b612fcf8161370a565b6060826136c0576136bb82613712565b613703565b81511580156136d757506001600160a01b0384163b155b1561370057604051639996b31560e01b81526001600160a01b0385166004820152602401612fbd565b50805b9392505050565b612f97613550565b80511561372157805160208201fd5b60405163d6bda27560e01b815260040160405180910390fd5b6000806040838503121561374d57600080fd5b50508035926020909101359150565b80356001600160a01b038116811461377357600080fd5b919050565b634e487b7160e01b600052604160045260246000fd5b604051601f8201601f191681016001600160401b03811182821017156137b6576137b6613778565b604052919050565b600082601f8301126137cf57600080fd5b81356001600160401b038111156137e8576137e8613778565b6137fb601f8201601f191660200161378e565b81815284602083860101111561381057600080fd5b816020850160208301376000918101602001919091529392505050565b6000806040838503121561384057600080fd5b6138498361375c565b915060208301356001600160401b0381111561386457600080fd5b613870858286016137be565b9150509250929050565b6000806040838503121561388d57600080fd5b6138968361375c565b946020939093013593505050565b60005b838110156138bf5781810151838201526020016138a7565b50506000910152565b600081518084526138e08160208601602086016138a4565b601f01601f19169290920160200192915050565b634e487b7160e01b600052602160045260246000fd5b6003811061391a5761391a6138f4565b9052565b8581526001600160a01b0385811660208301528416604082015260a060608201819052600090613950908301856138c8565b905061395f608083018461390a565b9695505050505050565b60006020828403121561397b57600080fd5b6137038261375c565b60608152600061399760608301866138c8565b82810360208401526139a981866138c8565b9050828103604084015261395f81856138c8565b80356009811061377357600080fd5b600080604083850312156139df57600080fd5b82356001600160401b038111156139f557600080fd5b613a01858286016137be565b925050613a10602084016139bd565b90509250929050565b600060208284031215613a2b57600080fd5b5035919050565b60006101208b8352806020840152613a4c8184018c6138c8565b604084018b90526001600160a01b038a811660608601528916608085015287151560a085015283810360c08501529050613a8681876138c8565b905082810360e0840152613a9a81866138c8565b9050828103610100840152613aaf81856138c8565b9c9b505050505050505050505050565b60006001600160401b03821115613ad857613ad8613778565b5060051b60200190565b600082601f830112613af357600080fd5b81356020613b08613b0383613abf565b61378e565b82815260059290921b84018101918181019086841115613b2757600080fd5b8286015b84811015613b665780356001600160401b03811115613b4a5760008081fd5b613b588986838b01016137be565b845250918301918301613b2b565b509695505050505050565b60008060008060808587031215613b8757600080fd5b84356001600160401b0380821115613b9e57600080fd5b818701915087601f830112613bb257600080fd5b81356020613bc2613b0383613abf565b82815260059290921b8401810191818101908b841115613be157600080fd5b948201945b83861015613bff57853582529482019490820190613be6565b9850613c0e905089820161375c565b96505050604087013593506060870135915080821115613c2d57600080fd5b50613c3a87828801613ae2565b91505092959194509250565b6020808252825182820181905260009190848201906040850190845b81811015613c7e57835183529284019291840191600101613c62565b50909695505050505050565b848152608060208201526000613ca360808301866138c8565b6001600160a01b03851660408401529050613658606083018461390a565b848152608060208201526000613cda60808301866138c8565b6001600160a01b039490941660408301525090151560609091015292915050565b600080600060608486031215613d1057600080fd5b83356001600160401b0380821115613d2757600080fd5b613d33878388016137be565b94506020860135915080821115613d4957600080fd5b613d55878388016137be565b93506040860135915080821115613d6b57600080fd5b50613d78868287016137be565b9150509250925092565b60208152815160208201526000602083015160018060a01b0380821660408501528060408601511660608501525050606083015160a06080840152613dca60c08401826138c8565b90506080840151613dde60a085018261390a565b509392505050565b600060208284031215613df857600080fd5b81356001600160401b03811115613e0e57600080fd5b613e1a848285016137be565b949350505050565b6009811061391a5761391a6138f4565b6001600160a01b038616815260a060208201819052600090613e56908301876138c8565b613e636040840187613e22565b84151560608401528281036080840152613e7d81856138c8565b98975050505050505050565b60208152600061370360208301846138c8565b600080600060608486031215613eb157600080fd5b613eba8461375c565b9250613ec8602085016139bd565b9150604084013590509250925092565b60008083601f840112613eea57600080fd5b5081356001600160401b03811115613f0157600080fd5b602083019150836020828501011115613f1957600080fd5b9250929050565b60008060008060008060608789031215613f3957600080fd5b86356001600160401b0380821115613f5057600080fd5b613f5c8a838b01613ed8565b90985096506020890135915080821115613f7557600080fd5b613f818a838b01613ed8565b90965094506040890135915080821115613f9a57600080fd5b50613fa789828a01613ed8565b979a9699509497509295939492505050565b60008060408385031215613fcc57600080fd5b82359150613a106020840161375c565b600080600080600060a08688031215613ff457600080fd5b613ffd8661375c565b945060208601356001600160401b038082111561401957600080fd5b61402589838a016137be565b9550604088013591508082111561403b57600080fd5b61404789838a016137be565b9450606088013591508082111561405d57600080fd5b61406989838a016137be565b9350608088013591508082111561407f57600080fd5b5061408c888289016137be565b9150509295509295909350565b600080600080608085870312156140af57600080fd5b843593506140bf6020860161375c565b92506040850135915060608501356001600160401b038111156140e157600080fd5b613c3a878288016137be565b6020815281516020820152600060208301516101208060408501526141166101408501836138c8565b915060408501516060850152606085015161413c60808601826001600160a01b03169052565b5060808501516001600160a01b03811660a08601525060a085015180151560c08601525060c0850151601f19808685030160e087015261417c84836138c8565b935060e0870151915061010081878603018188015261419b85846138c8565b90880151878203909201848801529350905061395f83826138c8565b634e487b7160e01b600052603260045260246000fd5b634e487b7160e01b600052601160045260246000fd5b8082028115828204841417611a3857611a386141cd565b80820180821115611a3857611a386141cd565b60006001820161421f5761421f6141cd565b5060010190565b600181811c9082168061423a57607f821691505b60208210810361425a57634e487b7160e01b600052602260045260246000fd5b50919050565b601f82111561189f576000816000526020600020601f850160051c810160208610156142895750805b601f850160051c820191505b818110156124a357828155600101614295565b81516001600160401b038111156142c1576142c1613778565b6142d5816142cf8454614226565b84614260565b602080601f83116001811461430a57600084156142f25750858301515b600019600386901b1c1916600185901b1785556124a3565b600085815260208120601f198616915b828110156143395788860151825594840194600190910190840161431a565b50858210156143575787850151600019600388901b60f8161c191681555b5050505050600190811b01905550565b60408152600061437a60408301856138c8565b90506137036020830184613e22565b828152604060208201526000613e1a60408301846138c8565b60208101611a388284613e22565b6001600160401b038311156143c7576143c7613778565b6143db836143d58354614226565b83614260565b6000601f84116001811461440f57600085156143f75750838201355b600019600387901b1c1916600186901b178355614469565b600083815260209020601f19861690835b828110156144405786850135825560209485019460019092019101614420565b508682101561445d5760001960f88860031b161c19848701351681555b505060018560011b0183555b5050505050565b81835281816020850137506000828201602090810191909152601f909101601f19169091010190565b6060815260006144ad60608301888a614470565b82810360208401526144c0818789614470565b905082810360408401526144d5818587614470565b9998505050505050505050565b60408082526005908201526420b236b4b760d91b606082015260808101611a386020830184613e22565b60006020828403121561451e57600080fd5b5051919050565b60808152600061453860808301876138c8565b8515156020840152828103604084015261455281866138c8565b9050828103606084015261456681856138c8565b979650505050505050565b600082516145838184602087016138a4565b919091019291505056fe360894a13ba1a3210667c828492db98dca3e2076cc3735a920a3ca505d382bbca2646970667358221220cff531bb9ff0640d7ed5522e1b8086b8c0f2396ae9e03cf59811ce81e1dc138864736f6c63430008180033",
  "linkReferences": {},
  "deployedLinkReferences": {}
}