{
  "_format": "hh-sol-artifact-1",
  "contractName": "MedicalRecords",
  "sourceName": "contracts/MedicalRecords.sol",
  "abi": [
    {
      "inputs": [],
      "stateMutability": "nonpayable",
      "type": "constructor"
    },
    {
      "inputs": [],
      "name": "AccessAlreadyGranted",
      "type": "error"
    },
    {
      "inputs": [],
      "name": "AlreadyRegistered",
      "type": "error"
    },
    {
      "inputs": [],
      "name": "NoAccessToRevoke",
      "type": "error"
    },
    {
      "inputs": [],
      "name": "NotAPatient",
      "type": "error"
    },
    {
      "inputs": [],
      "name": "NotAVerifiedDoctor",
      "type": "error"
    },
    {
      "inputs": [],
      "name": "NotAnAdmin",
      "type": "error"
    },
    {
      "inputs": [],
      "name": "NotAnInsuranceProvider",
      "type": "error"
    },
    {
      "inputs": [],
      "name": "NotAuthorized",
      "type": "error"
    },
    {
      "inputs": [],
      "name": "NotRegistered",
      "type": "error"
    },
    {
      "inputs": [
        {
          "internalType": "address",
          "name": "owner",
          "type": "address"
        }
      ],
      "name": "OwnableInvalidOwner",
      "type": "error"
    },
    {
      "inputs": [
        {
          "internalType": "address",
          "name": "account",
          "type": "address"
        }
      ],
      "name": "OwnableUnauthorizedAccount",
      "type": "error"
    },
    {
      "inputs": [],
      "name": "RequestNotFound",
      "type": "error"
    },
    {
      "inputs": [],
      "name": "UserNotFound",
      "type": "error"
    },
    {
      "anonymous": false,
      "inputs": [
        {
          "indexed": true,
          "internalType": "address",
          "name": "patient",
          "type": "address"
        },
        {
          "indexed": true,
          "internalType": "address",
          "name": "doctor",
          "type": "address"
        }
      ],
      "name": "AccessGranted",
      "type": "event"
    },
    {
      "anonymous": false,
      "inputs": [
        {
          "indexed": true,
          "internalType": "uint256",
          "name": "requestId",
          "type": "uint256"
        },
        {
          "indexed": true,
          "internalType": "address",
          "name": "patient",
          "type": "address"
        },
        {
          "indexed": true,
          "internalType": "address",
          "name": "provider",
          "type": "address"
        },
        {
          "indexed": false,
          "internalType": "string",
          "name": "claimId",
          "type": "string"
        }
      ],
      "name": "AccessRequested",
      "type": "event"
    },
    {
      "anonymous": false,
      "inputs": [
        {
          "indexed": true,
          "internalType": "address",
          "name": "patient",
          "type": "address"
        },
        {
          "indexed": true,
          "internalType": "address",
          "name": "doctor",
          "type": "address"
        }
      ],
      "name": "AccessRevoked",
      "type": "event"
    },
    {
      "anonymous": false,
      "inputs": [
        {
          "indexed": true,
          "internalType": "address",
          "name": "previousOwner",
          "type": "address"
        },
        {
          "indexed": true,
          "internalType": "address",
          "name": "newOwner",
          "type": "address"
        }
      ],
      "name": "OwnershipTransferred",
      "type": "event"
    },
    {
      "anonymous": false,
      "inputs": [
        {
          "indexed": true,
          "internalType": "address",
          "name": "user",
          "type": "address"
        },
        {
          "indexed": false,
          "internalType": "string",
          "name": "name",
          "type": "string"
        },
        {
          "indexed": false,
          "internalType": "string",
          "name": "contactInfo",
          "type": "string"
        },
        {
          "indexed": false,
          "internalType": "string",
          "name": "profileMetadataURI",
          "type": "string"
        }
      ],
      "name": "ProfileUpdated",
      "type": "event"
    },
    {
      "anonymous": false,
      "inputs": [
        {
          "indexed": true,
          "internalType": "address",
          "name": "patient",
          "type": "address"
        },
        {
          "indexed": false,
          "internalType": "string",
          "name": "ipfsHash",
          "type": "string"
        },
        {
          "indexed": false,
          "internalType": "uint256",
          "name": "timestamp",
          "type": "uint256"
        }
      ],
      "name": "RecordAdded",
      "type": "event"
    },
    {
      "anonymous": false,
      "inputs": [
        {
          "indexed": true,
          "internalType": "uint256",
          "name": "requestId",
          "type": "uint256"
        },
        {
          "indexed": true,
          "internalType": "address",
          "name": "patient",
          "type": "address"
        },
        {
          "indexed": false,
          "internalType": "uint256",
          "name": "accessDuration",
          "type": "uint256"
        }
      ],
      "name": "RequestApproved",
      "type": "event"
    },
    {
      "anonymous": false,
      "inputs": [
        {
          "indexed": true,
          "internalType": "address",
          "name": "patient",
          "type": "address"
        },
        {
          "indexed": false,
          "internalType": "uint256",
          "name": "newLength",
          "type": "uint256"
        }
      ],
      "name": "RequestArrayUpdated",
      "type": "event"
    },
    {
      "anonymous": false,
      "inputs": [
        {
          "indexed": true,
          "internalType": "address",
          "name": "userAddress",
          "type": "address"
        },
        {
          "indexed": false,
          "internalType": "string",
          "name": "name",
          "type": "string"
        },
        {
          "indexed": false,
          "internalType": "enum Roles.Role",
          "name": "role",
          "type": "uint8"
        }
      ],
      "name": "UserRegistered",
      "type": "event"
    },
    {
      "anonymous": false,
      "inputs": [
        {
          "indexed": true,
          "internalType": "address",
          "name": "admin",
          "type": "address"
        },
        {
          "indexed": true,
          "internalType": "address",
          "name": "userAddress",
          "type": "address"
        }
      ],
      "name": "UserVerified",
      "type": "event"
    },
    {
      "inputs": [
        {
          "internalType": "address",
          "name": "",
          "type": "address"
        },
        {
          "internalType": "address",
          "name": "",
          "type": "address"
        }
      ],
      "name": "accessPermissions",
      "outputs": [
        {
          "internalType": "uint256",
          "name": "",
          "type": "uint256"
        }
      ],
      "stateMutability": "view",
      "type": "function"
    },
    {
      "inputs": [
        {
          "internalType": "address",
          "name": "_newAdmin",
          "type": "address"
        },
        {
          "internalType": "string",
          "name": "_name",
          "type": "string"
        }
      ],
      "name": "addHospitalAdmin",
      "outputs": [],
      "stateMutability": "nonpayable",
      "type": "function"
    },
    {
      "inputs": [
        {
          "internalType": "string",
          "name": "_ipfsHash",
          "type": "string"
        }
      ],
      "name": "addRecord",
      "outputs": [],
      "stateMutability": "nonpayable",
      "type": "function"
    },
    {
      "inputs": [
        {
          "internalType": "uint256",
          "name": "_requestId",
          "type": "uint256"
        },
        {
          "internalType": "uint256",
          "name": "_durationInDays",
          "type": "uint256"
        }
      ],
      "name": "approveRequest",
      "outputs": [],
      "stateMutability": "nonpayable",
      "type": "function"
    },
    {
      "inputs": [
        {
          "internalType": "address",
          "name": "_patientAddress",
          "type": "address"
        },
        {
          "internalType": "address",
          "name": "_doctorAddress",
          "type": "address"
        }
      ],
      "name": "checkAccess",
      "outputs": [
        {
          "internalType": "bool",
          "name": "",
          "type": "bool"
        }
      ],
      "stateMutability": "view",
      "type": "function"
    },
    {
      "inputs": [
        {
          "internalType": "address",
          "name": "_patientAddress",
          "type": "address"
        }
      ],
      "name": "getAccessList",
      "outputs": [
        {
          "internalType": "address[]",
          "name": "",
          "type": "address[]"
        }
      ],
      "stateMutability": "view",
      "type": "function"
    },
    {
      "inputs": [
        {
          "internalType": "address",
          "name": "_patientAddress",
          "type": "address"
        }
      ],
      "name": "getPatientRecords",
      "outputs": [
        {
          "components": [
            {
              "internalType": "string",
              "name": "ipfsHash",
              "type": "string"
            },
            {
              "internalType": "uint256",
              "name": "timestamp",
              "type": "uint256"
            },
            {
              "internalType": "address",
              "name": "uploadedBy",
              "type": "address"
            }
          ],
          "internalType": "struct MedicalRecords.Record[]",
          "name": "",
          "type": "tuple[]"
        }
      ],
      "stateMutability": "view",
      "type": "function"
    },
    {
      "inputs": [
        {
          "internalType": "address",
          "name": "_patientAddress",
          "type": "address"
        },
        {
          "internalType": "uint256",
          "name": "_index",
          "type": "uint256"
        }
      ],
      "name": "getPatientRequestAtIndex",
      "outputs": [
        {
          "components": [
            {
              "internalType": "uint256",
              "name": "id",
              "type": "uint256"
            },
            {
              "internalType": "address",
              "name": "patient",
              "type": "address"
            },
            {
              "internalType": "address",
              "name": "provider",
              "type": "address"
            },
            {
              "internalType": "string",
              "name": "claimId",
              "type": "string"
            },
            {
              "internalType": "enum AccessControl.RequestStatus",
              "name": "status",
              "type": "uint8"
            }
          ],
          "internalType": "struct AccessControl.AccessRequest",
          "name": "",
          "type": "tuple"
        }
      ],
      "stateMutability": "view",
      "type": "function"
    },
    {
      "inputs": [
        {
          "internalType": "address",
          "name": "_patientAddress",
          "type": "address"
        }
      ],
      "name": "getPatientRequestsCount",
      "outputs": [
        {
          "internalType": "uint256",
          "name": "",
          "type": "uint256"
        }
      ],
      "stateMutability": "view",
      "type": "function"
    },
    {
      "inputs": [
        {
          "internalType": "address",
          "name": "_doctorAddress",
          "type": "address"
        }
      ],
      "name": "grantAccess",
      "outputs": [],
      "stateMutability": "nonpayable",
      "type": "function"
    },
    {
      "inputs": [],
      "name": "owner",
      "outputs": [
        {
          "internalType": "address",
          "name": "",
          "type": "address"
        }
      ],
      "stateMutability": "view",
      "type": "function"
    },
    {
      "inputs": [
        {
          "internalType": "address",
          "name": "",
          "type": "address"
        },
        {
          "internalType": "uint256",
          "name": "",
          "type": "uint256"
        }
      ],
      "name": "patientRecords",
      "outputs": [
        {
          "internalType": "string",
          "name": "ipfsHash",
          "type": "string"
        },
        {
          "internalType": "uint256",
          "name": "timestamp",
          "type": "uint256"
        },
        {
          "internalType": "address",
          "name": "uploadedBy",
          "type": "address"
        }
      ],
      "stateMutability": "view",
      "type": "function"
    },
    {
      "inputs": [
        {
          "internalType": "address",
          "name": "",
          "type": "address"
        },
        {
          "internalType": "uint256",
          "name": "",
          "type": "uint256"
        }
      ],
      "name": "patientRequests",
      "outputs": [
        {
          "internalType": "uint256",
          "name": "id",
          "type": "uint256"
        },
        {
          "internalType": "address",
          "name": "patient",
          "type": "address"
        },
        {
          "internalType": "address",
          "name": "provider",
          "type": "address"
        },
        {
          "internalType": "string",
          "name": "claimId",
          "type": "string"
        },
        {
          "internalType": "enum AccessControl.RequestStatus",
          "name": "status",
          "type": "uint8"
        }
      ],
      "stateMutability": "view",
      "type": "function"
    },
    {
      "inputs": [
        {
          "internalType": "string",
          "name": "_name",
          "type": "string"
        },
        {
          "internalType": "enum Roles.Role",
          "name": "_role",
          "type": "uint8"
        }
      ],
      "name": "registerUser",
      "outputs": [],
      "stateMutability": "nonpayable",
      "type": "function"
    },
    {
      "inputs": [],
      "name": "renounceOwnership",
      "outputs": [],
      "stateMutability": "nonpayable",
      "type": "function"
    },
    {
      "inputs": [
        {
          "internalType": "address",
          "name": "_patientAddress",
          "type": "address"
        },
        {
          "internalType": "string",
          "name": "_claimId",
          "type": "string"
        }
      ],
      "name": "requestAccess",
      "outputs": [],
      "stateMutability": "nonpayable",
      "type": "function"
    },
    {
      "inputs": [
        {
          "internalType": "address",
          "name": "_userAddress",
          "type": "address"
        }
      ],
      "name": "revokeAccess",
      "outputs": [],
      "stateMutability": "nonpayable",
      "type": "function"
    },
    {
      "inputs": [
        {
          "internalType": "address",
          "name": "newOwner",
          "type": "address"
        }
      ],
      "name": "transferOwnership",
      "outputs": [],
      "stateMutability": "nonpayable",
      "type": "function"
    },
    {
      "inputs": [
        {
          "internalType": "string",
          "name": "_name",
          "type": "string"
        },
        {
          "internalType": "string",
          "name": "_contactInfo",
          "type": "string"
        },
        {
          "internalType": "string",
          "name": "_profileMetadataURI",
          "type": "string"
        }
      ],
      "name": "updateUserProfile",
      "outputs": [],
      "stateMutability": "nonpayable",
      "type": "function"
    },
    {
      "inputs": [
        {
          "internalType": "address",
          "name": "",
          "type": "address"
        }
      ],
      "name": "userProfiles",
      "outputs": [
        {
          "internalType": "string",
          "name": "name",
          "type": "string"
        },
        {
          "internalType": "string",
          "name": "contactInfo",
          "type": "string"
        },
        {
          "internalType": "string",
          "name": "profileMetadataURI",
          "type": "string"
        }
      ],
      "stateMutability": "view",
      "type": "function"
    },
    {
      "inputs": [
        {
          "internalType": "address",
          "name": "",
          "type": "address"
        }
      ],
      "name": "users",
      "outputs": [
        {
          "internalType": "address",
          "name": "walletAddress",
          "type": "address"
        },
        {
          "internalType": "string",
          "name": "name",
          "type": "string"
        },
        {
          "internalType": "enum Roles.Role",
          "name": "role",
          "type": "uint8"
        },
        {
          "internalType": "bool",
          "name": "isVerified",
          "type": "bool"
        }
      ],
      "stateMutability": "view",
      "type": "function"
    },
    {
      "inputs": [
        {
          "internalType": "address",
          "name": "_userToVerify",
          "type": "address"
        }
      ],
      "name": "verifyUser",
      "outputs": [],
      "stateMutability": "nonpayable",
      "type": "function"
    }
  ],
  "bytecode": "0x60806040523480156200001157600080fd5b5033600073ffffffffffffffffffffffffffffffffffffffff168173ffffffffffffffffffffffffffffffffffffffff1603620000885760006040517f1e4fbdf70000000000000000000000000000000000000000000000000000000081526004016200007f9190620001a9565b60405180910390fd5b6200009981620000a060201b60201c565b50620001c6565b60008060009054906101000a900473ffffffffffffffffffffffffffffffffffffffff169050816000806101000a81548173ffffffffffffffffffffffffffffffffffffffff021916908373ffffffffffffffffffffffffffffffffffffffff1602179055508173ffffffffffffffffffffffffffffffffffffffff168173ffffffffffffffffffffffffffffffffffffffff167f8be0079c531659141344cd1fd0a4f28419497f9722a3daafe3b4186f6b6457e060405160405180910390a35050565b600073ffffffffffffffffffffffffffffffffffffffff82169050919050565b6000620001918262000164565b9050919050565b620001a38162000184565b82525050565b6000602082019050620001c0600083018462000198565b92915050565b6149c780620001d66000396000f3fe608060405234801561001057600080fd5b50600436106101425760003560e01c806364b3b525116100b857806394f0df611161007c57806394f0df61146103895780639afd8efe146103bb578063a87430ba146103eb578063bace02901461041e578063d81aa8c41461043a578063f2fde38b1461045657610142565b806364b3b525146102e5578063715018a61461031557806380efcb3c1461031f57806385e685311461034f5780638da5cb5b1461036b57610142565b80633217bc721161010a5780633217bc72146101e7578063332d56d71461021b578063338e12eb1461024d5780634d813120146102695780635af28ce31461028557806362e1f745146102b557610142565b80630ae5e7391461014757806318bd4847146101635780631fbe3784146101935780632c0a90a9146101af5780632f6d4a59146101cb575b600080fd5b610161600480360381019061015c9190613785565b610472565b005b61017d60048036038101906101789190613785565b610905565b60405161018a919061397c565b60405180910390f35b6101ad60048036038101906101a89190613ad3565b610d1a565b005b6101c960048036038101906101c49190613b5b565b611038565b005b6101e560048036038101906101e09190613ad3565b611502565b005b61020160048036038101906101fc9190613b9b565b611890565b604051610212959493929190613cba565b60405180910390f35b61023560048036038101906102309190613785565b6119b8565b60405161024493929190613d14565b60405180910390f35b61026760048036038101906102629190613d85565b611b7a565b005b610283600480360381019061027e9190613785565b611ef5565b005b61029f600480360381019061029a9190613785565b612243565b6040516102ac9190613de1565b60405180910390f35b6102cf60048036038101906102ca9190613dfc565b6122f4565b6040516102dc9190613e57565b60405180910390f35b6102ff60048036038101906102fa9190613dfc565b61237d565b60405161030c9190613de1565b60405180910390f35b61031d6123a2565b005b61033960048036038101906103349190613785565b6123b6565b6040516103469190613f21565b60405180910390f35b61036960048036038101906103649190613785565b6124e8565b005b610373612ab2565b6040516103809190613f43565b60405180910390f35b6103a3600480360381019061039e9190613b9b565b612adb565b6040516103b293929190613f5e565b60405180910390f35b6103d560048036038101906103d09190613b9b565b612bca565b6040516103e29190614021565b60405180910390f35b61040560048036038101906104009190613785565b612e2c565b604051610415949392919061408b565b60405180910390f35b61043860048036038101906104339190614137565b612f1e565b005b610454600480360381019061044f91906141eb565b613203565b005b610470600480360381019061046b9190613785565b6134cd565b005b6000600681111561048657610485613c43565b5b600160003373ffffffffffffffffffffffffffffffffffffffff1673ffffffffffffffffffffffffffffffffffffffff16815260200190815260200160002060020160009054906101000a900460ff1660068111156104e8576104e7613c43565b5b1461051f576040517f8251137800000000000000000000000000000000000000000000000000000000815260040160405180910390fd5b6000600160008373ffffffffffffffffffffffffffffffffffffffff1673ffffffffffffffffffffffffffffffffffffffff16815260200190815260200160002090506001600681111561057657610575613c43565b5b8160020160009054906101000a900460ff16600681111561059a57610599613c43565b5b1415806105b657508060020160019054906101000a900460ff16155b156105ed576040517fe8dc534400000000000000000000000000000000000000000000000000000000815260040160405180910390fd5b42600360003373ffffffffffffffffffffffffffffffffffffffff1673ffffffffffffffffffffffffffffffffffffffff16815260200190815260200160002060008473ffffffffffffffffffffffffffffffffffffffff1673ffffffffffffffffffffffffffffffffffffffff1681526020019081526020016000205411156106a3576040517f857dd8aa00000000000000000000000000000000000000000000000000000000815260040160405180910390fd5b7fffffffffffffffffffffffffffffffffffffffffffffffffffffffffffffffff600360003373ffffffffffffffffffffffffffffffffffffffff1673ffffffffffffffffffffffffffffffffffffffff16815260200190815260200160002060008473ffffffffffffffffffffffffffffffffffffffff1673ffffffffffffffffffffffffffffffffffffffff16815260200190815260200160002081905550600660003373ffffffffffffffffffffffffffffffffffffffff1673ffffffffffffffffffffffffffffffffffffffff168152602001908152602001600020829080600181540180825580915050600190039060005260206000200160009091909190916101000a81548173ffffffffffffffffffffffffffffffffffffffff021916908373ffffffffffffffffffffffffffffffffffffffff160217905550600660003373ffffffffffffffffffffffffffffffffffffffff1673ffffffffffffffffffffffffffffffffffffffff16815260200190815260200160002080549050600760003373ffffffffffffffffffffffffffffffffffffffff1673ffffffffffffffffffffffffffffffffffffffff16815260200190815260200160002060008473ffffffffffffffffffffffffffffffffffffffff1673ffffffffffffffffffffffffffffffffffffffff168152602001908152602001600020819055508173ffffffffffffffffffffffffffffffffffffffff163373ffffffffffffffffffffffffffffffffffffffff167f9f520b3bfc56d06f7065d10b4683b3f57ac8895d5026cd176dee95ce1454cb8d60405160405180910390a35050565b60608173ffffffffffffffffffffffffffffffffffffffff163373ffffffffffffffffffffffffffffffffffffffff1603610ac857600860008373ffffffffffffffffffffffffffffffffffffffff1673ffffffffffffffffffffffffffffffffffffffff168152602001908152602001600020805480602002602001604051908101604052809291908181526020016000905b82821015610abd57838290600052602060002090600302016040518060600160405290816000820180546109cc90614263565b80601f01602080910402602001604051908101604052809291908181526020018280546109f890614263565b8015610a455780601f10610a1a57610100808354040283529160200191610a45565b820191906000526020600020905b815481529060010190602001808311610a2857829003601f168201915b50505050508152602001600182015481526020016002820160009054906101000a900473ffffffffffffffffffffffffffffffffffffffff1673ffffffffffffffffffffffffffffffffffffffff1673ffffffffffffffffffffffffffffffffffffffff168152505081526020019060010190610999565b505050509050610d15565b42600360008473ffffffffffffffffffffffffffffffffffffffff1673ffffffffffffffffffffffffffffffffffffffff16815260200190815260200160002060003373ffffffffffffffffffffffffffffffffffffffff1673ffffffffffffffffffffffffffffffffffffffff168152602001908152602001600020541115610cda57600860008373ffffffffffffffffffffffffffffffffffffffff1673ffffffffffffffffffffffffffffffffffffffff168152602001908152602001600020805480602002602001604051908101604052809291908181526020016000905b82821015610ccf5783829060005260206000209060030201604051806060016040529081600082018054610bde90614263565b80601f0160208091040260200160405190810160405280929190818152602001828054610c0a90614263565b8015610c575780601f10610c2c57610100808354040283529160200191610c57565b820191906000526020600020905b815481529060010190602001808311610c3a57829003601f168201915b50505050508152602001600182015481526020016002820160009054906101000a900473ffffffffffffffffffffffffffffffffffffffff1673ffffffffffffffffffffffffffffffffffffffff1673ffffffffffffffffffffffffffffffffffffffff168152505081526020019060010190610bab565b505050509050610d15565b6040517f08c379a0000000000000000000000000000000000000000000000000000000008152600401610d0c90614306565b60405180910390fd5b919050565b610d22613553565b600073ffffffffffffffffffffffffffffffffffffffff16600160008473ffffffffffffffffffffffffffffffffffffffff1673ffffffffffffffffffffffffffffffffffffffff16815260200190815260200160002060000160009054906101000a900473ffffffffffffffffffffffffffffffffffffffff1673ffffffffffffffffffffffffffffffffffffffff1614610dea576040517f3a81d6fc00000000000000000000000000000000000000000000000000000000815260040160405180910390fd5b60405180608001604052808373ffffffffffffffffffffffffffffffffffffffff16815260200182815260200160026006811115610e2b57610e2a613c43565b5b815260200160011515815250600160008473ffffffffffffffffffffffffffffffffffffffff1673ffffffffffffffffffffffffffffffffffffffff16815260200190815260200160002060008201518160000160006101000a81548173ffffffffffffffffffffffffffffffffffffffff021916908373ffffffffffffffffffffffffffffffffffffffff1602179055506020820151816001019081610ed291906144d2565b5060408201518160020160006101000a81548160ff02191690836006811115610efe57610efd613c43565b5b021790555060608201518160020160016101000a81548160ff021916908315150217905550905050604051806060016040528082815260200160405180602001604052806000815250815260200160405180602001604052806000815250815250600260008473ffffffffffffffffffffffffffffffffffffffff1673ffffffffffffffffffffffffffffffffffffffff1681526020019081526020016000206000820151816000019081610fb391906144d2565b506020820151816001019081610fc991906144d2565b506040820151816002019081610fdf91906144d2565b509050508173ffffffffffffffffffffffffffffffffffffffff167fc2e5d5da58bd71d1a2d14cdef02a4256d971b728088f8190d067ccfbae3bd73e82600260405161102c9291906145a4565b60405180910390a25050565b6000600681111561104c5761104b613c43565b5b600160003373ffffffffffffffffffffffffffffffffffffffff1673ffffffffffffffffffffffffffffffffffffffff16815260200190815260200160002060020160009054906101000a900460ff1660068111156110ae576110ad613c43565b5b146110e5576040517f8251137800000000000000000000000000000000000000000000000000000000815260040160405180910390fd5b6000600460003373ffffffffffffffffffffffffffffffffffffffff1673ffffffffffffffffffffffffffffffffffffffff16815260200190815260200160002090506000805b82805490508110156114c4578483828154811061114c5761114b6145d4565b5b9060005260206000209060050201600001541480156111c057506000600281111561117a57611179613c43565b5b83828154811061118d5761118c6145d4565b5b906000526020600020906005020160040160009054906101000a900460ff1660028111156111be576111bd613c43565b5b145b156114b75760018382815481106111da576111d96145d4565b5b906000526020600020906005020160040160006101000a81548160ff0219169083600281111561120d5761120c613c43565b5b0217905550600062015180856112239190614632565b4261122e9190614674565b90506000848381548110611245576112446145d4565b5b906000526020600020906005020160020160009054906101000a900473ffffffffffffffffffffffffffffffffffffffff16905081600360003373ffffffffffffffffffffffffffffffffffffffff1673ffffffffffffffffffffffffffffffffffffffff16815260200190815260200160002060008373ffffffffffffffffffffffffffffffffffffffff1673ffffffffffffffffffffffffffffffffffffffff16815260200190815260200160002081905550600660003373ffffffffffffffffffffffffffffffffffffffff1673ffffffffffffffffffffffffffffffffffffffff168152602001908152602001600020819080600181540180825580915050600190039060005260206000200160009091909190916101000a81548173ffffffffffffffffffffffffffffffffffffffff021916908373ffffffffffffffffffffffffffffffffffffffff160217905550600660003373ffffffffffffffffffffffffffffffffffffffff1673ffffffffffffffffffffffffffffffffffffffff16815260200190815260200160002080549050600760003373ffffffffffffffffffffffffffffffffffffffff1673ffffffffffffffffffffffffffffffffffffffff16815260200190815260200160002060008373ffffffffffffffffffffffffffffffffffffffff1673ffffffffffffffffffffffffffffffffffffffff16815260200190815260200160002081905550600193503373ffffffffffffffffffffffffffffffffffffffff16877f4def62da440b39db2661de60aa3dad0479ac27d4c22597d6e14c7441774f8a31886040516114a89190613de1565b60405180910390a350506114c4565b808060010191505061112c565b50806114fc576040517f4b13b31e00000000000000000000000000000000000000000000000000000000815260040160405180910390fd5b50505050565b6003600681111561151657611515613c43565b5b600160003373ffffffffffffffffffffffffffffffffffffffff1673ffffffffffffffffffffffffffffffffffffffff16815260200190815260200160002060020160009054906101000a900460ff16600681111561157857611577613c43565b5b146115af576040517f354a448400000000000000000000000000000000000000000000000000000000815260040160405180910390fd5b600060068111156115c3576115c2613c43565b5b600160008473ffffffffffffffffffffffffffffffffffffffff1673ffffffffffffffffffffffffffffffffffffffff16815260200190815260200160002060020160009054906101000a900460ff16600681111561162557611624613c43565b5b1461165c576040517f8251137800000000000000000000000000000000000000000000000000000000815260040160405180910390fd5b600060056000815480929190611671906146a8565b919050559050600460008473ffffffffffffffffffffffffffffffffffffffff1673ffffffffffffffffffffffffffffffffffffffff1681526020019081526020016000206040518060a001604052808381526020018573ffffffffffffffffffffffffffffffffffffffff1681526020013373ffffffffffffffffffffffffffffffffffffffff1681526020018481526020016000600281111561171957611718613c43565b5b81525090806001815401808255809150506001900390600052602060002090600502016000909190919091506000820151816000015560208201518160010160006101000a81548173ffffffffffffffffffffffffffffffffffffffff021916908373ffffffffffffffffffffffffffffffffffffffff16021790555060408201518160020160006101000a81548173ffffffffffffffffffffffffffffffffffffffff021916908373ffffffffffffffffffffffffffffffffffffffff16021790555060608201518160030190816117f291906144d2565b5060808201518160040160006101000a81548160ff0219169083600281111561181e5761181d613c43565b5b021790555050503373ffffffffffffffffffffffffffffffffffffffff168373ffffffffffffffffffffffffffffffffffffffff16827f21eb886073c5fec0f227f76ef8335d82939c7aa4b537be2e0943f4c1dc74553e8560405161188391906146f0565b60405180910390a4505050565b600460205281600052604060002081815481106118ac57600080fd5b9060005260206000209060050201600091509150508060000154908060010160009054906101000a900473ffffffffffffffffffffffffffffffffffffffff16908060020160009054906101000a900473ffffffffffffffffffffffffffffffffffffffff169080600301805461192290614263565b80601f016020809104026020016040519081016040528092919081815260200182805461194e90614263565b801561199b5780601f106119705761010080835404028352916020019161199b565b820191906000526020600020905b81548152906001019060200180831161197e57829003601f168201915b5050505050908060040160009054906101000a900460ff16905085565b60026020528060005260406000206000915090508060000180546119db90614263565b80601f0160208091040260200160405190810160405280929190818152602001828054611a0790614263565b8015611a545780601f10611a2957610100808354040283529160200191611a54565b820191906000526020600020905b815481529060010190602001808311611a3757829003601f168201915b505050505090806001018054611a6990614263565b80601f0160208091040260200160405190810160405280929190818152602001828054611a9590614263565b8015611ae25780601f10611ab757610100808354040283529160200191611ae2565b820191906000526020600020905b815481529060010190602001808311611ac557829003601f168201915b505050505090806002018054611af790614263565b80601f0160208091040260200160405190810160405280929190818152602001828054611b2390614263565b8015611b705780601f10611b4557610100808354040283529160200191611b70565b820191906000526020600020905b815481529060010190602001808311611b5357829003601f168201915b5050505050905083565b600073ffffffffffffffffffffffffffffffffffffffff16600160003373ffffffffffffffffffffffffffffffffffffffff1673ffffffffffffffffffffffffffffffffffffffff16815260200190815260200160002060000160009054906101000a900473ffffffffffffffffffffffffffffffffffffffff1673ffffffffffffffffffffffffffffffffffffffff1614611c42576040517f3a81d6fc00000000000000000000000000000000000000000000000000000000815260040160405180910390fd5b60026006811115611c5657611c55613c43565b5b816006811115611c6957611c68613c43565b5b03611ca9576040517f08c379a0000000000000000000000000000000000000000000000000000000008152600401611ca090614784565b60405180910390fd5b60405180608001604052803373ffffffffffffffffffffffffffffffffffffffff168152602001838152602001826006811115611ce957611ce8613c43565b5b815260200160001515815250600160003373ffffffffffffffffffffffffffffffffffffffff1673ffffffffffffffffffffffffffffffffffffffff16815260200190815260200160002060008201518160000160006101000a81548173ffffffffffffffffffffffffffffffffffffffff021916908373ffffffffffffffffffffffffffffffffffffffff1602179055506020820151816001019081611d9091906144d2565b5060408201518160020160006101000a81548160ff02191690836006811115611dbc57611dbb613c43565b5b021790555060608201518160020160016101000a81548160ff021916908315150217905550905050604051806060016040528083815260200160405180602001604052806000815250815260200160405180602001604052806000815250815250600260003373ffffffffffffffffffffffffffffffffffffffff1673ffffffffffffffffffffffffffffffffffffffff1681526020019081526020016000206000820151816000019081611e7191906144d2565b506020820151816001019081611e8791906144d2565b506040820151816002019081611e9d91906144d2565b509050503373ffffffffffffffffffffffffffffffffffffffff167fc2e5d5da58bd71d1a2d14cdef02a4256d971b728088f8190d067ccfbae3bd73e8383604051611ee99291906145a4565b60405180910390a25050565b600073ffffffffffffffffffffffffffffffffffffffff16600160003373ffffffffffffffffffffffffffffffffffffffff1673ffffffffffffffffffffffffffffffffffffffff16815260200190815260200160002060000160009054906101000a900473ffffffffffffffffffffffffffffffffffffffff1673ffffffffffffffffffffffffffffffffffffffff1603611fbd576040517faba4733900000000000000000000000000000000000000000000000000000000815260040160405180910390fd5b60026006811115611fd157611fd0613c43565b5b600160003373ffffffffffffffffffffffffffffffffffffffff1673ffffffffffffffffffffffffffffffffffffffff16815260200190815260200160002060020160009054906101000a900460ff16600681111561203357612032613c43565b5b14158061208d5750600160003373ffffffffffffffffffffffffffffffffffffffff1673ffffffffffffffffffffffffffffffffffffffff16815260200190815260200160002060020160019054906101000a900460ff16155b156120c4576040517f55098f2700000000000000000000000000000000000000000000000000000000815260040160405180910390fd5b600073ffffffffffffffffffffffffffffffffffffffff16600160008373ffffffffffffffffffffffffffffffffffffffff1673ffffffffffffffffffffffffffffffffffffffff16815260200190815260200160002060000160009054906101000a900473ffffffffffffffffffffffffffffffffffffffff1673ffffffffffffffffffffffffffffffffffffffff160361218c576040517f670a68cc00000000000000000000000000000000000000000000000000000000815260040160405180910390fd5b60018060008373ffffffffffffffffffffffffffffffffffffffff1673ffffffffffffffffffffffffffffffffffffffff16815260200190815260200160002060020160016101000a81548160ff0219169083151502179055508073ffffffffffffffffffffffffffffffffffffffff163373ffffffffffffffffffffffffffffffffffffffff167fbfb2fa25f828a712fda370028ecc8813c7082c69b239a579753b10e24dd472cc60405160405180910390a350565b60008173ffffffffffffffffffffffffffffffffffffffff163373ffffffffffffffffffffffffffffffffffffffff16146122aa576040517fea8e4eb500000000000000000000000000000000000000000000000000000000815260040160405180910390fd5b600460008373ffffffffffffffffffffffffffffffffffffffff1673ffffffffffffffffffffffffffffffffffffffff168152602001908152602001600020805490509050919050565b600042600360008573ffffffffffffffffffffffffffffffffffffffff1673ffffffffffffffffffffffffffffffffffffffff16815260200190815260200160002060008473ffffffffffffffffffffffffffffffffffffffff1673ffffffffffffffffffffffffffffffffffffffff1681526020019081526020016000205411905092915050565b6003602052816000526040600020602052806000526040600020600091509150505481565b6123aa613553565b6123b460006135da565b565b60608173ffffffffffffffffffffffffffffffffffffffff163373ffffffffffffffffffffffffffffffffffffffff161461241d576040517fea8e4eb500000000000000000000000000000000000000000000000000000000815260040160405180910390fd5b600660008373ffffffffffffffffffffffffffffffffffffffff1673ffffffffffffffffffffffffffffffffffffffff1681526020019081526020016000208054806020026020016040519081016040528092919081815260200182805480156124dc57602002820191906000526020600020905b8160009054906101000a900473ffffffffffffffffffffffffffffffffffffffff1673ffffffffffffffffffffffffffffffffffffffff1681526020019060010190808311612492575b50505050509050919050565b600060068111156124fc576124fb613c43565b5b600160003373ffffffffffffffffffffffffffffffffffffffff1673ffffffffffffffffffffffffffffffffffffffff16815260200190815260200160002060020160009054906101000a900460ff16600681111561255e5761255d613c43565b5b14612595576040517f8251137800000000000000000000000000000000000000000000000000000000815260040160405180910390fd5b42600360003373ffffffffffffffffffffffffffffffffffffffff1673ffffffffffffffffffffffffffffffffffffffff16815260200190815260200160002060008373ffffffffffffffffffffffffffffffffffffffff1673ffffffffffffffffffffffffffffffffffffffff16815260200190815260200160002054101561264b576040517f9cf4448900000000000000000000000000000000000000000000000000000000815260040160405180910390fd5b6000600360003373ffffffffffffffffffffffffffffffffffffffff1673ffffffffffffffffffffffffffffffffffffffff16815260200190815260200160002060008373ffffffffffffffffffffffffffffffffffffffff1673ffffffffffffffffffffffffffffffffffffffff1681526020019081526020016000208190555060006001600760003373ffffffffffffffffffffffffffffffffffffffff1673ffffffffffffffffffffffffffffffffffffffff16815260200190815260200160002060008473ffffffffffffffffffffffffffffffffffffffff1673ffffffffffffffffffffffffffffffffffffffff1681526020019081526020016000205461275891906147a4565b90506000600660003373ffffffffffffffffffffffffffffffffffffffff1673ffffffffffffffffffffffffffffffffffffffff1681526020019081526020016000206001600660003373ffffffffffffffffffffffffffffffffffffffff1673ffffffffffffffffffffffffffffffffffffffff168152602001908152602001600020805490506127ea91906147a4565b815481106127fb576127fa6145d4565b5b9060005260206000200160009054906101000a900473ffffffffffffffffffffffffffffffffffffffff16905080600660003373ffffffffffffffffffffffffffffffffffffffff1673ffffffffffffffffffffffffffffffffffffffff168152602001908152602001600020838154811061287a576128796145d4565b5b9060005260206000200160006101000a81548173ffffffffffffffffffffffffffffffffffffffff021916908373ffffffffffffffffffffffffffffffffffffffff1602179055506001826128cf9190614674565b600760003373ffffffffffffffffffffffffffffffffffffffff1673ffffffffffffffffffffffffffffffffffffffff16815260200190815260200160002060008373ffffffffffffffffffffffffffffffffffffffff1673ffffffffffffffffffffffffffffffffffffffff16815260200190815260200160002081905550600660003373ffffffffffffffffffffffffffffffffffffffff1673ffffffffffffffffffffffffffffffffffffffff16815260200190815260200160002080548061299e5761299d6147d8565b5b6001900381819060005260206000200160006101000a81549073ffffffffffffffffffffffffffffffffffffffff02191690559055600760003373ffffffffffffffffffffffffffffffffffffffff1673ffffffffffffffffffffffffffffffffffffffff16815260200190815260200160002060008473ffffffffffffffffffffffffffffffffffffffff1673ffffffffffffffffffffffffffffffffffffffff168152602001908152602001600020600090558273ffffffffffffffffffffffffffffffffffffffff163373ffffffffffffffffffffffffffffffffffffffff167f825c8be24eb0df19500f63e86c29e7d0d951e73056b889b891d85e40938d9b6e60405160405180910390a3505050565b60008060009054906101000a900473ffffffffffffffffffffffffffffffffffffffff16905090565b60086020528160005260406000208181548110612af757600080fd5b906000526020600020906003020160009150915050806000018054612b1b90614263565b80601f0160208091040260200160405190810160405280929190818152602001828054612b4790614263565b8015612b945780601f10612b6957610100808354040283529160200191612b94565b820191906000526020600020905b815481529060010190602001808311612b7757829003601f168201915b5050505050908060010154908060020160009054906101000a900473ffffffffffffffffffffffffffffffffffffffff16905083565b612bd26136a6565b8273ffffffffffffffffffffffffffffffffffffffff163373ffffffffffffffffffffffffffffffffffffffff1614612c37576040517fea8e4eb500000000000000000000000000000000000000000000000000000000815260040160405180910390fd5b600460008473ffffffffffffffffffffffffffffffffffffffff1673ffffffffffffffffffffffffffffffffffffffff1681526020019081526020016000208281548110612c8857612c876145d4565b5b90600052602060002090600502016040518060a0016040529081600082015481526020016001820160009054906101000a900473ffffffffffffffffffffffffffffffffffffffff1673ffffffffffffffffffffffffffffffffffffffff1673ffffffffffffffffffffffffffffffffffffffff1681526020016002820160009054906101000a900473ffffffffffffffffffffffffffffffffffffffff1673ffffffffffffffffffffffffffffffffffffffff1673ffffffffffffffffffffffffffffffffffffffff168152602001600382018054612d6790614263565b80601f0160208091040260200160405190810160405280929190818152602001828054612d9390614263565b8015612de05780601f10612db557610100808354040283529160200191612de0565b820191906000526020600020905b815481529060010190602001808311612dc357829003601f168201915b505050505081526020016004820160009054906101000a900460ff166002811115612e0e57612e0d613c43565b5b6002811115612e2057612e1f613c43565b5b81525050905092915050565b60016020528060005260406000206000915090508060000160009054906101000a900473ffffffffffffffffffffffffffffffffffffffff1690806001018054612e7590614263565b80601f0160208091040260200160405190810160405280929190818152602001828054612ea190614263565b8015612eee5780601f10612ec357610100808354040283529160200191612eee565b820191906000526020600020905b815481529060010190602001808311612ed157829003601f168201915b5050505050908060020160009054906101000a900460ff16908060020160019054906101000a900460ff16905084565b600073ffffffffffffffffffffffffffffffffffffffff16600160003373ffffffffffffffffffffffffffffffffffffffff1673ffffffffffffffffffffffffffffffffffffffff16815260200190815260200160002060000160009054906101000a900473ffffffffffffffffffffffffffffffffffffffff1673ffffffffffffffffffffffffffffffffffffffff1603612fe6576040517faba4733900000000000000000000000000000000000000000000000000000000815260040160405180910390fd5b604051806060016040528087878080601f016020809104026020016040519081016040528093929190818152602001838380828437600081840152601f19601f82011690508083019250505050505050815260200185858080601f016020809104026020016040519081016040528093929190818152602001838380828437600081840152601f19601f82011690508083019250505050505050815260200183838080601f016020809104026020016040519081016040528093929190818152602001838380828437600081840152601f19601f82011690508083019250505050505050815250600260003373ffffffffffffffffffffffffffffffffffffffff1673ffffffffffffffffffffffffffffffffffffffff168152602001908152602001600020600082015181600001908161312191906144d2565b50602082015181600101908161313791906144d2565b50604082015181600201908161314d91906144d2565b509050508585600160003373ffffffffffffffffffffffffffffffffffffffff1673ffffffffffffffffffffffffffffffffffffffff16815260200190815260200160002060010191826131a2929190614812565b503373ffffffffffffffffffffffffffffffffffffffff167f6420daf1b58438e85465ef21dee378d307a509caab491149e3f066c5caf1266d8787878787876040516131f39695949392919061490f565b60405180910390a2505050505050565b600073ffffffffffffffffffffffffffffffffffffffff16600160003373ffffffffffffffffffffffffffffffffffffffff1673ffffffffffffffffffffffffffffffffffffffff16815260200190815260200160002060000160009054906101000a900473ffffffffffffffffffffffffffffffffffffffff1673ffffffffffffffffffffffffffffffffffffffff16036132cb576040517faba4733900000000000000000000000000000000000000000000000000000000815260040160405180910390fd5b600060068111156132df576132de613c43565b5b600160003373ffffffffffffffffffffffffffffffffffffffff1673ffffffffffffffffffffffffffffffffffffffff16815260200190815260200160002060020160009054906101000a900460ff16600681111561334157613340613c43565b5b14613378576040517f8251137800000000000000000000000000000000000000000000000000000000815260040160405180910390fd5b600860003373ffffffffffffffffffffffffffffffffffffffff1673ffffffffffffffffffffffffffffffffffffffff16815260200190815260200160002060405180606001604052808381526020014281526020013373ffffffffffffffffffffffffffffffffffffffff168152509080600181540180825580915050600190039060005260206000209060030201600090919091909150600082015181600001908161342691906144d2565b506020820151816001015560408201518160020160006101000a81548173ffffffffffffffffffffffffffffffffffffffff021916908373ffffffffffffffffffffffffffffffffffffffff16021790555050503373ffffffffffffffffffffffffffffffffffffffff167f4b92a41aaac1d087148ec39a65a261cc6ac88ed7765dece5374bb3893fcfcf9e82426040516134c2929190614961565b60405180910390a250565b6134d5613553565b600073ffffffffffffffffffffffffffffffffffffffff168173ffffffffffffffffffffffffffffffffffffffff16036135475760006040517f1e4fbdf700000000000000000000000000000000000000000000000000000000815260040161353e9190613f43565b60405180910390fd5b613550816135da565b50565b61355b61369e565b73ffffffffffffffffffffffffffffffffffffffff16613579612ab2565b73ffffffffffffffffffffffffffffffffffffffff16146135d85761359c61369e565b6040517f118cdaa70000000000000000000000000000000000000000000000000000000081526004016135cf9190613f43565b60405180910390fd5b565b60008060009054906101000a900473ffffffffffffffffffffffffffffffffffffffff169050816000806101000a81548173ffffffffffffffffffffffffffffffffffffffff021916908373ffffffffffffffffffffffffffffffffffffffff1602179055508173ffffffffffffffffffffffffffffffffffffffff168173ffffffffffffffffffffffffffffffffffffffff167f8be0079c531659141344cd1fd0a4f28419497f9722a3daafe3b4186f6b6457e060405160405180910390a35050565b600033905090565b6040518060a0016040528060008152602001600073ffffffffffffffffffffffffffffffffffffffff168152602001600073ffffffffffffffffffffffffffffffffffffffff168152602001606081526020016000600281111561370d5761370c613c43565b5b81525090565b6000604051905090565b600080fd5b600080fd5b600073ffffffffffffffffffffffffffffffffffffffff82169050919050565b600061375282613727565b9050919050565b61376281613747565b811461376d57600080fd5b50565b60008135905061377f81613759565b92915050565b60006020828403121561379b5761379a61371d565b5b60006137a984828501613770565b91505092915050565b600081519050919050565b600082825260208201905092915050565b6000819050602082019050919050565b600081519050919050565b600082825260208201905092915050565b60005b838110156138185780820151818401526020810190506137fd565b60008484015250505050565b6000601f19601f8301169050919050565b6000613840826137de565b61384a81856137e9565b935061385a8185602086016137fa565b61386381613824565b840191505092915050565b6000819050919050565b6138818161386e565b82525050565b61389081613747565b82525050565b600060608301600083015184820360008601526138b38282613835565b91505060208301516138c86020860182613878565b5060408301516138db6040860182613887565b508091505092915050565b60006138f28383613896565b905092915050565b6000602082019050919050565b6000613912826137b2565b61391c81856137bd565b93508360208202850161392e856137ce565b8060005b8581101561396a578484038952815161394b85826138e6565b9450613956836138fa565b925060208a01995050600181019050613932565b50829750879550505050505092915050565b600060208201905081810360008301526139968184613907565b905092915050565b600080fd5b600080fd5b7f4e487b7100000000000000000000000000000000000000000000000000000000600052604160045260246000fd5b6139e082613824565b810181811067ffffffffffffffff821117156139ff576139fe6139a8565b5b80604052505050565b6000613a12613713565b9050613a1e82826139d7565b919050565b600067ffffffffffffffff821115613a3e57613a3d6139a8565b5b613a4782613824565b9050602081019050919050565b82818337600083830152505050565b6000613a76613a7184613a23565b613a08565b905082815260208101848484011115613a9257613a916139a3565b5b613a9d848285613a54565b509392505050565b600082601f830112613aba57613ab961399e565b5b8135613aca848260208601613a63565b91505092915050565b60008060408385031215613aea57613ae961371d565b5b6000613af885828601613770565b925050602083013567ffffffffffffffff811115613b1957613b18613722565b5b613b2585828601613aa5565b9150509250929050565b613b388161386e565b8114613b4357600080fd5b50565b600081359050613b5581613b2f565b92915050565b60008060408385031215613b7257613b7161371d565b5b6000613b8085828601613b46565b9250506020613b9185828601613b46565b9150509250929050565b60008060408385031215613bb257613bb161371d565b5b6000613bc085828601613770565b9250506020613bd185828601613b46565b9150509250929050565b613be48161386e565b82525050565b613bf381613747565b82525050565b600082825260208201905092915050565b6000613c15826137de565b613c1f8185613bf9565b9350613c2f8185602086016137fa565b613c3881613824565b840191505092915050565b7f4e487b7100000000000000000000000000000000000000000000000000000000600052602160045260246000fd5b60038110613c8357613c82613c43565b5b50565b6000819050613c9482613c72565b919050565b6000613ca482613c86565b9050919050565b613cb481613c99565b82525050565b600060a082019050613ccf6000830188613bdb565b613cdc6020830187613bea565b613ce96040830186613bea565b8181036060830152613cfb8185613c0a565b9050613d0a6080830184613cab565b9695505050505050565b60006060820190508181036000830152613d2e8186613c0a565b90508181036020830152613d428185613c0a565b90508181036040830152613d568184613c0a565b9050949350505050565b60078110613d6d57600080fd5b50565b600081359050613d7f81613d60565b92915050565b60008060408385031215613d9c57613d9b61371d565b5b600083013567ffffffffffffffff811115613dba57613db9613722565b5b613dc685828601613aa5565b9250506020613dd785828601613d70565b9150509250929050565b6000602082019050613df66000830184613bdb565b92915050565b60008060408385031215613e1357613e1261371d565b5b6000613e2185828601613770565b9250506020613e3285828601613770565b9150509250929050565b60008115159050919050565b613e5181613e3c565b82525050565b6000602082019050613e6c6000830184613e48565b92915050565b600081519050919050565b600082825260208201905092915050565b6000819050602082019050919050565b6000613eaa8383613887565b60208301905092915050565b6000602082019050919050565b6000613ece82613e72565b613ed88185613e7d565b9350613ee383613e8e565b8060005b83811015613f14578151613efb8882613e9e565b9750613f0683613eb6565b925050600181019050613ee7565b5085935050505092915050565b60006020820190508181036000830152613f3b8184613ec3565b905092915050565b6000602082019050613f586000830184613bea565b92915050565b60006060820190508181036000830152613f788186613c0a565b9050613f876020830185613bdb565b613f946040830184613bea565b949350505050565b613fa581613c99565b82525050565b600060a083016000830151613fc36000860182613878565b506020830151613fd66020860182613887565b506040830151613fe96040860182613887565b50606083015184820360608601526140018282613835565b91505060808301516140166080860182613f9c565b508091505092915050565b6000602082019050818103600083015261403b8184613fab565b905092915050565b6007811061405457614053613c43565b5b50565b600081905061406582614043565b919050565b600061407582614057565b9050919050565b6140858161406a565b82525050565b60006080820190506140a06000830187613bea565b81810360208301526140b28186613c0a565b90506140c1604083018561407c565b6140ce6060830184613e48565b95945050505050565b600080fd5b600080fd5b60008083601f8401126140f7576140f661399e565b5b8235905067ffffffffffffffff811115614114576141136140d7565b5b6020830191508360018202830111156141305761412f6140dc565b5b9250929050565b600080600080600080606087890312156141545761415361371d565b5b600087013567ffffffffffffffff81111561417257614171613722565b5b61417e89828a016140e1565b9650965050602087013567ffffffffffffffff8111156141a1576141a0613722565b5b6141ad89828a016140e1565b9450945050604087013567ffffffffffffffff8111156141d0576141cf613722565b5b6141dc89828a016140e1565b92509250509295509295509295565b6000602082840312156142015761420061371d565b5b600082013567ffffffffffffffff81111561421f5761421e613722565b5b61422b84828501613aa5565b91505092915050565b7f4e487b7100000000000000000000000000000000000000000000000000000000600052602260045260246000fd5b6000600282049050600182168061427b57607f821691505b60208210810361428e5761428d614234565b5b50919050565b7f596f7520646f206e6f742068617665207065726d697373696f6e20746f20766960008201527f6577207468657365207265636f7264732e000000000000000000000000000000602082015250565b60006142f0603183613bf9565b91506142fb82614294565b604082019050919050565b6000602082019050818103600083015261431f816142e3565b9050919050565b60008190508160005260206000209050919050565b60006020601f8301049050919050565b600082821b905092915050565b6000600883026143887fffffffffffffffffffffffffffffffffffffffffffffffffffffffffffffffff8261434b565b614392868361434b565b95508019841693508086168417925050509392505050565b6000819050919050565b60006143cf6143ca6143c58461386e565b6143aa565b61386e565b9050919050565b6000819050919050565b6143e9836143b4565b6143fd6143f5826143d6565b848454614358565b825550505050565b600090565b614412614405565b61441d8184846143e0565b505050565b5b818110156144415761443660008261440a565b600181019050614423565b5050565b601f8211156144865761445781614326565b6144608461433b565b8101602085101561446f578190505b61448361447b8561433b565b830182614422565b50505b505050565b600082821c905092915050565b60006144a96000198460080261448b565b1980831691505092915050565b60006144c28383614498565b9150826002028217905092915050565b6144db826137de565b67ffffffffffffffff8111156144f4576144f36139a8565b5b6144fe8254614263565b614509828285614445565b600060209050601f83116001811461453c576000841561452a578287015190505b61453485826144b6565b86555061459c565b601f19841661454a86614326565b60005b828110156145725784890151825560018201915060208501945060208101905061454d565b8683101561458f578489015161458b601f891682614498565b8355505b6001600288020188555050505b505050505050565b600060408201905081810360008301526145be8185613c0a565b90506145cd602083018461407c565b9392505050565b7f4e487b7100000000000000000000000000000000000000000000000000000000600052603260045260246000fd5b7f4e487b7100000000000000000000000000000000000000000000000000000000600052601160045260246000fd5b600061463d8261386e565b91506146488361386e565b92508282026146568161386e565b9150828204841483151761466d5761466c614603565b5b5092915050565b600061467f8261386e565b915061468a8361386e565b92508282019050808211156146a2576146a1614603565b5b92915050565b60006146b38261386e565b91507fffffffffffffffffffffffffffffffffffffffffffffffffffffffffffffffff82036146e5576146e4614603565b5b600182019050919050565b6000602082019050818103600083015261470a8184613c0a565b905092915050565b7f43616e6e6f742072656769737465722061732041646d696e206469726563746c60008201527f792e000000000000000000000000000000000000000000000000000000000000602082015250565b600061476e602283613bf9565b915061477982614712565b604082019050919050565b6000602082019050818103600083015261479d81614761565b9050919050565b60006147af8261386e565b91506147ba8361386e565b92508282039050818111156147d2576147d1614603565b5b92915050565b7f4e487b7100000000000000000000000000000000000000000000000000000000600052603160045260246000fd5b600082905092915050565b61481c8383614807565b67ffffffffffffffff811115614835576148346139a8565b5b61483f8254614263565b61484a828285614445565b6000601f8311600181146148795760008415614867578287013590505b61487185826144b6565b8655506148d9565b601f19841661488786614326565b60005b828110156148af5784890135825560018201915060208501945060208101905061488a565b868310156148cc57848901356148c8601f891682614498565b8355505b6001600288020188555050505b50505050505050565b60006148ee8385613bf9565b93506148fb838584613a54565b61490483613824565b840190509392505050565b6000606082019050818103600083015261492a81888a6148e2565b9050818103602083015261493f8186886148e2565b905081810360408301526149548184866148e2565b9050979650505050505050565b6000604082019050818103600083015261497b8185613c0a565b905061498a6020830184613bdb565b939250505056fea26469706673582212205de004b5132817b218a0a009c781b5122d2469c289f66cd4710820e7ac15540364736f6c63430008180033",
  "linkReferences": {},
  "deployedLinkReferences": {}
}