{
  "_format": "hh-sol-artifact-1",
  "contractName": "MedicalRecords",
  "sourceName": "contracts/MedicalRecords.sol",
  "abi": [
    {
      "inputs": [],
      "stateMutability": "nonpayable",
      "type": "constructor"
    },
    {
      "inputs": [],
      "name": "AccessAlreadyGranted",
      "type": "error"
    },
    {
      "inputs": [],
      "name": "AlreadyRegistered",
      "type": "error"
    },
    {
      "inputs": [],
      "name": "NoAccessToRevoke",
      "type": "error"
    },
    {
      "inputs": [],
      "name": "NotAPatient",
      "type": "error"
    },
    {
      "inputs": [],
      "name": "NotAVerifiedDoctor",
      "type": "error"
    },
    {
      "inputs": [],
      "name": "NotAnAdmin",
      "type": "error"
    },
    {
      "inputs": [],
      "name": "NotAnInsuranceProvider",
      "type": "error"
    },
    {
      "inputs": [],
      "name": "NotAuthorized",
      "type": "error"
    },
    {
      "inputs": [],
      "name": "NotRegistered",
      "type": "error"
    },
    {
      "inputs": [
        {
          "internalType": "address",
          "name": "owner",
          "type": "address"
        }
      ],
      "name": "OwnableInvalidOwner",
      "type": "error"
    },
    {
      "inputs": [
        {
          "internalType": "address",
          "name": "account",
          "type": "address"
        }
      ],
      "name": "OwnableUnauthorizedAccount",
      "type": "error"
    },
    {
      "inputs": [],
      "name": "RequestNotFound",
      "type": "error"
    },
    {
      "inputs": [],
      "name": "UserNotFound",
      "type": "error"
    },
    {
      "anonymous": false,
      "inputs": [
        {
          "indexed": true,
          "internalType": "address",
          "name": "patient",
          "type": "address"
        },
        {
          "indexed": true,
          "internalType": "address",
          "name": "doctor",
          "type": "address"
        }
      ],
      "name": "AccessGranted",
      "type": "event"
    },
    {
      "anonymous": false,
      "inputs": [
        {
          "indexed": true,
          "internalType": "uint256",
          "name": "requestId",
          "type": "uint256"
        },
        {
          "indexed": true,
          "internalType": "address",
          "name": "patient",
          "type": "address"
        },
        {
          "indexed": true,
          "internalType": "address",
          "name": "provider",
          "type": "address"
        },
        {
          "indexed": false,
          "internalType": "string",
          "name": "claimId",
          "type": "string"
        }
      ],
      "name": "AccessRequested",
      "type": "event"
    },
    {
      "anonymous": false,
      "inputs": [
        {
          "indexed": true,
          "internalType": "address",
          "name": "patient",
          "type": "address"
        },
        {
          "indexed": true,
          "internalType": "address",
          "name": "doctor",
          "type": "address"
        }
      ],
      "name": "AccessRevoked",
      "type": "event"
    },
    {
      "anonymous": false,
      "inputs": [
        {
          "indexed": true,
          "internalType": "address",
          "name": "previousOwner",
          "type": "address"
        },
        {
          "indexed": true,
          "internalType": "address",
          "name": "newOwner",
          "type": "address"
        }
      ],
      "name": "OwnershipTransferred",
      "type": "event"
    },
    {
      "anonymous": false,
      "inputs": [
        {
          "indexed": true,
          "internalType": "address",
          "name": "patient",
          "type": "address"
        },
        {
          "indexed": false,
          "internalType": "string",
          "name": "ipfsHash",
          "type": "string"
        },
        {
          "indexed": false,
          "internalType": "uint256",
          "name": "timestamp",
          "type": "uint256"
        }
      ],
      "name": "RecordAdded",
      "type": "event"
    },
    {
      "anonymous": false,
      "inputs": [
        {
          "indexed": true,
          "internalType": "uint256",
          "name": "requestId",
          "type": "uint256"
        },
        {
          "indexed": true,
          "internalType": "address",
          "name": "patient",
          "type": "address"
        },
        {
          "indexed": false,
          "internalType": "uint256",
          "name": "accessDuration",
          "type": "uint256"
        }
      ],
      "name": "RequestApproved",
      "type": "event"
    },
    {
      "anonymous": false,
      "inputs": [
        {
          "indexed": true,
          "internalType": "address",
          "name": "patient",
          "type": "address"
        },
        {
          "indexed": false,
          "internalType": "uint256",
          "name": "newLength",
          "type": "uint256"
        }
      ],
      "name": "RequestArrayUpdated",
      "type": "event"
    },
    {
      "anonymous": false,
      "inputs": [
        {
          "indexed": true,
          "internalType": "address",
          "name": "userAddress",
          "type": "address"
        },
        {
          "indexed": false,
          "internalType": "string",
          "name": "name",
          "type": "string"
        },
        {
          "indexed": false,
          "internalType": "enum Roles.Role",
          "name": "role",
          "type": "uint8"
        }
      ],
      "name": "UserRegistered",
      "type": "event"
    },
    {
      "anonymous": false,
      "inputs": [
        {
          "indexed": true,
          "internalType": "address",
          "name": "admin",
          "type": "address"
        },
        {
          "indexed": true,
          "internalType": "address",
          "name": "userAddress",
          "type": "address"
        }
      ],
      "name": "UserVerified",
      "type": "event"
    },
    {
      "inputs": [
        {
          "internalType": "address",
          "name": "",
          "type": "address"
        },
        {
          "internalType": "address",
          "name": "",
          "type": "address"
        }
      ],
      "name": "accessPermissions",
      "outputs": [
        {
          "internalType": "uint256",
          "name": "",
          "type": "uint256"
        }
      ],
      "stateMutability": "view",
      "type": "function"
    },
    {
      "inputs": [
        {
          "internalType": "address",
          "name": "_newAdmin",
          "type": "address"
        },
        {
          "internalType": "string",
          "name": "_name",
          "type": "string"
        }
      ],
      "name": "addHospitalAdmin",
      "outputs": [],
      "stateMutability": "nonpayable",
      "type": "function"
    },
    {
      "inputs": [
        {
          "internalType": "string",
          "name": "_ipfsHash",
          "type": "string"
        }
      ],
      "name": "addRecord",
      "outputs": [],
      "stateMutability": "nonpayable",
      "type": "function"
    },
    {
      "inputs": [
        {
          "internalType": "uint256",
          "name": "_requestId",
          "type": "uint256"
        },
        {
          "internalType": "uint256",
          "name": "_durationInDays",
          "type": "uint256"
        }
      ],
      "name": "approveRequest",
      "outputs": [],
      "stateMutability": "nonpayable",
      "type": "function"
    },
    {
      "inputs": [
        {
          "internalType": "address",
          "name": "_patientAddress",
          "type": "address"
        },
        {
          "internalType": "address",
          "name": "_doctorAddress",
          "type": "address"
        }
      ],
      "name": "checkAccess",
      "outputs": [
        {
          "internalType": "bool",
          "name": "",
          "type": "bool"
        }
      ],
      "stateMutability": "view",
      "type": "function"
    },
    {
      "inputs": [
        {
          "internalType": "address",
          "name": "_patientAddress",
          "type": "address"
        }
      ],
      "name": "getAccessList",
      "outputs": [
        {
          "internalType": "address[]",
          "name": "",
          "type": "address[]"
        }
      ],
      "stateMutability": "view",
      "type": "function"
    },
    {
      "inputs": [
        {
          "internalType": "address",
          "name": "_patientAddress",
          "type": "address"
        }
      ],
      "name": "getPatientRecords",
      "outputs": [
        {
          "components": [
            {
              "internalType": "string",
              "name": "ipfsHash",
              "type": "string"
            },
            {
              "internalType": "uint256",
              "name": "timestamp",
              "type": "uint256"
            },
            {
              "internalType": "address",
              "name": "uploadedBy",
              "type": "address"
            }
          ],
          "internalType": "struct MedicalRecords.Record[]",
          "name": "",
          "type": "tuple[]"
        }
      ],
      "stateMutability": "view",
      "type": "function"
    },
    {
      "inputs": [
        {
          "internalType": "address",
          "name": "_patientAddress",
          "type": "address"
        },
        {
          "internalType": "uint256",
          "name": "_index",
          "type": "uint256"
        }
      ],
      "name": "getPatientRequestAtIndex",
      "outputs": [
        {
          "components": [
            {
              "internalType": "uint256",
              "name": "id",
              "type": "uint256"
            },
            {
              "internalType": "address",
              "name": "patient",
              "type": "address"
            },
            {
              "internalType": "address",
              "name": "provider",
              "type": "address"
            },
            {
              "internalType": "string",
              "name": "claimId",
              "type": "string"
            },
            {
              "internalType": "enum AccessControl.RequestStatus",
              "name": "status",
              "type": "uint8"
            }
          ],
          "internalType": "struct AccessControl.AccessRequest",
          "name": "",
          "type": "tuple"
        }
      ],
      "stateMutability": "view",
      "type": "function"
    },
    {
      "inputs": [
        {
          "internalType": "address",
          "name": "_patientAddress",
          "type": "address"
        }
      ],
      "name": "getPatientRequestsCount",
      "outputs": [
        {
          "internalType": "uint256",
          "name": "",
          "type": "uint256"
        }
      ],
      "stateMutability": "view",
      "type": "function"
    },
    {
      "inputs": [
        {
          "internalType": "address",
          "name": "_doctorAddress",
          "type": "address"
        }
      ],
      "name": "grantAccess",
      "outputs": [],
      "stateMutability": "nonpayable",
      "type": "function"
    },
    {
      "inputs": [],
      "name": "owner",
      "outputs": [
        {
          "internalType": "address",
          "name": "",
          "type": "address"
        }
      ],
      "stateMutability": "view",
      "type": "function"
    },
    {
      "inputs": [
        {
          "internalType": "address",
          "name": "",
          "type": "address"
        },
        {
          "internalType": "uint256",
          "name": "",
          "type": "uint256"
        }
      ],
      "name": "patientRecords",
      "outputs": [
        {
          "internalType": "string",
          "name": "ipfsHash",
          "type": "string"
        },
        {
          "internalType": "uint256",
          "name": "timestamp",
          "type": "uint256"
        },
        {
          "internalType": "address",
          "name": "uploadedBy",
          "type": "address"
        }
      ],
      "stateMutability": "view",
      "type": "function"
    },
    {
      "inputs": [
        {
          "internalType": "address",
          "name": "",
          "type": "address"
        },
        {
          "internalType": "uint256",
          "name": "",
          "type": "uint256"
        }
      ],
      "name": "patientRequests",
      "outputs": [
        {
          "internalType": "uint256",
          "name": "id",
          "type": "uint256"
        },
        {
          "internalType": "address",
          "name": "patient",
          "type": "address"
        },
        {
          "internalType": "address",
          "name": "provider",
          "type": "address"
        },
        {
          "internalType": "string",
          "name": "claimId",
          "type": "string"
        },
        {
          "internalType": "enum AccessControl.RequestStatus",
          "name": "status",
          "type": "uint8"
        }
      ],
      "stateMutability": "view",
      "type": "function"
    },
    {
      "inputs": [
        {
          "internalType": "string",
          "name": "_name",
          "type": "string"
        },
        {
          "internalType": "enum Roles.Role",
          "name": "_role",
          "type": "uint8"
        }
      ],
      "name": "registerUser",
      "outputs": [],
      "stateMutability": "nonpayable",
      "type": "function"
    },
    {
      "inputs": [],
      "name": "renounceOwnership",
      "outputs": [],
      "stateMutability": "nonpayable",
      "type": "function"
    },
    {
      "inputs": [
        {
          "internalType": "address",
          "name": "_patientAddress",
          "type": "address"
        },
        {
          "internalType": "string",
          "name": "_claimId",
          "type": "string"
        }
      ],
      "name": "requestAccess",
      "outputs": [],
      "stateMutability": "nonpayable",
      "type": "function"
    },
    {
      "inputs": [
        {
          "internalType": "address",
          "name": "_userAddress",
          "type": "address"
        }
      ],
      "name": "revokeAccess",
      "outputs": [],
      "stateMutability": "nonpayable",
      "type": "function"
    },
    {
      "inputs": [
        {
          "internalType": "address",
          "name": "newOwner",
          "type": "address"
        }
      ],
      "name": "transferOwnership",
      "outputs": [],
      "stateMutability": "nonpayable",
      "type": "function"
    },
    {
      "inputs": [
        {
          "internalType": "address",
          "name": "",
          "type": "address"
        }
      ],
      "name": "users",
      "outputs": [
        {
          "internalType": "address",
          "name": "walletAddress",
          "type": "address"
        },
        {
          "internalType": "string",
          "name": "name",
          "type": "string"
        },
        {
          "internalType": "enum Roles.Role",
          "name": "role",
          "type": "uint8"
        },
        {
          "internalType": "bool",
          "name": "isVerified",
          "type": "bool"
        }
      ],
      "stateMutability": "view",
      "type": "function"
    },
    {
      "inputs": [
        {
          "internalType": "address",
          "name": "_userToVerify",
          "type": "address"
        }
      ],
      "name": "verifyUser",
      "outputs": [],
      "stateMutability": "nonpayable",
      "type": "function"
    }
  ],
  "bytecode": "0x60806040523480156200001157600080fd5b5033600073ffffffffffffffffffffffffffffffffffffffff168173ffffffffffffffffffffffffffffffffffffffff1603620000885760006040517f1e4fbdf70000000000000000000000000000000000000000000000000000000081526004016200007f9190620001a9565b60405180910390fd5b6200009981620000a060201b60201c565b50620001c6565b60008060009054906101000a900473ffffffffffffffffffffffffffffffffffffffff169050816000806101000a81548173ffffffffffffffffffffffffffffffffffffffff021916908373ffffffffffffffffffffffffffffffffffffffff1602179055508173ffffffffffffffffffffffffffffffffffffffff168173ffffffffffffffffffffffffffffffffffffffff167f8be0079c531659141344cd1fd0a4f28419497f9722a3daafe3b4186f6b6457e060405160405180910390a35050565b600073ffffffffffffffffffffffffffffffffffffffff82169050919050565b6000620001918262000164565b9050919050565b620001a38162000184565b82525050565b6000602082019050620001c0600083018462000198565b92915050565b61408880620001d66000396000f3fe608060405234801561001057600080fd5b506004361061012c5760003560e01c806364b3b525116100ad57806394f0df611161007157806394f0df61146103415780639afd8efe14610373578063a87430ba146103a3578063d81aa8c4146103d6578063f2fde38b146103f25761012c565b806364b3b5251461029d578063715018a6146102cd57806380efcb3c146102d757806385e68531146103075780638da5cb5b146103235761012c565b80633217bc72116100f45780633217bc72146101d1578063338e12eb146102055780634d813120146102215780635af28ce31461023d57806362e1f7451461026d5761012c565b80630ae5e7391461013157806318bd48471461014d5780631fbe37841461017d5780632c0a90a9146101995780632f6d4a59146101b5575b600080fd5b61014b60048036038101906101469190613100565b61040e565b005b61016760048036038101906101629190613100565b6108a1565b60405161017491906132f7565b60405180910390f35b6101976004803603810190610192919061344e565b610cb6565b005b6101b360048036038101906101ae91906134d6565b610f17565b005b6101cf60048036038101906101ca919061344e565b6113e1565b005b6101eb60048036038101906101e69190613516565b61176f565b6040516101fc959493929190613635565b60405180910390f35b61021f600480360381019061021a91906136b4565b611897565b005b61023b60048036038101906102369190613100565b611b55565b005b61025760048036038101906102529190613100565b611ea3565b6040516102649190613710565b60405180910390f35b6102876004803603810190610282919061372b565b611f54565b6040516102949190613786565b60405180910390f35b6102b760048036038101906102b2919061372b565b611fdd565b6040516102c49190613710565b60405180910390f35b6102d5612002565b005b6102f160048036038101906102ec9190613100565b612016565b6040516102fe9190613850565b60405180910390f35b610321600480360381019061031c9190613100565b612148565b005b61032b612712565b6040516103389190613872565b60405180910390f35b61035b60048036038101906103569190613516565b61273b565b60405161036a9392919061388d565b60405180910390f35b61038d60048036038101906103889190613516565b61282a565b60405161039a9190613950565b60405180910390f35b6103bd60048036038101906103b89190613100565b612a8c565b6040516103cd94939291906139ba565b60405180910390f35b6103f060048036038101906103eb9190613a06565b612b7e565b005b61040c60048036038101906104079190613100565b612e48565b005b60006006811115610422576104216135be565b5b600160003373ffffffffffffffffffffffffffffffffffffffff1673ffffffffffffffffffffffffffffffffffffffff16815260200190815260200160002060020160009054906101000a900460ff166006811115610484576104836135be565b5b146104bb576040517f8251137800000000000000000000000000000000000000000000000000000000815260040160405180910390fd5b6000600160008373ffffffffffffffffffffffffffffffffffffffff1673ffffffffffffffffffffffffffffffffffffffff168152602001908152602001600020905060016006811115610512576105116135be565b5b8160020160009054906101000a900460ff166006811115610536576105356135be565b5b14158061055257508060020160019054906101000a900460ff16155b15610589576040517fe8dc534400000000000000000000000000000000000000000000000000000000815260040160405180910390fd5b42600260003373ffffffffffffffffffffffffffffffffffffffff1673ffffffffffffffffffffffffffffffffffffffff16815260200190815260200160002060008473ffffffffffffffffffffffffffffffffffffffff1673ffffffffffffffffffffffffffffffffffffffff16815260200190815260200160002054111561063f576040517f857dd8aa00000000000000000000000000000000000000000000000000000000815260040160405180910390fd5b7fffffffffffffffffffffffffffffffffffffffffffffffffffffffffffffffff600260003373ffffffffffffffffffffffffffffffffffffffff1673ffffffffffffffffffffffffffffffffffffffff16815260200190815260200160002060008473ffffffffffffffffffffffffffffffffffffffff1673ffffffffffffffffffffffffffffffffffffffff16815260200190815260200160002081905550600560003373ffffffffffffffffffffffffffffffffffffffff1673ffffffffffffffffffffffffffffffffffffffff168152602001908152602001600020829080600181540180825580915050600190039060005260206000200160009091909190916101000a81548173ffffffffffffffffffffffffffffffffffffffff021916908373ffffffffffffffffffffffffffffffffffffffff160217905550600560003373ffffffffffffffffffffffffffffffffffffffff1673ffffffffffffffffffffffffffffffffffffffff16815260200190815260200160002080549050600660003373ffffffffffffffffffffffffffffffffffffffff1673ffffffffffffffffffffffffffffffffffffffff16815260200190815260200160002060008473ffffffffffffffffffffffffffffffffffffffff1673ffffffffffffffffffffffffffffffffffffffff168152602001908152602001600020819055508173ffffffffffffffffffffffffffffffffffffffff163373ffffffffffffffffffffffffffffffffffffffff167f9f520b3bfc56d06f7065d10b4683b3f57ac8895d5026cd176dee95ce1454cb8d60405160405180910390a35050565b60608173ffffffffffffffffffffffffffffffffffffffff163373ffffffffffffffffffffffffffffffffffffffff1603610a6457600760008373ffffffffffffffffffffffffffffffffffffffff1673ffffffffffffffffffffffffffffffffffffffff168152602001908152602001600020805480602002602001604051908101604052809291908181526020016000905b82821015610a59578382906000526020600020906003020160405180606001604052908160008201805461096890613a7e565b80601f016020809104026020016040519081016040528092919081815260200182805461099490613a7e565b80156109e15780601f106109b6576101008083540402835291602001916109e1565b820191906000526020600020905b8154815290600101906020018083116109c457829003601f168201915b50505050508152602001600182015481526020016002820160009054906101000a900473ffffffffffffffffffffffffffffffffffffffff1673ffffffffffffffffffffffffffffffffffffffff1673ffffffffffffffffffffffffffffffffffffffff168152505081526020019060010190610935565b505050509050610cb1565b42600260008473ffffffffffffffffffffffffffffffffffffffff1673ffffffffffffffffffffffffffffffffffffffff16815260200190815260200160002060003373ffffffffffffffffffffffffffffffffffffffff1673ffffffffffffffffffffffffffffffffffffffff168152602001908152602001600020541115610c7657600760008373ffffffffffffffffffffffffffffffffffffffff1673ffffffffffffffffffffffffffffffffffffffff168152602001908152602001600020805480602002602001604051908101604052809291908181526020016000905b82821015610c6b5783829060005260206000209060030201604051806060016040529081600082018054610b7a90613a7e565b80601f0160208091040260200160405190810160405280929190818152602001828054610ba690613a7e565b8015610bf35780601f10610bc857610100808354040283529160200191610bf3565b820191906000526020600020905b815481529060010190602001808311610bd657829003601f168201915b50505050508152602001600182015481526020016002820160009054906101000a900473ffffffffffffffffffffffffffffffffffffffff1673ffffffffffffffffffffffffffffffffffffffff1673ffffffffffffffffffffffffffffffffffffffff168152505081526020019060010190610b47565b505050509050610cb1565b6040517f08c379a0000000000000000000000000000000000000000000000000000000008152600401610ca890613b21565b60405180910390fd5b919050565b610cbe612ece565b600073ffffffffffffffffffffffffffffffffffffffff16600160008473ffffffffffffffffffffffffffffffffffffffff1673ffffffffffffffffffffffffffffffffffffffff16815260200190815260200160002060000160009054906101000a900473ffffffffffffffffffffffffffffffffffffffff1673ffffffffffffffffffffffffffffffffffffffff1614610d86576040517f3a81d6fc00000000000000000000000000000000000000000000000000000000815260040160405180910390fd5b60405180608001604052808373ffffffffffffffffffffffffffffffffffffffff16815260200182815260200160026006811115610dc757610dc66135be565b5b815260200160011515815250600160008473ffffffffffffffffffffffffffffffffffffffff1673ffffffffffffffffffffffffffffffffffffffff16815260200190815260200160002060008201518160000160006101000a81548173ffffffffffffffffffffffffffffffffffffffff021916908373ffffffffffffffffffffffffffffffffffffffff1602179055506020820151816001019081610e6e9190613ced565b5060408201518160020160006101000a81548160ff02191690836006811115610e9a57610e996135be565b5b021790555060608201518160020160016101000a81548160ff0219169083151502179055509050508173ffffffffffffffffffffffffffffffffffffffff167fc2e5d5da58bd71d1a2d14cdef02a4256d971b728088f8190d067ccfbae3bd73e826002604051610f0b929190613dbf565b60405180910390a25050565b60006006811115610f2b57610f2a6135be565b5b600160003373ffffffffffffffffffffffffffffffffffffffff1673ffffffffffffffffffffffffffffffffffffffff16815260200190815260200160002060020160009054906101000a900460ff166006811115610f8d57610f8c6135be565b5b14610fc4576040517f8251137800000000000000000000000000000000000000000000000000000000815260040160405180910390fd5b6000600360003373ffffffffffffffffffffffffffffffffffffffff1673ffffffffffffffffffffffffffffffffffffffff16815260200190815260200160002090506000805b82805490508110156113a3578483828154811061102b5761102a613def565b5b90600052602060002090600502016000015414801561109f575060006002811115611059576110586135be565b5b83828154811061106c5761106b613def565b5b906000526020600020906005020160040160009054906101000a900460ff16600281111561109d5761109c6135be565b5b145b156113965760018382815481106110b9576110b8613def565b5b906000526020600020906005020160040160006101000a81548160ff021916908360028111156110ec576110eb6135be565b5b0217905550600062015180856111029190613e4d565b4261110d9190613e8f565b9050600084838154811061112457611123613def565b5b906000526020600020906005020160020160009054906101000a900473ffffffffffffffffffffffffffffffffffffffff16905081600260003373ffffffffffffffffffffffffffffffffffffffff1673ffffffffffffffffffffffffffffffffffffffff16815260200190815260200160002060008373ffffffffffffffffffffffffffffffffffffffff1673ffffffffffffffffffffffffffffffffffffffff16815260200190815260200160002081905550600560003373ffffffffffffffffffffffffffffffffffffffff1673ffffffffffffffffffffffffffffffffffffffff168152602001908152602001600020819080600181540180825580915050600190039060005260206000200160009091909190916101000a81548173ffffffffffffffffffffffffffffffffffffffff021916908373ffffffffffffffffffffffffffffffffffffffff160217905550600560003373ffffffffffffffffffffffffffffffffffffffff1673ffffffffffffffffffffffffffffffffffffffff16815260200190815260200160002080549050600660003373ffffffffffffffffffffffffffffffffffffffff1673ffffffffffffffffffffffffffffffffffffffff16815260200190815260200160002060008373ffffffffffffffffffffffffffffffffffffffff1673ffffffffffffffffffffffffffffffffffffffff16815260200190815260200160002081905550600193503373ffffffffffffffffffffffffffffffffffffffff16877f4def62da440b39db2661de60aa3dad0479ac27d4c22597d6e14c7441774f8a31886040516113879190613710565b60405180910390a350506113a3565b808060010191505061100b565b50806113db576040517f4b13b31e00000000000000000000000000000000000000000000000000000000815260040160405180910390fd5b50505050565b600360068111156113f5576113f46135be565b5b600160003373ffffffffffffffffffffffffffffffffffffffff1673ffffffffffffffffffffffffffffffffffffffff16815260200190815260200160002060020160009054906101000a900460ff166006811115611457576114566135be565b5b1461148e576040517f354a448400000000000000000000000000000000000000000000000000000000815260040160405180910390fd5b600060068111156114a2576114a16135be565b5b600160008473ffffffffffffffffffffffffffffffffffffffff1673ffffffffffffffffffffffffffffffffffffffff16815260200190815260200160002060020160009054906101000a900460ff166006811115611504576115036135be565b5b1461153b576040517f8251137800000000000000000000000000000000000000000000000000000000815260040160405180910390fd5b60006004600081548092919061155090613ec3565b919050559050600360008473ffffffffffffffffffffffffffffffffffffffff1673ffffffffffffffffffffffffffffffffffffffff1681526020019081526020016000206040518060a001604052808381526020018573ffffffffffffffffffffffffffffffffffffffff1681526020013373ffffffffffffffffffffffffffffffffffffffff168152602001848152602001600060028111156115f8576115f76135be565b5b81525090806001815401808255809150506001900390600052602060002090600502016000909190919091506000820151816000015560208201518160010160006101000a81548173ffffffffffffffffffffffffffffffffffffffff021916908373ffffffffffffffffffffffffffffffffffffffff16021790555060408201518160020160006101000a81548173ffffffffffffffffffffffffffffffffffffffff021916908373ffffffffffffffffffffffffffffffffffffffff16021790555060608201518160030190816116d19190613ced565b5060808201518160040160006101000a81548160ff021916908360028111156116fd576116fc6135be565b5b021790555050503373ffffffffffffffffffffffffffffffffffffffff168373ffffffffffffffffffffffffffffffffffffffff16827f21eb886073c5fec0f227f76ef8335d82939c7aa4b537be2e0943f4c1dc74553e856040516117629190613f0b565b60405180910390a4505050565b6003602052816000526040600020818154811061178b57600080fd5b9060005260206000209060050201600091509150508060000154908060010160009054906101000a900473ffffffffffffffffffffffffffffffffffffffff16908060020160009054906101000a900473ffffffffffffffffffffffffffffffffffffffff169080600301805461180190613a7e565b80601f016020809104026020016040519081016040528092919081815260200182805461182d90613a7e565b801561187a5780601f1061184f5761010080835404028352916020019161187a565b820191906000526020600020905b81548152906001019060200180831161185d57829003601f168201915b5050505050908060040160009054906101000a900460ff16905085565b600073ffffffffffffffffffffffffffffffffffffffff16600160003373ffffffffffffffffffffffffffffffffffffffff1673ffffffffffffffffffffffffffffffffffffffff16815260200190815260200160002060000160009054906101000a900473ffffffffffffffffffffffffffffffffffffffff1673ffffffffffffffffffffffffffffffffffffffff161461195f576040517f3a81d6fc00000000000000000000000000000000000000000000000000000000815260040160405180910390fd5b60026006811115611973576119726135be565b5b816006811115611986576119856135be565b5b036119c6576040517f08c379a00000000000000000000000000000000000000000000000000000000081526004016119bd90613f9f565b60405180910390fd5b60405180608001604052803373ffffffffffffffffffffffffffffffffffffffff168152602001838152602001826006811115611a0657611a056135be565b5b815260200160001515815250600160003373ffffffffffffffffffffffffffffffffffffffff1673ffffffffffffffffffffffffffffffffffffffff16815260200190815260200160002060008201518160000160006101000a81548173ffffffffffffffffffffffffffffffffffffffff021916908373ffffffffffffffffffffffffffffffffffffffff1602179055506020820151816001019081611aad9190613ced565b5060408201518160020160006101000a81548160ff02191690836006811115611ad957611ad86135be565b5b021790555060608201518160020160016101000a81548160ff0219169083151502179055509050503373ffffffffffffffffffffffffffffffffffffffff167fc2e5d5da58bd71d1a2d14cdef02a4256d971b728088f8190d067ccfbae3bd73e8383604051611b49929190613dbf565b60405180910390a25050565b600073ffffffffffffffffffffffffffffffffffffffff16600160003373ffffffffffffffffffffffffffffffffffffffff1673ffffffffffffffffffffffffffffffffffffffff16815260200190815260200160002060000160009054906101000a900473ffffffffffffffffffffffffffffffffffffffff1673ffffffffffffffffffffffffffffffffffffffff1603611c1d576040517faba4733900000000000000000000000000000000000000000000000000000000815260040160405180910390fd5b60026006811115611c3157611c306135be565b5b600160003373ffffffffffffffffffffffffffffffffffffffff1673ffffffffffffffffffffffffffffffffffffffff16815260200190815260200160002060020160009054906101000a900460ff166006811115611c9357611c926135be565b5b141580611ced5750600160003373ffffffffffffffffffffffffffffffffffffffff1673ffffffffffffffffffffffffffffffffffffffff16815260200190815260200160002060020160019054906101000a900460ff16155b15611d24576040517f55098f2700000000000000000000000000000000000000000000000000000000815260040160405180910390fd5b600073ffffffffffffffffffffffffffffffffffffffff16600160008373ffffffffffffffffffffffffffffffffffffffff1673ffffffffffffffffffffffffffffffffffffffff16815260200190815260200160002060000160009054906101000a900473ffffffffffffffffffffffffffffffffffffffff1673ffffffffffffffffffffffffffffffffffffffff1603611dec576040517f670a68cc00000000000000000000000000000000000000000000000000000000815260040160405180910390fd5b60018060008373ffffffffffffffffffffffffffffffffffffffff1673ffffffffffffffffffffffffffffffffffffffff16815260200190815260200160002060020160016101000a81548160ff0219169083151502179055508073ffffffffffffffffffffffffffffffffffffffff163373ffffffffffffffffffffffffffffffffffffffff167fbfb2fa25f828a712fda370028ecc8813c7082c69b239a579753b10e24dd472cc60405160405180910390a350565b60008173ffffffffffffffffffffffffffffffffffffffff163373ffffffffffffffffffffffffffffffffffffffff1614611f0a576040517fea8e4eb500000000000000000000000000000000000000000000000000000000815260040160405180910390fd5b600360008373ffffffffffffffffffffffffffffffffffffffff1673ffffffffffffffffffffffffffffffffffffffff168152602001908152602001600020805490509050919050565b600042600260008573ffffffffffffffffffffffffffffffffffffffff1673ffffffffffffffffffffffffffffffffffffffff16815260200190815260200160002060008473ffffffffffffffffffffffffffffffffffffffff1673ffffffffffffffffffffffffffffffffffffffff1681526020019081526020016000205411905092915050565b6002602052816000526040600020602052806000526040600020600091509150505481565b61200a612ece565b6120146000612f55565b565b60608173ffffffffffffffffffffffffffffffffffffffff163373ffffffffffffffffffffffffffffffffffffffff161461207d576040517fea8e4eb500000000000000000000000000000000000000000000000000000000815260040160405180910390fd5b600560008373ffffffffffffffffffffffffffffffffffffffff1673ffffffffffffffffffffffffffffffffffffffff16815260200190815260200160002080548060200260200160405190810160405280929190818152602001828054801561213c57602002820191906000526020600020905b8160009054906101000a900473ffffffffffffffffffffffffffffffffffffffff1673ffffffffffffffffffffffffffffffffffffffff16815260200190600101908083116120f2575b50505050509050919050565b6000600681111561215c5761215b6135be565b5b600160003373ffffffffffffffffffffffffffffffffffffffff1673ffffffffffffffffffffffffffffffffffffffff16815260200190815260200160002060020160009054906101000a900460ff1660068111156121be576121bd6135be565b5b146121f5576040517f8251137800000000000000000000000000000000000000000000000000000000815260040160405180910390fd5b42600260003373ffffffffffffffffffffffffffffffffffffffff1673ffffffffffffffffffffffffffffffffffffffff16815260200190815260200160002060008373ffffffffffffffffffffffffffffffffffffffff1673ffffffffffffffffffffffffffffffffffffffff1681526020019081526020016000205410156122ab576040517f9cf4448900000000000000000000000000000000000000000000000000000000815260040160405180910390fd5b6000600260003373ffffffffffffffffffffffffffffffffffffffff1673ffffffffffffffffffffffffffffffffffffffff16815260200190815260200160002060008373ffffffffffffffffffffffffffffffffffffffff1673ffffffffffffffffffffffffffffffffffffffff1681526020019081526020016000208190555060006001600660003373ffffffffffffffffffffffffffffffffffffffff1673ffffffffffffffffffffffffffffffffffffffff16815260200190815260200160002060008473ffffffffffffffffffffffffffffffffffffffff1673ffffffffffffffffffffffffffffffffffffffff168152602001908152602001600020546123b89190613fbf565b90506000600560003373ffffffffffffffffffffffffffffffffffffffff1673ffffffffffffffffffffffffffffffffffffffff1681526020019081526020016000206001600560003373ffffffffffffffffffffffffffffffffffffffff1673ffffffffffffffffffffffffffffffffffffffff1681526020019081526020016000208054905061244a9190613fbf565b8154811061245b5761245a613def565b5b9060005260206000200160009054906101000a900473ffffffffffffffffffffffffffffffffffffffff16905080600560003373ffffffffffffffffffffffffffffffffffffffff1673ffffffffffffffffffffffffffffffffffffffff16815260200190815260200160002083815481106124da576124d9613def565b5b9060005260206000200160006101000a81548173ffffffffffffffffffffffffffffffffffffffff021916908373ffffffffffffffffffffffffffffffffffffffff16021790555060018261252f9190613e8f565b600660003373ffffffffffffffffffffffffffffffffffffffff1673ffffffffffffffffffffffffffffffffffffffff16815260200190815260200160002060008373ffffffffffffffffffffffffffffffffffffffff1673ffffffffffffffffffffffffffffffffffffffff16815260200190815260200160002081905550600560003373ffffffffffffffffffffffffffffffffffffffff1673ffffffffffffffffffffffffffffffffffffffff1681526020019081526020016000208054806125fe576125fd613ff3565b5b6001900381819060005260206000200160006101000a81549073ffffffffffffffffffffffffffffffffffffffff02191690559055600660003373ffffffffffffffffffffffffffffffffffffffff1673ffffffffffffffffffffffffffffffffffffffff16815260200190815260200160002060008473ffffffffffffffffffffffffffffffffffffffff1673ffffffffffffffffffffffffffffffffffffffff168152602001908152602001600020600090558273ffffffffffffffffffffffffffffffffffffffff163373ffffffffffffffffffffffffffffffffffffffff167f825c8be24eb0df19500f63e86c29e7d0d951e73056b889b891d85e40938d9b6e60405160405180910390a3505050565b60008060009054906101000a900473ffffffffffffffffffffffffffffffffffffffff16905090565b6007602052816000526040600020818154811061275757600080fd5b90600052602060002090600302016000915091505080600001805461277b90613a7e565b80601f01602080910402602001604051908101604052809291908181526020018280546127a790613a7e565b80156127f45780601f106127c9576101008083540402835291602001916127f4565b820191906000526020600020905b8154815290600101906020018083116127d757829003601f168201915b5050505050908060010154908060020160009054906101000a900473ffffffffffffffffffffffffffffffffffffffff16905083565b612832613021565b8273ffffffffffffffffffffffffffffffffffffffff163373ffffffffffffffffffffffffffffffffffffffff1614612897576040517fea8e4eb500000000000000000000000000000000000000000000000000000000815260040160405180910390fd5b600360008473ffffffffffffffffffffffffffffffffffffffff1673ffffffffffffffffffffffffffffffffffffffff16815260200190815260200160002082815481106128e8576128e7613def565b5b90600052602060002090600502016040518060a0016040529081600082015481526020016001820160009054906101000a900473ffffffffffffffffffffffffffffffffffffffff1673ffffffffffffffffffffffffffffffffffffffff1673ffffffffffffffffffffffffffffffffffffffff1681526020016002820160009054906101000a900473ffffffffffffffffffffffffffffffffffffffff1673ffffffffffffffffffffffffffffffffffffffff1673ffffffffffffffffffffffffffffffffffffffff1681526020016003820180546129c790613a7e565b80601f01602080910402602001604051908101604052809291908181526020018280546129f390613a7e565b8015612a405780601f10612a1557610100808354040283529160200191612a40565b820191906000526020600020905b815481529060010190602001808311612a2357829003601f168201915b505050505081526020016004820160009054906101000a900460ff166002811115612a6e57612a6d6135be565b5b6002811115612a8057612a7f6135be565b5b81525050905092915050565b60016020528060005260406000206000915090508060000160009054906101000a900473ffffffffffffffffffffffffffffffffffffffff1690806001018054612ad590613a7e565b80601f0160208091040260200160405190810160405280929190818152602001828054612b0190613a7e565b8015612b4e5780601f10612b2357610100808354040283529160200191612b4e565b820191906000526020600020905b815481529060010190602001808311612b3157829003601f168201915b5050505050908060020160009054906101000a900460ff16908060020160019054906101000a900460ff16905084565b600073ffffffffffffffffffffffffffffffffffffffff16600160003373ffffffffffffffffffffffffffffffffffffffff1673ffffffffffffffffffffffffffffffffffffffff16815260200190815260200160002060000160009054906101000a900473ffffffffffffffffffffffffffffffffffffffff1673ffffffffffffffffffffffffffffffffffffffff1603612c46576040517faba4733900000000000000000000000000000000000000000000000000000000815260040160405180910390fd5b60006006811115612c5a57612c596135be565b5b600160003373ffffffffffffffffffffffffffffffffffffffff1673ffffffffffffffffffffffffffffffffffffffff16815260200190815260200160002060020160009054906101000a900460ff166006811115612cbc57612cbb6135be565b5b14612cf3576040517f8251137800000000000000000000000000000000000000000000000000000000815260040160405180910390fd5b600760003373ffffffffffffffffffffffffffffffffffffffff1673ffffffffffffffffffffffffffffffffffffffff16815260200190815260200160002060405180606001604052808381526020014281526020013373ffffffffffffffffffffffffffffffffffffffff1681525090806001815401808255809150506001900390600052602060002090600302016000909190919091506000820151816000019081612da19190613ced565b506020820151816001015560408201518160020160006101000a81548173ffffffffffffffffffffffffffffffffffffffff021916908373ffffffffffffffffffffffffffffffffffffffff16021790555050503373ffffffffffffffffffffffffffffffffffffffff167f4b92a41aaac1d087148ec39a65a261cc6ac88ed7765dece5374bb3893fcfcf9e8242604051612e3d929190614022565b60405180910390a250565b612e50612ece565b600073ffffffffffffffffffffffffffffffffffffffff168173ffffffffffffffffffffffffffffffffffffffff1603612ec25760006040517f1e4fbdf7000000000000000000000000000000000000000000000000000000008152600401612eb99190613872565b60405180910390fd5b612ecb81612f55565b50565b612ed6613019565b73ffffffffffffffffffffffffffffffffffffffff16612ef4612712565b73ffffffffffffffffffffffffffffffffffffffff1614612f5357612f17613019565b6040517f118cdaa7000000000000000000000000000000000000000000000000000000008152600401612f4a9190613872565b60405180910390fd5b565b60008060009054906101000a900473ffffffffffffffffffffffffffffffffffffffff169050816000806101000a81548173ffffffffffffffffffffffffffffffffffffffff021916908373ffffffffffffffffffffffffffffffffffffffff1602179055508173ffffffffffffffffffffffffffffffffffffffff168173ffffffffffffffffffffffffffffffffffffffff167f8be0079c531659141344cd1fd0a4f28419497f9722a3daafe3b4186f6b6457e060405160405180910390a35050565b600033905090565b6040518060a0016040528060008152602001600073ffffffffffffffffffffffffffffffffffffffff168152602001600073ffffffffffffffffffffffffffffffffffffffff1681526020016060815260200160006002811115613088576130876135be565b5b81525090565b6000604051905090565b600080fd5b600080fd5b600073ffffffffffffffffffffffffffffffffffffffff82169050919050565b60006130cd826130a2565b9050919050565b6130dd816130c2565b81146130e857600080fd5b50565b6000813590506130fa816130d4565b92915050565b60006020828403121561311657613115613098565b5b6000613124848285016130eb565b91505092915050565b600081519050919050565b600082825260208201905092915050565b6000819050602082019050919050565b600081519050919050565b600082825260208201905092915050565b60005b83811015613193578082015181840152602081019050613178565b60008484015250505050565b6000601f19601f8301169050919050565b60006131bb82613159565b6131c58185613164565b93506131d5818560208601613175565b6131de8161319f565b840191505092915050565b6000819050919050565b6131fc816131e9565b82525050565b61320b816130c2565b82525050565b6000606083016000830151848203600086015261322e82826131b0565b915050602083015161324360208601826131f3565b5060408301516132566040860182613202565b508091505092915050565b600061326d8383613211565b905092915050565b6000602082019050919050565b600061328d8261312d565b6132978185613138565b9350836020820285016132a985613149565b8060005b858110156132e557848403895281516132c68582613261565b94506132d183613275565b925060208a019950506001810190506132ad565b50829750879550505050505092915050565b600060208201905081810360008301526133118184613282565b905092915050565b600080fd5b600080fd5b7f4e487b7100000000000000000000000000000000000000000000000000000000600052604160045260246000fd5b61335b8261319f565b810181811067ffffffffffffffff8211171561337a57613379613323565b5b80604052505050565b600061338d61308e565b90506133998282613352565b919050565b600067ffffffffffffffff8211156133b9576133b8613323565b5b6133c28261319f565b9050602081019050919050565b82818337600083830152505050565b60006133f16133ec8461339e565b613383565b90508281526020810184848401111561340d5761340c61331e565b5b6134188482856133cf565b509392505050565b600082601f83011261343557613434613319565b5b81356134458482602086016133de565b91505092915050565b6000806040838503121561346557613464613098565b5b6000613473858286016130eb565b925050602083013567ffffffffffffffff8111156134945761349361309d565b5b6134a085828601613420565b9150509250929050565b6134b3816131e9565b81146134be57600080fd5b50565b6000813590506134d0816134aa565b92915050565b600080604083850312156134ed576134ec613098565b5b60006134fb858286016134c1565b925050602061350c858286016134c1565b9150509250929050565b6000806040838503121561352d5761352c613098565b5b600061353b858286016130eb565b925050602061354c858286016134c1565b9150509250929050565b61355f816131e9565b82525050565b61356e816130c2565b82525050565b600082825260208201905092915050565b600061359082613159565b61359a8185613574565b93506135aa818560208601613175565b6135b38161319f565b840191505092915050565b7f4e487b7100000000000000000000000000000000000000000000000000000000600052602160045260246000fd5b600381106135fe576135fd6135be565b5b50565b600081905061360f826135ed565b919050565b600061361f82613601565b9050919050565b61362f81613614565b82525050565b600060a08201905061364a6000830188613556565b6136576020830187613565565b6136646040830186613565565b81810360608301526136768185613585565b90506136856080830184613626565b9695505050505050565b6007811061369c57600080fd5b50565b6000813590506136ae8161368f565b92915050565b600080604083850312156136cb576136ca613098565b5b600083013567ffffffffffffffff8111156136e9576136e861309d565b5b6136f585828601613420565b92505060206137068582860161369f565b9150509250929050565b60006020820190506137256000830184613556565b92915050565b6000806040838503121561374257613741613098565b5b6000613750858286016130eb565b9250506020613761858286016130eb565b9150509250929050565b60008115159050919050565b6137808161376b565b82525050565b600060208201905061379b6000830184613777565b92915050565b600081519050919050565b600082825260208201905092915050565b6000819050602082019050919050565b60006137d98383613202565b60208301905092915050565b6000602082019050919050565b60006137fd826137a1565b61380781856137ac565b9350613812836137bd565b8060005b8381101561384357815161382a88826137cd565b9750613835836137e5565b925050600181019050613816565b5085935050505092915050565b6000602082019050818103600083015261386a81846137f2565b905092915050565b60006020820190506138876000830184613565565b92915050565b600060608201905081810360008301526138a78186613585565b90506138b66020830185613556565b6138c36040830184613565565b949350505050565b6138d481613614565b82525050565b600060a0830160008301516138f260008601826131f3565b5060208301516139056020860182613202565b5060408301516139186040860182613202565b506060830151848203606086015261393082826131b0565b915050608083015161394560808601826138cb565b508091505092915050565b6000602082019050818103600083015261396a81846138da565b905092915050565b60078110613983576139826135be565b5b50565b600081905061399482613972565b919050565b60006139a482613986565b9050919050565b6139b481613999565b82525050565b60006080820190506139cf6000830187613565565b81810360208301526139e18186613585565b90506139f060408301856139ab565b6139fd6060830184613777565b95945050505050565b600060208284031215613a1c57613a1b613098565b5b600082013567ffffffffffffffff811115613a3a57613a3961309d565b5b613a4684828501613420565b91505092915050565b7f4e487b7100000000000000000000000000000000000000000000000000000000600052602260045260246000fd5b60006002820490506001821680613a9657607f821691505b602082108103613aa957613aa8613a4f565b5b50919050565b7f596f7520646f206e6f742068617665207065726d697373696f6e20746f20766960008201527f6577207468657365207265636f7264732e000000000000000000000000000000602082015250565b6000613b0b603183613574565b9150613b1682613aaf565b604082019050919050565b60006020820190508181036000830152613b3a81613afe565b9050919050565b60008190508160005260206000209050919050565b60006020601f8301049050919050565b600082821b905092915050565b600060088302613ba37fffffffffffffffffffffffffffffffffffffffffffffffffffffffffffffffff82613b66565b613bad8683613b66565b95508019841693508086168417925050509392505050565b6000819050919050565b6000613bea613be5613be0846131e9565b613bc5565b6131e9565b9050919050565b6000819050919050565b613c0483613bcf565b613c18613c1082613bf1565b848454613b73565b825550505050565b600090565b613c2d613c20565b613c38818484613bfb565b505050565b5b81811015613c5c57613c51600082613c25565b600181019050613c3e565b5050565b601f821115613ca157613c7281613b41565b613c7b84613b56565b81016020851015613c8a578190505b613c9e613c9685613b56565b830182613c3d565b50505b505050565b600082821c905092915050565b6000613cc460001984600802613ca6565b1980831691505092915050565b6000613cdd8383613cb3565b9150826002028217905092915050565b613cf682613159565b67ffffffffffffffff811115613d0f57613d0e613323565b5b613d198254613a7e565b613d24828285613c60565b600060209050601f831160018114613d575760008415613d45578287015190505b613d4f8582613cd1565b865550613db7565b601f198416613d6586613b41565b60005b82811015613d8d57848901518255600182019150602085019450602081019050613d68565b86831015613daa5784890151613da6601f891682613cb3565b8355505b6001600288020188555050505b505050505050565b60006040820190508181036000830152613dd98185613585565b9050613de860208301846139ab565b9392505050565b7f4e487b7100000000000000000000000000000000000000000000000000000000600052603260045260246000fd5b7f4e487b7100000000000000000000000000000000000000000000000000000000600052601160045260246000fd5b6000613e58826131e9565b9150613e63836131e9565b9250828202613e71816131e9565b91508282048414831517613e8857613e87613e1e565b5b5092915050565b6000613e9a826131e9565b9150613ea5836131e9565b9250828201905080821115613ebd57613ebc613e1e565b5b92915050565b6000613ece826131e9565b91507fffffffffffffffffffffffffffffffffffffffffffffffffffffffffffffffff8203613f0057613eff613e1e565b5b600182019050919050565b60006020820190508181036000830152613f258184613585565b905092915050565b7f43616e6e6f742072656769737465722061732041646d696e206469726563746c60008201527f792e000000000000000000000000000000000000000000000000000000000000602082015250565b6000613f89602283613574565b9150613f9482613f2d565b604082019050919050565b60006020820190508181036000830152613fb881613f7c565b9050919050565b6000613fca826131e9565b9150613fd5836131e9565b9250828203905081811115613fed57613fec613e1e565b5b92915050565b7f4e487b7100000000000000000000000000000000000000000000000000000000600052603160045260246000fd5b6000604082019050818103600083015261403c8185613585565b905061404b6020830184613556565b939250505056fea2646970667358221220bf5f8888083abc7d25fb182adabf7e1cdee5992564d7ff96bfb13e5614acb28864736f6c63430008180033",
  "linkReferences": {},
  "deployedLinkReferences": {}
}