{
  "_format": "hh-sol-artifact-1",
  "contractName": "MedicalRecords",
  "sourceName": "contracts/MedicalRecords.sol",
  "abi": [
    {
      "inputs": [],
      "stateMutability": "nonpayable",
      "type": "constructor"
    },
    {
      "inputs": [],
      "name": "AccessAlreadyGranted",
      "type": "error"
    },
    {
      "inputs": [
        {
          "internalType": "address",
          "name": "target",
          "type": "address"
        }
      ],
      "name": "AddressEmptyCode",
      "type": "error"
    },
    {
      "inputs": [],
      "name": "AlreadyRegistered",
      "type": "error"
    },
    {
      "inputs": [
        {
          "internalType": "address",
          "name": "implementation",
          "type": "address"
        }
      ],
      "name": "ERC1967InvalidImplementation",
      "type": "error"
    },
    {
      "inputs": [],
      "name": "ERC1967NonPayable",
      "type": "error"
    },
    {
      "inputs": [],
      "name": "FailedCall",
      "type": "error"
    },
    {
      "inputs": [],
      "name": "InvalidInitialization",
      "type": "error"
    },
    {
      "inputs": [],
      "name": "NoAccessToRevoke",
      "type": "error"
    },
    {
      "inputs": [],
      "name": "NotAPatient",
      "type": "error"
    },
    {
      "inputs": [],
      "name": "NotAVerifiedProfessional",
      "type": "error"
    },
    {
      "inputs": [],
      "name": "NotAnAdmin",
      "type": "error"
    },
    {
      "inputs": [],
      "name": "NotAnInsuranceProvider",
      "type": "error"
    },
    {
      "inputs": [],
      "name": "NotAuthorized",
      "type": "error"
    },
    {
      "inputs": [],
      "name": "NotInitializing",
      "type": "error"
    },
    {
      "inputs": [],
      "name": "NotRecordOwner",
      "type": "error"
    },
    {
      "inputs": [],
      "name": "NotRegistered",
      "type": "error"
    },
    {
      "inputs": [
        {
          "internalType": "address",
          "name": "owner",
          "type": "address"
        }
      ],
      "name": "OwnableInvalidOwner",
      "type": "error"
    },
    {
      "inputs": [
        {
          "internalType": "address",
          "name": "account",
          "type": "address"
        }
      ],
      "name": "OwnableUnauthorizedAccount",
      "type": "error"
    },
    {
      "inputs": [],
      "name": "PublicKeyAlreadySet",
      "type": "error"
    },
    {
      "inputs": [],
      "name": "RecordNotFound",
      "type": "error"
    },
    {
      "inputs": [],
      "name": "RequestNotFound",
      "type": "error"
    },
    {
      "inputs": [],
      "name": "UUPSUnauthorizedCallContext",
      "type": "error"
    },
    {
      "inputs": [
        {
          "internalType": "bytes32",
          "name": "slot",
          "type": "bytes32"
        }
      ],
      "name": "UUPSUnsupportedProxiableUUID",
      "type": "error"
    },
    {
      "inputs": [],
      "name": "UserNotFound",
      "type": "error"
    },
    {
      "anonymous": false,
      "inputs": [
        {
          "indexed": true,
          "internalType": "uint256",
          "name": "recordId",
          "type": "uint256"
        },
        {
          "indexed": true,
          "internalType": "address",
          "name": "owner",
          "type": "address"
        },
        {
          "indexed": true,
          "internalType": "address",
          "name": "grantee",
          "type": "address"
        },
        {
          "indexed": false,
          "internalType": "uint256",
          "name": "expiration",
          "type": "uint256"
        }
      ],
      "name": "AccessGranted",
      "type": "event"
    },
    {
      "anonymous": false,
      "inputs": [
        {
          "indexed": true,
          "internalType": "uint256",
          "name": "requestId",
          "type": "uint256"
        },
        {
          "indexed": true,
          "internalType": "address",
          "name": "patient",
          "type": "address"
        },
        {
          "indexed": true,
          "internalType": "address",
          "name": "provider",
          "type": "address"
        },
        {
          "indexed": false,
          "internalType": "string",
          "name": "claimId",
          "type": "string"
        }
      ],
      "name": "AccessRequested",
      "type": "event"
    },
    {
      "anonymous": false,
      "inputs": [
        {
          "indexed": true,
          "internalType": "uint256",
          "name": "recordId",
          "type": "uint256"
        },
        {
          "indexed": true,
          "internalType": "address",
          "name": "owner",
          "type": "address"
        },
        {
          "indexed": true,
          "internalType": "address",
          "name": "grantee",
          "type": "address"
        }
      ],
      "name": "AccessRevoked",
      "type": "event"
    },
    {
      "anonymous": false,
      "inputs": [
        {
          "indexed": false,
          "internalType": "uint64",
          "name": "version",
          "type": "uint64"
        }
      ],
      "name": "Initialized",
      "type": "event"
    },
    {
      "anonymous": false,
      "inputs": [
        {
          "indexed": true,
          "internalType": "address",
          "name": "previousOwner",
          "type": "address"
        },
        {
          "indexed": true,
          "internalType": "address",
          "name": "newOwner",
          "type": "address"
        }
      ],
      "name": "OwnershipTransferred",
      "type": "event"
    },
    {
      "anonymous": false,
      "inputs": [
        {
          "indexed": true,
          "internalType": "address",
          "name": "user",
          "type": "address"
        },
        {
          "indexed": false,
          "internalType": "string",
          "name": "name",
          "type": "string"
        },
        {
          "indexed": false,
          "internalType": "string",
          "name": "contactInfo",
          "type": "string"
        },
        {
          "indexed": false,
          "internalType": "string",
          "name": "profileMetadataURI",
          "type": "string"
        }
      ],
      "name": "ProfileUpdated",
      "type": "event"
    },
    {
      "anonymous": false,
      "inputs": [
        {
          "indexed": true,
          "internalType": "address",
          "name": "user",
          "type": "address"
        }
      ],
      "name": "PublicKeySaved",
      "type": "event"
    },
    {
      "anonymous": false,
      "inputs": [
        {
          "indexed": true,
          "internalType": "uint256",
          "name": "recordId",
          "type": "uint256"
        },
        {
          "indexed": true,
          "internalType": "address",
          "name": "patient",
          "type": "address"
        },
        {
          "indexed": true,
          "internalType": "address",
          "name": "uploadedBy",
          "type": "address"
        },
        {
          "indexed": false,
          "internalType": "string",
          "name": "category",
          "type": "string"
        },
        {
          "indexed": false,
          "internalType": "bool",
          "name": "isVerified",
          "type": "bool"
        }
      ],
      "name": "RecordAdded",
      "type": "event"
    },
    {
      "anonymous": false,
      "inputs": [
        {
          "indexed": true,
          "internalType": "uint256",
          "name": "requestId",
          "type": "uint256"
        },
        {
          "indexed": true,
          "internalType": "address",
          "name": "patient",
          "type": "address"
        },
        {
          "indexed": false,
          "internalType": "uint256",
          "name": "accessDuration",
          "type": "uint256"
        }
      ],
      "name": "RequestApproved",
      "type": "event"
    },
    {
      "anonymous": false,
      "inputs": [
        {
          "indexed": true,
          "internalType": "address",
          "name": "implementation",
          "type": "address"
        }
      ],
      "name": "Upgraded",
      "type": "event"
    },
    {
      "anonymous": false,
      "inputs": [
        {
          "indexed": true,
          "internalType": "address",
          "name": "userAddress",
          "type": "address"
        },
        {
          "indexed": false,
          "internalType": "string",
          "name": "name",
          "type": "string"
        },
        {
          "indexed": false,
          "internalType": "enum Storage.Role",
          "name": "role",
          "type": "uint8"
        }
      ],
      "name": "UserRegistered",
      "type": "event"
    },
    {
      "anonymous": false,
      "inputs": [
        {
          "indexed": true,
          "internalType": "address",
          "name": "admin",
          "type": "address"
        },
        {
          "indexed": true,
          "internalType": "address",
          "name": "userAddress",
          "type": "address"
        }
      ],
      "name": "UserVerified",
      "type": "event"
    },
    {
      "inputs": [],
      "name": "UPGRADE_INTERFACE_VERSION",
      "outputs": [
        {
          "internalType": "string",
          "name": "",
          "type": "string"
        }
      ],
      "stateMutability": "view",
      "type": "function"
    },
    {
      "inputs": [
        {
          "internalType": "address",
          "name": "_newAdmin",
          "type": "address"
        },
        {
          "internalType": "string",
          "name": "_name",
          "type": "string"
        }
      ],
      "name": "addHospitalAdmin",
      "outputs": [],
      "stateMutability": "nonpayable",
      "type": "function"
    },
    {
      "inputs": [
        {
          "internalType": "string",
          "name": "_ipfsHash",
          "type": "string"
        },
        {
          "internalType": "string",
          "name": "_category",
          "type": "string"
        }
      ],
      "name": "addSelfUploadedRecord",
      "outputs": [],
      "stateMutability": "nonpayable",
      "type": "function"
    },
    {
      "inputs": [
        {
          "internalType": "address",
          "name": "_patient",
          "type": "address"
        },
        {
          "internalType": "string",
          "name": "_ipfsHash",
          "type": "string"
        },
        {
          "internalType": "string",
          "name": "_category",
          "type": "string"
        }
      ],
      "name": "addVerifiedRecord",
      "outputs": [],
      "stateMutability": "nonpayable",
      "type": "function"
    },
    {
      "inputs": [
        {
          "internalType": "uint256",
          "name": "_requestId",
          "type": "uint256"
        },
        {
          "internalType": "uint256",
          "name": "_durationInDays",
          "type": "uint256"
        }
      ],
      "name": "approveRequest",
      "outputs": [],
      "stateMutability": "nonpayable",
      "type": "function"
    },
    {
      "inputs": [
        {
          "internalType": "uint256",
          "name": "_recordId",
          "type": "uint256"
        },
        {
          "internalType": "address",
          "name": "_viewer",
          "type": "address"
        }
      ],
      "name": "checkRecordAccess",
      "outputs": [
        {
          "internalType": "bool",
          "name": "",
          "type": "bool"
        }
      ],
      "stateMutability": "view",
      "type": "function"
    },
    {
      "inputs": [
        {
          "internalType": "address",
          "name": "_patientAddress",
          "type": "address"
        }
      ],
      "name": "getPatientRecordIds",
      "outputs": [
        {
          "internalType": "uint256[]",
          "name": "",
          "type": "uint256[]"
        }
      ],
      "stateMutability": "view",
      "type": "function"
    },
    {
      "inputs": [
        {
          "internalType": "address",
          "name": "_patientAddress",
          "type": "address"
        },
        {
          "internalType": "uint256",
          "name": "_index",
          "type": "uint256"
        }
      ],
      "name": "getPatientRequestAtIndex",
      "outputs": [
        {
          "components": [
            {
              "internalType": "uint256",
              "name": "id",
              "type": "uint256"
            },
            {
              "internalType": "address",
              "name": "patient",
              "type": "address"
            },
            {
              "internalType": "address",
              "name": "provider",
              "type": "address"
            },
            {
              "internalType": "string",
              "name": "claimId",
              "type": "string"
            },
            {
              "internalType": "enum Storage.RequestStatus",
              "name": "status",
              "type": "uint8"
            }
          ],
          "internalType": "struct Storage.AccessRequest",
          "name": "",
          "type": "tuple"
        }
      ],
      "stateMutability": "view",
      "type": "function"
    },
    {
      "inputs": [
        {
          "internalType": "address",
          "name": "_patientAddress",
          "type": "address"
        }
      ],
      "name": "getPatientRequestsCount",
      "outputs": [
        {
          "internalType": "uint256",
          "name": "",
          "type": "uint256"
        }
      ],
      "stateMutability": "view",
      "type": "function"
    },
    {
      "inputs": [
        {
          "internalType": "uint256",
          "name": "_recordId",
          "type": "uint256"
        }
      ],
      "name": "getRecordById",
      "outputs": [
        {
          "components": [
            {
              "internalType": "uint256",
              "name": "id",
              "type": "uint256"
            },
            {
              "internalType": "string",
              "name": "ipfsHash",
              "type": "string"
            },
            {
              "internalType": "uint256",
              "name": "timestamp",
              "type": "uint256"
            },
            {
              "internalType": "address",
              "name": "uploadedBy",
              "type": "address"
            },
            {
              "internalType": "address",
              "name": "owner",
              "type": "address"
            },
            {
              "internalType": "bool",
              "name": "isVerified",
              "type": "bool"
            },
            {
              "internalType": "string",
              "name": "category",
              "type": "string"
            }
          ],
          "internalType": "struct Storage.Record",
          "name": "",
          "type": "tuple"
        }
      ],
      "stateMutability": "view",
      "type": "function"
    },
    {
      "inputs": [
        {
          "internalType": "uint256",
          "name": "_recordId",
          "type": "uint256"
        },
        {
          "internalType": "address",
          "name": "_grantee",
          "type": "address"
        },
        {
          "internalType": "uint256",
          "name": "_durationInDays",
          "type": "uint256"
        }
      ],
      "name": "grantRecordAccess",
      "outputs": [],
      "stateMutability": "nonpayable",
      "type": "function"
    },
    {
      "inputs": [
        {
          "internalType": "address",
          "name": "initialOwner",
          "type": "address"
        }
      ],
      "name": "initialize",
      "outputs": [],
      "stateMutability": "nonpayable",
      "type": "function"
    },
    {
      "inputs": [],
      "name": "owner",
      "outputs": [
        {
          "internalType": "address",
          "name": "",
          "type": "address"
        }
      ],
      "stateMutability": "view",
      "type": "function"
    },
    {
      "inputs": [
        {
          "internalType": "address",
          "name": "",
          "type": "address"
        },
        {
          "internalType": "uint256",
          "name": "",
          "type": "uint256"
        }
      ],
      "name": "patientRecordIds",
      "outputs": [
        {
          "internalType": "uint256",
          "name": "",
          "type": "uint256"
        }
      ],
      "stateMutability": "view",
      "type": "function"
    },
    {
      "inputs": [
        {
          "internalType": "address",
          "name": "",
          "type": "address"
        },
        {
          "internalType": "uint256",
          "name": "",
          "type": "uint256"
        }
      ],
      "name": "patientRequests",
      "outputs": [
        {
          "internalType": "uint256",
          "name": "id",
          "type": "uint256"
        },
        {
          "internalType": "address",
          "name": "patient",
          "type": "address"
        },
        {
          "internalType": "address",
          "name": "provider",
          "type": "address"
        },
        {
          "internalType": "string",
          "name": "claimId",
          "type": "string"
        },
        {
          "internalType": "enum Storage.RequestStatus",
          "name": "status",
          "type": "uint8"
        }
      ],
      "stateMutability": "view",
      "type": "function"
    },
    {
      "inputs": [],
      "name": "proxiableUUID",
      "outputs": [
        {
          "internalType": "bytes32",
          "name": "",
          "type": "bytes32"
        }
      ],
      "stateMutability": "view",
      "type": "function"
    },
    {
      "inputs": [
        {
          "internalType": "uint256",
          "name": "",
          "type": "uint256"
        },
        {
          "internalType": "address",
          "name": "",
          "type": "address"
        }
      ],
      "name": "recordAccess",
      "outputs": [
        {
          "internalType": "uint256",
          "name": "",
          "type": "uint256"
        }
      ],
      "stateMutability": "view",
      "type": "function"
    },
    {
      "inputs": [
        {
          "internalType": "uint256",
          "name": "",
          "type": "uint256"
        }
      ],
      "name": "records",
      "outputs": [
        {
          "internalType": "uint256",
          "name": "id",
          "type": "uint256"
        },
        {
          "internalType": "string",
          "name": "ipfsHash",
          "type": "string"
        },
        {
          "internalType": "uint256",
          "name": "timestamp",
          "type": "uint256"
        },
        {
          "internalType": "address",
          "name": "uploadedBy",
          "type": "address"
        },
        {
          "internalType": "address",
          "name": "owner",
          "type": "address"
        },
        {
          "internalType": "bool",
          "name": "isVerified",
          "type": "bool"
        },
        {
          "internalType": "string",
          "name": "category",
          "type": "string"
        }
      ],
      "stateMutability": "view",
      "type": "function"
    },
    {
      "inputs": [
        {
          "internalType": "string",
          "name": "_name",
          "type": "string"
        },
        {
          "internalType": "enum Storage.Role",
          "name": "_role",
          "type": "uint8"
        }
      ],
      "name": "registerUser",
      "outputs": [],
      "stateMutability": "nonpayable",
      "type": "function"
    },
    {
      "inputs": [],
      "name": "renounceOwnership",
      "outputs": [],
      "stateMutability": "nonpayable",
      "type": "function"
    },
    {
      "inputs": [
        {
          "internalType": "address",
          "name": "_patientAddress",
          "type": "address"
        },
        {
          "internalType": "string",
          "name": "_claimId",
          "type": "string"
        }
      ],
      "name": "requestAccess",
      "outputs": [],
      "stateMutability": "nonpayable",
      "type": "function"
    },
    {
      "inputs": [
        {
          "internalType": "uint256",
          "name": "_recordId",
          "type": "uint256"
        },
        {
          "internalType": "address",
          "name": "_grantee",
          "type": "address"
        }
      ],
      "name": "revokeRecordAccess",
      "outputs": [],
      "stateMutability": "nonpayable",
      "type": "function"
    },
    {
      "inputs": [
        {
          "internalType": "string",
          "name": "_publicKey",
          "type": "string"
        }
      ],
      "name": "savePublicKey",
      "outputs": [],
      "stateMutability": "nonpayable",
      "type": "function"
    },
    {
      "inputs": [
        {
          "internalType": "address",
          "name": "newOwner",
          "type": "address"
        }
      ],
      "name": "transferOwnership",
      "outputs": [],
      "stateMutability": "nonpayable",
      "type": "function"
    },
    {
      "inputs": [
        {
          "internalType": "string",
          "name": "_name",
          "type": "string"
        },
        {
          "internalType": "string",
          "name": "_contactInfo",
          "type": "string"
        },
        {
          "internalType": "string",
          "name": "_profileMetadataURI",
          "type": "string"
        }
      ],
      "name": "updateUserProfile",
      "outputs": [],
      "stateMutability": "nonpayable",
      "type": "function"
    },
    {
      "inputs": [
        {
          "internalType": "address",
          "name": "newImplementation",
          "type": "address"
        },
        {
          "internalType": "bytes",
          "name": "data",
          "type": "bytes"
        }
      ],
      "name": "upgradeToAndCall",
      "outputs": [],
      "stateMutability": "payable",
      "type": "function"
    },
    {
      "inputs": [
        {
          "internalType": "address",
          "name": "",
          "type": "address"
        }
      ],
      "name": "userProfiles",
      "outputs": [
        {
          "internalType": "string",
          "name": "name",
          "type": "string"
        },
        {
          "internalType": "string",
          "name": "contactInfo",
          "type": "string"
        },
        {
          "internalType": "string",
          "name": "profileMetadataURI",
          "type": "string"
        }
      ],
      "stateMutability": "view",
      "type": "function"
    },
    {
      "inputs": [
        {
          "internalType": "address",
          "name": "",
          "type": "address"
        }
      ],
      "name": "users",
      "outputs": [
        {
          "internalType": "address",
          "name": "walletAddress",
          "type": "address"
        },
        {
          "internalType": "string",
          "name": "name",
          "type": "string"
        },
        {
          "internalType": "enum Storage.Role",
          "name": "role",
          "type": "uint8"
        },
        {
          "internalType": "bool",
          "name": "isVerified",
          "type": "bool"
        },
        {
          "internalType": "string",
          "name": "publicKey",
          "type": "string"
        }
      ],
      "stateMutability": "view",
      "type": "function"
    },
    {
      "inputs": [
        {
          "internalType": "address",
          "name": "_userToVerify",
          "type": "address"
        }
      ],
      "name": "verifyUser",
      "outputs": [],
      "stateMutability": "nonpayable",
      "type": "function"
    }
  ],
  "bytecode": "0x60a06040523073ffffffffffffffffffffffffffffffffffffffff1660809073ffffffffffffffffffffffffffffffffffffffff168152503480156200004457600080fd5b50620000556200005b60201b60201c565b620001ee565b60006200006d6200016560201b60201c565b90508060000160089054906101000a900460ff1615620000b9576040517ff92ee8a900000000000000000000000000000000000000000000000000000000815260040160405180910390fd5b67ffffffffffffffff80168160000160009054906101000a900467ffffffffffffffff1667ffffffffffffffff1614620001625767ffffffffffffffff8160000160006101000a81548167ffffffffffffffff021916908367ffffffffffffffff1602179055507fc7f505b2f371ae2175ee4913f4499e1f2633a7b5936321eed1cdaeb6115181d267ffffffffffffffff604051620001599190620001d1565b60405180910390a15b50565b600080620001786200018160201b60201c565b90508091505090565b60007ff0c57e16840df040f15088dc2f81fe391c3923bec73e23a9662efc9c229c6a0060001b905090565b600067ffffffffffffffff82169050919050565b620001cb81620001ac565b82525050565b6000602082019050620001e86000830184620001c0565b92915050565b608051615a686200021860003960008181613bcc01528181613c210152613ddc0152615a686000f3fe6080604052600436106101c25760003560e01c8063715018a6116100f7578063bace029011610095578063e75b8b2311610064578063e75b8b2314610673578063ea4d598e146106b0578063f2fde38b146106d9578063f790513814610702576101c2565b8063bace0290146105bb578063c459a8ce146105e4578063c4d66de814610621578063d8eb8e901461064a576101c2565b80639afd8efe116100d15780639afd8efe146104e9578063a87430ba14610526578063ac88194c14610567578063ad3cb1cc14610590576101c2565b8063715018a61461047e5780638c544c29146104955780638da5cb5b146104be576101c2565b8063436243761161016457806352d1902d1161013e57806352d1902d1461039c5780635af28ce3146103c75780635e2547f2146104045780636248204e14610441576101c2565b8063436243761461032e5780634d813120146103575780634f1ef28614610380576101c2565b80633217bc72116101a05780633217bc7214610242578063332d56d714610283578063338e12eb146102c257806334461067146102eb576101c2565b80631fbe3784146101c75780632c0a90a9146101f05780632f6d4a5914610219575b600080fd5b3480156101d357600080fd5b506101ee60048036038101906101e99190614698565b61073f565b005b3480156101fc57600080fd5b506102176004803603810190610212919061472a565b610a86565b005b34801561022557600080fd5b50610240600480360381019061023b9190614698565b610eaa565b005b34801561024e57600080fd5b506102696004803603810190610264919061476a565b611236565b60405161027a9594939291906148be565b60405180910390f35b34801561028f57600080fd5b506102aa60048036038101906102a59190614918565b61135e565b6040516102b993929190614945565b60405180910390f35b3480156102ce57600080fd5b506102e960048036038101906102e491906149b6565b611520565b005b3480156102f757600080fd5b50610312600480360381019061030d9190614a12565b6118c4565b6040516103259796959493929190614a5a565b60405180910390f35b34801561033a57600080fd5b5061035560048036038101906103509190614ad7565b611a73565b005b34801561036357600080fd5b5061037e60048036038101906103799190614918565b611b30565b005b61039a60048036038101906103959190614bf0565b611e7a565b005b3480156103a857600080fd5b506103b1611e99565b6040516103be9190614c65565b60405180910390f35b3480156103d357600080fd5b506103ee60048036038101906103e99190614918565b611ecc565b6040516103fb9190614c80565b60405180910390f35b34801561041057600080fd5b5061042b6004803603810190610426919061476a565b611f7d565b6040516104389190614c80565b60405180910390f35b34801561044d57600080fd5b5061046860048036038101906104639190614918565b611fae565b6040516104759190614d59565b60405180910390f35b34801561048a57600080fd5b506104936120aa565b005b3480156104a157600080fd5b506104bc60048036038101906104b79190614d7b565b6120be565b005b3480156104ca57600080fd5b506104d3612352565b6040516104e09190614e06565b60405180910390f35b3480156104f557600080fd5b50610510600480360381019061050b919061476a565b61238a565b60405161051d9190614eff565b60405180910390f35b34801561053257600080fd5b5061054d60048036038101906105489190614918565b6125ec565b60405161055e959493929190614f69565b60405180910390f35b34801561057357600080fd5b5061058e60048036038101906105899190614fca565b61276c565b005b34801561059c57600080fd5b506105a5612ab8565b6040516105b2919061501d565b60405180910390f35b3480156105c757600080fd5b506105e260048036038101906105dd919061509f565b612af1565b005b3480156105f057600080fd5b5061060b60048036038101906106069190615153565b612dd4565b6040516106189190614c80565b60405180910390f35b34801561062d57600080fd5b5061064860048036038101906106439190614918565b612df9565b005b34801561065657600080fd5b50610671600480360381019061066c9190615193565b612f90565b005b34801561067f57600080fd5b5061069a60048036038101906106959190614a12565b613174565b6040516106a7919061528e565b60405180910390f35b3480156106bc57600080fd5b506106d760048036038101906106d29190615153565b6133ef565b005b3480156106e557600080fd5b5061070060048036038101906106fb9190614918565b61361c565b005b34801561070e57600080fd5b5061072960048036038101906107249190615153565b6136a2565b60405161073691906152b0565b60405180910390f35b6107476137fe565b600073ffffffffffffffffffffffffffffffffffffffff166000808473ffffffffffffffffffffffffffffffffffffffff1673ffffffffffffffffffffffffffffffffffffffff16815260200190815260200160002060000160009054906101000a900473ffffffffffffffffffffffffffffffffffffffff1673ffffffffffffffffffffffffffffffffffffffff161461080e576040517f3a81d6fc00000000000000000000000000000000000000000000000000000000815260040160405180910390fd5b6040518060a001604052808373ffffffffffffffffffffffffffffffffffffffff1681526020018281526020016002600781111561084f5761084e614847565b5b8152602001600115158152602001604051806020016040528060008152508152506000808473ffffffffffffffffffffffffffffffffffffffff1673ffffffffffffffffffffffffffffffffffffffff16815260200190815260200160002060008201518160000160006101000a81548173ffffffffffffffffffffffffffffffffffffffff021916908373ffffffffffffffffffffffffffffffffffffffff160217905550602082015181600101908161090a91906154d7565b5060408201518160020160006101000a81548160ff0219169083600781111561093657610935614847565b5b021790555060608201518160020160016101000a81548160ff021916908315150217905550608082015181600301908161097091906154d7565b50905050604051806060016040528082815260200160405180602001604052806000815250815260200160405180602001604052806000815250815250600160008473ffffffffffffffffffffffffffffffffffffffff1673ffffffffffffffffffffffffffffffffffffffff1681526020019081526020016000206000820151816000019081610a0191906154d7565b506020820151816001019081610a1791906154d7565b506040820151816002019081610a2d91906154d7565b509050508173ffffffffffffffffffffffffffffffffffffffff167fc2e5d5da58bd71d1a2d14cdef02a4256d971b728088f8190d067ccfbae3bd73e826002604051610a7a9291906155a9565b60405180910390a25050565b60006007811115610a9a57610a99614847565b5b6000803373ffffffffffffffffffffffffffffffffffffffff1673ffffffffffffffffffffffffffffffffffffffff16815260200190815260200160002060020160009054906101000a900460ff166007811115610afb57610afa614847565b5b14610b32576040517f8251137800000000000000000000000000000000000000000000000000000000815260040160405180910390fd5b6000600560003373ffffffffffffffffffffffffffffffffffffffff1673ffffffffffffffffffffffffffffffffffffffff16815260200190815260200160002090506000805b8280549050811015610e6c5784838281548110610b9957610b986155d9565b5b906000526020600020906005020160000154148015610c0d575060006002811115610bc757610bc6614847565b5b838281548110610bda57610bd96155d9565b5b906000526020600020906005020160040160009054906101000a900460ff166002811115610c0b57610c0a614847565b5b145b15610e5f576001838281548110610c2757610c266155d9565b5b906000526020600020906005020160040160006101000a81548160ff02191690836002811115610c5a57610c59614847565b5b021790555060006201518085610c709190615637565b42610c7b9190615679565b90506000848381548110610c9257610c916155d9565b5b906000526020600020906005020160020160009054906101000a900473ffffffffffffffffffffffffffffffffffffffff1690506000600360003373ffffffffffffffffffffffffffffffffffffffff1673ffffffffffffffffffffffffffffffffffffffff168152602001908152602001600020905060005b8180549050811015610e03576000828281548110610d2d57610d2c6155d9565b5b90600052602060002001549050846004600083815260200190815260200160002060008673ffffffffffffffffffffffffffffffffffffffff1673ffffffffffffffffffffffffffffffffffffffff168152602001908152602001600020819055508373ffffffffffffffffffffffffffffffffffffffff163373ffffffffffffffffffffffffffffffffffffffff16827f9ffcf664651d52310aeb78c0f8382ca5078d2de7d3cf618cb5ce6e5cabf0099288604051610ded9190614c80565b60405180910390a4508080600101915050610d0c565b50600194503373ffffffffffffffffffffffffffffffffffffffff16887f4def62da440b39db2661de60aa3dad0479ac27d4c22597d6e14c7441774f8a3189604051610e4f9190614c80565b60405180910390a3505050610e6c565b8080600101915050610b79565b5080610ea4576040517f4b13b31e00000000000000000000000000000000000000000000000000000000815260040160405180910390fd5b50505050565b60036007811115610ebe57610ebd614847565b5b6000803373ffffffffffffffffffffffffffffffffffffffff1673ffffffffffffffffffffffffffffffffffffffff16815260200190815260200160002060020160009054906101000a900460ff166007811115610f1f57610f1e614847565b5b14610f56576040517f354a448400000000000000000000000000000000000000000000000000000000815260040160405180910390fd5b60006007811115610f6a57610f69614847565b5b6000808473ffffffffffffffffffffffffffffffffffffffff1673ffffffffffffffffffffffffffffffffffffffff16815260200190815260200160002060020160009054906101000a900460ff166007811115610fcb57610fca614847565b5b14611002576040517f8251137800000000000000000000000000000000000000000000000000000000815260040160405180910390fd5b600060066000815480929190611017906156ad565b919050559050600560008473ffffffffffffffffffffffffffffffffffffffff1673ffffffffffffffffffffffffffffffffffffffff1681526020019081526020016000206040518060a001604052808381526020018573ffffffffffffffffffffffffffffffffffffffff1681526020013373ffffffffffffffffffffffffffffffffffffffff168152602001848152602001600060028111156110bf576110be614847565b5b81525090806001815401808255809150506001900390600052602060002090600502016000909190919091506000820151816000015560208201518160010160006101000a81548173ffffffffffffffffffffffffffffffffffffffff021916908373ffffffffffffffffffffffffffffffffffffffff16021790555060408201518160020160006101000a81548173ffffffffffffffffffffffffffffffffffffffff021916908373ffffffffffffffffffffffffffffffffffffffff160217905550606082015181600301908161119891906154d7565b5060808201518160040160006101000a81548160ff021916908360028111156111c4576111c3614847565b5b021790555050503373ffffffffffffffffffffffffffffffffffffffff168373ffffffffffffffffffffffffffffffffffffffff16827f21eb886073c5fec0f227f76ef8335d82939c7aa4b537be2e0943f4c1dc74553e85604051611229919061501d565b60405180910390a4505050565b6005602052816000526040600020818154811061125257600080fd5b9060005260206000209060050201600091509150508060000154908060010160009054906101000a900473ffffffffffffffffffffffffffffffffffffffff16908060020160009054906101000a900473ffffffffffffffffffffffffffffffffffffffff16908060030180546112c8906152fa565b80601f01602080910402602001604051908101604052809291908181526020018280546112f4906152fa565b80156113415780601f1061131657610100808354040283529160200191611341565b820191906000526020600020905b81548152906001019060200180831161132457829003601f168201915b5050505050908060040160009054906101000a900460ff16905085565b6001602052806000526040600020600091509050806000018054611381906152fa565b80601f01602080910402602001604051908101604052809291908181526020018280546113ad906152fa565b80156113fa5780601f106113cf576101008083540402835291602001916113fa565b820191906000526020600020905b8154815290600101906020018083116113dd57829003601f168201915b50505050509080600101805461140f906152fa565b80601f016020809104026020016040519081016040528092919081815260200182805461143b906152fa565b80156114885780601f1061145d57610100808354040283529160200191611488565b820191906000526020600020905b81548152906001019060200180831161146b57829003601f168201915b50505050509080600201805461149d906152fa565b80601f01602080910402602001604051908101604052809291908181526020018280546114c9906152fa565b80156115165780601f106114eb57610100808354040283529160200191611516565b820191906000526020600020905b8154815290600101906020018083116114f957829003601f168201915b5050505050905083565b600073ffffffffffffffffffffffffffffffffffffffff166000803373ffffffffffffffffffffffffffffffffffffffff1673ffffffffffffffffffffffffffffffffffffffff16815260200190815260200160002060000160009054906101000a900473ffffffffffffffffffffffffffffffffffffffff1673ffffffffffffffffffffffffffffffffffffffff16146115e7576040517f3a81d6fc00000000000000000000000000000000000000000000000000000000815260040160405180910390fd5b600260078111156115fb576115fa614847565b5b81600781111561160e5761160d614847565b5b0361164e576040517f08c379a000000000000000000000000000000000000000000000000000000000815260040161164590615767565b60405180910390fd5b6040518060a001604052803373ffffffffffffffffffffffffffffffffffffffff16815260200183815260200182600781111561168e5761168d614847565b5b8152602001600015158152602001604051806020016040528060008152508152506000803373ffffffffffffffffffffffffffffffffffffffff1673ffffffffffffffffffffffffffffffffffffffff16815260200190815260200160002060008201518160000160006101000a81548173ffffffffffffffffffffffffffffffffffffffff021916908373ffffffffffffffffffffffffffffffffffffffff160217905550602082015181600101908161174991906154d7565b5060408201518160020160006101000a81548160ff0219169083600781111561177557611774614847565b5b021790555060608201518160020160016101000a81548160ff02191690831515021790555060808201518160030190816117af91906154d7565b50905050604051806060016040528083815260200160405180602001604052806000815250815260200160405180602001604052806000815250815250600160003373ffffffffffffffffffffffffffffffffffffffff1673ffffffffffffffffffffffffffffffffffffffff168152602001908152602001600020600082015181600001908161184091906154d7565b50602082015181600101908161185691906154d7565b50604082015181600201908161186c91906154d7565b509050503373ffffffffffffffffffffffffffffffffffffffff167fc2e5d5da58bd71d1a2d14cdef02a4256d971b728088f8190d067ccfbae3bd73e83836040516118b89291906155a9565b60405180910390a25050565b600281815481106118d457600080fd5b90600052602060002090600602016000915090508060000154908060010180546118fd906152fa565b80601f0160208091040260200160405190810160405280929190818152602001828054611929906152fa565b80156119765780601f1061194b57610100808354040283529160200191611976565b820191906000526020600020905b81548152906001019060200180831161195957829003601f168201915b5050505050908060020154908060030160009054906101000a900473ffffffffffffffffffffffffffffffffffffffff16908060040160009054906101000a900473ffffffffffffffffffffffffffffffffffffffff16908060040160149054906101000a900460ff16908060050180546119f0906152fa565b80601f0160208091040260200160405190810160405280929190818152602001828054611a1c906152fa565b8015611a695780601f10611a3e57610100808354040283529160200191611a69565b820191906000526020600020905b815481529060010190602001808311611a4c57829003601f168201915b5050505050905087565b60006007811115611a8757611a86614847565b5b6000803373ffffffffffffffffffffffffffffffffffffffff1673ffffffffffffffffffffffffffffffffffffffff16815260200190815260200160002060020160009054906101000a900460ff166007811115611ae857611ae7614847565b5b14611b1f576040517f8251137800000000000000000000000000000000000000000000000000000000815260040160405180910390fd5b611b2c3383836000613885565b5050565b600073ffffffffffffffffffffffffffffffffffffffff166000803373ffffffffffffffffffffffffffffffffffffffff1673ffffffffffffffffffffffffffffffffffffffff16815260200190815260200160002060000160009054906101000a900473ffffffffffffffffffffffffffffffffffffffff1673ffffffffffffffffffffffffffffffffffffffff1603611bf7576040517faba4733900000000000000000000000000000000000000000000000000000000815260040160405180910390fd5b60026007811115611c0b57611c0a614847565b5b6000803373ffffffffffffffffffffffffffffffffffffffff1673ffffffffffffffffffffffffffffffffffffffff16815260200190815260200160002060020160009054906101000a900460ff166007811115611c6c57611c6b614847565b5b141580611cc557506000803373ffffffffffffffffffffffffffffffffffffffff1673ffffffffffffffffffffffffffffffffffffffff16815260200190815260200160002060020160019054906101000a900460ff16155b15611cfc576040517f55098f2700000000000000000000000000000000000000000000000000000000815260040160405180910390fd5b600073ffffffffffffffffffffffffffffffffffffffff166000808373ffffffffffffffffffffffffffffffffffffffff1673ffffffffffffffffffffffffffffffffffffffff16815260200190815260200160002060000160009054906101000a900473ffffffffffffffffffffffffffffffffffffffff1673ffffffffffffffffffffffffffffffffffffffff1603611dc3576040517f670a68cc00000000000000000000000000000000000000000000000000000000815260040160405180910390fd5b60016000808373ffffffffffffffffffffffffffffffffffffffff1673ffffffffffffffffffffffffffffffffffffffff16815260200190815260200160002060020160016101000a81548160ff0219169083151502179055508073ffffffffffffffffffffffffffffffffffffffff163373ffffffffffffffffffffffffffffffffffffffff167fbfb2fa25f828a712fda370028ecc8813c7082c69b239a579753b10e24dd472cc60405160405180910390a350565b611e82613bca565b611e8b82613cb0565b611e958282613cbb565b5050565b6000611ea3613dda565b7f360894a13ba1a3210667c828492db98dca3e2076cc3735a920a3ca505d382bbc60001b905090565b60008173ffffffffffffffffffffffffffffffffffffffff163373ffffffffffffffffffffffffffffffffffffffff1614611f33576040517fea8e4eb500000000000000000000000000000000000000000000000000000000815260040160405180910390fd5b600560008373ffffffffffffffffffffffffffffffffffffffff1673ffffffffffffffffffffffffffffffffffffffff168152602001908152602001600020805490509050919050565b60036020528160005260406000208181548110611f9957600080fd5b90600052602060002001600091509150505481565b60608173ffffffffffffffffffffffffffffffffffffffff163373ffffffffffffffffffffffffffffffffffffffff1614612015576040517fea8e4eb500000000000000000000000000000000000000000000000000000000815260040160405180910390fd5b600360008373ffffffffffffffffffffffffffffffffffffffff1673ffffffffffffffffffffffffffffffffffffffff16815260200190815260200160002080548060200260200160405190810160405280929190818152602001828054801561209e57602002820191906000526020600020905b81548152602001906001019080831161208a575b50505050509050919050565b6120b26137fe565b6120bc6000613e61565b565b600073ffffffffffffffffffffffffffffffffffffffff166000808573ffffffffffffffffffffffffffffffffffffffff1673ffffffffffffffffffffffffffffffffffffffff16815260200190815260200160002060000160009054906101000a900473ffffffffffffffffffffffffffffffffffffffff1673ffffffffffffffffffffffffffffffffffffffff1603612185576040517f670a68cc00000000000000000000000000000000000000000000000000000000815260040160405180910390fd5b6000600781111561219957612198614847565b5b6000808573ffffffffffffffffffffffffffffffffffffffff1673ffffffffffffffffffffffffffffffffffffffff16815260200190815260200160002060020160009054906101000a900460ff1660078111156121fa576121f9614847565b5b14612231576040517f8251137800000000000000000000000000000000000000000000000000000000815260040160405180910390fd5b60008060003373ffffffffffffffffffffffffffffffffffffffff1673ffffffffffffffffffffffffffffffffffffffff16815260200190815260200160002090506001600781111561228757612286614847565b5b8160020160009054906101000a900460ff1660078111156122ab576122aa614847565b5b141580156122ee57506007808111156122c7576122c6614847565b5b8160020160009054906101000a900460ff1660078111156122eb576122ea614847565b5b14155b8061230857508060020160019054906101000a900460ff16155b1561233f576040517f5f10e00b00000000000000000000000000000000000000000000000000000000815260040160405180910390fd5b61234c8484846001613885565b50505050565b60008061235d613f38565b90508060000160009054906101000a900473ffffffffffffffffffffffffffffffffffffffff1691505090565b612392614408565b8273ffffffffffffffffffffffffffffffffffffffff163373ffffffffffffffffffffffffffffffffffffffff16146123f7576040517fea8e4eb500000000000000000000000000000000000000000000000000000000815260040160405180910390fd5b600560008473ffffffffffffffffffffffffffffffffffffffff1673ffffffffffffffffffffffffffffffffffffffff1681526020019081526020016000208281548110612448576124476155d9565b5b90600052602060002090600502016040518060a0016040529081600082015481526020016001820160009054906101000a900473ffffffffffffffffffffffffffffffffffffffff1673ffffffffffffffffffffffffffffffffffffffff1673ffffffffffffffffffffffffffffffffffffffff1681526020016002820160009054906101000a900473ffffffffffffffffffffffffffffffffffffffff1673ffffffffffffffffffffffffffffffffffffffff1673ffffffffffffffffffffffffffffffffffffffff168152602001600382018054612527906152fa565b80601f0160208091040260200160405190810160405280929190818152602001828054612553906152fa565b80156125a05780601f10612575576101008083540402835291602001916125a0565b820191906000526020600020905b81548152906001019060200180831161258357829003601f168201915b505050505081526020016004820160009054906101000a900460ff1660028111156125ce576125cd614847565b5b60028111156125e0576125df614847565b5b81525050905092915050565b60006020528060005260406000206000915090508060000160009054906101000a900473ffffffffffffffffffffffffffffffffffffffff1690806001018054612635906152fa565b80601f0160208091040260200160405190810160405280929190818152602001828054612661906152fa565b80156126ae5780601f10612683576101008083540402835291602001916126ae565b820191906000526020600020905b81548152906001019060200180831161269157829003601f168201915b5050505050908060020160009054906101000a900460ff16908060020160019054906101000a900460ff16908060030180546126e9906152fa565b80601f0160208091040260200160405190810160405280929190818152602001828054612715906152fa565b80156127625780601f1061273757610100808354040283529160200191612762565b820191906000526020600020905b81548152906001019060200180831161274557829003601f168201915b5050505050905085565b60028054905083106127aa576040517f3e07f1a100000000000000000000000000000000000000000000000000000000815260040160405180910390fd5b6000600284815481106127c0576127bf6155d9565b5b906000526020600020906006020190503373ffffffffffffffffffffffffffffffffffffffff168160040160009054906101000a900473ffffffffffffffffffffffffffffffffffffffff1673ffffffffffffffffffffffffffffffffffffffff1614612859576040517f5e27834500000000000000000000000000000000000000000000000000000000815260040160405180910390fd5b60008060008573ffffffffffffffffffffffffffffffffffffffff1673ffffffffffffffffffffffffffffffffffffffff1681526020019081526020016000209050600160078111156128af576128ae614847565b5b8160020160009054906101000a900460ff1660078111156128d3576128d2614847565b5b1415801561291657506007808111156128ef576128ee614847565b5b8160020160009054906101000a900460ff16600781111561291357612912614847565b5b14155b801561295857506003600781111561293157612930614847565b5b8160020160009054906101000a900460ff16600781111561295557612954614847565b5b14155b1561298f576040517f5f10e00b00000000000000000000000000000000000000000000000000000000815260040160405180910390fd5b8060020160019054906101000a900460ff166129d7576040517f5f10e00b00000000000000000000000000000000000000000000000000000000815260040160405180910390fd5b600062015180846129e89190615637565b426129f39190615679565b9050806004600088815260200190815260200160002060008773ffffffffffffffffffffffffffffffffffffffff1673ffffffffffffffffffffffffffffffffffffffff168152602001908152602001600020819055508473ffffffffffffffffffffffffffffffffffffffff163373ffffffffffffffffffffffffffffffffffffffff16877f9ffcf664651d52310aeb78c0f8382ca5078d2de7d3cf618cb5ce6e5cabf0099284604051612aa89190614c80565b60405180910390a4505050505050565b6040518060400160405280600581526020017f352e302e3000000000000000000000000000000000000000000000000000000081525081565b600073ffffffffffffffffffffffffffffffffffffffff166000803373ffffffffffffffffffffffffffffffffffffffff1673ffffffffffffffffffffffffffffffffffffffff16815260200190815260200160002060000160009054906101000a900473ffffffffffffffffffffffffffffffffffffffff1673ffffffffffffffffffffffffffffffffffffffff1603612bb8576040517faba4733900000000000000000000000000000000000000000000000000000000815260040160405180910390fd5b604051806060016040528087878080601f016020809104026020016040519081016040528093929190818152602001838380828437600081840152601f19601f82011690508083019250505050505050815260200185858080601f016020809104026020016040519081016040528093929190818152602001838380828437600081840152601f19601f82011690508083019250505050505050815260200183838080601f016020809104026020016040519081016040528093929190818152602001838380828437600081840152601f19601f82011690508083019250505050505050815250600160003373ffffffffffffffffffffffffffffffffffffffff1673ffffffffffffffffffffffffffffffffffffffff1681526020019081526020016000206000820151816000019081612cf391906154d7565b506020820151816001019081612d0991906154d7565b506040820151816002019081612d1f91906154d7565b5090505085856000803373ffffffffffffffffffffffffffffffffffffffff1673ffffffffffffffffffffffffffffffffffffffff1681526020019081526020016000206001019182612d73929190615792565b503373ffffffffffffffffffffffffffffffffffffffff167f6420daf1b58438e85465ef21dee378d307a509caab491149e3f066c5caf1266d878787878787604051612dc49695949392919061588f565b60405180910390a2505050505050565b6004602052816000526040600020602052806000526040600020600091509150505481565b6000612e03613f60565b905060008160000160089054906101000a900460ff1615905060008260000160009054906101000a900467ffffffffffffffff1690506000808267ffffffffffffffff16148015612e515750825b9050600060018367ffffffffffffffff16148015612e86575060003073ffffffffffffffffffffffffffffffffffffffff163b145b905081158015612e94575080155b15612ecb576040517ff92ee8a900000000000000000000000000000000000000000000000000000000815260040160405180910390fd5b60018560000160006101000a81548167ffffffffffffffff021916908367ffffffffffffffff1602179055508315612f1b5760018560000160086101000a81548160ff0219169083151502179055505b612f2486613f74565b612f2c613f88565b8315612f885760008560000160086101000a81548160ff0219169083151502179055507fc7f505b2f371ae2175ee4913f4499e1f2633a7b5936321eed1cdaeb6115181d26001604051612f7f9190615930565b60405180910390a15b505050505050565b600073ffffffffffffffffffffffffffffffffffffffff166000803373ffffffffffffffffffffffffffffffffffffffff1673ffffffffffffffffffffffffffffffffffffffff16815260200190815260200160002060000160009054906101000a900473ffffffffffffffffffffffffffffffffffffffff1673ffffffffffffffffffffffffffffffffffffffff1603613057576040517faba4733900000000000000000000000000000000000000000000000000000000815260040160405180910390fd5b60008060003373ffffffffffffffffffffffffffffffffffffffff1673ffffffffffffffffffffffffffffffffffffffff16815260200190815260200160002060030180546130a5906152fa565b905011156130df576040517f3b3cf97000000000000000000000000000000000000000000000000000000000815260040160405180910390fd5b806000803373ffffffffffffffffffffffffffffffffffffffff1673ffffffffffffffffffffffffffffffffffffffff168152602001908152602001600020600301908161312d91906154d7565b503373ffffffffffffffffffffffffffffffffffffffff167f6cf02651ef9f7a72105bbc0f5800cb97cf05271672cc25280ab53491280c827e60405160405180910390a250565b61317c614475565b61318682336136a2565b6131bc576040517fea8e4eb500000000000000000000000000000000000000000000000000000000815260040160405180910390fd5b600282815481106131d0576131cf6155d9565b5b90600052602060002090600602016040518060e001604052908160008201548152602001600182018054613203906152fa565b80601f016020809104026020016040519081016040528092919081815260200182805461322f906152fa565b801561327c5780601f106132515761010080835404028352916020019161327c565b820191906000526020600020905b81548152906001019060200180831161325f57829003601f168201915b50505050508152602001600282015481526020016003820160009054906101000a900473ffffffffffffffffffffffffffffffffffffffff1673ffffffffffffffffffffffffffffffffffffffff1673ffffffffffffffffffffffffffffffffffffffff1681526020016004820160009054906101000a900473ffffffffffffffffffffffffffffffffffffffff1673ffffffffffffffffffffffffffffffffffffffff1673ffffffffffffffffffffffffffffffffffffffff1681526020016004820160149054906101000a900460ff16151515158152602001600582018054613366906152fa565b80601f0160208091040260200160405190810160405280929190818152602001828054613392906152fa565b80156133df5780601f106133b4576101008083540402835291602001916133df565b820191906000526020600020905b8154815290600101906020018083116133c257829003601f168201915b5050505050815250509050919050565b600280549050821061342d576040517f3e07f1a100000000000000000000000000000000000000000000000000000000815260040160405180910390fd5b600060028381548110613443576134426155d9565b5b906000526020600020906006020190503373ffffffffffffffffffffffffffffffffffffffff168160040160009054906101000a900473ffffffffffffffffffffffffffffffffffffffff1673ffffffffffffffffffffffffffffffffffffffff16146134dc576040517f5e27834500000000000000000000000000000000000000000000000000000000815260040160405180910390fd5b60006004600085815260200190815260200160002060008473ffffffffffffffffffffffffffffffffffffffff1673ffffffffffffffffffffffffffffffffffffffff1681526020019081526020016000205403613566576040517f9cf4448900000000000000000000000000000000000000000000000000000000815260040160405180910390fd5b60006004600085815260200190815260200160002060008473ffffffffffffffffffffffffffffffffffffffff1673ffffffffffffffffffffffffffffffffffffffff168152602001908152602001600020819055508173ffffffffffffffffffffffffffffffffffffffff163373ffffffffffffffffffffffffffffffffffffffff16847f260547d4038414ef72f081dcde91825693dff9bc433178f3e92ad36e0cd2275060405160405180910390a4505050565b6136246137fe565b600073ffffffffffffffffffffffffffffffffffffffff168173ffffffffffffffffffffffffffffffffffffffff16036136965760006040517f1e4fbdf700000000000000000000000000000000000000000000000000000000815260040161368d9190614e06565b60405180910390fd5b61369f81613e61565b50565b600060028054905083106136b957600090506137f8565b6000600284815481106136cf576136ce6155d9565b5b906000526020600020906006020190508273ffffffffffffffffffffffffffffffffffffffff168160040160009054906101000a900473ffffffffffffffffffffffffffffffffffffffff1673ffffffffffffffffffffffffffffffffffffffff16036137405760019150506137f8565b8273ffffffffffffffffffffffffffffffffffffffff168160030160009054906101000a900473ffffffffffffffffffffffffffffffffffffffff1673ffffffffffffffffffffffffffffffffffffffff16036137a15760019150506137f8565b426004600086815260200190815260200160002060008573ffffffffffffffffffffffffffffffffffffffff1673ffffffffffffffffffffffffffffffffffffffff16815260200190815260200160002054119150505b92915050565b613806613f92565b73ffffffffffffffffffffffffffffffffffffffff16613824612352565b73ffffffffffffffffffffffffffffffffffffffff161461388357613847613f92565b6040517f118cdaa700000000000000000000000000000000000000000000000000000000815260040161387a9190614e06565b60405180910390fd5b565b6000600280549050905060026040518060e001604052808381526020018681526020014281526020013373ffffffffffffffffffffffffffffffffffffffff1681526020018773ffffffffffffffffffffffffffffffffffffffff168152602001841515815260200185815250908060018154018082558091505060019003906000526020600020906006020160009091909190915060008201518160000155602082015181600101908161393a91906154d7565b506040820151816002015560608201518160030160006101000a81548173ffffffffffffffffffffffffffffffffffffffff021916908373ffffffffffffffffffffffffffffffffffffffff16021790555060808201518160040160006101000a81548173ffffffffffffffffffffffffffffffffffffffff021916908373ffffffffffffffffffffffffffffffffffffffff16021790555060a08201518160040160146101000a81548160ff02191690831515021790555060c0820151816005019081613a0891906154d7565b505050600360008673ffffffffffffffffffffffffffffffffffffffff1673ffffffffffffffffffffffffffffffffffffffff1681526020019081526020016000208190806001815401808255809150506001900390600052602060002001600090919091909150557fffffffffffffffffffffffffffffffffffffffffffffffffffffffffffffffff6004600083815260200190815260200160002060008773ffffffffffffffffffffffffffffffffffffffff1673ffffffffffffffffffffffffffffffffffffffff168152602001908152602001600020819055507fffffffffffffffffffffffffffffffffffffffffffffffffffffffffffffffff6004600083815260200190815260200160002060003373ffffffffffffffffffffffffffffffffffffffff1673ffffffffffffffffffffffffffffffffffffffff168152602001908152602001600020819055503373ffffffffffffffffffffffffffffffffffffffff168573ffffffffffffffffffffffffffffffffffffffff16827f9301aab79e18963a94932baee4a5f8ce91c80e552e8c5b01935859c1697595f48686604051613bbb92919061594b565b60405180910390a45050505050565b7f000000000000000000000000000000000000000000000000000000000000000073ffffffffffffffffffffffffffffffffffffffff163073ffffffffffffffffffffffffffffffffffffffff161480613c7757507f000000000000000000000000000000000000000000000000000000000000000073ffffffffffffffffffffffffffffffffffffffff16613c5e613f9a565b73ffffffffffffffffffffffffffffffffffffffff1614155b15613cae576040517fe07c8dba00000000000000000000000000000000000000000000000000000000815260040160405180910390fd5b565b613cb86137fe565b50565b8173ffffffffffffffffffffffffffffffffffffffff166352d1902d6040518163ffffffff1660e01b8152600401602060405180830381865afa925050508015613d2357506040513d601f19601f82011682018060405250810190613d2091906159a7565b60015b613d6457816040517f4c9c8ce3000000000000000000000000000000000000000000000000000000008152600401613d5b9190614e06565b60405180910390fd5b7f360894a13ba1a3210667c828492db98dca3e2076cc3735a920a3ca505d382bbc60001b8114613dcb57806040517faa1d49a4000000000000000000000000000000000000000000000000000000008152600401613dc29190614c65565b60405180910390fd5b613dd58383613ff1565b505050565b7f000000000000000000000000000000000000000000000000000000000000000073ffffffffffffffffffffffffffffffffffffffff163073ffffffffffffffffffffffffffffffffffffffff1614613e5f576040517fe07c8dba00000000000000000000000000000000000000000000000000000000815260040160405180910390fd5b565b6000613e6b613f38565b905060008160000160009054906101000a900473ffffffffffffffffffffffffffffffffffffffff169050828260000160006101000a81548173ffffffffffffffffffffffffffffffffffffffff021916908373ffffffffffffffffffffffffffffffffffffffff1602179055508273ffffffffffffffffffffffffffffffffffffffff168173ffffffffffffffffffffffffffffffffffffffff167f8be0079c531659141344cd1fd0a4f28419497f9722a3daafe3b4186f6b6457e060405160405180910390a3505050565b60007f9016d09d72d40fdae2fd8ceac6b6234c7706214fd39c1cd1e609a0528c199300905090565b600080613f6b614064565b90508091505090565b613f7c61408f565b613f85816140cf565b50565b613f9061408f565b565b600033905090565b6000613fc87f360894a13ba1a3210667c828492db98dca3e2076cc3735a920a3ca505d382bbc60001b6140e3565b60000160009054906101000a900473ffffffffffffffffffffffffffffffffffffffff16905090565b613ffa826140ed565b8173ffffffffffffffffffffffffffffffffffffffff167fbc7cd75a20ee27fd9adebab32041f755214dbc6bffa90cc0225b39da2e5c2d3b60405160405180910390a26000815111156140575761405182826141ba565b50614060565b61405f61423e565b5b5050565b60007ff0c57e16840df040f15088dc2f81fe391c3923bec73e23a9662efc9c229c6a0060001b905090565b61409761427b565b6140cd576040517fd7e6bcf800000000000000000000000000000000000000000000000000000000815260040160405180910390fd5b565b6140d761408f565b6140e08161429b565b50565b6000819050919050565b60008173ffffffffffffffffffffffffffffffffffffffff163b0361414957806040517f4c9c8ce30000000000000000000000000000000000000000000000000000000081526004016141409190614e06565b60405180910390fd5b806141767f360894a13ba1a3210667c828492db98dca3e2076cc3735a920a3ca505d382bbc60001b6140e3565b60000160006101000a81548173ffffffffffffffffffffffffffffffffffffffff021916908373ffffffffffffffffffffffffffffffffffffffff16021790555050565b60606000808473ffffffffffffffffffffffffffffffffffffffff16846040516141e49190615a1b565b600060405180830381855af49150503d806000811461421f576040519150601f19603f3d011682016040523d82523d6000602084013e614224565b606091505b50915091506142348583836142af565b9250505092915050565b6000341115614279576040517fb398979f00000000000000000000000000000000000000000000000000000000815260040160405180910390fd5b565b6000614285613f60565b60000160089054906101000a900460ff16905090565b6142a361408f565b6142ac8161433e565b50565b6060826142c4576142bf826143c4565b614336565b600082511480156142ec575060008473ffffffffffffffffffffffffffffffffffffffff163b145b1561432e57836040517f9996b3150000000000000000000000000000000000000000000000000000000081526004016143259190614e06565b60405180910390fd5b819050614337565b5b9392505050565b61434661408f565b600073ffffffffffffffffffffffffffffffffffffffff168173ffffffffffffffffffffffffffffffffffffffff16036143b85760006040517f1e4fbdf70000000000000000000000000000000000000000000000000000000081526004016143af9190614e06565b60405180910390fd5b6143c181613e61565b50565b6000815111156143d657805160208201fd5b6040517fd6bda27500000000000000000000000000000000000000000000000000000000815260040160405180910390fd5b6040518060a0016040528060008152602001600073ffffffffffffffffffffffffffffffffffffffff168152602001600073ffffffffffffffffffffffffffffffffffffffff168152602001606081526020016000600281111561446f5761446e614847565b5b81525090565b6040518060e00160405280600081526020016060815260200160008152602001600073ffffffffffffffffffffffffffffffffffffffff168152602001600073ffffffffffffffffffffffffffffffffffffffff168152602001600015158152602001606081525090565b6000604051905090565b600080fd5b600080fd5b600073ffffffffffffffffffffffffffffffffffffffff82169050919050565b600061451f826144f4565b9050919050565b61452f81614514565b811461453a57600080fd5b50565b60008135905061454c81614526565b92915050565b600080fd5b600080fd5b6000601f19601f8301169050919050565b7f4e487b7100000000000000000000000000000000000000000000000000000000600052604160045260246000fd5b6145a58261455c565b810181811067ffffffffffffffff821117156145c4576145c361456d565b5b80604052505050565b60006145d76144e0565b90506145e3828261459c565b919050565b600067ffffffffffffffff8211156146035761460261456d565b5b61460c8261455c565b9050602081019050919050565b82818337600083830152505050565b600061463b614636846145e8565b6145cd565b90508281526020810184848401111561465757614656614557565b5b614662848285614619565b509392505050565b600082601f83011261467f5761467e614552565b5b813561468f848260208601614628565b91505092915050565b600080604083850312156146af576146ae6144ea565b5b60006146bd8582860161453d565b925050602083013567ffffffffffffffff8111156146de576146dd6144ef565b5b6146ea8582860161466a565b9150509250929050565b6000819050919050565b614707816146f4565b811461471257600080fd5b50565b600081359050614724816146fe565b92915050565b60008060408385031215614741576147406144ea565b5b600061474f85828601614715565b925050602061476085828601614715565b9150509250929050565b60008060408385031215614781576147806144ea565b5b600061478f8582860161453d565b92505060206147a085828601614715565b9150509250929050565b6147b3816146f4565b82525050565b6147c281614514565b82525050565b600081519050919050565b600082825260208201905092915050565b60005b838110156148025780820151818401526020810190506147e7565b60008484015250505050565b6000614819826147c8565b61482381856147d3565b93506148338185602086016147e4565b61483c8161455c565b840191505092915050565b7f4e487b7100000000000000000000000000000000000000000000000000000000600052602160045260246000fd5b6003811061488757614886614847565b5b50565b600081905061489882614876565b919050565b60006148a88261488a565b9050919050565b6148b88161489d565b82525050565b600060a0820190506148d360008301886147aa565b6148e060208301876147b9565b6148ed60408301866147b9565b81810360608301526148ff818561480e565b905061490e60808301846148af565b9695505050505050565b60006020828403121561492e5761492d6144ea565b5b600061493c8482850161453d565b91505092915050565b6000606082019050818103600083015261495f818661480e565b90508181036020830152614973818561480e565b90508181036040830152614987818461480e565b9050949350505050565b6008811061499e57600080fd5b50565b6000813590506149b081614991565b92915050565b600080604083850312156149cd576149cc6144ea565b5b600083013567ffffffffffffffff8111156149eb576149ea6144ef565b5b6149f78582860161466a565b9250506020614a08858286016149a1565b9150509250929050565b600060208284031215614a2857614a276144ea565b5b6000614a3684828501614715565b91505092915050565b60008115159050919050565b614a5481614a3f565b82525050565b600060e082019050614a6f600083018a6147aa565b8181036020830152614a81818961480e565b9050614a9060408301886147aa565b614a9d60608301876147b9565b614aaa60808301866147b9565b614ab760a0830185614a4b565b81810360c0830152614ac9818461480e565b905098975050505050505050565b60008060408385031215614aee57614aed6144ea565b5b600083013567ffffffffffffffff811115614b0c57614b0b6144ef565b5b614b188582860161466a565b925050602083013567ffffffffffffffff811115614b3957614b386144ef565b5b614b458582860161466a565b9150509250929050565b600067ffffffffffffffff821115614b6a57614b6961456d565b5b614b738261455c565b9050602081019050919050565b6000614b93614b8e84614b4f565b6145cd565b905082815260208101848484011115614baf57614bae614557565b5b614bba848285614619565b509392505050565b600082601f830112614bd757614bd6614552565b5b8135614be7848260208601614b80565b91505092915050565b60008060408385031215614c0757614c066144ea565b5b6000614c158582860161453d565b925050602083013567ffffffffffffffff811115614c3657614c356144ef565b5b614c4285828601614bc2565b9150509250929050565b6000819050919050565b614c5f81614c4c565b82525050565b6000602082019050614c7a6000830184614c56565b92915050565b6000602082019050614c9560008301846147aa565b92915050565b600081519050919050565b600082825260208201905092915050565b6000819050602082019050919050565b614cd0816146f4565b82525050565b6000614ce28383614cc7565b60208301905092915050565b6000602082019050919050565b6000614d0682614c9b565b614d108185614ca6565b9350614d1b83614cb7565b8060005b83811015614d4c578151614d338882614cd6565b9750614d3e83614cee565b925050600181019050614d1f565b5085935050505092915050565b60006020820190508181036000830152614d738184614cfb565b905092915050565b600080600060608486031215614d9457614d936144ea565b5b6000614da28682870161453d565b935050602084013567ffffffffffffffff811115614dc357614dc26144ef565b5b614dcf8682870161466a565b925050604084013567ffffffffffffffff811115614df057614def6144ef565b5b614dfc8682870161466a565b9150509250925092565b6000602082019050614e1b60008301846147b9565b92915050565b614e2a81614514565b82525050565b600082825260208201905092915050565b6000614e4c826147c8565b614e568185614e30565b9350614e668185602086016147e4565b614e6f8161455c565b840191505092915050565b614e838161489d565b82525050565b600060a083016000830151614ea16000860182614cc7565b506020830151614eb46020860182614e21565b506040830151614ec76040860182614e21565b5060608301518482036060860152614edf8282614e41565b9150506080830151614ef46080860182614e7a565b508091505092915050565b60006020820190508181036000830152614f198184614e89565b905092915050565b60088110614f3257614f31614847565b5b50565b6000819050614f4382614f21565b919050565b6000614f5382614f35565b9050919050565b614f6381614f48565b82525050565b600060a082019050614f7e60008301886147b9565b8181036020830152614f90818761480e565b9050614f9f6040830186614f5a565b614fac6060830185614a4b565b8181036080830152614fbe818461480e565b90509695505050505050565b600080600060608486031215614fe357614fe26144ea565b5b6000614ff186828701614715565b93505060206150028682870161453d565b925050604061501386828701614715565b9150509250925092565b60006020820190508181036000830152615037818461480e565b905092915050565b600080fd5b600080fd5b60008083601f84011261505f5761505e614552565b5b8235905067ffffffffffffffff81111561507c5761507b61503f565b5b60208301915083600182028301111561509857615097615044565b5b9250929050565b600080600080600080606087890312156150bc576150bb6144ea565b5b600087013567ffffffffffffffff8111156150da576150d96144ef565b5b6150e689828a01615049565b9650965050602087013567ffffffffffffffff811115615109576151086144ef565b5b61511589828a01615049565b9450945050604087013567ffffffffffffffff811115615138576151376144ef565b5b61514489828a01615049565b92509250509295509295509295565b6000806040838503121561516a576151696144ea565b5b600061517885828601614715565b92505060206151898582860161453d565b9150509250929050565b6000602082840312156151a9576151a86144ea565b5b600082013567ffffffffffffffff8111156151c7576151c66144ef565b5b6151d38482850161466a565b91505092915050565b6151e581614a3f565b82525050565b600060e0830160008301516152036000860182614cc7565b506020830151848203602086015261521b8282614e41565b91505060408301516152306040860182614cc7565b5060608301516152436060860182614e21565b5060808301516152566080860182614e21565b5060a083015161526960a08601826151dc565b5060c083015184820360c08601526152818282614e41565b9150508091505092915050565b600060208201905081810360008301526152a881846151eb565b905092915050565b60006020820190506152c56000830184614a4b565b92915050565b7f4e487b7100000000000000000000000000000000000000000000000000000000600052602260045260246000fd5b6000600282049050600182168061531257607f821691505b602082108103615325576153246152cb565b5b50919050565b60008190508160005260206000209050919050565b60006020601f8301049050919050565b600082821b905092915050565b60006008830261538d7fffffffffffffffffffffffffffffffffffffffffffffffffffffffffffffffff82615350565b6153978683615350565b95508019841693508086168417925050509392505050565b6000819050919050565b60006153d46153cf6153ca846146f4565b6153af565b6146f4565b9050919050565b6000819050919050565b6153ee836153b9565b6154026153fa826153db565b84845461535d565b825550505050565b600090565b61541761540a565b6154228184846153e5565b505050565b5b818110156154465761543b60008261540f565b600181019050615428565b5050565b601f82111561548b5761545c8161532b565b61546584615340565b81016020851015615474578190505b61548861548085615340565b830182615427565b50505b505050565b600082821c905092915050565b60006154ae60001984600802615490565b1980831691505092915050565b60006154c7838361549d565b9150826002028217905092915050565b6154e0826147c8565b67ffffffffffffffff8111156154f9576154f861456d565b5b61550382546152fa565b61550e82828561544a565b600060209050601f831160018114615541576000841561552f578287015190505b61553985826154bb565b8655506155a1565b601f19841661554f8661532b565b60005b8281101561557757848901518255600182019150602085019450602081019050615552565b868310156155945784890151615590601f89168261549d565b8355505b6001600288020188555050505b505050505050565b600060408201905081810360008301526155c3818561480e565b90506155d26020830184614f5a565b9392505050565b7f4e487b7100000000000000000000000000000000000000000000000000000000600052603260045260246000fd5b7f4e487b7100000000000000000000000000000000000000000000000000000000600052601160045260246000fd5b6000615642826146f4565b915061564d836146f4565b925082820261565b816146f4565b9150828204841483151761567257615671615608565b5b5092915050565b6000615684826146f4565b915061568f836146f4565b92508282019050808211156156a7576156a6615608565b5b92915050565b60006156b8826146f4565b91507fffffffffffffffffffffffffffffffffffffffffffffffffffffffffffffffff82036156ea576156e9615608565b5b600182019050919050565b7f43616e6e6f742072656769737465722061732041646d696e206469726563746c60008201527f792e000000000000000000000000000000000000000000000000000000000000602082015250565b60006157516022836147d3565b915061575c826156f5565b604082019050919050565b6000602082019050818103600083015261578081615744565b9050919050565b600082905092915050565b61579c8383615787565b67ffffffffffffffff8111156157b5576157b461456d565b5b6157bf82546152fa565b6157ca82828561544a565b6000601f8311600181146157f957600084156157e7578287013590505b6157f185826154bb565b865550615859565b601f1984166158078661532b565b60005b8281101561582f5784890135825560018201915060208501945060208101905061580a565b8683101561584c5784890135615848601f89168261549d565b8355505b6001600288020188555050505b50505050505050565b600061586e83856147d3565b935061587b838584614619565b6158848361455c565b840190509392505050565b600060608201905081810360008301526158aa81888a615862565b905081810360208301526158bf818688615862565b905081810360408301526158d4818486615862565b9050979650505050505050565b6000819050919050565b600067ffffffffffffffff82169050919050565b600061591a615915615910846158e1565b6153af565b6158eb565b9050919050565b61592a816158ff565b82525050565b60006020820190506159456000830184615921565b92915050565b60006040820190508181036000830152615965818561480e565b90506159746020830184614a4b565b9392505050565b61598481614c4c565b811461598f57600080fd5b50565b6000815190506159a18161597b565b92915050565b6000602082840312156159bd576159bc6144ea565b5b60006159cb84828501615992565b91505092915050565b600081519050919050565b600081905092915050565b60006159f5826159d4565b6159ff81856159df565b9350615a0f8185602086016147e4565b80840191505092915050565b6000615a2782846159ea565b91508190509291505056fea2646970667358221220db628d2770ff64d11a848fa760aa0f65333f8be80e8dbb4cc3cec177dada1c9164736f6c63430008180033",
  "linkReferences": {},
  "deployedLinkReferences": {}
}