{
  "_format": "hh-sol-artifact-1",
  "contractName": "MedicalRecords",
  "sourceName": "contracts/MedicalRecords.sol",
  "abi": [
    {
      "inputs": [],
      "stateMutability": "nonpayable",
      "type": "constructor"
    },
    {
      "inputs": [],
      "name": "AccessAlreadyGranted",
      "type": "error"
    },
    {
      "inputs": [
        {
          "internalType": "address",
          "name": "target",
          "type": "address"
        }
      ],
      "name": "AddressEmptyCode",
      "type": "error"
    },
    {
      "inputs": [],
      "name": "AlreadyRegistered",
      "type": "error"
    },
    {
      "inputs": [],
      "name": "CannotRegisterAsAdmin",
      "type": "error"
    },
    {
      "inputs": [
        {
          "internalType": "address",
          "name": "implementation",
          "type": "address"
        }
      ],
      "name": "ERC1967InvalidImplementation",
      "type": "error"
    },
    {
      "inputs": [],
      "name": "ERC1967NonPayable",
      "type": "error"
    },
    {
      "inputs": [],
      "name": "FailedCall",
      "type": "error"
    },
    {
      "inputs": [],
      "name": "HospitalNotVerified",
      "type": "error"
    },
    {
      "inputs": [],
      "name": "InputArrayLengthMismatch",
      "type": "error"
    },
    {
      "inputs": [],
      "name": "InvalidInitialization",
      "type": "error"
    },
    {
      "inputs": [],
      "name": "NoAccessToRevoke",
      "type": "error"
    },
    {
      "inputs": [],
      "name": "NotAPatient",
      "type": "error"
    },
    {
      "inputs": [],
      "name": "NotAVerifiedProfessional",
      "type": "error"
    },
    {
      "inputs": [],
      "name": "NotAnInsuranceProvider",
      "type": "error"
    },
    {
      "inputs": [],
      "name": "NotAuthorized",
      "type": "error"
    },
    {
      "inputs": [],
      "name": "NotHospitalAdmin",
      "type": "error"
    },
    {
      "inputs": [],
      "name": "NotInitializing",
      "type": "error"
    },
    {
      "inputs": [],
      "name": "NotRecordOwner",
      "type": "error"
    },
    {
      "inputs": [],
      "name": "NotRegistered",
      "type": "error"
    },
    {
      "inputs": [],
      "name": "NotSuperAdmin",
      "type": "error"
    },
    {
      "inputs": [
        {
          "internalType": "address",
          "name": "owner",
          "type": "address"
        }
      ],
      "name": "OwnableInvalidOwner",
      "type": "error"
    },
    {
      "inputs": [
        {
          "internalType": "address",
          "name": "account",
          "type": "address"
        }
      ],
      "name": "OwnableUnauthorizedAccount",
      "type": "error"
    },
    {
      "inputs": [],
      "name": "PublicKeyAlreadySet",
      "type": "error"
    },
    {
      "inputs": [],
      "name": "RecordNotFound",
      "type": "error"
    },
    {
      "inputs": [],
      "name": "RequestNotFound",
      "type": "error"
    },
    {
      "inputs": [],
      "name": "RequestNotFoundOrAlreadyHandled",
      "type": "error"
    },
    {
      "inputs": [],
      "name": "RoleNotAllowed",
      "type": "error"
    },
    {
      "inputs": [],
      "name": "UUPSUnauthorizedCallContext",
      "type": "error"
    },
    {
      "inputs": [
        {
          "internalType": "bytes32",
          "name": "slot",
          "type": "bytes32"
        }
      ],
      "name": "UUPSUnsupportedProxiableUUID",
      "type": "error"
    },
    {
      "inputs": [],
      "name": "UserAlreadyInHospital",
      "type": "error"
    },
    {
      "inputs": [],
      "name": "UserNotFound",
      "type": "error"
    },
    {
      "inputs": [],
      "name": "UserNotInHospital",
      "type": "error"
    },
    {
      "anonymous": false,
      "inputs": [
        {
          "indexed": true,
          "internalType": "uint256",
          "name": "recordId",
          "type": "uint256"
        },
        {
          "indexed": true,
          "internalType": "address",
          "name": "owner",
          "type": "address"
        },
        {
          "indexed": true,
          "internalType": "address",
          "name": "grantee",
          "type": "address"
        },
        {
          "indexed": false,
          "internalType": "uint256",
          "name": "expiration",
          "type": "uint256"
        },
        {
          "indexed": false,
          "internalType": "bytes",
          "name": "encryptedDek",
          "type": "bytes"
        }
      ],
      "name": "AccessGranted",
      "type": "event"
    },
    {
      "anonymous": false,
      "inputs": [
        {
          "indexed": true,
          "internalType": "uint256",
          "name": "requestId",
          "type": "uint256"
        },
        {
          "indexed": true,
          "internalType": "address",
          "name": "patient",
          "type": "address"
        },
        {
          "indexed": true,
          "internalType": "address",
          "name": "provider",
          "type": "address"
        },
        {
          "indexed": false,
          "internalType": "string",
          "name": "claimId",
          "type": "string"
        }
      ],
      "name": "AccessRequested",
      "type": "event"
    },
    {
      "anonymous": false,
      "inputs": [
        {
          "indexed": true,
          "internalType": "uint256",
          "name": "hospitalId",
          "type": "uint256"
        }
      ],
      "name": "HospitalRevoked",
      "type": "event"
    },
    {
      "anonymous": false,
      "inputs": [
        {
          "indexed": true,
          "internalType": "uint256",
          "name": "hospitalId",
          "type": "uint256"
        },
        {
          "indexed": true,
          "internalType": "address",
          "name": "adminAddress",
          "type": "address"
        }
      ],
      "name": "HospitalVerified",
      "type": "event"
    },
    {
      "anonymous": false,
      "inputs": [
        {
          "indexed": false,
          "internalType": "uint64",
          "name": "version",
          "type": "uint64"
        }
      ],
      "name": "Initialized",
      "type": "event"
    },
    {
      "anonymous": false,
      "inputs": [
        {
          "indexed": true,
          "internalType": "address",
          "name": "previousOwner",
          "type": "address"
        },
        {
          "indexed": true,
          "internalType": "address",
          "name": "newOwner",
          "type": "address"
        }
      ],
      "name": "OwnershipTransferred",
      "type": "event"
    },
    {
      "anonymous": false,
      "inputs": [
        {
          "indexed": true,
          "internalType": "address",
          "name": "user",
          "type": "address"
        },
        {
          "indexed": false,
          "internalType": "string",
          "name": "name",
          "type": "string"
        },
        {
          "indexed": false,
          "internalType": "string",
          "name": "contactInfo",
          "type": "string"
        },
        {
          "indexed": false,
          "internalType": "string",
          "name": "profileMetadataURI",
          "type": "string"
        }
      ],
      "name": "ProfileUpdated",
      "type": "event"
    },
    {
      "anonymous": false,
      "inputs": [
        {
          "indexed": true,
          "internalType": "address",
          "name": "user",
          "type": "address"
        }
      ],
      "name": "PublicKeySaved",
      "type": "event"
    },
    {
      "anonymous": false,
      "inputs": [
        {
          "indexed": true,
          "internalType": "uint256",
          "name": "recordId",
          "type": "uint256"
        },
        {
          "indexed": true,
          "internalType": "address",
          "name": "professionalAddress",
          "type": "address"
        }
      ],
      "name": "RecordAccessRevoked",
      "type": "event"
    },
    {
      "anonymous": false,
      "inputs": [
        {
          "indexed": true,
          "internalType": "uint256",
          "name": "recordId",
          "type": "uint256"
        },
        {
          "indexed": true,
          "internalType": "address",
          "name": "patient",
          "type": "address"
        },
        {
          "indexed": true,
          "internalType": "address",
          "name": "uploadedBy",
          "type": "address"
        },
        {
          "indexed": false,
          "internalType": "string",
          "name": "category",
          "type": "string"
        },
        {
          "indexed": false,
          "internalType": "bool",
          "name": "isVerified",
          "type": "bool"
        },
        {
          "indexed": false,
          "internalType": "bytes",
          "name": "encryptedKeyForPatient",
          "type": "bytes"
        },
        {
          "indexed": false,
          "internalType": "bytes",
          "name": "encryptedKeyForHospital",
          "type": "bytes"
        }
      ],
      "name": "RecordAdded",
      "type": "event"
    },
    {
      "anonymous": false,
      "inputs": [
        {
          "indexed": true,
          "internalType": "uint256",
          "name": "hospitalId",
          "type": "uint256"
        },
        {
          "indexed": false,
          "internalType": "string",
          "name": "name",
          "type": "string"
        },
        {
          "indexed": true,
          "internalType": "address",
          "name": "requester",
          "type": "address"
        }
      ],
      "name": "RegistrationRequested",
      "type": "event"
    },
    {
      "anonymous": false,
      "inputs": [
        {
          "indexed": true,
          "internalType": "uint256",
          "name": "requestId",
          "type": "uint256"
        },
        {
          "indexed": true,
          "internalType": "address",
          "name": "patient",
          "type": "address"
        },
        {
          "indexed": false,
          "internalType": "uint256",
          "name": "accessDuration",
          "type": "uint256"
        }
      ],
      "name": "RequestApproved",
      "type": "event"
    },
    {
      "anonymous": false,
      "inputs": [
        {
          "indexed": true,
          "internalType": "address",
          "name": "user",
          "type": "address"
        },
        {
          "indexed": false,
          "internalType": "enum Storage.Role",
          "name": "role",
          "type": "uint8"
        },
        {
          "indexed": true,
          "internalType": "uint256",
          "name": "hospitalId",
          "type": "uint256"
        }
      ],
      "name": "RoleAssigned",
      "type": "event"
    },
    {
      "anonymous": false,
      "inputs": [
        {
          "indexed": true,
          "internalType": "address",
          "name": "user",
          "type": "address"
        },
        {
          "indexed": false,
          "internalType": "enum Storage.Role",
          "name": "role",
          "type": "uint8"
        },
        {
          "indexed": true,
          "internalType": "uint256",
          "name": "hospitalId",
          "type": "uint256"
        }
      ],
      "name": "RoleRevoked",
      "type": "event"
    },
    {
      "anonymous": false,
      "inputs": [
        {
          "indexed": true,
          "internalType": "address",
          "name": "implementation",
          "type": "address"
        }
      ],
      "name": "Upgraded",
      "type": "event"
    },
    {
      "anonymous": false,
      "inputs": [
        {
          "indexed": true,
          "internalType": "address",
          "name": "userAddress",
          "type": "address"
        },
        {
          "indexed": false,
          "internalType": "string",
          "name": "name",
          "type": "string"
        },
        {
          "indexed": false,
          "internalType": "enum Storage.Role",
          "name": "role",
          "type": "uint8"
        }
      ],
      "name": "UserRegistered",
      "type": "event"
    },
    {
      "anonymous": false,
      "inputs": [
        {
          "indexed": true,
          "internalType": "address",
          "name": "admin",
          "type": "address"
        },
        {
          "indexed": true,
          "internalType": "address",
          "name": "userAddress",
          "type": "address"
        }
      ],
      "name": "UserVerified",
      "type": "event"
    },
    {
      "inputs": [],
      "name": "UPGRADE_INTERFACE_VERSION",
      "outputs": [
        {
          "internalType": "string",
          "name": "",
          "type": "string"
        }
      ],
      "stateMutability": "view",
      "type": "function"
    },
    {
      "inputs": [
        {
          "internalType": "string",
          "name": "_ipfsHash",
          "type": "string"
        },
        {
          "internalType": "string",
          "name": "_category",
          "type": "string"
        },
        {
          "internalType": "bytes",
          "name": "_encryptedKeyForPatient",
          "type": "bytes"
        }
      ],
      "name": "addSelfUploadedRecord",
      "outputs": [],
      "stateMutability": "nonpayable",
      "type": "function"
    },
    {
      "inputs": [
        {
          "internalType": "address",
          "name": "_patient",
          "type": "address"
        },
        {
          "internalType": "string",
          "name": "_ipfsHash",
          "type": "string"
        },
        {
          "internalType": "string",
          "name": "_category",
          "type": "string"
        },
        {
          "internalType": "bytes",
          "name": "_encryptedKeyForPatient",
          "type": "bytes"
        },
        {
          "internalType": "bytes",
          "name": "_encryptedKeyForHospital",
          "type": "bytes"
        }
      ],
      "name": "addVerifiedRecord",
      "outputs": [],
      "stateMutability": "nonpayable",
      "type": "function"
    },
    {
      "inputs": [
        {
          "internalType": "uint256",
          "name": "_requestId",
          "type": "uint256"
        },
        {
          "internalType": "uint256",
          "name": "_durationInDays",
          "type": "uint256"
        }
      ],
      "name": "approveRequest",
      "outputs": [],
      "stateMutability": "nonpayable",
      "type": "function"
    },
    {
      "inputs": [
        {
          "internalType": "address",
          "name": "user",
          "type": "address"
        },
        {
          "internalType": "enum Storage.Role",
          "name": "role",
          "type": "uint8"
        },
        {
          "internalType": "uint256",
          "name": "hospitalId",
          "type": "uint256"
        }
      ],
      "name": "assignRole",
      "outputs": [],
      "stateMutability": "nonpayable",
      "type": "function"
    },
    {
      "inputs": [
        {
          "internalType": "uint256",
          "name": "_recordId",
          "type": "uint256"
        },
        {
          "internalType": "address",
          "name": "_viewer",
          "type": "address"
        }
      ],
      "name": "checkRecordAccess",
      "outputs": [
        {
          "internalType": "bool",
          "name": "",
          "type": "bool"
        }
      ],
      "stateMutability": "view",
      "type": "function"
    },
    {
      "inputs": [
        {
          "internalType": "address",
          "name": "_patientAddress",
          "type": "address"
        }
      ],
      "name": "getPatientRecordIds",
      "outputs": [
        {
          "internalType": "uint256[]",
          "name": "",
          "type": "uint256[]"
        }
      ],
      "stateMutability": "view",
      "type": "function"
    },
    {
      "inputs": [
        {
          "internalType": "address",
          "name": "_patientAddress",
          "type": "address"
        },
        {
          "internalType": "uint256",
          "name": "_index",
          "type": "uint256"
        }
      ],
      "name": "getPatientRequestAtIndex",
      "outputs": [
        {
          "components": [
            {
              "internalType": "uint256",
              "name": "id",
              "type": "uint256"
            },
            {
              "internalType": "address",
              "name": "patient",
              "type": "address"
            },
            {
              "internalType": "address",
              "name": "provider",
              "type": "address"
            },
            {
              "internalType": "string",
              "name": "claimId",
              "type": "string"
            },
            {
              "internalType": "enum Storage.RequestStatus",
              "name": "status",
              "type": "uint8"
            }
          ],
          "internalType": "struct Storage.AccessRequest",
          "name": "",
          "type": "tuple"
        }
      ],
      "stateMutability": "view",
      "type": "function"
    },
    {
      "inputs": [
        {
          "internalType": "address",
          "name": "_patientAddress",
          "type": "address"
        }
      ],
      "name": "getPatientRequestsCount",
      "outputs": [
        {
          "internalType": "uint256",
          "name": "",
          "type": "uint256"
        }
      ],
      "stateMutability": "view",
      "type": "function"
    },
    {
      "inputs": [
        {
          "internalType": "uint256",
          "name": "_recordId",
          "type": "uint256"
        }
      ],
      "name": "getRecordById",
      "outputs": [
        {
          "components": [
            {
              "internalType": "uint256",
              "name": "id",
              "type": "uint256"
            },
            {
              "internalType": "string",
              "name": "ipfsHash",
              "type": "string"
            },
            {
              "internalType": "uint256",
              "name": "timestamp",
              "type": "uint256"
            },
            {
              "internalType": "address",
              "name": "uploadedBy",
              "type": "address"
            },
            {
              "internalType": "address",
              "name": "owner",
              "type": "address"
            },
            {
              "internalType": "bool",
              "name": "isVerified",
              "type": "bool"
            },
            {
              "internalType": "string",
              "name": "category",
              "type": "string"
            },
            {
              "internalType": "bytes",
              "name": "encryptedKeyForPatient",
              "type": "bytes"
            },
            {
              "internalType": "bytes",
              "name": "encryptedKeyForHospital",
              "type": "bytes"
            }
          ],
          "internalType": "struct Storage.Record",
          "name": "",
          "type": "tuple"
        }
      ],
      "stateMutability": "view",
      "type": "function"
    },
    {
      "inputs": [
        {
          "internalType": "uint256[]",
          "name": "_recordIds",
          "type": "uint256[]"
        },
        {
          "internalType": "address",
          "name": "_grantee",
          "type": "address"
        },
        {
          "internalType": "uint256",
          "name": "_durationInDays",
          "type": "uint256"
        },
        {
          "internalType": "bytes[]",
          "name": "_encryptedDeks",
          "type": "bytes[]"
        }
      ],
      "name": "grantMultipleRecordAccess",
      "outputs": [],
      "stateMutability": "nonpayable",
      "type": "function"
    },
    {
      "inputs": [
        {
          "internalType": "uint256",
          "name": "_recordId",
          "type": "uint256"
        },
        {
          "internalType": "address",
          "name": "_grantee",
          "type": "address"
        },
        {
          "internalType": "uint256",
          "name": "_durationInDays",
          "type": "uint256"
        },
        {
          "internalType": "bytes",
          "name": "_encryptedDek",
          "type": "bytes"
        }
      ],
      "name": "grantRecordAccess",
      "outputs": [],
      "stateMutability": "nonpayable",
      "type": "function"
    },
    {
      "inputs": [],
      "name": "hospitalIdCounter",
      "outputs": [
        {
          "internalType": "uint256",
          "name": "",
          "type": "uint256"
        }
      ],
      "stateMutability": "view",
      "type": "function"
    },
    {
      "inputs": [
        {
          "internalType": "uint256",
          "name": "",
          "type": "uint256"
        }
      ],
      "name": "hospitals",
      "outputs": [
        {
          "internalType": "uint256",
          "name": "hospitalId",
          "type": "uint256"
        },
        {
          "internalType": "string",
          "name": "name",
          "type": "string"
        },
        {
          "internalType": "address",
          "name": "adminAddress",
          "type": "address"
        },
        {
          "internalType": "bool",
          "name": "isVerified",
          "type": "bool"
        }
      ],
      "stateMutability": "view",
      "type": "function"
    },
    {
      "inputs": [
        {
          "internalType": "address",
          "name": "initialOwner",
          "type": "address"
        }
      ],
      "name": "initialize",
      "outputs": [],
      "stateMutability": "nonpayable",
      "type": "function"
    },
    {
      "inputs": [],
      "name": "owner",
      "outputs": [
        {
          "internalType": "address",
          "name": "",
          "type": "address"
        }
      ],
      "stateMutability": "view",
      "type": "function"
    },
    {
      "inputs": [
        {
          "internalType": "address",
          "name": "",
          "type": "address"
        },
        {
          "internalType": "uint256",
          "name": "",
          "type": "uint256"
        }
      ],
      "name": "patientRecordIds",
      "outputs": [
        {
          "internalType": "uint256",
          "name": "",
          "type": "uint256"
        }
      ],
      "stateMutability": "view",
      "type": "function"
    },
    {
      "inputs": [
        {
          "internalType": "address",
          "name": "",
          "type": "address"
        },
        {
          "internalType": "uint256",
          "name": "",
          "type": "uint256"
        }
      ],
      "name": "patientRequests",
      "outputs": [
        {
          "internalType": "uint256",
          "name": "id",
          "type": "uint256"
        },
        {
          "internalType": "address",
          "name": "patient",
          "type": "address"
        },
        {
          "internalType": "address",
          "name": "provider",
          "type": "address"
        },
        {
          "internalType": "string",
          "name": "claimId",
          "type": "string"
        },
        {
          "internalType": "enum Storage.RequestStatus",
          "name": "status",
          "type": "uint8"
        }
      ],
      "stateMutability": "view",
      "type": "function"
    },
    {
      "inputs": [
        {
          "internalType": "address",
          "name": "",
          "type": "address"
        }
      ],
      "name": "professionalToHospitalId",
      "outputs": [
        {
          "internalType": "uint256",
          "name": "",
          "type": "uint256"
        }
      ],
      "stateMutability": "view",
      "type": "function"
    },
    {
      "inputs": [],
      "name": "proxiableUUID",
      "outputs": [
        {
          "internalType": "bytes32",
          "name": "",
          "type": "bytes32"
        }
      ],
      "stateMutability": "view",
      "type": "function"
    },
    {
      "inputs": [
        {
          "internalType": "uint256",
          "name": "",
          "type": "uint256"
        },
        {
          "internalType": "address",
          "name": "",
          "type": "address"
        }
      ],
      "name": "recordAccess",
      "outputs": [
        {
          "internalType": "uint256",
          "name": "",
          "type": "uint256"
        }
      ],
      "stateMutability": "view",
      "type": "function"
    },
    {
      "inputs": [
        {
          "internalType": "uint256",
          "name": "",
          "type": "uint256"
        }
      ],
      "name": "records",
      "outputs": [
        {
          "internalType": "uint256",
          "name": "id",
          "type": "uint256"
        },
        {
          "internalType": "string",
          "name": "ipfsHash",
          "type": "string"
        },
        {
          "internalType": "uint256",
          "name": "timestamp",
          "type": "uint256"
        },
        {
          "internalType": "address",
          "name": "uploadedBy",
          "type": "address"
        },
        {
          "internalType": "address",
          "name": "owner",
          "type": "address"
        },
        {
          "internalType": "bool",
          "name": "isVerified",
          "type": "bool"
        },
        {
          "internalType": "string",
          "name": "category",
          "type": "string"
        },
        {
          "internalType": "bytes",
          "name": "encryptedKeyForPatient",
          "type": "bytes"
        },
        {
          "internalType": "bytes",
          "name": "encryptedKeyForHospital",
          "type": "bytes"
        }
      ],
      "stateMutability": "view",
      "type": "function"
    },
    {
      "inputs": [
        {
          "internalType": "string",
          "name": "_name",
          "type": "string"
        },
        {
          "internalType": "enum Storage.Role",
          "name": "_role",
          "type": "uint8"
        }
      ],
      "name": "registerUser",
      "outputs": [],
      "stateMutability": "nonpayable",
      "type": "function"
    },
    {
      "inputs": [
        {
          "internalType": "uint256",
          "name": "",
          "type": "uint256"
        }
      ],
      "name": "registrationRequests",
      "outputs": [
        {
          "internalType": "uint256",
          "name": "hospitalId",
          "type": "uint256"
        },
        {
          "internalType": "string",
          "name": "name",
          "type": "string"
        },
        {
          "internalType": "address",
          "name": "requesterAddress",
          "type": "address"
        },
        {
          "internalType": "enum Storage.RequestStatus",
          "name": "status",
          "type": "uint8"
        }
      ],
      "stateMutability": "view",
      "type": "function"
    },
    {
      "inputs": [],
      "name": "renounceOwnership",
      "outputs": [],
      "stateMutability": "nonpayable",
      "type": "function"
    },
    {
      "inputs": [
        {
          "internalType": "address",
          "name": "_patientAddress",
          "type": "address"
        },
        {
          "internalType": "string",
          "name": "_claimId",
          "type": "string"
        }
      ],
      "name": "requestAccess",
      "outputs": [],
      "stateMutability": "nonpayable",
      "type": "function"
    },
    {
      "inputs": [
        {
          "internalType": "string",
          "name": "hospitalName",
          "type": "string"
        }
      ],
      "name": "requestRegistration",
      "outputs": [],
      "stateMutability": "nonpayable",
      "type": "function"
    },
    {
      "inputs": [
        {
          "internalType": "uint256",
          "name": "hospitalId",
          "type": "uint256"
        }
      ],
      "name": "revokeHospital",
      "outputs": [],
      "stateMutability": "nonpayable",
      "type": "function"
    },
    {
      "inputs": [
        {
          "internalType": "uint256",
          "name": "recordId",
          "type": "uint256"
        },
        {
          "internalType": "address",
          "name": "professionalAddress",
          "type": "address"
        }
      ],
      "name": "revokeRecordAccess",
      "outputs": [],
      "stateMutability": "nonpayable",
      "type": "function"
    },
    {
      "inputs": [
        {
          "internalType": "address",
          "name": "user",
          "type": "address"
        },
        {
          "internalType": "enum Storage.Role",
          "name": "role",
          "type": "uint8"
        },
        {
          "internalType": "uint256",
          "name": "hospitalId",
          "type": "uint256"
        }
      ],
      "name": "revokeRole",
      "outputs": [],
      "stateMutability": "nonpayable",
      "type": "function"
    },
    {
      "inputs": [
        {
          "internalType": "string",
          "name": "_publicKey",
          "type": "string"
        }
      ],
      "name": "savePublicKey",
      "outputs": [],
      "stateMutability": "nonpayable",
      "type": "function"
    },
    {
      "inputs": [
        {
          "internalType": "address",
          "name": "newOwner",
          "type": "address"
        }
      ],
      "name": "transferOwnership",
      "outputs": [],
      "stateMutability": "nonpayable",
      "type": "function"
    },
    {
      "inputs": [
        {
          "internalType": "string",
          "name": "_name",
          "type": "string"
        },
        {
          "internalType": "string",
          "name": "_contactInfo",
          "type": "string"
        },
        {
          "internalType": "string",
          "name": "_profileMetadataURI",
          "type": "string"
        }
      ],
      "name": "updateUserProfile",
      "outputs": [],
      "stateMutability": "nonpayable",
      "type": "function"
    },
    {
      "inputs": [
        {
          "internalType": "address",
          "name": "newImplementation",
          "type": "address"
        },
        {
          "internalType": "bytes",
          "name": "data",
          "type": "bytes"
        }
      ],
      "name": "upgradeToAndCall",
      "outputs": [],
      "stateMutability": "payable",
      "type": "function"
    },
    {
      "inputs": [
        {
          "internalType": "address",
          "name": "",
          "type": "address"
        }
      ],
      "name": "userProfiles",
      "outputs": [
        {
          "internalType": "string",
          "name": "name",
          "type": "string"
        },
        {
          "internalType": "string",
          "name": "contactInfo",
          "type": "string"
        },
        {
          "internalType": "string",
          "name": "profileMetadataURI",
          "type": "string"
        }
      ],
      "stateMutability": "view",
      "type": "function"
    },
    {
      "inputs": [
        {
          "internalType": "address",
          "name": "",
          "type": "address"
        }
      ],
      "name": "userToHospital",
      "outputs": [
        {
          "internalType": "uint256",
          "name": "",
          "type": "uint256"
        }
      ],
      "stateMutability": "view",
      "type": "function"
    },
    {
      "inputs": [
        {
          "internalType": "address",
          "name": "",
          "type": "address"
        }
      ],
      "name": "users",
      "outputs": [
        {
          "internalType": "address",
          "name": "walletAddress",
          "type": "address"
        },
        {
          "internalType": "string",
          "name": "name",
          "type": "string"
        },
        {
          "internalType": "enum Storage.Role",
          "name": "role",
          "type": "uint8"
        },
        {
          "internalType": "bool",
          "name": "isVerified",
          "type": "bool"
        },
        {
          "internalType": "string",
          "name": "publicKey",
          "type": "string"
        }
      ],
      "stateMutability": "view",
      "type": "function"
    },
    {
      "inputs": [
        {
          "internalType": "uint256",
          "name": "hospitalId",
          "type": "uint256"
        },
        {
          "internalType": "address",
          "name": "adminAddress",
          "type": "address"
        }
      ],
      "name": "verifyHospital",
      "outputs": [],
      "stateMutability": "nonpayable",
      "type": "function"
    }
  ],
  "bytecode": "0x60a0604052306080523480156200001557600080fd5b506200002062000026565b620000da565b7ff0c57e16840df040f15088dc2f81fe391c3923bec73e23a9662efc9c229c6a00805468010000000000000000900460ff1615620000775760405163f92ee8a960e01b815260040160405180910390fd5b80546001600160401b0390811614620000d75780546001600160401b0319166001600160401b0390811782556040519081527fc7f505b2f371ae2175ee4913f4499e1f2633a7b5936321eed1cdaeb6115181d29060200160405180910390a15b50565b6080516145b8620001046000396000818161302d01528181613056015261319701526145b86000f3fe6080604052600436106102255760003560e01c80639afd8efe11610123578063c4d66de8116100ab578063e6e8c76b1161006f578063e6e8c76b1461071c578063e75b8b2314610749578063ea4d598e14610776578063f2fde38b14610796578063f7905138146107b657600080fd5b8063c4d66de81461067c578063c79a95861461069c578063cbf47a7e146106bc578063d8eb8e90146106dc578063e699ffcd146106fc57600080fd5b8063b8604fba116100f2578063b8604fba146105c4578063bace0290146105e4578063beccc1c814610604578063c3f1a94914610624578063c459a8ce1461064457600080fd5b80639afd8efe14610508578063a00977bf14610535578063a87430ba14610555578063ad3cb1cc1461058657600080fd5b80635a82375b116101b1578063715018a611610175578063715018a61461042f57806381dc6fd2146104445780638da5cb5b1461047457806394a9c3e0146104bb57806395b5a65b146104db57600080fd5b80635a82375b146103725780635af28ce3146103925780635e2547f2146103b25780636248204e146103d25780636b3c6fd6146103ff57600080fd5b8063332d56d7116101f8578063332d56d7146102c6578063338e12eb146102f557806334461067146103155780634f1ef2861461034a57806352d1902d1461035d57600080fd5b806328f183a11461022a5780632c0a90a9146102535780632f6d4a59146102755780633217bc7214610295575b600080fd5b34801561023657600080fd5b5061024060085481565b6040519081526020015b60405180910390f35b34801561025f57600080fd5b5061027361026e36600461370f565b6107e6565b005b34801561028157600080fd5b50610273610290366004613802565b610a6a565b3480156102a157600080fd5b506102b56102b036600461384f565b610c30565b60405161024a9594939291906138f3565b3480156102d257600080fd5b506102e66102e136600461393e565b610d17565b60405161024a93929190613959565b34801561030157600080fd5b506102736103103660046139a1565b610ed1565b34801561032157600080fd5b506103356103303660046139ee565b6110f8565b60405161024a99989796959493929190613a07565b610273610358366004613802565b611388565b34801561036957600080fd5b506102406113a7565b34801561037e57600080fd5b5061027361038d366004613b46565b6113c4565b34801561039e57600080fd5b506102406103ad36600461393e565b611633565b3480156103be57600080fd5b506102406103cd36600461384f565b61167a565b3480156103de57600080fd5b506103f26103ed36600461393e565b6116ab565b60405161024a9190613c1b565b34801561040b57600080fd5b5061041f61041a3660046139ee565b611740565b60405161024a9493929190613c5f565b34801561043b57600080fd5b50610273611801565b34801561045057600080fd5b5061046461045f3660046139ee565b611815565b60405161024a9493929190613c96565b34801561048057600080fd5b507f9016d09d72d40fdae2fd8ceac6b6234c7706214fd39c1cd1e609a0528c199300546040516001600160a01b03909116815260200161024a565b3480156104c757600080fd5b506102736104d6366004613cd0565b611837565b3480156104e757600080fd5b506102406104f636600461393e565b600b6020526000908152604090205481565b34801561051457600080fd5b5061052861052336600461384f565b611890565b60405161024a9190613d57565b34801561054157600080fd5b50610273610550366004613dbb565b611a2a565b34801561056157600080fd5b5061057561057036600461393e565b611b46565b60405161024a959493929190613e07565b34801561059257600080fd5b506105b7604051806040016040528060058152602001640352e302e360dc1b81525081565b60405161024a9190613e5e565b3480156105d057600080fd5b506102736105df366004613e71565b611c98565b3480156105f057600080fd5b506102736105ff366004613ef5565b611e1c565b34801561061057600080fd5b5061027361061f3660046139ee565b611f1b565b34801561063057600080fd5b5061027361063f366004613f8e565b611fa2565b34801561065057600080fd5b5061024061065f366004613f8e565b600460209081526000928352604080842090915290825290205481565b34801561068857600080fd5b5061027361069736600461393e565b612375565b3480156106a857600080fd5b506102736106b7366004613fb1565b612477565b3480156106c857600080fd5b506102736106d736600461406e565b612590565b3480156106e857600080fd5b506102736106f7366004613dbb565b6127d1565b34801561070857600080fd5b50610273610717366004613e71565b612890565b34801561072857600080fd5b5061024061073736600461393e565b600a6020526000908152604090205481565b34801561075557600080fd5b506107696107643660046139ee565b612adc565b60405161024a91906140c2565b34801561078257600080fd5b50610273610791366004613f8e565b612e2d565b3480156107a257600080fd5b506102736107b136600461393e565b612f3b565b3480156107c257600080fd5b506107d66107d1366004613f8e565b612f7e565b604051901515815260200161024a565b3360009081526020819052604081206002015460ff16600881111561080d5761080d6138c9565b1461082b5760405163104a226f60e31b815260040160405180910390fd5b33600090815260056020526040812090805b8254811015610a4557848382815481106108595761085961418c565b9060005260206000209060050201600001541480156108b1575060008382815481106108875761088761418c565b600091825260209091206004600590920201015460ff1660028111156108af576108af6138c9565b145b15610a3d5760018382815481106108ca576108ca61418c565b60009182526020909120600460059092020101805460ff191660018360028111156108f7576108f76138c9565b0217905550600061090b85620151806141b8565b61091590426141cf565b9050600084838154811061092b5761092b61418c565b60009182526020808320600260059093020191909101543383526003909152604082206001600160a01b039091169250905b81548110156109f957600082828154811061097a5761097a61418c565b6000918252602080832091909101548083526004825260408084206001600160a01b0389168086529084528185208a905581518a8152938401829052908301939093529250339083907f1c795c24f232a1e8a341c63546a2631ab532f7bf10169ff1b3c74187ad48a0f19060600160405180910390a45060010161095d565b5060405187815260019550339089907f4def62da440b39db2661de60aa3dad0479ac27d4c22597d6e14c7441774f8a319060200160405180910390a3505050610a45565b60010161083d565b5080610a6457604051632589d98f60e11b815260040160405180910390fd5b50505050565b60033360009081526020819052604090206002015460ff166008811115610a9357610a936138c9565b14610ab157604051630d52912160e21b815260040160405180910390fd5b6001600160a01b03821660009081526020819052604081206002015460ff166008811115610ae157610ae16138c9565b14610aff5760405163104a226f60e31b815260040160405180910390fd5b6006805460009182610b10836141e2565b909155506001600160a01b038481166000818152600560208181526040808420815160a08101835288815280840196875233928101928352606081018b81526080820187905282546001808201855593885294909620815194909502909401928355945194820180549587166001600160a01b031996871617905551600282018054919096169416939093179093555192935090916003820190610bb4908261427d565b50608082015160048201805460ff19166001836002811115610bd857610bd86138c9565b02179055505050336001600160a01b0316836001600160a01b0316827f21eb886073c5fec0f227f76ef8335d82939c7aa4b537be2e0943f4c1dc74553e85604051610c239190613e5e565b60405180910390a4505050565b60056020528160005260406000208181548110610c4c57600080fd5b600091825260209091206005909102018054600182015460028301546003840180549396506001600160a01b03928316955091169291610c8b906141fb565b80601f0160208091040260200160405190810160405280929190818152602001828054610cb7906141fb565b8015610d045780601f10610cd957610100808354040283529160200191610d04565b820191906000526020600020905b815481529060010190602001808311610ce757829003601f168201915b5050506004909301549192505060ff1685565b600160205260009081526040902080548190610d32906141fb565b80601f0160208091040260200160405190810160405280929190818152602001828054610d5e906141fb565b8015610dab5780601f10610d8057610100808354040283529160200191610dab565b820191906000526020600020905b815481529060010190602001808311610d8e57829003601f168201915b505050505090806001018054610dc0906141fb565b80601f0160208091040260200160405190810160405280929190818152602001828054610dec906141fb565b8015610e395780601f10610e0e57610100808354040283529160200191610e39565b820191906000526020600020905b815481529060010190602001808311610e1c57829003601f168201915b505050505090806002018054610e4e906141fb565b80601f0160208091040260200160405190810160405280929190818152602001828054610e7a906141fb565b8015610ec75780601f10610e9c57610100808354040283529160200191610ec7565b820191906000526020600020905b815481529060010190602001808311610eaa57829003601f168201915b5050505050905083565b336000908152602081905260409020546001600160a01b031615610f0857604051630ea075bf60e21b815260040160405180910390fd5b6002816008811115610f1c57610f1c6138c9565b1480610f3957506008816008811115610f3757610f376138c9565b145b15610f5757604051630bc9e58560e31b815260040160405180910390fd5b6040518060a00160405280336001600160a01b03168152602001838152602001826008811115610f8957610f896138c9565b81526000602080830182905260408051808301825283815293810193909352338252818152919020825181546001600160a01b0319166001600160a01b03909116178155908201516001820190610fe0908261427d565b50604082015160028201805460ff19166001836008811115611004576110046138c9565b021790555060608201516002820180549115156101000261ff00199092169190911790556080820151600382019061103c908261427d565b50506040805160608101825284815281516020818101845260008083528184019290925283518082018552828152838501523382526001905291909120815191925090819061108b908261427d565b50602082015160018201906110a0908261427d565b50604082015160028201906110b5908261427d565b50506040513391507fc2e5d5da58bd71d1a2d14cdef02a4256d971b728088f8190d067ccfbae3bd73e906110ec908590859061433c565b60405180910390a25050565b6002818154811061110857600080fd5b6000918252602090912060089091020180546001820180549193509061112d906141fb565b80601f0160208091040260200160405190810160405280929190818152602001828054611159906141fb565b80156111a65780601f1061117b576101008083540402835291602001916111a6565b820191906000526020600020905b81548152906001019060200180831161118957829003601f168201915b50505050600283015460038401546004850154600586018054959693956001600160a01b03938416955092821693600160a01b90920460ff16926111e9906141fb565b80601f0160208091040260200160405190810160405280929190818152602001828054611215906141fb565b80156112625780601f1061123757610100808354040283529160200191611262565b820191906000526020600020905b81548152906001019060200180831161124557829003601f168201915b505050505090806006018054611277906141fb565b80601f01602080910402602001604051908101604052809291908181526020018280546112a3906141fb565b80156112f05780601f106112c5576101008083540402835291602001916112f0565b820191906000526020600020905b8154815290600101906020018083116112d357829003601f168201915b505050505090806007018054611305906141fb565b80601f0160208091040260200160405190810160405280929190818152602001828054611331906141fb565b801561137e5780601f106113535761010080835404028352916020019161137e565b820191906000526020600020905b81548152906001019060200180831161136157829003601f168201915b5050505050905089565b611390613022565b611399826130c7565b6113a382826130cf565b5050565b60006113b161318c565b5060008051602061456383398151915290565b80518451146113e6576040516343714afd60e01b815260040160405180910390fd5b6001600160a01b03831660009081526020819052604090206001600282015460ff166008811115611419576114196138c9565b1415801561144057506007600282015460ff16600881111561143d5761143d6138c9565b14155b801561146557506003600282015460ff166008811115611462576114626138c9565b14155b801561148a57506004600282015460ff166008811115611487576114876138c9565b14155b80156114af57506005600282015460ff1660088111156114ac576114ac6138c9565b14155b806114c457506002810154610100900460ff16155b156114e257604051635f10e00b60e01b815260040160405180910390fd5b60006114f184620151806141b8565b6114fb90426141cf565b905060005b865181101561162a57600087828151811061151d5761151d61418c565b60200260200101519050600280549050811080156115725750336001600160a01b0316600282815481106115535761155361418c565b60009182526020909120600460089092020101546001600160a01b0316145b156116215760008181526004602090815260408083206001600160a01b038b16845290915290205442106116215760008181526004602090815260408083206001600160a01b038b1680855292529091208490558551339083907f1c795c24f232a1e8a341c63546a2631ab532f7bf10169ff1b3c74187ad48a0f19087908a90889081106116025761160261418c565b602002602001015160405161161892919061435e565b60405180910390a45b50600101611500565b50505050505050565b6000336001600160a01b0383161461165e5760405163ea8e4eb560e01b815260040160405180910390fd5b506001600160a01b031660009081526005602052604090205490565b6003602052816000526040600020818154811061169657600080fd5b90600052602060002001600091509150505481565b6060336001600160a01b038316146116d65760405163ea8e4eb560e01b815260040160405180910390fd5b6001600160a01b0382166000908152600360209081526040918290208054835181840281018401909452808452909183018282801561173457602002820191906000526020600020905b815481526020019060010190808311611720575b50505050509050919050565b60096020526000908152604090208054600182018054919291611762906141fb565b80601f016020809104026020016040519081016040528092919081815260200182805461178e906141fb565b80156117db5780601f106117b0576101008083540402835291602001916117db565b820191906000526020600020905b8154815290600101906020018083116117be57829003601f168201915b505050600290930154919250506001600160a01b0381169060ff600160a01b9091041684565b6118096131d5565b6118136000613230565b565b60076020526000908152604090208054600182018054919291611762906141fb565b3360009081526020819052604081206002015460ff16600881111561185e5761185e6138c9565b1461187c5760405163104a226f60e31b815260040160405180910390fd5b61188b338484600085866132a1565b505050565b6118be6040805160a08101825260008082526020820181905291810182905260608082015290608082015290565b336001600160a01b038416146118e75760405163ea8e4eb560e01b815260040160405180910390fd5b6001600160a01b03831660009081526005602052604090208054839081106119115761191161418c565b60009182526020918290206040805160a08101825260059093029091018054835260018101546001600160a01b039081169484019490945260028101549093169082015260038201805491929160608401919061196d906141fb565b80601f0160208091040260200160405190810160405280929190818152602001828054611999906141fb565b80156119e65780601f106119bb576101008083540402835291602001916119e6565b820191906000526020600020905b8154815290600101906020018083116119c957829003601f168201915b5050509183525050600482015460209091019060ff166002811115611a0d57611a0d6138c9565b6002811115611a1e57611a1e6138c9565b90525090505b92915050565b6008805460009182611a3b836141e2565b9190505590506040518060800160405280828152602001838152602001336001600160a01b0316815260200160006002811115611a7a57611a7a6138c9565b9052600082815260096020908152604090912082518155908201516001820190611aa4908261427d565b506040820151600280830180546001600160a01b039093166001600160a01b031984168117825560608601519391926001600160a81b03199092161790600160a01b908490811115611af857611af86138c9565b0217905550905050336001600160a01b0316817fbf61b5cace25ee4d225724bee5d3875a59e7468e6524c619b1bcc3361ba9a8e684604051611b3a9190613e5e565b60405180910390a35050565b600060208190529081526040902080546001820180546001600160a01b039092169291611b72906141fb565b80601f0160208091040260200160405190810160405280929190818152602001828054611b9e906141fb565b8015611beb5780601f10611bc057610100808354040283529160200191611beb565b820191906000526020600020905b815481529060010190602001808311611bce57829003601f168201915b505050506002830154600384018054939460ff8084169561010090940416935091611c15906141fb565b80601f0160208091040260200160405190810160405280929190818152602001828054611c41906141fb565b8015611c8e5780601f10611c6357610100808354040283529160200191611c8e565b820191906000526020600020905b815481529060010190602001808311611c7157829003601f168201915b5050505050905085565b60023360009081526020819052604090206002015460ff166008811115611cc157611cc16138c9565b141580611ce6575033600090815260208190526040902060020154610100900460ff16155b15611d045760405163248b437160e21b815260040160405180910390fd5b336000908152600a60205260409020548114611d335760405163ea8e4eb560e01b815260040160405180910390fd5b6001600160a01b0383811660009081526020819052604090205416611d6b576040516319c29a3360e21b815260040160405180910390fd5b6001600160a01b0383166000908152600a60205260409020548114611da357604051637aa3308d60e11b815260040160405180910390fd5b6001600160a01b038316600081815260208181526040808320600201805461ffff19169055600a8252808320839055600b90915280822091909155518291907f656386f7fbf5fbd79ebb5d508870678c1d0ba774d3af78f5971f7d32d0da18bd90611e0f908690614377565b60405180910390a3505050565b336000908152602081905260409020546001600160a01b0316611e525760405163aba4733960e01b815260040160405180910390fd5b336000908152600160205260409020611e6c868883614385565b5033600090815260016020819052604090912001611e8b848683614385565b50336000908152600160205260409020600201611ea9828483614385565b50336000908152602081905260409020600101611ec7868883614385565b50336001600160a01b03167f6420daf1b58438e85465ef21dee378d307a509caab491149e3f066c5caf1266d878787878787604051611f0b9695949392919061446e565b60405180910390a2505050505050565b611f236131d5565b600081815260076020526040902060020154600160a01b900460ff16611f5c57604051634d2310eb60e11b815260040160405180910390fd5b600081815260076020526040808220600201805460ff60a01b191690555182917fde3170d9273315de9a8b381190baac26e017d2c9ac99d1ca5b428bea7161f89291a250565b611faa6131d5565b600080838152600960205260409020600290810154600160a01b900460ff1690811115611fd957611fd96138c9565b14611ff7576040516317f4986760e31b815260040160405180910390fd5b6001600160a01b03818116600090815260208190526040902054161561203057604051630ea075bf60e21b815260040160405180910390fd5b600082815260096020818152604080842060028101805460ff60a01b1916600160a01b1790558151608081019092528682529386905291815260019092018054919283019161207e906141fb565b80601f01602080910402602001604051908101604052809291908181526020018280546120aa906141fb565b80156120f75780601f106120cc576101008083540402835291602001916120f7565b820191906000526020600020905b8154815290600101906020018083116120da57829003601f168201915b50505091835250506001600160a01b038316602080830191909152600160409283018190526000868152600783529290922083518155908301519091820190612140908261427d565b50604082810151600292830180546060909501511515600160a01b026001600160a81b03199095166001600160a01b039283161794909417909355805160a081018252928416835280518082018252600581526420b236b4b760d91b6020828101919091528401528201908152600160208083018290526040805180830182526000808252948201526001600160a01b0386811685528483529320845181546001600160a01b031916941693909317835583015190820190612202908261427d565b50604082015160028201805460ff19166001836008811115612226576122266138c9565b021790555060608201516002820180549115156101000261ff00199092169190911790556080820151600382019061225e908261427d565b50506040805160a0810182526005606082019081526420b236b4b760d91b6080830152815281516020818101845260008083528184019290925283518082018552828152838501526001600160a01b0386168252600190529190912081519192509081906122cc908261427d565b50602082015160018201906122e1908261427d565b50604082015160028201906122f6908261427d565b5050506001600160a01b0381166000818152600a60205260408082208590555184917f1421bdc12a61f8ad34351cd7dd151822ac06730e7b43ee4bdfd4aaeb1ff5311c91a3806001600160a01b03167fc2e5d5da58bd71d1a2d14cdef02a4256d971b728088f8190d067ccfbae3bd73e60026040516110ec91906144b7565b600061237f61348d565b805490915060ff600160401b82041615906001600160401b03166000811580156123a65750825b90506000826001600160401b031660011480156123c25750303b155b9050811580156123d0575080155b156123ee5760405163f92ee8a960e01b815260040160405180910390fd5b845467ffffffffffffffff19166001178555831561241857845460ff60401b1916600160401b1785555b612421866134b6565b6124296134c7565b831561246f57845460ff60401b19168555604051600181527fc7f505b2f371ae2175ee4913f4499e1f2633a7b5936321eed1cdaeb6115181d29060200160405180910390a15b505050505050565b6001600160a01b03858116600090815260208190526040902054166124af576040516319c29a3360e21b815260040160405180910390fd5b6001600160a01b03851660009081526020819052604081206002015460ff1660088111156124df576124df6138c9565b146124fd5760405163104a226f60e31b815260040160405180910390fd5b3360009081526020819052604090206001600282015460ff166008811115612527576125276138c9565b1415801561254e57506007600282015460ff16600881111561254b5761254b6138c9565b14155b8061256357506002810154610100900460ff16155b1561258157604051635f10e00b60e01b815260040160405180910390fd5b61246f868686600187876132a1565b60025484106125b257604051633e07f1a160e01b815260040160405180910390fd5b6000600285815481106125c7576125c761418c565b600091825260209091206004600890920201908101549091506001600160a01b0316331461260857604051635e27834560e01b815260040160405180910390fd5b6001600160a01b03841660009081526020819052604090206001600282015460ff16600881111561263b5761263b6138c9565b1415801561266257506007600282015460ff16600881111561265f5761265f6138c9565b14155b801561268757506003600282015460ff166008811115612684576126846138c9565b14155b80156126ac57506004600282015460ff1660088111156126a9576126a96138c9565b14155b80156126d157506005600282015460ff1660088111156126ce576126ce6138c9565b14155b806126e657506002810154610100900460ff16155b1561270457604051635f10e00b60e01b815260040160405180910390fd5b60008681526004602090815260408083206001600160a01b0389168452909152902054421015612747576040516342beec5560e11b815260040160405180910390fd5b600061275685620151806141b8565b61276090426141cf565b60008881526004602090815260408083206001600160a01b038b16808552925291829020839055905191925090339089907f1c795c24f232a1e8a341c63546a2631ab532f7bf10169ff1b3c74187ad48a0f1906127c09086908a9061435e565b60405180910390a450505050505050565b336000908152602081905260409020546001600160a01b03166128075760405163aba4733960e01b815260040160405180910390fd5b3360009081526020819052604081206003018054612824906141fb565b90501115612845576040516303b3cf9760e41b815260040160405180910390fd5b336000908152602081905260409020600301612861828261427d565b5060405133907f6cf02651ef9f7a72105bbc0f5800cb97cf05271672cc25280ab53491280c827e90600090a250565b60023360009081526020819052604090206002015460ff1660088111156128b9576128b96138c9565b1415806128de575033600090815260208190526040902060020154610100900460ff16155b156128fc5760405163248b437160e21b815260040160405180910390fd5b336000908152600a6020526040902054811461292b5760405163ea8e4eb560e01b815260040160405180910390fd5b600182600881111561293f5761293f6138c9565b1415801561295f5750600782600881111561295c5761295c6138c9565b14155b1561297d57604051631b32d0dd60e11b815260040160405180910390fd5b6001600160a01b03838116600090815260208190526040902054166129b5576040516319c29a3360e21b815260040160405180910390fd5b6001600160a01b0383166000908152600a6020526040902054156129ec576040516339e5825f60e11b815260040160405180910390fd5b6001600160a01b0383166000908152602081905260409020600201805483919060ff19166001836008811115612a2457612a246138c9565b02179055506001600160a01b038316600081815260208181526040808320600201805461ff001916610100179055600a8252808320859055600b90915290819020839055518291907fb7f677009e40b63d956ecadcfcb1f65c754aa8f19532b58a315c47d23dfcbdcb90612a99908690614377565b60405180910390a36040516001600160a01b0384169033907fbfb2fa25f828a712fda370028ecc8813c7082c69b239a579753b10e24dd472cc90600090a3505050565b612b3f60405180610120016040528060008152602001606081526020016000815260200160006001600160a01b0316815260200160006001600160a01b031681526020016000151581526020016060815260200160608152602001606081525090565b612b498233612f7e565b612b665760405163ea8e4eb560e01b815260040160405180910390fd5b60028281548110612b7957612b7961418c565b90600052602060002090600802016040518061012001604052908160008201548152602001600182018054612bad906141fb565b80601f0160208091040260200160405190810160405280929190818152602001828054612bd9906141fb565b8015612c265780601f10612bfb57610100808354040283529160200191612c26565b820191906000526020600020905b815481529060010190602001808311612c0957829003601f168201915b50505091835250506002820154602082015260038201546001600160a01b03908116604083015260048301549081166060830152600160a01b900460ff161515608082015260058201805460a090920191612c80906141fb565b80601f0160208091040260200160405190810160405280929190818152602001828054612cac906141fb565b8015612cf95780601f10612cce57610100808354040283529160200191612cf9565b820191906000526020600020905b815481529060010190602001808311612cdc57829003601f168201915b50505050508152602001600682018054612d12906141fb565b80601f0160208091040260200160405190810160405280929190818152602001828054612d3e906141fb565b8015612d8b5780601f10612d6057610100808354040283529160200191612d8b565b820191906000526020600020905b815481529060010190602001808311612d6e57829003601f168201915b50505050508152602001600782018054612da4906141fb565b80601f0160208091040260200160405190810160405280929190818152602001828054612dd0906141fb565b8015612e1d5780601f10612df257610100808354040283529160200191612e1d565b820191906000526020600020905b815481529060010190602001808311612e0057829003601f168201915b5050505050815250509050919050565b6002548210612e4f57604051633e07f1a160e01b815260040160405180910390fd5b600060028381548110612e6457612e6461418c565b600091825260209091206004600890920201908101549091506001600160a01b03163314612ea557604051635e27834560e01b815260040160405180910390fd5b60008381526004602090815260408083206001600160a01b03861684529091528120549003612ee757604051639cf4448960e01b815260040160405180910390fd5b60008381526004602090815260408083206001600160a01b038616808552925280832083905551909185917f07aca9e88df76b26773787218a5664b178842e080be07be33d29f8a84853ecbc9190a3505050565b612f436131d5565b6001600160a01b038116612f7257604051631e4fbdf760e01b8152600060048201526024015b60405180910390fd5b612f7b81613230565b50565b6002546000908310612f9257506000611a24565b600060028481548110612fa757612fa761418c565b6000918252602090912060089091020160048101549091506001600160a01b0384811691161480612fe7575060038101546001600160a01b038481169116145b15612ff6576001915050611a24565b505060009182526004602090815260408084206001600160a01b03939093168452919052902054421090565b306001600160a01b037f00000000000000000000000000000000000000000000000000000000000000001614806130a957507f00000000000000000000000000000000000000000000000000000000000000006001600160a01b031661309d600080516020614563833981519152546001600160a01b031690565b6001600160a01b031614155b156118135760405163703e46dd60e11b815260040160405180910390fd5b612f7b6131d5565b816001600160a01b03166352d1902d6040518163ffffffff1660e01b8152600401602060405180830381865afa925050508015613129575060408051601f3d908101601f19168201909252613126918101906144e1565b60015b61315157604051634c9c8ce360e01b81526001600160a01b0383166004820152602401612f69565b600080516020614563833981519152811461318257604051632a87526960e21b815260048101829052602401612f69565b61188b83836134cf565b306001600160a01b037f000000000000000000000000000000000000000000000000000000000000000016146118135760405163703e46dd60e11b815260040160405180910390fd5b336132077f9016d09d72d40fdae2fd8ceac6b6234c7706214fd39c1cd1e609a0528c199300546001600160a01b031690565b6001600160a01b0316146118135760405163118cdaa760e01b8152336004820152602401612f69565b7f9016d09d72d40fdae2fd8ceac6b6234c7706214fd39c1cd1e609a0528c19930080546001600160a01b031981166001600160a01b03848116918217845560405192169182907f8be0079c531659141344cd1fd0a4f28419497f9722a3daafe3b4186f6b6457e090600090a3505050565b6002805460408051610120810182528281526020810189815242928201929092523360608201526001600160a01b038a16608082015286151560a082015260c0810188905260e0810186905261010081018590526001830184556000939093528251600883027f405787fa12a823e0f2b7631cc41b3ba8828b3321ca811111fa75cd3aa3bb5ace8101918255915192939290917f405787fa12a823e0f2b7631cc41b3ba8828b3321ca811111fa75cd3aa3bb5acf0190613361908261427d565b506040820151600282015560608201516003820180546001600160a01b0319166001600160a01b03928316179055608083015160048301805460a0860151929093166001600160a81b031990931692909217600160a01b9115159190910217905560c082015160058201906133d6908261427d565b5060e082015160068201906133eb908261427d565b506101008201516007820190613401908261427d565b5050506001600160a01b038716600081815260036020908152604080832080546001810182559084528284200185905584835260048252808320848452909152808220600019908190553380845292829020555190919083907fe690497cb6d93599f92530b10109bda8c2dbb9336623610786b5d3872e56d1a3906127c0908a908a908a908a906144fa565b6000807ff0c57e16840df040f15088dc2f81fe391c3923bec73e23a9662efc9c229c6a00611a24565b6134be613525565b612f7b8161354a565b611813613525565b6134d88261355b565b6040516001600160a01b038316907fbc7cd75a20ee27fd9adebab32041f755214dbc6bffa90cc0225b39da2e5c2d3b90600090a280511561351d5761188b82826135c0565b6113a3613636565b61352d613655565b61181357604051631afcd79f60e31b815260040160405180910390fd5b613552613525565b612f7b8161366f565b806001600160a01b03163b60000361359157604051634c9c8ce360e01b81526001600160a01b0382166004820152602401612f69565b60008051602061456383398151915280546001600160a01b0319166001600160a01b0392909216919091179055565b6060600080846001600160a01b0316846040516135dd9190614546565b600060405180830381855af49150503d8060008114613618576040519150601f19603f3d011682016040523d82523d6000602084013e61361d565b606091505b509150915061362d858383613680565b95945050505050565b34156118135760405163b398979f60e01b815260040160405180910390fd5b600061365f61348d565b54600160401b900460ff16919050565b613677613525565b612f7b816136df565b60608261369557613690826136e7565b6136d8565b81511580156136ac57506001600160a01b0384163b155b156136d557604051639996b31560e01b81526001600160a01b0385166004820152602401612f69565b50805b9392505050565b612f43613525565b8051156136f657805160208201fd5b60405163d6bda27560e01b815260040160405180910390fd5b6000806040838503121561372257600080fd5b50508035926020909101359150565b80356001600160a01b038116811461374857600080fd5b919050565b634e487b7160e01b600052604160045260246000fd5b604051601f8201601f191681016001600160401b038111828210171561378b5761378b61374d565b604052919050565b600082601f8301126137a457600080fd5b81356001600160401b038111156137bd576137bd61374d565b6137d0601f8201601f1916602001613763565b8181528460208386010111156137e557600080fd5b816020850160208301376000918101602001919091529392505050565b6000806040838503121561381557600080fd5b61381e83613731565b915060208301356001600160401b0381111561383957600080fd5b61384585828601613793565b9150509250929050565b6000806040838503121561386257600080fd5b61386b83613731565b946020939093013593505050565b60005b8381101561389457818101518382015260200161387c565b50506000910152565b600081518084526138b5816020860160208601613879565b601f01601f19169290920160200192915050565b634e487b7160e01b600052602160045260246000fd5b600381106138ef576138ef6138c9565b9052565b8581526001600160a01b0385811660208301528416604082015260a0606082018190526000906139259083018561389d565b905061393460808301846138df565b9695505050505050565b60006020828403121561395057600080fd5b6136d882613731565b60608152600061396c606083018661389d565b828103602084015261397e818661389d565b90508281036040840152613934818561389d565b80356009811061374857600080fd5b600080604083850312156139b457600080fd5b82356001600160401b038111156139ca57600080fd5b6139d685828601613793565b9250506139e560208401613992565b90509250929050565b600060208284031215613a0057600080fd5b5035919050565b60006101208b8352806020840152613a218184018c61389d565b604084018b90526001600160a01b038a811660608601528916608085015287151560a085015283810360c08501529050613a5b818761389d565b905082810360e0840152613a6f818661389d565b9050828103610100840152613a84818561389d565b9c9b505050505050505050505050565b60006001600160401b03821115613aad57613aad61374d565b5060051b60200190565b600082601f830112613ac857600080fd5b81356020613add613ad883613a94565b613763565b82815260059290921b84018101918181019086841115613afc57600080fd5b8286015b84811015613b3b5780356001600160401b03811115613b1f5760008081fd5b613b2d8986838b0101613793565b845250918301918301613b00565b509695505050505050565b60008060008060808587031215613b5c57600080fd5b84356001600160401b0380821115613b7357600080fd5b818701915087601f830112613b8757600080fd5b81356020613b97613ad883613a94565b82815260059290921b8401810191818101908b841115613bb657600080fd5b948201945b83861015613bd457853582529482019490820190613bbb565b9850613be39050898201613731565b96505050604087013593506060870135915080821115613c0257600080fd5b50613c0f87828801613ab7565b91505092959194509250565b6020808252825182820181905260009190848201906040850190845b81811015613c5357835183529284019291840191600101613c37565b50909695505050505050565b848152608060208201526000613c78608083018661389d565b6001600160a01b0385166040840152905061362d60608301846138df565b848152608060208201526000613caf608083018661389d565b6001600160a01b039490941660408301525090151560609091015292915050565b600080600060608486031215613ce557600080fd5b83356001600160401b0380821115613cfc57600080fd5b613d0887838801613793565b94506020860135915080821115613d1e57600080fd5b613d2a87838801613793565b93506040860135915080821115613d4057600080fd5b50613d4d86828701613793565b9150509250925092565b60208152815160208201526000602083015160018060a01b0380821660408501528060408601511660608501525050606083015160a06080840152613d9f60c084018261389d565b90506080840151613db360a08501826138df565b509392505050565b600060208284031215613dcd57600080fd5b81356001600160401b03811115613de357600080fd5b613def84828501613793565b949350505050565b600981106138ef576138ef6138c9565b6001600160a01b038616815260a060208201819052600090613e2b9083018761389d565b613e386040840187613df7565b84151560608401528281036080840152613e52818561389d565b98975050505050505050565b6020815260006136d8602083018461389d565b600080600060608486031215613e8657600080fd5b613e8f84613731565b9250613e9d60208501613992565b9150604084013590509250925092565b60008083601f840112613ebf57600080fd5b5081356001600160401b03811115613ed657600080fd5b602083019150836020828501011115613eee57600080fd5b9250929050565b60008060008060008060608789031215613f0e57600080fd5b86356001600160401b0380821115613f2557600080fd5b613f318a838b01613ead565b90985096506020890135915080821115613f4a57600080fd5b613f568a838b01613ead565b90965094506040890135915080821115613f6f57600080fd5b50613f7c89828a01613ead565b979a9699509497509295939492505050565b60008060408385031215613fa157600080fd5b823591506139e560208401613731565b600080600080600060a08688031215613fc957600080fd5b613fd286613731565b945060208601356001600160401b0380821115613fee57600080fd5b613ffa89838a01613793565b9550604088013591508082111561401057600080fd5b61401c89838a01613793565b9450606088013591508082111561403257600080fd5b61403e89838a01613793565b9350608088013591508082111561405457600080fd5b5061406188828901613793565b9150509295509295909350565b6000806000806080858703121561408457600080fd5b8435935061409460208601613731565b92506040850135915060608501356001600160401b038111156140b657600080fd5b613c0f87828801613793565b6020815281516020820152600060208301516101208060408501526140eb61014085018361389d565b915060408501516060850152606085015161411160808601826001600160a01b03169052565b5060808501516001600160a01b03811660a08601525060a085015180151560c08601525060c0850151601f19808685030160e0870152614151848361389d565b935060e08701519150610100818786030181880152614170858461389d565b908801518782039092018488015293509050613934838261389d565b634e487b7160e01b600052603260045260246000fd5b634e487b7160e01b600052601160045260246000fd5b8082028115828204841417611a2457611a246141a2565b80820180821115611a2457611a246141a2565b6000600182016141f4576141f46141a2565b5060010190565b600181811c9082168061420f57607f821691505b60208210810361422f57634e487b7160e01b600052602260045260246000fd5b50919050565b601f82111561188b576000816000526020600020601f850160051c8101602086101561425e5750805b601f850160051c820191505b8181101561246f5782815560010161426a565b81516001600160401b038111156142965761429661374d565b6142aa816142a484546141fb565b84614235565b602080601f8311600181146142df57600084156142c75750858301515b600019600386901b1c1916600185901b17855561246f565b600085815260208120601f198616915b8281101561430e578886015182559484019460019091019084016142ef565b508582101561432c5787850151600019600388901b60f8161c191681555b5050505050600190811b01905550565b60408152600061434f604083018561389d565b90506136d86020830184613df7565b828152604060208201526000613def604083018461389d565b60208101611a248284613df7565b6001600160401b0383111561439c5761439c61374d565b6143b0836143aa83546141fb565b83614235565b6000601f8411600181146143e457600085156143cc5750838201355b600019600387901b1c1916600186901b17835561443e565b600083815260209020601f19861690835b8281101561441557868501358255602094850194600190920191016143f5565b50868210156144325760001960f88860031b161c19848701351681555b505060018560011b0183555b5050505050565b81835281816020850137506000828201602090810191909152601f909101601f19169091010190565b60608152600061448260608301888a614445565b8281036020840152614495818789614445565b905082810360408401526144aa818587614445565b9998505050505050505050565b60408082526005908201526420b236b4b760d91b606082015260808101611a246020830184613df7565b6000602082840312156144f357600080fd5b5051919050565b60808152600061450d608083018761389d565b85151560208401528281036040840152614527818661389d565b9050828103606084015261453b818561389d565b979650505050505050565b60008251614558818460208701613879565b919091019291505056fe360894a13ba1a3210667c828492db98dca3e2076cc3735a920a3ca505d382bbca264697066735822122084586c21cf61ea878932fc4dcbf54036a50dfc37b9cb95114aca23a1b3550e9464736f6c63430008180033",
  "linkReferences": {},
  "deployedLinkReferences": {}
}