{
  "_format": "hh-sol-artifact-1",
  "contractName": "MedicalRecords",
  "sourceName": "contracts/MedicalRecords.sol",
  "abi": [
    {
      "inputs": [],
      "stateMutability": "nonpayable",
      "type": "constructor"
    },
    {
      "inputs": [],
      "name": "AccessAlreadyGranted",
      "type": "error"
    },
    {
      "inputs": [
        {
          "internalType": "address",
          "name": "target",
          "type": "address"
        }
      ],
      "name": "AddressEmptyCode",
      "type": "error"
    },
    {
      "inputs": [],
      "name": "AlreadyRegistered",
      "type": "error"
    },
    {
      "inputs": [],
      "name": "CannotRegisterAsAdmin",
      "type": "error"
    },
    {
      "inputs": [
        {
          "internalType": "address",
          "name": "implementation",
          "type": "address"
        }
      ],
      "name": "ERC1967InvalidImplementation",
      "type": "error"
    },
    {
      "inputs": [],
      "name": "ERC1967NonPayable",
      "type": "error"
    },
    {
      "inputs": [],
      "name": "FailedCall",
      "type": "error"
    },
    {
      "inputs": [],
      "name": "InputArrayLengthMismatch",
      "type": "error"
    },
    {
      "inputs": [],
      "name": "InvalidInitialization",
      "type": "error"
    },
    {
      "inputs": [],
      "name": "NoAccessToRevoke",
      "type": "error"
    },
    {
      "inputs": [],
      "name": "NotAPatient",
      "type": "error"
    },
    {
      "inputs": [],
      "name": "NotAVerifiedProfessional",
      "type": "error"
    },
    {
      "inputs": [],
      "name": "NotAnAdmin",
      "type": "error"
    },
    {
      "inputs": [],
      "name": "NotAnInsuranceProvider",
      "type": "error"
    },
    {
      "inputs": [],
      "name": "NotAuthorized",
      "type": "error"
    },
    {
      "inputs": [],
      "name": "NotInitializing",
      "type": "error"
    },
    {
      "inputs": [],
      "name": "NotRecordOwner",
      "type": "error"
    },
    {
      "inputs": [],
      "name": "NotRegistered",
      "type": "error"
    },
    {
      "inputs": [
        {
          "internalType": "address",
          "name": "owner",
          "type": "address"
        }
      ],
      "name": "OwnableInvalidOwner",
      "type": "error"
    },
    {
      "inputs": [
        {
          "internalType": "address",
          "name": "account",
          "type": "address"
        }
      ],
      "name": "OwnableUnauthorizedAccount",
      "type": "error"
    },
    {
      "inputs": [],
      "name": "PublicKeyAlreadySet",
      "type": "error"
    },
    {
      "inputs": [],
      "name": "RecordNotFound",
      "type": "error"
    },
    {
      "inputs": [],
      "name": "RequestNotFound",
      "type": "error"
    },
    {
      "inputs": [],
      "name": "UUPSUnauthorizedCallContext",
      "type": "error"
    },
    {
      "inputs": [
        {
          "internalType": "bytes32",
          "name": "slot",
          "type": "bytes32"
        }
      ],
      "name": "UUPSUnsupportedProxiableUUID",
      "type": "error"
    },
    {
      "inputs": [],
      "name": "UserNotFound",
      "type": "error"
    },
    {
      "anonymous": false,
      "inputs": [
        {
          "indexed": true,
          "internalType": "uint256",
          "name": "recordId",
          "type": "uint256"
        },
        {
          "indexed": true,
          "internalType": "address",
          "name": "owner",
          "type": "address"
        },
        {
          "indexed": true,
          "internalType": "address",
          "name": "grantee",
          "type": "address"
        },
        {
          "indexed": false,
          "internalType": "uint256",
          "name": "expiration",
          "type": "uint256"
        },
        {
          "indexed": false,
          "internalType": "bytes",
          "name": "encryptedDek",
          "type": "bytes"
        }
      ],
      "name": "AccessGranted",
      "type": "event"
    },
    {
      "anonymous": false,
      "inputs": [
        {
          "indexed": true,
          "internalType": "uint256",
          "name": "requestId",
          "type": "uint256"
        },
        {
          "indexed": true,
          "internalType": "address",
          "name": "patient",
          "type": "address"
        },
        {
          "indexed": true,
          "internalType": "address",
          "name": "provider",
          "type": "address"
        },
        {
          "indexed": false,
          "internalType": "string",
          "name": "claimId",
          "type": "string"
        }
      ],
      "name": "AccessRequested",
      "type": "event"
    },
    {
      "anonymous": false,
      "inputs": [
        {
          "indexed": true,
          "internalType": "uint256",
          "name": "recordId",
          "type": "uint256"
        },
        {
          "indexed": true,
          "internalType": "address",
          "name": "owner",
          "type": "address"
        },
        {
          "indexed": true,
          "internalType": "address",
          "name": "grantee",
          "type": "address"
        }
      ],
      "name": "AccessRevoked",
      "type": "event"
    },
    {
      "anonymous": false,
      "inputs": [
        {
          "indexed": false,
          "internalType": "uint64",
          "name": "version",
          "type": "uint64"
        }
      ],
      "name": "Initialized",
      "type": "event"
    },
    {
      "anonymous": false,
      "inputs": [
        {
          "indexed": true,
          "internalType": "address",
          "name": "previousOwner",
          "type": "address"
        },
        {
          "indexed": true,
          "internalType": "address",
          "name": "newOwner",
          "type": "address"
        }
      ],
      "name": "OwnershipTransferred",
      "type": "event"
    },
    {
      "anonymous": false,
      "inputs": [
        {
          "indexed": true,
          "internalType": "address",
          "name": "user",
          "type": "address"
        },
        {
          "indexed": false,
          "internalType": "string",
          "name": "name",
          "type": "string"
        },
        {
          "indexed": false,
          "internalType": "string",
          "name": "contactInfo",
          "type": "string"
        },
        {
          "indexed": false,
          "internalType": "string",
          "name": "profileMetadataURI",
          "type": "string"
        }
      ],
      "name": "ProfileUpdated",
      "type": "event"
    },
    {
      "anonymous": false,
      "inputs": [
        {
          "indexed": true,
          "internalType": "address",
          "name": "user",
          "type": "address"
        }
      ],
      "name": "PublicKeySaved",
      "type": "event"
    },
    {
      "anonymous": false,
      "inputs": [
        {
          "indexed": true,
          "internalType": "uint256",
          "name": "recordId",
          "type": "uint256"
        },
        {
          "indexed": true,
          "internalType": "address",
          "name": "patient",
          "type": "address"
        },
        {
          "indexed": true,
          "internalType": "address",
          "name": "uploadedBy",
          "type": "address"
        },
        {
          "indexed": false,
          "internalType": "string",
          "name": "category",
          "type": "string"
        },
        {
          "indexed": false,
          "internalType": "bool",
          "name": "isVerified",
          "type": "bool"
        }
      ],
      "name": "RecordAdded",
      "type": "event"
    },
    {
      "anonymous": false,
      "inputs": [
        {
          "indexed": true,
          "internalType": "uint256",
          "name": "requestId",
          "type": "uint256"
        },
        {
          "indexed": true,
          "internalType": "address",
          "name": "patient",
          "type": "address"
        },
        {
          "indexed": false,
          "internalType": "uint256",
          "name": "accessDuration",
          "type": "uint256"
        }
      ],
      "name": "RequestApproved",
      "type": "event"
    },
    {
      "anonymous": false,
      "inputs": [
        {
          "indexed": true,
          "internalType": "address",
          "name": "implementation",
          "type": "address"
        }
      ],
      "name": "Upgraded",
      "type": "event"
    },
    {
      "anonymous": false,
      "inputs": [
        {
          "indexed": true,
          "internalType": "address",
          "name": "userAddress",
          "type": "address"
        },
        {
          "indexed": false,
          "internalType": "string",
          "name": "name",
          "type": "string"
        },
        {
          "indexed": false,
          "internalType": "enum Storage.Role",
          "name": "role",
          "type": "uint8"
        }
      ],
      "name": "UserRegistered",
      "type": "event"
    },
    {
      "anonymous": false,
      "inputs": [
        {
          "indexed": true,
          "internalType": "address",
          "name": "admin",
          "type": "address"
        },
        {
          "indexed": true,
          "internalType": "address",
          "name": "userAddress",
          "type": "address"
        }
      ],
      "name": "UserVerified",
      "type": "event"
    },
    {
      "inputs": [],
      "name": "UPGRADE_INTERFACE_VERSION",
      "outputs": [
        {
          "internalType": "string",
          "name": "",
          "type": "string"
        }
      ],
      "stateMutability": "view",
      "type": "function"
    },
    {
      "inputs": [
        {
          "internalType": "address",
          "name": "_newAdmin",
          "type": "address"
        },
        {
          "internalType": "string",
          "name": "_name",
          "type": "string"
        }
      ],
      "name": "addHospitalAdmin",
      "outputs": [],
      "stateMutability": "nonpayable",
      "type": "function"
    },
    {
      "inputs": [
        {
          "internalType": "string",
          "name": "_ipfsHash",
          "type": "string"
        },
        {
          "internalType": "string",
          "name": "_category",
          "type": "string"
        }
      ],
      "name": "addSelfUploadedRecord",
      "outputs": [],
      "stateMutability": "nonpayable",
      "type": "function"
    },
    {
      "inputs": [
        {
          "internalType": "address",
          "name": "_patient",
          "type": "address"
        },
        {
          "internalType": "string",
          "name": "_ipfsHash",
          "type": "string"
        },
        {
          "internalType": "string",
          "name": "_category",
          "type": "string"
        }
      ],
      "name": "addVerifiedRecord",
      "outputs": [],
      "stateMutability": "nonpayable",
      "type": "function"
    },
    {
      "inputs": [
        {
          "internalType": "uint256",
          "name": "_requestId",
          "type": "uint256"
        },
        {
          "internalType": "uint256",
          "name": "_durationInDays",
          "type": "uint256"
        }
      ],
      "name": "approveRequest",
      "outputs": [],
      "stateMutability": "nonpayable",
      "type": "function"
    },
    {
      "inputs": [
        {
          "internalType": "uint256",
          "name": "_recordId",
          "type": "uint256"
        },
        {
          "internalType": "address",
          "name": "_viewer",
          "type": "address"
        }
      ],
      "name": "checkRecordAccess",
      "outputs": [
        {
          "internalType": "bool",
          "name": "",
          "type": "bool"
        }
      ],
      "stateMutability": "view",
      "type": "function"
    },
    {
      "inputs": [
        {
          "internalType": "address",
          "name": "_patientAddress",
          "type": "address"
        }
      ],
      "name": "getPatientRecordIds",
      "outputs": [
        {
          "internalType": "uint256[]",
          "name": "",
          "type": "uint256[]"
        }
      ],
      "stateMutability": "view",
      "type": "function"
    },
    {
      "inputs": [
        {
          "internalType": "address",
          "name": "_patientAddress",
          "type": "address"
        },
        {
          "internalType": "uint256",
          "name": "_index",
          "type": "uint256"
        }
      ],
      "name": "getPatientRequestAtIndex",
      "outputs": [
        {
          "components": [
            {
              "internalType": "uint256",
              "name": "id",
              "type": "uint256"
            },
            {
              "internalType": "address",
              "name": "patient",
              "type": "address"
            },
            {
              "internalType": "address",
              "name": "provider",
              "type": "address"
            },
            {
              "internalType": "string",
              "name": "claimId",
              "type": "string"
            },
            {
              "internalType": "enum Storage.RequestStatus",
              "name": "status",
              "type": "uint8"
            }
          ],
          "internalType": "struct Storage.AccessRequest",
          "name": "",
          "type": "tuple"
        }
      ],
      "stateMutability": "view",
      "type": "function"
    },
    {
      "inputs": [
        {
          "internalType": "address",
          "name": "_patientAddress",
          "type": "address"
        }
      ],
      "name": "getPatientRequestsCount",
      "outputs": [
        {
          "internalType": "uint256",
          "name": "",
          "type": "uint256"
        }
      ],
      "stateMutability": "view",
      "type": "function"
    },
    {
      "inputs": [
        {
          "internalType": "uint256",
          "name": "_recordId",
          "type": "uint256"
        }
      ],
      "name": "getRecordById",
      "outputs": [
        {
          "components": [
            {
              "internalType": "uint256",
              "name": "id",
              "type": "uint256"
            },
            {
              "internalType": "string",
              "name": "ipfsHash",
              "type": "string"
            },
            {
              "internalType": "uint256",
              "name": "timestamp",
              "type": "uint256"
            },
            {
              "internalType": "address",
              "name": "uploadedBy",
              "type": "address"
            },
            {
              "internalType": "address",
              "name": "owner",
              "type": "address"
            },
            {
              "internalType": "bool",
              "name": "isVerified",
              "type": "bool"
            },
            {
              "internalType": "string",
              "name": "category",
              "type": "string"
            }
          ],
          "internalType": "struct Storage.Record",
          "name": "",
          "type": "tuple"
        }
      ],
      "stateMutability": "view",
      "type": "function"
    },
    {
      "inputs": [
        {
          "internalType": "uint256[]",
          "name": "_recordIds",
          "type": "uint256[]"
        },
        {
          "internalType": "address",
          "name": "_grantee",
          "type": "address"
        },
        {
          "internalType": "uint256",
          "name": "_durationInDays",
          "type": "uint256"
        },
        {
          "internalType": "bytes[]",
          "name": "_encryptedDeks",
          "type": "bytes[]"
        }
      ],
      "name": "grantMultipleRecordAccess",
      "outputs": [],
      "stateMutability": "nonpayable",
      "type": "function"
    },
    {
      "inputs": [
        {
          "internalType": "uint256",
          "name": "_recordId",
          "type": "uint256"
        },
        {
          "internalType": "address",
          "name": "_grantee",
          "type": "address"
        },
        {
          "internalType": "uint256",
          "name": "_durationInDays",
          "type": "uint256"
        },
        {
          "internalType": "bytes",
          "name": "_encryptedDek",
          "type": "bytes"
        }
      ],
      "name": "grantRecordAccess",
      "outputs": [],
      "stateMutability": "nonpayable",
      "type": "function"
    },
    {
      "inputs": [
        {
          "internalType": "address",
          "name": "initialOwner",
          "type": "address"
        }
      ],
      "name": "initialize",
      "outputs": [],
      "stateMutability": "nonpayable",
      "type": "function"
    },
    {
      "inputs": [],
      "name": "owner",
      "outputs": [
        {
          "internalType": "address",
          "name": "",
          "type": "address"
        }
      ],
      "stateMutability": "view",
      "type": "function"
    },
    {
      "inputs": [
        {
          "internalType": "address",
          "name": "",
          "type": "address"
        },
        {
          "internalType": "uint256",
          "name": "",
          "type": "uint256"
        }
      ],
      "name": "patientRecordIds",
      "outputs": [
        {
          "internalType": "uint256",
          "name": "",
          "type": "uint256"
        }
      ],
      "stateMutability": "view",
      "type": "function"
    },
    {
      "inputs": [
        {
          "internalType": "address",
          "name": "",
          "type": "address"
        },
        {
          "internalType": "uint256",
          "name": "",
          "type": "uint256"
        }
      ],
      "name": "patientRequests",
      "outputs": [
        {
          "internalType": "uint256",
          "name": "id",
          "type": "uint256"
        },
        {
          "internalType": "address",
          "name": "patient",
          "type": "address"
        },
        {
          "internalType": "address",
          "name": "provider",
          "type": "address"
        },
        {
          "internalType": "string",
          "name": "claimId",
          "type": "string"
        },
        {
          "internalType": "enum Storage.RequestStatus",
          "name": "status",
          "type": "uint8"
        }
      ],
      "stateMutability": "view",
      "type": "function"
    },
    {
      "inputs": [],
      "name": "proxiableUUID",
      "outputs": [
        {
          "internalType": "bytes32",
          "name": "",
          "type": "bytes32"
        }
      ],
      "stateMutability": "view",
      "type": "function"
    },
    {
      "inputs": [
        {
          "internalType": "uint256",
          "name": "",
          "type": "uint256"
        },
        {
          "internalType": "address",
          "name": "",
          "type": "address"
        }
      ],
      "name": "recordAccess",
      "outputs": [
        {
          "internalType": "uint256",
          "name": "",
          "type": "uint256"
        }
      ],
      "stateMutability": "view",
      "type": "function"
    },
    {
      "inputs": [
        {
          "internalType": "uint256",
          "name": "",
          "type": "uint256"
        }
      ],
      "name": "records",
      "outputs": [
        {
          "internalType": "uint256",
          "name": "id",
          "type": "uint256"
        },
        {
          "internalType": "string",
          "name": "ipfsHash",
          "type": "string"
        },
        {
          "internalType": "uint256",
          "name": "timestamp",
          "type": "uint256"
        },
        {
          "internalType": "address",
          "name": "uploadedBy",
          "type": "address"
        },
        {
          "internalType": "address",
          "name": "owner",
          "type": "address"
        },
        {
          "internalType": "bool",
          "name": "isVerified",
          "type": "bool"
        },
        {
          "internalType": "string",
          "name": "category",
          "type": "string"
        }
      ],
      "stateMutability": "view",
      "type": "function"
    },
    {
      "inputs": [
        {
          "internalType": "string",
          "name": "_name",
          "type": "string"
        },
        {
          "internalType": "enum Storage.Role",
          "name": "_role",
          "type": "uint8"
        }
      ],
      "name": "registerUser",
      "outputs": [],
      "stateMutability": "nonpayable",
      "type": "function"
    },
    {
      "inputs": [],
      "name": "renounceOwnership",
      "outputs": [],
      "stateMutability": "nonpayable",
      "type": "function"
    },
    {
      "inputs": [
        {
          "internalType": "address",
          "name": "_patientAddress",
          "type": "address"
        },
        {
          "internalType": "string",
          "name": "_claimId",
          "type": "string"
        }
      ],
      "name": "requestAccess",
      "outputs": [],
      "stateMutability": "nonpayable",
      "type": "function"
    },
    {
      "inputs": [
        {
          "internalType": "uint256",
          "name": "_recordId",
          "type": "uint256"
        },
        {
          "internalType": "address",
          "name": "_grantee",
          "type": "address"
        }
      ],
      "name": "revokeRecordAccess",
      "outputs": [],
      "stateMutability": "nonpayable",
      "type": "function"
    },
    {
      "inputs": [
        {
          "internalType": "string",
          "name": "_publicKey",
          "type": "string"
        }
      ],
      "name": "savePublicKey",
      "outputs": [],
      "stateMutability": "nonpayable",
      "type": "function"
    },
    {
      "inputs": [
        {
          "internalType": "address",
          "name": "newOwner",
          "type": "address"
        }
      ],
      "name": "transferOwnership",
      "outputs": [],
      "stateMutability": "nonpayable",
      "type": "function"
    },
    {
      "inputs": [
        {
          "internalType": "string",
          "name": "_name",
          "type": "string"
        },
        {
          "internalType": "string",
          "name": "_contactInfo",
          "type": "string"
        },
        {
          "internalType": "string",
          "name": "_profileMetadataURI",
          "type": "string"
        }
      ],
      "name": "updateUserProfile",
      "outputs": [],
      "stateMutability": "nonpayable",
      "type": "function"
    },
    {
      "inputs": [
        {
          "internalType": "address",
          "name": "newImplementation",
          "type": "address"
        },
        {
          "internalType": "bytes",
          "name": "data",
          "type": "bytes"
        }
      ],
      "name": "upgradeToAndCall",
      "outputs": [],
      "stateMutability": "payable",
      "type": "function"
    },
    {
      "inputs": [
        {
          "internalType": "address",
          "name": "",
          "type": "address"
        }
      ],
      "name": "userProfiles",
      "outputs": [
        {
          "internalType": "string",
          "name": "name",
          "type": "string"
        },
        {
          "internalType": "string",
          "name": "contactInfo",
          "type": "string"
        },
        {
          "internalType": "string",
          "name": "profileMetadataURI",
          "type": "string"
        }
      ],
      "stateMutability": "view",
      "type": "function"
    },
    {
      "inputs": [
        {
          "internalType": "address",
          "name": "",
          "type": "address"
        }
      ],
      "name": "users",
      "outputs": [
        {
          "internalType": "address",
          "name": "walletAddress",
          "type": "address"
        },
        {
          "internalType": "string",
          "name": "name",
          "type": "string"
        },
        {
          "internalType": "enum Storage.Role",
          "name": "role",
          "type": "uint8"
        },
        {
          "internalType": "bool",
          "name": "isVerified",
          "type": "bool"
        },
        {
          "internalType": "string",
          "name": "publicKey",
          "type": "string"
        }
      ],
      "stateMutability": "view",
      "type": "function"
    },
    {
      "inputs": [
        {
          "internalType": "address",
          "name": "_userToVerify",
          "type": "address"
        }
      ],
      "name": "verifyUser",
      "outputs": [],
      "stateMutability": "nonpayable",
      "type": "function"
    }
  ],
  "bytecode": "0x60a0604052306080523480156200001557600080fd5b506200002062000026565b620000da565b7ff0c57e16840df040f15088dc2f81fe391c3923bec73e23a9662efc9c229c6a00805468010000000000000000900460ff1615620000775760405163f92ee8a960e01b815260040160405180910390fd5b80546001600160401b0390811614620000d75780546001600160401b0319166001600160401b0390811782556040519081527fc7f505b2f371ae2175ee4913f4499e1f2633a7b5936321eed1cdaeb6115181d29060200160405180910390a15b50565b60805161390162000104600039600081816127b7015281816127e0015261292601526139016000f3fe6080604052600436106101cd5760003560e01c8063715018a6116100f7578063c459a8ce11610095578063e75b8b2311610064578063e75b8b23146105c3578063ea4d598e146105f0578063f2fde38b14610610578063f79051381461063057600080fd5b8063c459a8ce1461052b578063c4d66de814610563578063cbf47a7e14610583578063d8eb8e90146105a357600080fd5b80639afd8efe116100d15780639afd8efe1461046f578063a87430ba1461049c578063ad3cb1cc146104cd578063bace02901461050b57600080fd5b8063715018a6146103f35780638c544c29146104085780638da5cb5b1461042857600080fd5b8063436243761161016f5780635a82375b1161013e5780635a82375b146103665780635af28ce3146103865780635e2547f2146103a65780636248204e146103c657600080fd5b806343624376146102f05780634d813120146103105780634f1ef2861461033057806352d1902d1461034357600080fd5b80633217bc72116101ab5780633217bc7214610234578063332d56d71461026e578063338e12eb1461029d57806334461067146102bd57600080fd5b80631fbe3784146101d25780632c0a90a9146101f45780632f6d4a5914610214575b600080fd5b3480156101de57600080fd5b506101f26101ed366004612d28565b610660565b005b34801561020057600080fd5b506101f261020f366004612d75565b610844565b34801561022057600080fd5b506101f261022f366004612d28565b610ac8565b34801561024057600080fd5b5061025461024f366004612d97565b610c8e565b604051610265959493929190612e3b565b60405180910390f35b34801561027a57600080fd5b5061028e610289366004612e86565b610d75565b60405161026593929190612ea1565b3480156102a957600080fd5b506101f26102b8366004612eda565b610f2f565b3480156102c957600080fd5b506102dd6102d8366004612f2f565b61112d565b6040516102659796959493929190612f48565b3480156102fc57600080fd5b506101f261030b366004612fa7565b6112a1565b34801561031c57600080fd5b506101f261032b366004612e86565b6112f7565b6101f261033e366004612d28565b611423565b34801561034f57600080fd5b5061035861143e565b604051908152602001610265565b34801561037257600080fd5b506101f26103813660046130b2565b61145b565b34801561039257600080fd5b506103586103a1366004612e86565b6116c7565b3480156103b257600080fd5b506103586103c1366004612d97565b61170e565b3480156103d257600080fd5b506103e66103e1366004612e86565b61173f565b6040516102659190613187565b3480156103ff57600080fd5b506101f26117d4565b34801561041457600080fd5b506101f26104233660046131cb565b6117e8565b34801561043457600080fd5b507f9016d09d72d40fdae2fd8ceac6b6234c7706214fd39c1cd1e609a0528c199300546040516001600160a01b039091168152602001610265565b34801561047b57600080fd5b5061048f61048a366004612d97565b6118ff565b604051610265919061323e565b3480156104a857600080fd5b506104bc6104b7366004612e86565b611a99565b6040516102659594939291906132b2565b3480156104d957600080fd5b506104fe604051806040016040528060058152602001640352e302e360dc1b81525081565b6040516102659190613309565b34801561051757600080fd5b506101f2610526366004613364565b611beb565b34801561053757600080fd5b506103586105463660046133fd565b600460209081526000928352604080842090915290825290205481565b34801561056f57600080fd5b506101f261057e366004612e86565b611d96565b34801561058f57600080fd5b506101f261059e366004613429565b611e98565b3480156105af57600080fd5b506101f26105be36600461347d565b6120d9565b3480156105cf57600080fd5b506105e36105de366004612f2f565b612198565b60405161026591906134b9565b3480156105fc57600080fd5b506101f261060b3660046133fd565b612399565b34801561061c57600080fd5b506101f261062b366004612e86565b6124a8565b34801561063c57600080fd5b5061065061064b3660046133fd565b6124eb565b6040519015158152602001610265565b610668612595565b6001600160a01b0382811660009081526020819052604090205416156106a157604051630ea075bf60e21b815260040160405180910390fd5b6040805160a0810182526001600160a01b03841681526020810183905290810160028152600160208083018290526040805180830182526000808252948201526001600160a01b0387811685528483529320845181546001600160a01b03191694169390931783558301519082019061071a90826135b7565b50604082015160028201805460ff1916600183600781111561073e5761073e612e11565b021790555060608201516002820180549115156101000261ff00199092169190911790556080820151600382019061077690826135b7565b50506040805160608101825283815281516020818101845260008083528184019290925283518082018552828152838501526001600160a01b0387168252600190529190912081519192509081906107ce90826135b7565b50602082015160018201906107e390826135b7565b50604082015160028201906107f890826135b7565b50905050816001600160a01b03167fc2e5d5da58bd71d1a2d14cdef02a4256d971b728088f8190d067ccfbae3bd73e826002604051610838929190613676565b60405180910390a25050565b3360009081526020819052604081206002015460ff16600781111561086b5761086b612e11565b146108895760405163104a226f60e31b815260040160405180910390fd5b33600090815260056020526040812090805b8254811015610aa357848382815481106108b7576108b7613698565b90600052602060002090600502016000015414801561090f575060008382815481106108e5576108e5613698565b600091825260209091206004600590920201015460ff16600281111561090d5761090d612e11565b145b15610a9b57600183828154811061092857610928613698565b60009182526020909120600460059092020101805460ff1916600183600281111561095557610955612e11565b0217905550600061096985620151806136c4565b61097390426136db565b9050600084838154811061098957610989613698565b60009182526020808320600260059093020191909101543383526003909152604082206001600160a01b039091169250905b8154811015610a575760008282815481106109d8576109d8613698565b6000918252602080832091909101548083526004825260408084206001600160a01b0389168086529084528185208a905581518a8152938401829052908301939093529250339083907f1c795c24f232a1e8a341c63546a2631ab532f7bf10169ff1b3c74187ad48a0f19060600160405180910390a4506001016109bb565b5060405187815260019550339089907f4def62da440b39db2661de60aa3dad0479ac27d4c22597d6e14c7441774f8a319060200160405180910390a3505050610aa3565b60010161089b565b5080610ac257604051632589d98f60e11b815260040160405180910390fd5b50505050565b60033360009081526020819052604090206002015460ff166007811115610af157610af1612e11565b14610b0f57604051630d52912160e21b815260040160405180910390fd5b6001600160a01b03821660009081526020819052604081206002015460ff166007811115610b3f57610b3f612e11565b14610b5d5760405163104a226f60e31b815260040160405180910390fd5b6006805460009182610b6e836136ee565b909155506001600160a01b038481166000818152600560208181526040808420815160a08101835288815280840196875233928101928352606081018b81526080820187905282546001808201855593885294909620815194909502909401928355945194820180549587166001600160a01b031996871617905551600282018054919096169416939093179093555192935090916003820190610c1290826135b7565b50608082015160048201805460ff19166001836002811115610c3657610c36612e11565b02179055505050336001600160a01b0316836001600160a01b0316827f21eb886073c5fec0f227f76ef8335d82939c7aa4b537be2e0943f4c1dc74553e85604051610c819190613309565b60405180910390a4505050565b60056020528160005260406000208181548110610caa57600080fd5b600091825260209091206005909102018054600182015460028301546003840180549396506001600160a01b03928316955091169291610ce990613535565b80601f0160208091040260200160405190810160405280929190818152602001828054610d1590613535565b8015610d625780601f10610d3757610100808354040283529160200191610d62565b820191906000526020600020905b815481529060010190602001808311610d4557829003601f168201915b5050506004909301549192505060ff1685565b600160205260009081526040902080548190610d9090613535565b80601f0160208091040260200160405190810160405280929190818152602001828054610dbc90613535565b8015610e095780601f10610dde57610100808354040283529160200191610e09565b820191906000526020600020905b815481529060010190602001808311610dec57829003601f168201915b505050505090806001018054610e1e90613535565b80601f0160208091040260200160405190810160405280929190818152602001828054610e4a90613535565b8015610e975780601f10610e6c57610100808354040283529160200191610e97565b820191906000526020600020905b815481529060010190602001808311610e7a57829003601f168201915b505050505090806002018054610eac90613535565b80601f0160208091040260200160405190810160405280929190818152602001828054610ed890613535565b8015610f255780601f10610efa57610100808354040283529160200191610f25565b820191906000526020600020905b815481529060010190602001808311610f0857829003601f168201915b5050505050905083565b336000908152602081905260409020546001600160a01b031615610f6657604051630ea075bf60e21b815260040160405180910390fd5b6002816007811115610f7a57610f7a612e11565b03610f9857604051630bc9e58560e31b815260040160405180910390fd5b6040518060a00160405280336001600160a01b03168152602001838152602001826007811115610fca57610fca612e11565b81526000602080830182905260408051808301825283815293810193909352338252818152919020825181546001600160a01b0319166001600160a01b0390911617815590820151600182019061102190826135b7565b50604082015160028201805460ff1916600183600781111561104557611045612e11565b021790555060608201516002820180549115156101000261ff00199092169190911790556080820151600382019061107d90826135b7565b5050604080516060810182528481528151602081810184526000808352818401929092528351808201855282815283850152338252600190529190912081519192509081906110cc90826135b7565b50602082015160018201906110e190826135b7565b50604082015160028201906110f690826135b7565b50506040513391507fc2e5d5da58bd71d1a2d14cdef02a4256d971b728088f8190d067ccfbae3bd73e906108389085908590613676565b6002818154811061113d57600080fd5b6000918252602090912060069091020180546001820180549193509061116290613535565b80601f016020809104026020016040519081016040528092919081815260200182805461118e90613535565b80156111db5780601f106111b0576101008083540402835291602001916111db565b820191906000526020600020905b8154815290600101906020018083116111be57829003601f168201915b50505050600283015460038401546004850154600586018054959693956001600160a01b03938416955092821693600160a01b90920460ff169261121e90613535565b80601f016020809104026020016040519081016040528092919081815260200182805461124a90613535565b80156112975780601f1061126c57610100808354040283529160200191611297565b820191906000526020600020905b81548152906001019060200180831161127a57829003601f168201915b5050505050905087565b3360009081526020819052604081206002015460ff1660078111156112c8576112c8612e11565b146112e65760405163104a226f60e31b815260040160405180910390fd5b6112f333838360006125f0565b5050565b336000908152602081905260409020546001600160a01b031661132d5760405163aba4733960e01b815260040160405180910390fd5b60023360009081526020819052604090206002015460ff16600781111561135657611356612e11565b14158061137b575033600090815260208190526040902060020154610100900460ff16155b15611399576040516355098f2760e01b815260040160405180910390fd5b6001600160a01b03818116600090815260208190526040902054166113d1576040516319c29a3360e21b815260040160405180910390fd5b6001600160a01b038116600081815260208190526040808220600201805461ff0019166101001790555133917fbfb2fa25f828a712fda370028ecc8813c7082c69b239a579753b10e24dd472cc91a350565b61142b6127ac565b61143482612851565b6112f38282612859565b600061144861291b565b506000805160206138ac83398151915290565b805184511461147d576040516343714afd60e01b815260040160405180910390fd5b6001600160a01b03831660009081526020819052604090206001600282015460ff1660078111156114b0576114b0612e11565b141580156114d757506007600282015460ff1660078111156114d4576114d4612e11565b14155b80156114fc57506003600282015460ff1660078111156114f9576114f9612e11565b14155b801561152157506004600282015460ff16600781111561151e5761151e612e11565b14155b801561154657506005600282015460ff16600781111561154357611543612e11565b14155b8061155b57506002810154610100900460ff16155b1561157957604051635f10e00b60e01b815260040160405180910390fd5b600061158884620151806136c4565b61159290426136db565b905060005b86518110156116be5760008782815181106115b4576115b4613698565b602002602001015190506002805490508110156116b5576000600282815481106115e0576115e0613698565b600091825260209091206006909102016004810154909150336001600160a01b03909116036116b35760008281526004602090815260408083206001600160a01b038c16845290915290205442106116b35760008281526004602090815260408083206001600160a01b038c1680855292529091208590558651339084907f1c795c24f232a1e8a341c63546a2631ab532f7bf10169ff1b3c74187ad48a0f19088908b908990811061169457611694613698565b60200260200101516040516116aa929190613707565b60405180910390a45b505b50600101611597565b50505050505050565b6000336001600160a01b038316146116f25760405163ea8e4eb560e01b815260040160405180910390fd5b506001600160a01b031660009081526005602052604090205490565b6003602052816000526040600020818154811061172a57600080fd5b90600052602060002001600091509150505481565b6060336001600160a01b0383161461176a5760405163ea8e4eb560e01b815260040160405180910390fd5b6001600160a01b038216600090815260036020908152604091829020805483518184028101840190945280845290918301828280156117c857602002820191906000526020600020905b8154815260200190600101908083116117b4575b50505050509050919050565b6117dc612595565b6117e66000612964565b565b6001600160a01b0383811660009081526020819052604090205416611820576040516319c29a3360e21b815260040160405180910390fd5b6001600160a01b03831660009081526020819052604081206002015460ff16600781111561185057611850612e11565b1461186e5760405163104a226f60e31b815260040160405180910390fd5b3360009081526020819052604090206001600282015460ff16600781111561189857611898612e11565b141580156118bf57506007600282015460ff1660078111156118bc576118bc612e11565b14155b806118d457506002810154610100900460ff16155b156118f257604051635f10e00b60e01b815260040160405180910390fd5b610ac284848460016125f0565b61192d6040805160a08101825260008082526020820181905291810182905260608082015290608082015290565b336001600160a01b038416146119565760405163ea8e4eb560e01b815260040160405180910390fd5b6001600160a01b038316600090815260056020526040902080548390811061198057611980613698565b60009182526020918290206040805160a08101825260059093029091018054835260018101546001600160a01b03908116948401949094526002810154909316908201526003820180549192916060840191906119dc90613535565b80601f0160208091040260200160405190810160405280929190818152602001828054611a0890613535565b8015611a555780601f10611a2a57610100808354040283529160200191611a55565b820191906000526020600020905b815481529060010190602001808311611a3857829003601f168201915b5050509183525050600482015460209091019060ff166002811115611a7c57611a7c612e11565b6002811115611a8d57611a8d612e11565b90525090505b92915050565b600060208190529081526040902080546001820180546001600160a01b039092169291611ac590613535565b80601f0160208091040260200160405190810160405280929190818152602001828054611af190613535565b8015611b3e5780601f10611b1357610100808354040283529160200191611b3e565b820191906000526020600020905b815481529060010190602001808311611b2157829003601f168201915b505050506002830154600384018054939460ff8084169561010090940416935091611b6890613535565b80601f0160208091040260200160405190810160405280929190818152602001828054611b9490613535565b8015611be15780601f10611bb657610100808354040283529160200191611be1565b820191906000526020600020905b815481529060010190602001808311611bc457829003601f168201915b5050505050905085565b336000908152602081905260409020546001600160a01b0316611c215760405163aba4733960e01b815260040160405180910390fd5b604051806060016040528087878080601f016020809104026020016040519081016040528093929190818152602001838380828437600092019190915250505090825250604080516020601f880181900481028201810190925286815291810191908790879081908401838280828437600092019190915250505090825250604080516020601f860181900481028201810190925284815291810191908590859081908401838280828437600092018290525093909452505033815260016020526040902082519091508190611cf790826135b7565b5060208201516001820190611d0c90826135b7565b5060408201516002820190611d2190826135b7565b50503360009081526020819052604090206001019050611d42868883613720565b50336001600160a01b03167f6420daf1b58438e85465ef21dee378d307a509caab491149e3f066c5caf1266d878787878787604051611d8696959493929190613809565b60405180910390a2505050505050565b6000611da06129d5565b805490915060ff600160401b82041615906001600160401b0316600081158015611dc75750825b90506000826001600160401b03166001148015611de35750303b155b905081158015611df1575080155b15611e0f5760405163f92ee8a960e01b815260040160405180910390fd5b845467ffffffffffffffff191660011785558315611e3957845460ff60401b1916600160401b1785555b611e42866129fe565b611e4a612a0f565b8315611e9057845460ff60401b19168555604051600181527fc7f505b2f371ae2175ee4913f4499e1f2633a7b5936321eed1cdaeb6115181d29060200160405180910390a15b505050505050565b6002548410611eba57604051633e07f1a160e01b815260040160405180910390fd5b600060028581548110611ecf57611ecf613698565b600091825260209091206004600690920201908101549091506001600160a01b03163314611f1057604051635e27834560e01b815260040160405180910390fd5b6001600160a01b03841660009081526020819052604090206001600282015460ff166007811115611f4357611f43612e11565b14158015611f6a57506007600282015460ff166007811115611f6757611f67612e11565b14155b8015611f8f57506003600282015460ff166007811115611f8c57611f8c612e11565b14155b8015611fb457506004600282015460ff166007811115611fb157611fb1612e11565b14155b8015611fd957506005600282015460ff166007811115611fd657611fd6612e11565b14155b80611fee57506002810154610100900460ff16155b1561200c57604051635f10e00b60e01b815260040160405180910390fd5b60008681526004602090815260408083206001600160a01b038916845290915290205442101561204f576040516342beec5560e11b815260040160405180910390fd5b600061205e85620151806136c4565b61206890426136db565b60008881526004602090815260408083206001600160a01b038b16808552925291829020839055905191925090339089907f1c795c24f232a1e8a341c63546a2631ab532f7bf10169ff1b3c74187ad48a0f1906120c89086908a90613707565b60405180910390a450505050505050565b336000908152602081905260409020546001600160a01b031661210f5760405163aba4733960e01b815260040160405180910390fd5b336000908152602081905260408120600301805461212c90613535565b9050111561214d576040516303b3cf9760e41b815260040160405180910390fd5b33600090815260208190526040902060030161216982826135b7565b5060405133907f6cf02651ef9f7a72105bbc0f5800cb97cf05271672cc25280ab53491280c827e90600090a250565b6040805160e08101825260008082526060602083018190529282018190528282018190526080820181905260a082015260c08101919091526121da82336124eb565b6121f75760405163ea8e4eb560e01b815260040160405180910390fd5b6002828154811061220a5761220a613698565b90600052602060002090600602016040518060e00160405290816000820154815260200160018201805461223d90613535565b80601f016020809104026020016040519081016040528092919081815260200182805461226990613535565b80156122b65780601f1061228b576101008083540402835291602001916122b6565b820191906000526020600020905b81548152906001019060200180831161229957829003601f168201915b50505091835250506002820154602082015260038201546001600160a01b03908116604083015260048301549081166060830152600160a01b900460ff161515608082015260058201805460a09092019161231090613535565b80601f016020809104026020016040519081016040528092919081815260200182805461233c90613535565b80156123895780601f1061235e57610100808354040283529160200191612389565b820191906000526020600020905b81548152906001019060200180831161236c57829003601f168201915b5050505050815250509050919050565b60025482106123bb57604051633e07f1a160e01b815260040160405180910390fd5b6000600283815481106123d0576123d0613698565b600091825260209091206004600690920201908101549091506001600160a01b0316331461241157604051635e27834560e01b815260040160405180910390fd5b60008381526004602090815260408083206001600160a01b0386168452909152812054900361245357604051639cf4448960e01b815260040160405180910390fd5b60008381526004602090815260408083206001600160a01b0386168085529252808320839055519091339186917f260547d4038414ef72f081dcde91825693dff9bc433178f3e92ad36e0cd2275091a4505050565b6124b0612595565b6001600160a01b0381166124df57604051631e4fbdf760e01b8152600060048201526024015b60405180910390fd5b6124e881612964565b50565b60025460009083106124ff57506000611a93565b60006002848154811061251457612514613698565b6000918252602090912060069091020160048101549091506001600160a01b03848116911603612548576001915050611a93565b60038101546001600160a01b03808516911603612569576001915050611a93565b505060009182526004602090815260408084206001600160a01b03939093168452919052902054421090565b336125c77f9016d09d72d40fdae2fd8ceac6b6234c7706214fd39c1cd1e609a0528c199300546001600160a01b031690565b6001600160a01b0316146117e65760405163118cdaa760e01b81523360048201526024016124d6565b600280546040805160e0810182528281526020810187815242928201929092523360608201526001600160a01b038816608082015284151560a082015260c081018690526001830184556000939093528251600683027f405787fa12a823e0f2b7631cc41b3ba8828b3321ca811111fa75cd3aa3bb5ace8101918255915192939290917f405787fa12a823e0f2b7631cc41b3ba8828b3321ca811111fa75cd3aa3bb5acf01906126a090826135b7565b506040820151600282015560608201516003820180546001600160a01b0319166001600160a01b03928316179055608083015160048301805460a0860151929093166001600160a81b031990931692909217600160a01b9115159190910217905560c0820151600582019061271590826135b7565b5050506001600160a01b038516600081815260036020908152604080832080546001810182559084528284200185905584835260048252808320848452909152808220600019908190553380845292829020555190919083907f9301aab79e18963a94932baee4a5f8ce91c80e552e8c5b01935859c1697595f49061279d9088908890613852565b60405180910390a45050505050565b306001600160a01b037f000000000000000000000000000000000000000000000000000000000000000016148061283357507f00000000000000000000000000000000000000000000000000000000000000006001600160a01b03166128276000805160206138ac833981519152546001600160a01b031690565b6001600160a01b031614155b156117e65760405163703e46dd60e11b815260040160405180910390fd5b6124e8612595565b816001600160a01b03166352d1902d6040518163ffffffff1660e01b8152600401602060405180830381865afa9250505080156128b3575060408051601f3d908101601f191682019092526128b091810190613876565b60015b6128db57604051634c9c8ce360e01b81526001600160a01b03831660048201526024016124d6565b6000805160206138ac833981519152811461290c57604051632a87526960e21b8152600481018290526024016124d6565b6129168383612a17565b505050565b306001600160a01b037f000000000000000000000000000000000000000000000000000000000000000016146117e65760405163703e46dd60e11b815260040160405180910390fd5b7f9016d09d72d40fdae2fd8ceac6b6234c7706214fd39c1cd1e609a0528c19930080546001600160a01b031981166001600160a01b03848116918217845560405192169182907f8be0079c531659141344cd1fd0a4f28419497f9722a3daafe3b4186f6b6457e090600090a3505050565b6000807ff0c57e16840df040f15088dc2f81fe391c3923bec73e23a9662efc9c229c6a00611a93565b612a06612a6d565b6124e881612a92565b6117e6612a6d565b612a2082612aa3565b6040516001600160a01b038316907fbc7cd75a20ee27fd9adebab32041f755214dbc6bffa90cc0225b39da2e5c2d3b90600090a2805115612a65576129168282612b08565b6112f3612b7e565b612a75612b9d565b6117e657604051631afcd79f60e31b815260040160405180910390fd5b612a9a612a6d565b6124e881612bb7565b806001600160a01b03163b600003612ad957604051634c9c8ce360e01b81526001600160a01b03821660048201526024016124d6565b6000805160206138ac83398151915280546001600160a01b0319166001600160a01b0392909216919091179055565b6060600080846001600160a01b031684604051612b25919061388f565b600060405180830381855af49150503d8060008114612b60576040519150601f19603f3d011682016040523d82523d6000602084013e612b65565b606091505b5091509150612b75858383612bc8565b95945050505050565b34156117e65760405163b398979f60e01b815260040160405180910390fd5b6000612ba76129d5565b54600160401b900460ff16919050565b612bbf612a6d565b6124e881612c27565b606082612bdd57612bd882612c2f565b612c20565b8151158015612bf457506001600160a01b0384163b155b15612c1d57604051639996b31560e01b81526001600160a01b03851660048201526024016124d6565b50805b9392505050565b6124b0612a6d565b805115612c3e57805160208201fd5b60405163d6bda27560e01b815260040160405180910390fd5b80356001600160a01b0381168114612c6e57600080fd5b919050565b634e487b7160e01b600052604160045260246000fd5b604051601f8201601f191681016001600160401b0381118282101715612cb157612cb1612c73565b604052919050565b600082601f830112612cca57600080fd5b81356001600160401b03811115612ce357612ce3612c73565b612cf6601f8201601f1916602001612c89565b818152846020838601011115612d0b57600080fd5b816020850160208301376000918101602001919091529392505050565b60008060408385031215612d3b57600080fd5b612d4483612c57565b915060208301356001600160401b03811115612d5f57600080fd5b612d6b85828601612cb9565b9150509250929050565b60008060408385031215612d8857600080fd5b50508035926020909101359150565b60008060408385031215612daa57600080fd5b612db383612c57565b946020939093013593505050565b60005b83811015612ddc578181015183820152602001612dc4565b50506000910152565b60008151808452612dfd816020860160208601612dc1565b601f01601f19169290920160200192915050565b634e487b7160e01b600052602160045260246000fd5b60038110612e3757612e37612e11565b9052565b8581526001600160a01b0385811660208301528416604082015260a060608201819052600090612e6d90830185612de5565b9050612e7c6080830184612e27565b9695505050505050565b600060208284031215612e9857600080fd5b612c2082612c57565b606081526000612eb46060830186612de5565b8281036020840152612ec68186612de5565b90508281036040840152612e7c8185612de5565b60008060408385031215612eed57600080fd5b82356001600160401b03811115612f0357600080fd5b612f0f85828601612cb9565b925050602083013560088110612f2457600080fd5b809150509250929050565b600060208284031215612f4157600080fd5b5035919050565b87815260e060208201526000612f6160e0830189612de5565b604083018890526001600160a01b0387811660608501528616608084015284151560a084015282810360c0840152612f998185612de5565b9a9950505050505050505050565b60008060408385031215612fba57600080fd5b82356001600160401b0380821115612fd157600080fd5b612fdd86838701612cb9565b93506020850135915080821115612ff357600080fd5b50612d6b85828601612cb9565b60006001600160401b0382111561301957613019612c73565b5060051b60200190565b600082601f83011261303457600080fd5b8135602061304961304483613000565b612c89565b82815260059290921b8401810191818101908684111561306857600080fd5b8286015b848110156130a75780356001600160401b0381111561308b5760008081fd5b6130998986838b0101612cb9565b84525091830191830161306c565b509695505050505050565b600080600080608085870312156130c857600080fd5b84356001600160401b03808211156130df57600080fd5b818701915087601f8301126130f357600080fd5b8135602061310361304483613000565b82815260059290921b8401810191818101908b84111561312257600080fd5b948201945b8386101561314057853582529482019490820190613127565b985061314f9050898201612c57565b9650505060408701359350606087013591508082111561316e57600080fd5b5061317b87828801613023565b91505092959194509250565b6020808252825182820181905260009190848201906040850190845b818110156131bf578351835292840192918401916001016131a3565b50909695505050505050565b6000806000606084860312156131e057600080fd5b6131e984612c57565b925060208401356001600160401b038082111561320557600080fd5b61321187838801612cb9565b9350604086013591508082111561322757600080fd5b5061323486828701612cb9565b9150509250925092565b60208152815160208201526000602083015160018060a01b0380821660408501528060408601511660608501525050606083015160a0608084015261328660c0840182612de5565b9050608084015161329a60a0850182612e27565b509392505050565b60088110612e3757612e37612e11565b6001600160a01b038616815260a0602082018190526000906132d690830187612de5565b6132e360408401876132a2565b841515606084015282810360808401526132fd8185612de5565b98975050505050505050565b602081526000612c206020830184612de5565b60008083601f84011261332e57600080fd5b5081356001600160401b0381111561334557600080fd5b60208301915083602082850101111561335d57600080fd5b9250929050565b6000806000806000806060878903121561337d57600080fd5b86356001600160401b038082111561339457600080fd5b6133a08a838b0161331c565b909850965060208901359150808211156133b957600080fd5b6133c58a838b0161331c565b909650945060408901359150808211156133de57600080fd5b506133eb89828a0161331c565b979a9699509497509295939492505050565b6000806040838503121561341057600080fd5b8235915061342060208401612c57565b90509250929050565b6000806000806080858703121561343f57600080fd5b8435935061344f60208601612c57565b92506040850135915060608501356001600160401b0381111561347157600080fd5b61317b87828801612cb9565b60006020828403121561348f57600080fd5b81356001600160401b038111156134a557600080fd5b6134b184828501612cb9565b949350505050565b60208152815160208201526000602083015160e060408401526134e0610100840182612de5565b905060408401516060840152606084015160018060a01b0380821660808601528060808701511660a0860152505060a0840151151560c084015260c0840151601f198483030160e0850152612b758282612de5565b600181811c9082168061354957607f821691505b60208210810361356957634e487b7160e01b600052602260045260246000fd5b50919050565b601f821115612916576000816000526020600020601f850160051c810160208610156135985750805b601f850160051c820191505b81811015611e90578281556001016135a4565b81516001600160401b038111156135d0576135d0612c73565b6135e4816135de8454613535565b8461356f565b602080601f83116001811461361957600084156136015750858301515b600019600386901b1c1916600185901b178555611e90565b600085815260208120601f198616915b8281101561364857888601518255948401946001909101908401613629565b50858210156136665787850151600019600388901b60f8161c191681555b5050505050600190811b01905550565b6040815260006136896040830185612de5565b9050612c2060208301846132a2565b634e487b7160e01b600052603260045260246000fd5b634e487b7160e01b600052601160045260246000fd5b8082028115828204841417611a9357611a936136ae565b80820180821115611a9357611a936136ae565b600060018201613700576137006136ae565b5060010190565b8281526040602082015260006134b16040830184612de5565b6001600160401b0383111561373757613737612c73565b61374b836137458354613535565b8361356f565b6000601f84116001811461377f57600085156137675750838201355b600019600387901b1c1916600186901b1783556137d9565b600083815260209020601f19861690835b828110156137b05786850135825560209485019460019092019101613790565b50868210156137cd5760001960f88860031b161c19848701351681555b505060018560011b0183555b5050505050565b81835281816020850137506000828201602090810191909152601f909101601f19169091010190565b60608152600061381d60608301888a6137e0565b82810360208401526138308187896137e0565b905082810360408401526138458185876137e0565b9998505050505050505050565b6040815260006138656040830185612de5565b905082151560208301529392505050565b60006020828403121561388857600080fd5b5051919050565b600082516138a1818460208701612dc1565b919091019291505056fe360894a13ba1a3210667c828492db98dca3e2076cc3735a920a3ca505d382bbca2646970667358221220c1d1a86b5ef7e6683d855acaccda7bd544d7d0ae76794bdd6b9ee7984161777964736f6c63430008180033",
  "linkReferences": {},
  "deployedLinkReferences": {}
}