{
  "_format": "hh-sol-artifact-1",
  "contractName": "MedicalRecords",
  "sourceName": "contracts/MedicalRecords.sol",
  "abi": [
    {
      "inputs": [],
      "stateMutability": "nonpayable",
      "type": "constructor"
    },
    {
      "inputs": [],
      "name": "AccessAlreadyGranted",
      "type": "error"
    },
    {
      "inputs": [
        {
          "internalType": "address",
          "name": "target",
          "type": "address"
        }
      ],
      "name": "AddressEmptyCode",
      "type": "error"
    },
    {
      "inputs": [],
      "name": "AlreadyRegistered",
      "type": "error"
    },
    {
      "inputs": [],
      "name": "CannotRegisterAsAdmin",
      "type": "error"
    },
    {
      "inputs": [
        {
          "internalType": "address",
          "name": "implementation",
          "type": "address"
        }
      ],
      "name": "ERC1967InvalidImplementation",
      "type": "error"
    },
    {
      "inputs": [],
      "name": "ERC1967NonPayable",
      "type": "error"
    },
    {
      "inputs": [],
      "name": "FailedCall",
      "type": "error"
    },
    {
      "inputs": [],
      "name": "HospitalNotVerified",
      "type": "error"
    },
    {
      "inputs": [],
      "name": "InputArrayLengthMismatch",
      "type": "error"
    },
    {
      "inputs": [],
      "name": "InvalidInitialization",
      "type": "error"
    },
    {
      "inputs": [],
      "name": "NoAccessToRevoke",
      "type": "error"
    },
    {
      "inputs": [],
      "name": "NotAPatient",
      "type": "error"
    },
    {
      "inputs": [],
      "name": "NotAVerifiedProfessional",
      "type": "error"
    },
    {
      "inputs": [],
      "name": "NotAnInsuranceProvider",
      "type": "error"
    },
    {
      "inputs": [],
      "name": "NotAuthorized",
      "type": "error"
    },
    {
      "inputs": [],
      "name": "NotHospitalAdmin",
      "type": "error"
    },
    {
      "inputs": [],
      "name": "NotInitializing",
      "type": "error"
    },
    {
      "inputs": [],
      "name": "NotRecordOwner",
      "type": "error"
    },
    {
      "inputs": [],
      "name": "NotRegistered",
      "type": "error"
    },
    {
      "inputs": [],
      "name": "NotSuperAdmin",
      "type": "error"
    },
    {
      "inputs": [
        {
          "internalType": "address",
          "name": "owner",
          "type": "address"
        }
      ],
      "name": "OwnableInvalidOwner",
      "type": "error"
    },
    {
      "inputs": [
        {
          "internalType": "address",
          "name": "account",
          "type": "address"
        }
      ],
      "name": "OwnableUnauthorizedAccount",
      "type": "error"
    },
    {
      "inputs": [],
      "name": "PublicKeyAlreadySet",
      "type": "error"
    },
    {
      "inputs": [],
      "name": "RecordNotFound",
      "type": "error"
    },
    {
      "inputs": [],
      "name": "RequestNotFound",
      "type": "error"
    },
    {
      "inputs": [],
      "name": "RequestNotFoundOrAlreadyHandled",
      "type": "error"
    },
    {
      "inputs": [],
      "name": "RoleNotAllowed",
      "type": "error"
    },
    {
      "inputs": [],
      "name": "UUPSUnauthorizedCallContext",
      "type": "error"
    },
    {
      "inputs": [
        {
          "internalType": "bytes32",
          "name": "slot",
          "type": "bytes32"
        }
      ],
      "name": "UUPSUnsupportedProxiableUUID",
      "type": "error"
    },
    {
      "inputs": [],
      "name": "UserAlreadyInHospital",
      "type": "error"
    },
    {
      "inputs": [],
      "name": "UserNotFound",
      "type": "error"
    },
    {
      "inputs": [],
      "name": "UserNotInHospital",
      "type": "error"
    },
    {
      "anonymous": false,
      "inputs": [
        {
          "indexed": true,
          "internalType": "uint256",
          "name": "recordId",
          "type": "uint256"
        },
        {
          "indexed": true,
          "internalType": "address",
          "name": "owner",
          "type": "address"
        },
        {
          "indexed": true,
          "internalType": "address",
          "name": "grantee",
          "type": "address"
        },
        {
          "indexed": false,
          "internalType": "uint256",
          "name": "expiration",
          "type": "uint256"
        },
        {
          "indexed": false,
          "internalType": "bytes",
          "name": "encryptedDek",
          "type": "bytes"
        }
      ],
      "name": "AccessGranted",
      "type": "event"
    },
    {
      "anonymous": false,
      "inputs": [
        {
          "indexed": true,
          "internalType": "uint256",
          "name": "requestId",
          "type": "uint256"
        },
        {
          "indexed": true,
          "internalType": "address",
          "name": "patient",
          "type": "address"
        },
        {
          "indexed": true,
          "internalType": "address",
          "name": "provider",
          "type": "address"
        },
        {
          "indexed": false,
          "internalType": "string",
          "name": "claimId",
          "type": "string"
        }
      ],
      "name": "AccessRequested",
      "type": "event"
    },
    {
      "anonymous": false,
      "inputs": [
        {
          "indexed": true,
          "internalType": "uint256",
          "name": "hospitalId",
          "type": "uint256"
        }
      ],
      "name": "HospitalRevoked",
      "type": "event"
    },
    {
      "anonymous": false,
      "inputs": [
        {
          "indexed": true,
          "internalType": "uint256",
          "name": "hospitalId",
          "type": "uint256"
        },
        {
          "indexed": true,
          "internalType": "address",
          "name": "adminAddress",
          "type": "address"
        }
      ],
      "name": "HospitalVerified",
      "type": "event"
    },
    {
      "anonymous": false,
      "inputs": [
        {
          "indexed": false,
          "internalType": "uint64",
          "name": "version",
          "type": "uint64"
        }
      ],
      "name": "Initialized",
      "type": "event"
    },
    {
      "anonymous": false,
      "inputs": [
        {
          "indexed": true,
          "internalType": "address",
          "name": "previousOwner",
          "type": "address"
        },
        {
          "indexed": true,
          "internalType": "address",
          "name": "newOwner",
          "type": "address"
        }
      ],
      "name": "OwnershipTransferred",
      "type": "event"
    },
    {
      "anonymous": false,
      "inputs": [
        {
          "indexed": true,
          "internalType": "uint256",
          "name": "requestId",
          "type": "uint256"
        },
        {
          "indexed": false,
          "internalType": "uint256[]",
          "name": "recordIds",
          "type": "uint256[]"
        },
        {
          "indexed": true,
          "internalType": "address",
          "name": "professional",
          "type": "address"
        },
        {
          "indexed": true,
          "internalType": "address",
          "name": "patient",
          "type": "address"
        }
      ],
      "name": "ProfessionalAccessRequested",
      "type": "event"
    },
    {
      "anonymous": false,
      "inputs": [
        {
          "indexed": true,
          "internalType": "address",
          "name": "user",
          "type": "address"
        },
        {
          "indexed": false,
          "internalType": "string",
          "name": "name",
          "type": "string"
        },
        {
          "indexed": false,
          "internalType": "string",
          "name": "contactInfo",
          "type": "string"
        },
        {
          "indexed": false,
          "internalType": "string",
          "name": "profileMetadataURI",
          "type": "string"
        }
      ],
      "name": "ProfileUpdated",
      "type": "event"
    },
    {
      "anonymous": false,
      "inputs": [
        {
          "indexed": true,
          "internalType": "address",
          "name": "user",
          "type": "address"
        }
      ],
      "name": "PublicKeySaved",
      "type": "event"
    },
    {
      "anonymous": false,
      "inputs": [
        {
          "indexed": true,
          "internalType": "uint256",
          "name": "recordId",
          "type": "uint256"
        },
        {
          "indexed": true,
          "internalType": "address",
          "name": "professionalAddress",
          "type": "address"
        }
      ],
      "name": "RecordAccessRevoked",
      "type": "event"
    },
    {
      "anonymous": false,
      "inputs": [
        {
          "indexed": true,
          "internalType": "uint256",
          "name": "recordId",
          "type": "uint256"
        },
        {
          "indexed": true,
          "internalType": "address",
          "name": "owner",
          "type": "address"
        },
        {
          "indexed": false,
          "internalType": "string",
          "name": "title",
          "type": "string"
        },
        {
          "indexed": false,
          "internalType": "string",
          "name": "ipfsHash",
          "type": "string"
        },
        {
          "indexed": false,
          "internalType": "string",
          "name": "category",
          "type": "string"
        },
        {
          "indexed": false,
          "internalType": "bool",
          "name": "isVerified",
          "type": "bool"
        },
        {
          "indexed": false,
          "internalType": "address",
          "name": "uploadedBy",
          "type": "address"
        },
        {
          "indexed": false,
          "internalType": "uint256",
          "name": "timestamp",
          "type": "uint256"
        }
      ],
      "name": "RecordAdded",
      "type": "event"
    },
    {
      "anonymous": false,
      "inputs": [
        {
          "indexed": true,
          "internalType": "uint256",
          "name": "hospitalId",
          "type": "uint256"
        },
        {
          "indexed": false,
          "internalType": "string",
          "name": "name",
          "type": "string"
        },
        {
          "indexed": true,
          "internalType": "address",
          "name": "requester",
          "type": "address"
        }
      ],
      "name": "RegistrationRequested",
      "type": "event"
    },
    {
      "anonymous": false,
      "inputs": [
        {
          "indexed": true,
          "internalType": "uint256",
          "name": "requestId",
          "type": "uint256"
        },
        {
          "indexed": true,
          "internalType": "address",
          "name": "patient",
          "type": "address"
        },
        {
          "indexed": false,
          "internalType": "uint256",
          "name": "accessDuration",
          "type": "uint256"
        }
      ],
      "name": "RequestApproved",
      "type": "event"
    },
    {
      "anonymous": false,
      "inputs": [
        {
          "indexed": true,
          "internalType": "address",
          "name": "user",
          "type": "address"
        },
        {
          "indexed": false,
          "internalType": "enum Storage.Role",
          "name": "role",
          "type": "uint8"
        },
        {
          "indexed": true,
          "internalType": "uint256",
          "name": "hospitalId",
          "type": "uint256"
        }
      ],
      "name": "RoleAssigned",
      "type": "event"
    },
    {
      "anonymous": false,
      "inputs": [
        {
          "indexed": true,
          "internalType": "address",
          "name": "user",
          "type": "address"
        },
        {
          "indexed": false,
          "internalType": "enum Storage.Role",
          "name": "role",
          "type": "uint8"
        },
        {
          "indexed": true,
          "internalType": "uint256",
          "name": "hospitalId",
          "type": "uint256"
        }
      ],
      "name": "RoleRevoked",
      "type": "event"
    },
    {
      "anonymous": false,
      "inputs": [
        {
          "indexed": true,
          "internalType": "address",
          "name": "implementation",
          "type": "address"
        }
      ],
      "name": "Upgraded",
      "type": "event"
    },
    {
      "anonymous": false,
      "inputs": [
        {
          "indexed": true,
          "internalType": "address",
          "name": "userAddress",
          "type": "address"
        },
        {
          "indexed": false,
          "internalType": "string",
          "name": "name",
          "type": "string"
        },
        {
          "indexed": false,
          "internalType": "enum Storage.Role",
          "name": "role",
          "type": "uint8"
        }
      ],
      "name": "UserRegistered",
      "type": "event"
    },
    {
      "anonymous": false,
      "inputs": [
        {
          "indexed": true,
          "internalType": "address",
          "name": "admin",
          "type": "address"
        },
        {
          "indexed": true,
          "internalType": "address",
          "name": "userAddress",
          "type": "address"
        }
      ],
      "name": "UserVerified",
      "type": "event"
    },
    {
      "inputs": [],
      "name": "UPGRADE_INTERFACE_VERSION",
      "outputs": [
        {
          "internalType": "string",
          "name": "",
          "type": "string"
        }
      ],
      "stateMutability": "view",
      "type": "function"
    },
    {
      "inputs": [
        {
          "internalType": "string",
          "name": "_ipfsHash",
          "type": "string"
        },
        {
          "internalType": "string",
          "name": "_title",
          "type": "string"
        },
        {
          "internalType": "string",
          "name": "_category",
          "type": "string"
        }
      ],
      "name": "addSelfUploadedRecord",
      "outputs": [],
      "stateMutability": "nonpayable",
      "type": "function"
    },
    {
      "inputs": [
        {
          "internalType": "address",
          "name": "_patient",
          "type": "address"
        },
        {
          "internalType": "string",
          "name": "_ipfsHash",
          "type": "string"
        },
        {
          "internalType": "string",
          "name": "_title",
          "type": "string"
        },
        {
          "internalType": "string",
          "name": "_category",
          "type": "string"
        },
        {
          "internalType": "bytes",
          "name": "_encryptedKeyForPatient",
          "type": "bytes"
        },
        {
          "internalType": "bytes",
          "name": "_encryptedKeyForHospital",
          "type": "bytes"
        }
      ],
      "name": "addVerifiedRecord",
      "outputs": [],
      "stateMutability": "nonpayable",
      "type": "function"
    },
    {
      "inputs": [
        {
          "internalType": "uint256",
          "name": "_requestId",
          "type": "uint256"
        },
        {
          "internalType": "uint256",
          "name": "_durationInDays",
          "type": "uint256"
        }
      ],
      "name": "approveRequest",
      "outputs": [],
      "stateMutability": "nonpayable",
      "type": "function"
    },
    {
      "inputs": [
        {
          "internalType": "address",
          "name": "user",
          "type": "address"
        },
        {
          "internalType": "enum Storage.Role",
          "name": "role",
          "type": "uint8"
        },
        {
          "internalType": "uint256",
          "name": "hospitalId",
          "type": "uint256"
        }
      ],
      "name": "assignRole",
      "outputs": [],
      "stateMutability": "nonpayable",
      "type": "function"
    },
    {
      "inputs": [
        {
          "internalType": "uint256",
          "name": "_recordId",
          "type": "uint256"
        },
        {
          "internalType": "address",
          "name": "_viewer",
          "type": "address"
        }
      ],
      "name": "checkRecordAccess",
      "outputs": [
        {
          "internalType": "bool",
          "name": "",
          "type": "bool"
        }
      ],
      "stateMutability": "view",
      "type": "function"
    },
    {
      "inputs": [
        {
          "internalType": "address",
          "name": "_patientAddress",
          "type": "address"
        }
      ],
      "name": "getPatientRecordIds",
      "outputs": [
        {
          "internalType": "uint256[]",
          "name": "",
          "type": "uint256[]"
        }
      ],
      "stateMutability": "view",
      "type": "function"
    },
    {
      "inputs": [
        {
          "internalType": "address",
          "name": "_patientAddress",
          "type": "address"
        },
        {
          "internalType": "uint256",
          "name": "_index",
          "type": "uint256"
        }
      ],
      "name": "getPatientRequestAtIndex",
      "outputs": [
        {
          "components": [
            {
              "internalType": "uint256",
              "name": "id",
              "type": "uint256"
            },
            {
              "internalType": "address",
              "name": "patient",
              "type": "address"
            },
            {
              "internalType": "address",
              "name": "provider",
              "type": "address"
            },
            {
              "internalType": "string",
              "name": "claimId",
              "type": "string"
            },
            {
              "internalType": "enum Storage.RequestStatus",
              "name": "status",
              "type": "uint8"
            }
          ],
          "internalType": "struct Storage.AccessRequest",
          "name": "",
          "type": "tuple"
        }
      ],
      "stateMutability": "view",
      "type": "function"
    },
    {
      "inputs": [
        {
          "internalType": "address",
          "name": "_patientAddress",
          "type": "address"
        }
      ],
      "name": "getPatientRequestsCount",
      "outputs": [
        {
          "internalType": "uint256",
          "name": "",
          "type": "uint256"
        }
      ],
      "stateMutability": "view",
      "type": "function"
    },
    {
      "inputs": [
        {
          "internalType": "uint256",
          "name": "_recordId",
          "type": "uint256"
        }
      ],
      "name": "getRecordById",
      "outputs": [
        {
          "components": [
            {
              "internalType": "uint256",
              "name": "id",
              "type": "uint256"
            },
            {
              "internalType": "string",
              "name": "title",
              "type": "string"
            },
            {
              "internalType": "string",
              "name": "ipfsHash",
              "type": "string"
            },
            {
              "internalType": "uint256",
              "name": "timestamp",
              "type": "uint256"
            },
            {
              "internalType": "address",
              "name": "uploadedBy",
              "type": "address"
            },
            {
              "internalType": "address",
              "name": "owner",
              "type": "address"
            },
            {
              "internalType": "bool",
              "name": "isVerified",
              "type": "bool"
            },
            {
              "internalType": "string",
              "name": "category",
              "type": "string"
            },
            {
              "internalType": "bytes",
              "name": "encryptedKeyForPatient",
              "type": "bytes"
            },
            {
              "internalType": "bytes",
              "name": "encryptedKeyForHospital",
              "type": "bytes"
            }
          ],
          "internalType": "struct Storage.Record",
          "name": "",
          "type": "tuple"
        }
      ],
      "stateMutability": "view",
      "type": "function"
    },
    {
      "inputs": [
        {
          "internalType": "uint256[]",
          "name": "_recordIds",
          "type": "uint256[]"
        },
        {
          "internalType": "address",
          "name": "_grantee",
          "type": "address"
        },
        {
          "internalType": "uint256",
          "name": "_durationInDays",
          "type": "uint256"
        },
        {
          "internalType": "bytes[]",
          "name": "_encryptedDeks",
          "type": "bytes[]"
        }
      ],
      "name": "grantMultipleRecordAccess",
      "outputs": [],
      "stateMutability": "nonpayable",
      "type": "function"
    },
    {
      "inputs": [
        {
          "internalType": "uint256",
          "name": "_recordId",
          "type": "uint256"
        },
        {
          "internalType": "address",
          "name": "_grantee",
          "type": "address"
        },
        {
          "internalType": "uint256",
          "name": "_durationInDays",
          "type": "uint256"
        },
        {
          "internalType": "bytes",
          "name": "_encryptedDek",
          "type": "bytes"
        }
      ],
      "name": "grantRecordAccess",
      "outputs": [],
      "stateMutability": "nonpayable",
      "type": "function"
    },
    {
      "inputs": [],
      "name": "hospitalIdCounter",
      "outputs": [
        {
          "internalType": "uint256",
          "name": "",
          "type": "uint256"
        }
      ],
      "stateMutability": "view",
      "type": "function"
    },
    {
      "inputs": [
        {
          "internalType": "uint256",
          "name": "",
          "type": "uint256"
        }
      ],
      "name": "hospitals",
      "outputs": [
        {
          "internalType": "uint256",
          "name": "hospitalId",
          "type": "uint256"
        },
        {
          "internalType": "string",
          "name": "name",
          "type": "string"
        },
        {
          "internalType": "address",
          "name": "adminAddress",
          "type": "address"
        },
        {
          "internalType": "bool",
          "name": "isVerified",
          "type": "bool"
        }
      ],
      "stateMutability": "view",
      "type": "function"
    },
    {
      "inputs": [
        {
          "internalType": "address",
          "name": "initialOwner",
          "type": "address"
        }
      ],
      "name": "initialize",
      "outputs": [],
      "stateMutability": "nonpayable",
      "type": "function"
    },
    {
      "inputs": [],
      "name": "owner",
      "outputs": [
        {
          "internalType": "address",
          "name": "",
          "type": "address"
        }
      ],
      "stateMutability": "view",
      "type": "function"
    },
    {
      "inputs": [
        {
          "internalType": "address",
          "name": "",
          "type": "address"
        },
        {
          "internalType": "uint256",
          "name": "",
          "type": "uint256"
        }
      ],
      "name": "patientRecordIds",
      "outputs": [
        {
          "internalType": "uint256",
          "name": "",
          "type": "uint256"
        }
      ],
      "stateMutability": "view",
      "type": "function"
    },
    {
      "inputs": [
        {
          "internalType": "address",
          "name": "",
          "type": "address"
        },
        {
          "internalType": "uint256",
          "name": "",
          "type": "uint256"
        }
      ],
      "name": "patientRequests",
      "outputs": [
        {
          "internalType": "uint256",
          "name": "id",
          "type": "uint256"
        },
        {
          "internalType": "address",
          "name": "patient",
          "type": "address"
        },
        {
          "internalType": "address",
          "name": "provider",
          "type": "address"
        },
        {
          "internalType": "string",
          "name": "claimId",
          "type": "string"
        },
        {
          "internalType": "enum Storage.RequestStatus",
          "name": "status",
          "type": "uint8"
        }
      ],
      "stateMutability": "view",
      "type": "function"
    },
    {
      "inputs": [
        {
          "internalType": "address",
          "name": "",
          "type": "address"
        }
      ],
      "name": "professionalToHospitalId",
      "outputs": [
        {
          "internalType": "uint256",
          "name": "",
          "type": "uint256"
        }
      ],
      "stateMutability": "view",
      "type": "function"
    },
    {
      "inputs": [],
      "name": "proxiableUUID",
      "outputs": [
        {
          "internalType": "bytes32",
          "name": "",
          "type": "bytes32"
        }
      ],
      "stateMutability": "view",
      "type": "function"
    },
    {
      "inputs": [
        {
          "internalType": "uint256",
          "name": "",
          "type": "uint256"
        },
        {
          "internalType": "address",
          "name": "",
          "type": "address"
        }
      ],
      "name": "recordAccess",
      "outputs": [
        {
          "internalType": "uint256",
          "name": "",
          "type": "uint256"
        }
      ],
      "stateMutability": "view",
      "type": "function"
    },
    {
      "inputs": [
        {
          "internalType": "uint256",
          "name": "",
          "type": "uint256"
        }
      ],
      "name": "records",
      "outputs": [
        {
          "internalType": "uint256",
          "name": "id",
          "type": "uint256"
        },
        {
          "internalType": "string",
          "name": "title",
          "type": "string"
        },
        {
          "internalType": "string",
          "name": "ipfsHash",
          "type": "string"
        },
        {
          "internalType": "uint256",
          "name": "timestamp",
          "type": "uint256"
        },
        {
          "internalType": "address",
          "name": "uploadedBy",
          "type": "address"
        },
        {
          "internalType": "address",
          "name": "owner",
          "type": "address"
        },
        {
          "internalType": "bool",
          "name": "isVerified",
          "type": "bool"
        },
        {
          "internalType": "string",
          "name": "category",
          "type": "string"
        },
        {
          "internalType": "bytes",
          "name": "encryptedKeyForPatient",
          "type": "bytes"
        },
        {
          "internalType": "bytes",
          "name": "encryptedKeyForHospital",
          "type": "bytes"
        }
      ],
      "stateMutability": "view",
      "type": "function"
    },
    {
      "inputs": [
        {
          "internalType": "string",
          "name": "_name",
          "type": "string"
        },
        {
          "internalType": "enum Storage.Role",
          "name": "_role",
          "type": "uint8"
        }
      ],
      "name": "registerUser",
      "outputs": [],
      "stateMutability": "nonpayable",
      "type": "function"
    },
    {
      "inputs": [
        {
          "internalType": "uint256",
          "name": "",
          "type": "uint256"
        }
      ],
      "name": "registrationRequests",
      "outputs": [
        {
          "internalType": "uint256",
          "name": "hospitalId",
          "type": "uint256"
        },
        {
          "internalType": "string",
          "name": "name",
          "type": "string"
        },
        {
          "internalType": "address",
          "name": "requesterAddress",
          "type": "address"
        },
        {
          "internalType": "enum Storage.RequestStatus",
          "name": "status",
          "type": "uint8"
        }
      ],
      "stateMutability": "view",
      "type": "function"
    },
    {
      "inputs": [],
      "name": "renounceOwnership",
      "outputs": [],
      "stateMutability": "nonpayable",
      "type": "function"
    },
    {
      "inputs": [
        {
          "internalType": "address",
          "name": "_patientAddress",
          "type": "address"
        },
        {
          "internalType": "string",
          "name": "_claimId",
          "type": "string"
        }
      ],
      "name": "requestAccess",
      "outputs": [],
      "stateMutability": "nonpayable",
      "type": "function"
    },
    {
      "inputs": [
        {
          "internalType": "address",
          "name": "_patient",
          "type": "address"
        },
        {
          "internalType": "uint256[]",
          "name": "_recordIds",
          "type": "uint256[]"
        }
      ],
      "name": "requestRecordAccess",
      "outputs": [],
      "stateMutability": "nonpayable",
      "type": "function"
    },
    {
      "inputs": [
        {
          "internalType": "string",
          "name": "hospitalName",
          "type": "string"
        }
      ],
      "name": "requestRegistration",
      "outputs": [],
      "stateMutability": "nonpayable",
      "type": "function"
    },
    {
      "inputs": [
        {
          "internalType": "uint256",
          "name": "hospitalId",
          "type": "uint256"
        }
      ],
      "name": "revokeHospital",
      "outputs": [],
      "stateMutability": "nonpayable",
      "type": "function"
    },
    {
      "inputs": [
        {
          "internalType": "uint256",
          "name": "recordId",
          "type": "uint256"
        },
        {
          "internalType": "address",
          "name": "professionalAddress",
          "type": "address"
        }
      ],
      "name": "revokeRecordAccess",
      "outputs": [],
      "stateMutability": "nonpayable",
      "type": "function"
    },
    {
      "inputs": [
        {
          "internalType": "address",
          "name": "user",
          "type": "address"
        },
        {
          "internalType": "enum Storage.Role",
          "name": "role",
          "type": "uint8"
        },
        {
          "internalType": "uint256",
          "name": "hospitalId",
          "type": "uint256"
        }
      ],
      "name": "revokeRole",
      "outputs": [],
      "stateMutability": "nonpayable",
      "type": "function"
    },
    {
      "inputs": [
        {
          "internalType": "string",
          "name": "_publicKey",
          "type": "string"
        }
      ],
      "name": "savePublicKey",
      "outputs": [],
      "stateMutability": "nonpayable",
      "type": "function"
    },
    {
      "inputs": [
        {
          "internalType": "address",
          "name": "newOwner",
          "type": "address"
        }
      ],
      "name": "transferOwnership",
      "outputs": [],
      "stateMutability": "nonpayable",
      "type": "function"
    },
    {
      "inputs": [
        {
          "internalType": "string",
          "name": "_name",
          "type": "string"
        },
        {
          "internalType": "string",
          "name": "_contactInfo",
          "type": "string"
        },
        {
          "internalType": "string",
          "name": "_profileMetadataURI",
          "type": "string"
        }
      ],
      "name": "updateUserProfile",
      "outputs": [],
      "stateMutability": "nonpayable",
      "type": "function"
    },
    {
      "inputs": [
        {
          "internalType": "address",
          "name": "newImplementation",
          "type": "address"
        },
        {
          "internalType": "bytes",
          "name": "data",
          "type": "bytes"
        }
      ],
      "name": "upgradeToAndCall",
      "outputs": [],
      "stateMutability": "payable",
      "type": "function"
    },
    {
      "inputs": [
        {
          "internalType": "address",
          "name": "",
          "type": "address"
        }
      ],
      "name": "userProfiles",
      "outputs": [
        {
          "internalType": "string",
          "name": "name",
          "type": "string"
        },
        {
          "internalType": "string",
          "name": "contactInfo",
          "type": "string"
        },
        {
          "internalType": "string",
          "name": "profileMetadataURI",
          "type": "string"
        }
      ],
      "stateMutability": "view",
      "type": "function"
    },
    {
      "inputs": [
        {
          "internalType": "address",
          "name": "",
          "type": "address"
        }
      ],
      "name": "userToHospital",
      "outputs": [
        {
          "internalType": "uint256",
          "name": "",
          "type": "uint256"
        }
      ],
      "stateMutability": "view",
      "type": "function"
    },
    {
      "inputs": [
        {
          "internalType": "address",
          "name": "",
          "type": "address"
        }
      ],
      "name": "users",
      "outputs": [
        {
          "internalType": "address",
          "name": "walletAddress",
          "type": "address"
        },
        {
          "internalType": "string",
          "name": "name",
          "type": "string"
        },
        {
          "internalType": "enum Storage.Role",
          "name": "role",
          "type": "uint8"
        },
        {
          "internalType": "bool",
          "name": "isVerified",
          "type": "bool"
        },
        {
          "internalType": "string",
          "name": "publicKey",
          "type": "string"
        }
      ],
      "stateMutability": "view",
      "type": "function"
    },
    {
      "inputs": [
        {
          "internalType": "uint256",
          "name": "hospitalId",
          "type": "uint256"
        },
        {
          "internalType": "address",
          "name": "adminAddress",
          "type": "address"
        }
      ],
      "name": "verifyHospital",
      "outputs": [],
      "stateMutability": "nonpayable",
      "type": "function"
    }
  ],
  "bytecode": "0x60a0604052306080523480156200001557600080fd5b506200002062000026565b620000da565b7ff0c57e16840df040f15088dc2f81fe391c3923bec73e23a9662efc9c229c6a00805468010000000000000000900460ff1615620000775760405163f92ee8a960e01b815260040160405180910390fd5b80546001600160401b0390811614620000d75780546001600160401b0319166001600160401b0390811782556040519081527fc7f505b2f371ae2175ee4913f4499e1f2633a7b5936321eed1cdaeb6115181d29060200160405180910390a15b50565b6080516149ef620001046000396000818161354b0152818161357401526136b501526149ef6000f3fe6080604052600436106102305760003560e01c80639afd8efe1161012e578063cbf47a7e116100ab578063e6e8c76b1161006f578063e6e8c76b1461072e578063e75b8b231461075b578063ea4d598e14610788578063f2fde38b146107a8578063f7905138146107c857600080fd5b8063cbf47a7e1461068e578063cfeab136146106ae578063d8eb8e90146106ce578063dd95f654146106ee578063e699ffcd1461070e57600080fd5b8063bace0290116100f2578063bace0290146105d6578063beccc1c8146105f6578063c3f1a94914610616578063c459a8ce14610636578063c4d66de81461066e57600080fd5b80639afd8efe146104fa578063a00977bf14610527578063a87430ba14610547578063ad3cb1cc14610578578063b8604fba146105b657600080fd5b806352d1902d116101bc5780636b3c6fd6116101805780636b3c6fd61461042b578063715018a61461045b57806381dc6fd2146104705780638da5cb5b146104a057806395b5a65b146104cd57600080fd5b806352d1902d146103895780635a82375b1461039e5780635af28ce3146103be5780635e2547f2146103de5780636248204e146103fe57600080fd5b80633217bc72116102035780633217bc72146102c0578063332d56d7146102f1578063338e12eb1461032057806334461067146103405780634f1ef2861461037657600080fd5b8063072f77521461023557806328f183a1146102575780632c0a90a9146102805780632f6d4a59146102a0575b600080fd5b34801561024157600080fd5b50610255610250366004613acd565b6107f8565b005b34801561026357600080fd5b5061026d60085481565b6040519081526020015b60405180910390f35b34801561028c57600080fd5b5061025561029b366004613b54565b610870565b3480156102ac57600080fd5b506102556102bb366004613b92565b610af4565b3480156102cc57600080fd5b506102e06102db366004613bdf565b610cba565b604051610277959493929190613c83565b3480156102fd57600080fd5b5061031161030c366004613cce565b610da1565b60405161027793929190613ce9565b34801561032c57600080fd5b5061025561033b366004613d31565b610f5b565b34801561034c57600080fd5b5061036061035b366004613d7e565b611182565b6040516102779a99989796959493929190613d97565b610255610384366004613b92565b6114a0565b34801561039557600080fd5b5061026d6114bf565b3480156103aa57600080fd5b506102556103b9366004613eec565b6114dc565b3480156103ca57600080fd5b5061026d6103d9366004613cce565b61174b565b3480156103ea57600080fd5b5061026d6103f9366004613bdf565b611792565b34801561040a57600080fd5b5061041e610419366004613cce565b6117c3565b6040516102779190613fc1565b34801561043757600080fd5b5061044b610446366004613d7e565b611858565b6040516102779493929190614005565b34801561046757600080fd5b50610255611919565b34801561047c57600080fd5b5061049061048b366004613d7e565b61192d565b604051610277949392919061403c565b3480156104ac57600080fd5b506104b561194f565b6040516001600160a01b039091168152602001610277565b3480156104d957600080fd5b5061026d6104e8366004613cce565b600b6020526000908152604090205481565b34801561050657600080fd5b5061051a610515366004613bdf565b61197d565b6040516102779190614076565b34801561053357600080fd5b506102556105423660046140da565b611b17565b34801561055357600080fd5b50610567610562366004613cce565b611c33565b604051610277959493929190614126565b34801561058457600080fd5b506105a9604051806040016040528060058152602001640352e302e360dc1b81525081565b604051610277919061417d565b3480156105c257600080fd5b506102556105d1366004614190565b611d85565b3480156105e257600080fd5b506102556105f1366004614214565b611f29565b34801561060257600080fd5b50610255610611366004613d7e565b612028565b34801561062257600080fd5b506102556106313660046142ad565b6120af565b34801561064257600080fd5b5061026d6106513660046142ad565b600460209081526000928352604080842090915290825290205481565b34801561067a57600080fd5b50610255610689366004613cce565b612482565b34801561069a57600080fd5b506102556106a93660046142d0565b612584565b3480156106ba57600080fd5b506102556106c9366004614324565b6127c5565b3480156106da57600080fd5b506102556106e93660046140da565b6128df565b3480156106fa57600080fd5b50610255610709366004614404565b61299e565b34801561071a57600080fd5b50610255610729366004614190565b612adc565b34801561073a57600080fd5b5061026d610749366004613cce565b600a6020526000908152604090205481565b34801561076757600080fd5b5061077b610776366004613d7e565b612d48565b6040516102779190614489565b34801561079457600080fd5b506102556107a33660046142ad565b613132565b3480156107b457600080fd5b506102556107c3366004613cce565b613240565b3480156107d457600080fd5b506107e86107e33660046142ad565b613283565b6040519015158152602001610277565b3360009081526020819052604081206002015460ff16600881111561081f5761081f613c59565b1461083d5760405163104a226f60e31b815260040160405180910390fd5b61086b3384848460006040518060200160405280600081525060405180602001604052806000815250613327565b505050565b3360009081526020819052604081206002015460ff16600881111561089757610897613c59565b146108b55760405163104a226f60e31b815260040160405180910390fd5b33600090815260056020526040812090805b8254811015610acf57848382815481106108e3576108e3614575565b90600052602060002090600502016000015414801561093b5750600083828154811061091157610911614575565b600091825260209091206004600590920201015460ff16600281111561093957610939613c59565b145b15610ac757600183828154811061095457610954614575565b60009182526020909120600460059092020101805460ff1916600183600281111561098157610981613c59565b0217905550600061099585620151806145a1565b61099f90426145b8565b905060008483815481106109b5576109b5614575565b60009182526020808320600260059093020191909101543383526003909152604082206001600160a01b039091169250905b8154811015610a83576000828281548110610a0457610a04614575565b6000918252602080832091909101548083526004825260408084206001600160a01b0389168086529084528185208a905581518a8152938401829052908301939093529250339083907f1c795c24f232a1e8a341c63546a2631ab532f7bf10169ff1b3c74187ad48a0f19060600160405180910390a4506001016109e7565b5060405187815260019550339089907f4def62da440b39db2661de60aa3dad0479ac27d4c22597d6e14c7441774f8a319060200160405180910390a3505050610acf565b6001016108c7565b5080610aee57604051632589d98f60e11b815260040160405180910390fd5b50505050565b60033360009081526020819052604090206002015460ff166008811115610b1d57610b1d613c59565b14610b3b57604051630d52912160e21b815260040160405180910390fd5b6001600160a01b03821660009081526020819052604081206002015460ff166008811115610b6b57610b6b613c59565b14610b895760405163104a226f60e31b815260040160405180910390fd5b6006805460009182610b9a836145cb565b909155506001600160a01b038481166000818152600560208181526040808420815160a08101835288815280840196875233928101928352606081018b81526080820187905282546001808201855593885294909620815194909502909401928355945194820180549587166001600160a01b031996871617905551600282018054919096169416939093179093555192935090916003820190610c3e9082614666565b50608082015160048201805460ff19166001836002811115610c6257610c62613c59565b02179055505050336001600160a01b0316836001600160a01b0316827f21eb886073c5fec0f227f76ef8335d82939c7aa4b537be2e0943f4c1dc74553e85604051610cad919061417d565b60405180910390a4505050565b60056020528160005260406000208181548110610cd657600080fd5b600091825260209091206005909102018054600182015460028301546003840180549396506001600160a01b03928316955091169291610d15906145e4565b80601f0160208091040260200160405190810160405280929190818152602001828054610d41906145e4565b8015610d8e5780601f10610d6357610100808354040283529160200191610d8e565b820191906000526020600020905b815481529060010190602001808311610d7157829003601f168201915b5050506004909301549192505060ff1685565b600160205260009081526040902080548190610dbc906145e4565b80601f0160208091040260200160405190810160405280929190818152602001828054610de8906145e4565b8015610e355780601f10610e0a57610100808354040283529160200191610e35565b820191906000526020600020905b815481529060010190602001808311610e1857829003601f168201915b505050505090806001018054610e4a906145e4565b80601f0160208091040260200160405190810160405280929190818152602001828054610e76906145e4565b8015610ec35780601f10610e9857610100808354040283529160200191610ec3565b820191906000526020600020905b815481529060010190602001808311610ea657829003601f168201915b505050505090806002018054610ed8906145e4565b80601f0160208091040260200160405190810160405280929190818152602001828054610f04906145e4565b8015610f515780601f10610f2657610100808354040283529160200191610f51565b820191906000526020600020905b815481529060010190602001808311610f3457829003601f168201915b5050505050905083565b336000908152602081905260409020546001600160a01b031615610f9257604051630ea075bf60e21b815260040160405180910390fd5b6002816008811115610fa657610fa6613c59565b1480610fc357506008816008811115610fc157610fc1613c59565b145b15610fe157604051630bc9e58560e31b815260040160405180910390fd5b6040518060a00160405280336001600160a01b0316815260200183815260200182600881111561101357611013613c59565b81526000602080830182905260408051808301825283815293810193909352338252818152919020825181546001600160a01b0319166001600160a01b0390911617815590820151600182019061106a9082614666565b50604082015160028201805460ff1916600183600881111561108e5761108e613c59565b021790555060608201516002820180549115156101000261ff0019909216919091179055608082015160038201906110c69082614666565b5050604080516060810182528481528151602081810184526000808352818401929092528351808201855282815283850152338252600190529190912081519192509081906111159082614666565b506020820151600182019061112a9082614666565b506040820151600282019061113f9082614666565b50506040513391507fc2e5d5da58bd71d1a2d14cdef02a4256d971b728088f8190d067ccfbae3bd73e906111769085908590614725565b60405180910390a25050565b6002818154811061119257600080fd5b600091825260209091206009909102018054600182018054919350906111b7906145e4565b80601f01602080910402602001604051908101604052809291908181526020018280546111e3906145e4565b80156112305780601f1061120557610100808354040283529160200191611230565b820191906000526020600020905b81548152906001019060200180831161121357829003601f168201915b505050505090806002018054611245906145e4565b80601f0160208091040260200160405190810160405280929190818152602001828054611271906145e4565b80156112be5780601f10611293576101008083540402835291602001916112be565b820191906000526020600020905b8154815290600101906020018083116112a157829003601f168201915b50505050600383015460048401546005850154600686018054959693956001600160a01b03938416955092821693600160a01b90920460ff1692611301906145e4565b80601f016020809104026020016040519081016040528092919081815260200182805461132d906145e4565b801561137a5780601f1061134f5761010080835404028352916020019161137a565b820191906000526020600020905b81548152906001019060200180831161135d57829003601f168201915b50505050509080600701805461138f906145e4565b80601f01602080910402602001604051908101604052809291908181526020018280546113bb906145e4565b80156114085780601f106113dd57610100808354040283529160200191611408565b820191906000526020600020905b8154815290600101906020018083116113eb57829003601f168201915b50505050509080600801805461141d906145e4565b80601f0160208091040260200160405190810160405280929190818152602001828054611449906145e4565b80156114965780601f1061146b57610100808354040283529160200191611496565b820191906000526020600020905b81548152906001019060200180831161147957829003601f168201915b505050505090508a565b6114a8613540565b6114b1826135e5565b6114bb82826135ed565b5050565b60006114c96136aa565b5060008051602061499a83398151915290565b80518451146114fe576040516343714afd60e01b815260040160405180910390fd5b6001600160a01b03831660009081526020819052604090206001600282015460ff16600881111561153157611531613c59565b1415801561155857506007600282015460ff16600881111561155557611555613c59565b14155b801561157d57506003600282015460ff16600881111561157a5761157a613c59565b14155b80156115a257506004600282015460ff16600881111561159f5761159f613c59565b14155b80156115c757506005600282015460ff1660088111156115c4576115c4613c59565b14155b806115dc57506002810154610100900460ff16155b156115fa57604051635f10e00b60e01b815260040160405180910390fd5b600061160984620151806145a1565b61161390426145b8565b905060005b865181101561174257600087828151811061163557611635614575565b602002602001015190506002805490508110801561168a5750336001600160a01b03166002828154811061166b5761166b614575565b60009182526020909120600560099092020101546001600160a01b0316145b156117395760008181526004602090815260408083206001600160a01b038b16845290915290205442106117395760008181526004602090815260408083206001600160a01b038b1680855292529091208490558551339083907f1c795c24f232a1e8a341c63546a2631ab532f7bf10169ff1b3c74187ad48a0f19087908a908890811061171a5761171a614575565b6020026020010151604051611730929190614747565b60405180910390a45b50600101611618565b50505050505050565b6000336001600160a01b038316146117765760405163ea8e4eb560e01b815260040160405180910390fd5b506001600160a01b031660009081526005602052604090205490565b600360205281600052604060002081815481106117ae57600080fd5b90600052602060002001600091509150505481565b6060336001600160a01b038316146117ee5760405163ea8e4eb560e01b815260040160405180910390fd5b6001600160a01b0382166000908152600360209081526040918290208054835181840281018401909452808452909183018282801561184c57602002820191906000526020600020905b815481526020019060010190808311611838575b50505050509050919050565b6009602052600090815260409020805460018201805491929161187a906145e4565b80601f01602080910402602001604051908101604052809291908181526020018280546118a6906145e4565b80156118f35780601f106118c8576101008083540402835291602001916118f3565b820191906000526020600020905b8154815290600101906020018083116118d657829003601f168201915b505050600290930154919250506001600160a01b0381169060ff600160a01b9091041684565b6119216136f3565b61192b6000613725565b565b6007602052600090815260409020805460018201805491929161187a906145e4565b7f9016d09d72d40fdae2fd8ceac6b6234c7706214fd39c1cd1e609a0528c199300546001600160a01b031690565b6119ab6040805160a08101825260008082526020820181905291810182905260608082015290608082015290565b336001600160a01b038416146119d45760405163ea8e4eb560e01b815260040160405180910390fd5b6001600160a01b03831660009081526005602052604090208054839081106119fe576119fe614575565b60009182526020918290206040805160a08101825260059093029091018054835260018101546001600160a01b0390811694840194909452600281015490931690820152600382018054919291606084019190611a5a906145e4565b80601f0160208091040260200160405190810160405280929190818152602001828054611a86906145e4565b8015611ad35780601f10611aa857610100808354040283529160200191611ad3565b820191906000526020600020905b815481529060010190602001808311611ab657829003601f168201915b5050509183525050600482015460209091019060ff166002811115611afa57611afa613c59565b6002811115611b0b57611b0b613c59565b90525090505b92915050565b6008805460009182611b28836145cb565b9190505590506040518060800160405280828152602001838152602001336001600160a01b0316815260200160006002811115611b6757611b67613c59565b9052600082815260096020908152604090912082518155908201516001820190611b919082614666565b506040820151600280830180546001600160a01b039093166001600160a01b031984168117825560608601519391926001600160a81b03199092161790600160a01b908490811115611be557611be5613c59565b0217905550905050336001600160a01b0316817fbf61b5cace25ee4d225724bee5d3875a59e7468e6524c619b1bcc3361ba9a8e684604051611c27919061417d565b60405180910390a35050565b600060208190529081526040902080546001820180546001600160a01b039092169291611c5f906145e4565b80601f0160208091040260200160405190810160405280929190818152602001828054611c8b906145e4565b8015611cd85780601f10611cad57610100808354040283529160200191611cd8565b820191906000526020600020905b815481529060010190602001808311611cbb57829003601f168201915b505050506002830154600384018054939460ff8084169561010090940416935091611d02906145e4565b80601f0160208091040260200160405190810160405280929190818152602001828054611d2e906145e4565b8015611d7b5780601f10611d5057610100808354040283529160200191611d7b565b820191906000526020600020905b815481529060010190602001808311611d5e57829003601f168201915b5050505050905085565b611d8d61194f565b6001600160a01b0316336001600160a01b031614611e405760023360009081526020819052604090206002015460ff166008811115611dce57611dce613c59565b141580611df3575033600090815260208190526040902060020154610100900460ff16155b15611e115760405163248b437160e21b815260040160405180910390fd5b336000908152600a60205260409020548114611e405760405163ea8e4eb560e01b815260040160405180910390fd5b6001600160a01b0383811660009081526020819052604090205416611e78576040516319c29a3360e21b815260040160405180910390fd5b6001600160a01b0383166000908152600a60205260409020548114611eb057604051637aa3308d60e11b815260040160405180910390fd5b6001600160a01b038316600081815260208181526040808320600201805461ffff19169055600a8252808320839055600b90915280822091909155518291907f656386f7fbf5fbd79ebb5d508870678c1d0ba774d3af78f5971f7d32d0da18bd90611f1c908690614760565b60405180910390a3505050565b336000908152602081905260409020546001600160a01b0316611f5f5760405163aba4733960e01b815260040160405180910390fd5b336000908152600160205260409020611f7986888361476e565b5033600090815260016020819052604090912001611f9884868361476e565b50336000908152600160205260409020600201611fb682848361476e565b50336000908152602081905260409020600101611fd486888361476e565b50336001600160a01b03167f6420daf1b58438e85465ef21dee378d307a509caab491149e3f066c5caf1266d87878787878760405161201896959493929190614857565b60405180910390a2505050505050565b6120306136f3565b600081815260076020526040902060020154600160a01b900460ff1661206957604051634d2310eb60e11b815260040160405180910390fd5b600081815260076020526040808220600201805460ff60a01b191690555182917fde3170d9273315de9a8b381190baac26e017d2c9ac99d1ca5b428bea7161f89291a250565b6120b76136f3565b600080838152600960205260409020600290810154600160a01b900460ff16908111156120e6576120e6613c59565b14612104576040516317f4986760e31b815260040160405180910390fd5b6001600160a01b03818116600090815260208190526040902054161561213d57604051630ea075bf60e21b815260040160405180910390fd5b600082815260096020818152604080842060028101805460ff60a01b1916600160a01b1790558151608081019092528682529386905291815260019092018054919283019161218b906145e4565b80601f01602080910402602001604051908101604052809291908181526020018280546121b7906145e4565b80156122045780601f106121d957610100808354040283529160200191612204565b820191906000526020600020905b8154815290600101906020018083116121e757829003601f168201915b50505091835250506001600160a01b03831660208083019190915260016040928301819052600086815260078352929092208351815590830151909182019061224d9082614666565b50604082810151600292830180546060909501511515600160a01b026001600160a81b03199095166001600160a01b039283161794909417909355805160a081018252928416835280518082018252600581526420b236b4b760d91b6020828101919091528401528201908152600160208083018290526040805180830182526000808252948201526001600160a01b0386811685528483529320845181546001600160a01b03191694169390931783558301519082019061230f9082614666565b50604082015160028201805460ff1916600183600881111561233357612333613c59565b021790555060608201516002820180549115156101000261ff00199092169190911790556080820151600382019061236b9082614666565b50506040805160a0810182526005606082019081526420b236b4b760d91b6080830152815281516020818101845260008083528184019290925283518082018552828152838501526001600160a01b0386168252600190529190912081519192509081906123d99082614666565b50602082015160018201906123ee9082614666565b50604082015160028201906124039082614666565b5050506001600160a01b0381166000818152600a60205260408082208590555184917f1421bdc12a61f8ad34351cd7dd151822ac06730e7b43ee4bdfd4aaeb1ff5311c91a3806001600160a01b03167fc2e5d5da58bd71d1a2d14cdef02a4256d971b728088f8190d067ccfbae3bd73e600260405161117691906148a0565b600061248c613796565b805490915060ff600160401b82041615906001600160401b03166000811580156124b35750825b90506000826001600160401b031660011480156124cf5750303b155b9050811580156124dd575080155b156124fb5760405163f92ee8a960e01b815260040160405180910390fd5b845467ffffffffffffffff19166001178555831561252557845460ff60401b1916600160401b1785555b61252e866137bf565b6125366137d0565b831561257c57845460ff60401b19168555604051600181527fc7f505b2f371ae2175ee4913f4499e1f2633a7b5936321eed1cdaeb6115181d29060200160405180910390a15b505050505050565b60025484106125a657604051633e07f1a160e01b815260040160405180910390fd5b6000600285815481106125bb576125bb614575565b600091825260209091206005600990920201908101549091506001600160a01b031633146125fc57604051635e27834560e01b815260040160405180910390fd5b6001600160a01b03841660009081526020819052604090206001600282015460ff16600881111561262f5761262f613c59565b1415801561265657506007600282015460ff16600881111561265357612653613c59565b14155b801561267b57506003600282015460ff16600881111561267857612678613c59565b14155b80156126a057506004600282015460ff16600881111561269d5761269d613c59565b14155b80156126c557506005600282015460ff1660088111156126c2576126c2613c59565b14155b806126da57506002810154610100900460ff16155b156126f857604051635f10e00b60e01b815260040160405180910390fd5b60008681526004602090815260408083206001600160a01b038916845290915290205442101561273b576040516342beec5560e11b815260040160405180910390fd5b600061274a85620151806145a1565b61275490426145b8565b60008881526004602090815260408083206001600160a01b038b16808552925291829020839055905191925090339089907f1c795c24f232a1e8a341c63546a2631ab532f7bf10169ff1b3c74187ad48a0f1906127b49086908a90614747565b60405180910390a450505050505050565b6001600160a01b03868116600090815260208190526040902054166127fd576040516319c29a3360e21b815260040160405180910390fd5b6001600160a01b03861660009081526020819052604081206002015460ff16600881111561282d5761282d613c59565b1461284b5760405163104a226f60e31b815260040160405180910390fd5b3360009081526020819052604090206001600282015460ff16600881111561287557612875613c59565b1415801561289c57506007600282015460ff16600881111561289957612899613c59565b14155b806128b157506002810154610100900460ff16155b156128cf57604051635f10e00b60e01b815260040160405180910390fd5b6117428787878760018888613327565b336000908152602081905260409020546001600160a01b03166129155760405163aba4733960e01b815260040160405180910390fd5b3360009081526020819052604081206003018054612932906145e4565b90501115612953576040516303b3cf9760e41b815260040160405180910390fd5b33600090815260208190526040902060030161296f8282614666565b5060405133907f6cf02651ef9f7a72105bbc0f5800cb97cf05271672cc25280ab53491280c827e90600090a250565b3360009081526020819052604090206001600282015460ff1660088111156129c8576129c8613c59565b141580156129ef57506007600282015460ff1660088111156129ec576129ec613c59565b14155b80612a0457506002810154610100900460ff16155b15612a2257604051635f10e00b60e01b815260040160405180910390fd5b6001600160a01b03841660009081526020819052604081206002015460ff166008811115612a5257612a52613c59565b14612a705760405163104a226f60e31b815260040160405180910390fd5b6006805460009182612a81836145cb565b919050559050846001600160a01b0316336001600160a01b0316827fa47823f482435dbae9948d4f3069aa1e6b73085d175b64df2f00cb83861e17b18787604051612acd9291906148ca565b60405180910390a45050505050565b612ae461194f565b6001600160a01b0316336001600160a01b031614612b975760023360009081526020819052604090206002015460ff166008811115612b2557612b25613c59565b141580612b4a575033600090815260208190526040902060020154610100900460ff16155b15612b685760405163248b437160e21b815260040160405180910390fd5b336000908152600a60205260409020548114612b975760405163ea8e4eb560e01b815260040160405180910390fd5b6001826008811115612bab57612bab613c59565b14158015612bcb57506007826008811115612bc857612bc8613c59565b14155b15612be957604051631b32d0dd60e11b815260040160405180910390fd5b6001600160a01b0383811660009081526020819052604090205416612c21576040516319c29a3360e21b815260040160405180910390fd5b6001600160a01b0383166000908152600a602052604090205415612c58576040516339e5825f60e11b815260040160405180910390fd5b6001600160a01b0383166000908152602081905260409020600201805483919060ff19166001836008811115612c9057612c90613c59565b02179055506001600160a01b038316600081815260208181526040808320600201805461ff001916610100179055600a8252808320859055600b90915290819020839055518291907fb7f677009e40b63d956ecadcfcb1f65c754aa8f19532b58a315c47d23dfcbdcb90612d05908690614760565b60405180910390a36040516001600160a01b0384169033907fbfb2fa25f828a712fda370028ecc8813c7082c69b239a579753b10e24dd472cc90600090a3505050565b612db26040518061014001604052806000815260200160608152602001606081526020016000815260200160006001600160a01b0316815260200160006001600160a01b031681526020016000151581526020016060815260200160608152602001606081525090565b612dbc8233613283565b612dd95760405163ea8e4eb560e01b815260040160405180910390fd5b60028281548110612dec57612dec614575565b90600052602060002090600902016040518061014001604052908160008201548152602001600182018054612e20906145e4565b80601f0160208091040260200160405190810160405280929190818152602001828054612e4c906145e4565b8015612e995780601f10612e6e57610100808354040283529160200191612e99565b820191906000526020600020905b815481529060010190602001808311612e7c57829003601f168201915b50505050508152602001600282018054612eb2906145e4565b80601f0160208091040260200160405190810160405280929190818152602001828054612ede906145e4565b8015612f2b5780601f10612f0057610100808354040283529160200191612f2b565b820191906000526020600020905b815481529060010190602001808311612f0e57829003601f168201915b50505091835250506003820154602082015260048201546001600160a01b03908116604083015260058301549081166060830152600160a01b900460ff161515608082015260068201805460a090920191612f85906145e4565b80601f0160208091040260200160405190810160405280929190818152602001828054612fb1906145e4565b8015612ffe5780601f10612fd357610100808354040283529160200191612ffe565b820191906000526020600020905b815481529060010190602001808311612fe157829003601f168201915b50505050508152602001600782018054613017906145e4565b80601f0160208091040260200160405190810160405280929190818152602001828054613043906145e4565b80156130905780601f1061306557610100808354040283529160200191613090565b820191906000526020600020905b81548152906001019060200180831161307357829003601f168201915b505050505081526020016008820180546130a9906145e4565b80601f01602080910402602001604051908101604052809291908181526020018280546130d5906145e4565b80156131225780601f106130f757610100808354040283529160200191613122565b820191906000526020600020905b81548152906001019060200180831161310557829003601f168201915b5050505050815250509050919050565b600254821061315457604051633e07f1a160e01b815260040160405180910390fd5b60006002838154811061316957613169614575565b600091825260209091206005600990920201908101549091506001600160a01b031633146131aa57604051635e27834560e01b815260040160405180910390fd5b60008381526004602090815260408083206001600160a01b038616845290915281205490036131ec57604051639cf4448960e01b815260040160405180910390fd5b60008381526004602090815260408083206001600160a01b038616808552925280832083905551909185917f07aca9e88df76b26773787218a5664b178842e080be07be33d29f8a84853ecbc9190a3505050565b6132486136f3565b6001600160a01b03811661327757604051631e4fbdf760e01b8152600060048201526024015b60405180910390fd5b61328081613725565b50565b600254600090831061329757506000611b11565b6000600284815481106132ac576132ac614575565b6000918252602090912060099091020160058101549091506001600160a01b03848116911614806132ec575060048101546001600160a01b038481169116145b156132fb576001915050611b11565b505060009182526004602090815260408084206001600160a01b03939093168452919052902054421090565b600280546040805161014081018252828152602081018981529181018a90524260608201523360808201526001600160a01b038b1660a082015286151560c082015260e08101889052610100810186905261012081018590526001830184556000939093528251600983027f405787fa12a823e0f2b7631cc41b3ba8828b3321ca811111fa75cd3aa3bb5ace8101918255915192939290917f405787fa12a823e0f2b7631cc41b3ba8828b3321ca811111fa75cd3aa3bb5acf01906133ec9082614666565b50604082015160028201906134019082614666565b506060820151600382015560808201516004820180546001600160a01b0319166001600160a01b0392831617905560a083015160058301805460c0860151929093166001600160a81b031990931692909217600160a01b9115159190910217905560e082015160068201906134769082614666565b50610100820151600782019061348c9082614666565b5061012082015160088201906134a29082614666565b5050506001600160a01b038816600081815260036020908152604080832080546001810182559084528284200185905584835260048252808320848452909152808220600019908190553380845292829020555183917fb632f49a2b1091a845031e8101343ccd4984d5766d7be4c768f1217991b563c69161352e918b918d918c918c91904290614903565b60405180910390a35050505050505050565b306001600160a01b037f00000000000000000000000000000000000000000000000000000000000000001614806135c757507f00000000000000000000000000000000000000000000000000000000000000006001600160a01b03166135bb60008051602061499a833981519152546001600160a01b031690565b6001600160a01b031614155b1561192b5760405163703e46dd60e11b815260040160405180910390fd5b6132806136f3565b816001600160a01b03166352d1902d6040518163ffffffff1660e01b8152600401602060405180830381865afa925050508015613647575060408051601f3d908101601f1916820190925261364491810190614964565b60015b61366f57604051634c9c8ce360e01b81526001600160a01b038316600482015260240161326e565b60008051602061499a83398151915281146136a057604051632a87526960e21b81526004810182905260240161326e565b61086b83836137d8565b306001600160a01b037f0000000000000000000000000000000000000000000000000000000000000000161461192b5760405163703e46dd60e11b815260040160405180910390fd5b336136fc61194f565b6001600160a01b03161461192b5760405163118cdaa760e01b815233600482015260240161326e565b7f9016d09d72d40fdae2fd8ceac6b6234c7706214fd39c1cd1e609a0528c19930080546001600160a01b031981166001600160a01b03848116918217845560405192169182907f8be0079c531659141344cd1fd0a4f28419497f9722a3daafe3b4186f6b6457e090600090a3505050565b6000807ff0c57e16840df040f15088dc2f81fe391c3923bec73e23a9662efc9c229c6a00611b11565b6137c761382e565b61328081613853565b61192b61382e565b6137e182613864565b6040516001600160a01b038316907fbc7cd75a20ee27fd9adebab32041f755214dbc6bffa90cc0225b39da2e5c2d3b90600090a28051156138265761086b82826138c9565b6114bb61393f565b61383661395e565b61192b57604051631afcd79f60e31b815260040160405180910390fd5b61385b61382e565b61328081613978565b806001600160a01b03163b60000361389a57604051634c9c8ce360e01b81526001600160a01b038216600482015260240161326e565b60008051602061499a83398151915280546001600160a01b0319166001600160a01b0392909216919091179055565b6060600080846001600160a01b0316846040516138e6919061497d565b600060405180830381855af49150503d8060008114613921576040519150601f19603f3d011682016040523d82523d6000602084013e613926565b606091505b5091509150613936858383613989565b95945050505050565b341561192b5760405163b398979f60e01b815260040160405180910390fd5b6000613968613796565b54600160401b900460ff16919050565b61398061382e565b613280816139e8565b60608261399e57613999826139f0565b6139e1565b81511580156139b557506001600160a01b0384163b155b156139de57604051639996b31560e01b81526001600160a01b038516600482015260240161326e565b50805b9392505050565b61324861382e565b8051156139ff57805160208201fd5b60405163d6bda27560e01b815260040160405180910390fd5b634e487b7160e01b600052604160045260246000fd5b604051601f8201601f191681016001600160401b0381118282101715613a5657613a56613a18565b604052919050565b600082601f830112613a6f57600080fd5b81356001600160401b03811115613a8857613a88613a18565b613a9b601f8201601f1916602001613a2e565b818152846020838601011115613ab057600080fd5b816020850160208301376000918101602001919091529392505050565b600080600060608486031215613ae257600080fd5b83356001600160401b0380821115613af957600080fd5b613b0587838801613a5e565b94506020860135915080821115613b1b57600080fd5b613b2787838801613a5e565b93506040860135915080821115613b3d57600080fd5b50613b4a86828701613a5e565b9150509250925092565b60008060408385031215613b6757600080fd5b50508035926020909101359150565b80356001600160a01b0381168114613b8d57600080fd5b919050565b60008060408385031215613ba557600080fd5b613bae83613b76565b915060208301356001600160401b03811115613bc957600080fd5b613bd585828601613a5e565b9150509250929050565b60008060408385031215613bf257600080fd5b613bfb83613b76565b946020939093013593505050565b60005b83811015613c24578181015183820152602001613c0c565b50506000910152565b60008151808452613c45816020860160208601613c09565b601f01601f19169290920160200192915050565b634e487b7160e01b600052602160045260246000fd5b60038110613c7f57613c7f613c59565b9052565b8581526001600160a01b0385811660208301528416604082015260a060608201819052600090613cb590830185613c2d565b9050613cc46080830184613c6f565b9695505050505050565b600060208284031215613ce057600080fd5b6139e182613b76565b606081526000613cfc6060830186613c2d565b8281036020840152613d0e8186613c2d565b90508281036040840152613cc48185613c2d565b803560098110613b8d57600080fd5b60008060408385031215613d4457600080fd5b82356001600160401b03811115613d5a57600080fd5b613d6685828601613a5e565b925050613d7560208401613d22565b90509250929050565b600060208284031215613d9057600080fd5b5035919050565b60006101408c8352806020840152613db18184018d613c2d565b90508281036040840152613dc5818c613c2d565b606084018b90526001600160a01b038a81166080860152891660a085015287151560c085015283810360e08501529050613dff8187613c2d565b9050828103610100840152613e148186613c2d565b9050828103610120840152613e298185613c2d565b9d9c50505050505050505050505050565b60006001600160401b03821115613e5357613e53613a18565b5060051b60200190565b600082601f830112613e6e57600080fd5b81356020613e83613e7e83613e3a565b613a2e565b82815260059290921b84018101918181019086841115613ea257600080fd5b8286015b84811015613ee15780356001600160401b03811115613ec55760008081fd5b613ed38986838b0101613a5e565b845250918301918301613ea6565b509695505050505050565b60008060008060808587031215613f0257600080fd5b84356001600160401b0380821115613f1957600080fd5b818701915087601f830112613f2d57600080fd5b81356020613f3d613e7e83613e3a565b82815260059290921b8401810191818101908b841115613f5c57600080fd5b948201945b83861015613f7a57853582529482019490820190613f61565b9850613f899050898201613b76565b96505050604087013593506060870135915080821115613fa857600080fd5b50613fb587828801613e5d565b91505092959194509250565b6020808252825182820181905260009190848201906040850190845b81811015613ff957835183529284019291840191600101613fdd565b50909695505050505050565b84815260806020820152600061401e6080830186613c2d565b6001600160a01b038516604084015290506139366060830184613c6f565b8481526080602082015260006140556080830186613c2d565b6001600160a01b039490941660408301525090151560609091015292915050565b60208152815160208201526000602083015160018060a01b0380821660408501528060408601511660608501525050606083015160a060808401526140be60c0840182613c2d565b905060808401516140d260a0850182613c6f565b509392505050565b6000602082840312156140ec57600080fd5b81356001600160401b0381111561410257600080fd5b61410e84828501613a5e565b949350505050565b60098110613c7f57613c7f613c59565b6001600160a01b038616815260a06020820181905260009061414a90830187613c2d565b6141576040840187614116565b841515606084015282810360808401526141718185613c2d565b98975050505050505050565b6020815260006139e16020830184613c2d565b6000806000606084860312156141a557600080fd5b6141ae84613b76565b92506141bc60208501613d22565b9150604084013590509250925092565b60008083601f8401126141de57600080fd5b5081356001600160401b038111156141f557600080fd5b60208301915083602082850101111561420d57600080fd5b9250929050565b6000806000806000806060878903121561422d57600080fd5b86356001600160401b038082111561424457600080fd5b6142508a838b016141cc565b9098509650602089013591508082111561426957600080fd5b6142758a838b016141cc565b9096509450604089013591508082111561428e57600080fd5b5061429b89828a016141cc565b979a9699509497509295939492505050565b600080604083850312156142c057600080fd5b82359150613d7560208401613b76565b600080600080608085870312156142e657600080fd5b843593506142f660208601613b76565b92506040850135915060608501356001600160401b0381111561431857600080fd5b613fb587828801613a5e565b60008060008060008060c0878903121561433d57600080fd5b61434687613b76565b955060208701356001600160401b038082111561436257600080fd5b61436e8a838b01613a5e565b9650604089013591508082111561438457600080fd5b6143908a838b01613a5e565b955060608901359150808211156143a657600080fd5b6143b28a838b01613a5e565b945060808901359150808211156143c857600080fd5b6143d48a838b01613a5e565b935060a08901359150808211156143ea57600080fd5b506143f789828a01613a5e565b9150509295509295509295565b60008060006040848603121561441957600080fd5b61442284613b76565b925060208401356001600160401b038082111561443e57600080fd5b818601915086601f83011261445257600080fd5b81358181111561446157600080fd5b8760208260051b850101111561447657600080fd5b6020830194508093505050509250925092565b6020815281516020820152600060208301516101408060408501526144b2610160850183613c2d565b91506040850151601f19808685030160608701526144d08483613c2d565b935060608701516080870152608087015191506144f860a08701836001600160a01b03169052565b60a08701516001600160a01b03811660c0880152915060c087015180151560e0880152915060e0870151915061010081878603018188015261453a8584613c2d565b9450808801519250506101208187860301818801526145598584613c2d565b908801518782039092018488015293509050613cc48382613c2d565b634e487b7160e01b600052603260045260246000fd5b634e487b7160e01b600052601160045260246000fd5b8082028115828204841417611b1157611b1161458b565b80820180821115611b1157611b1161458b565b6000600182016145dd576145dd61458b565b5060010190565b600181811c908216806145f857607f821691505b60208210810361461857634e487b7160e01b600052602260045260246000fd5b50919050565b601f82111561086b576000816000526020600020601f850160051c810160208610156146475750805b601f850160051c820191505b8181101561257c57828155600101614653565b81516001600160401b0381111561467f5761467f613a18565b6146938161468d84546145e4565b8461461e565b602080601f8311600181146146c857600084156146b05750858301515b600019600386901b1c1916600185901b17855561257c565b600085815260208120601f198616915b828110156146f7578886015182559484019460019091019084016146d8565b50858210156147155787850151600019600388901b60f8161c191681555b5050505050600190811b01905550565b6040815260006147386040830185613c2d565b90506139e16020830184614116565b82815260406020820152600061410e6040830184613c2d565b60208101611b118284614116565b6001600160401b0383111561478557614785613a18565b6147998361479383546145e4565b8361461e565b6000601f8411600181146147cd57600085156147b55750838201355b600019600387901b1c1916600186901b178355614827565b600083815260209020601f19861690835b828110156147fe57868501358255602094850194600190920191016147de565b508682101561481b5760001960f88860031b161c19848701351681555b505060018560011b0183555b5050505050565b81835281816020850137506000828201602090810191909152601f909101601f19169091010190565b60608152600061486b60608301888a61482e565b828103602084015261487e81878961482e565b9050828103604084015261489381858761482e565b9998505050505050505050565b60408082526005908201526420b236b4b760d91b606082015260808101611b116020830184614116565b6020808252810182905260006001600160fb1b038311156148ea57600080fd5b8260051b80856040850137919091016040019392505050565b60c08152600061491660c0830189613c2d565b82810360208401526149288189613c2d565b9050828103604084015261493c8188613c2d565b951515606084015250506001600160a01b0392909216608083015260a0909101529392505050565b60006020828403121561497657600080fd5b5051919050565b6000825161498f818460208701613c09565b919091019291505056fe360894a13ba1a3210667c828492db98dca3e2076cc3735a920a3ca505d382bbca2646970667358221220ee9b64ef0660a5737e81a0718dc8b4cbcb98526df8cddbf6fc680a28a896162e64736f6c63430008180033",
  "linkReferences": {},
  "deployedLinkReferences": {}
}