{
  "_format": "hh-sol-artifact-1",
  "contractName": "MedicalRecords",
  "sourceName": "contracts/MedicalRecords.sol",
  "abi": [
    {
      "inputs": [],
      "stateMutability": "nonpayable",
      "type": "constructor"
    },
    {
      "inputs": [],
      "name": "AccessAlreadyGranted",
      "type": "error"
    },
    {
      "inputs": [
        {
          "internalType": "address",
          "name": "target",
          "type": "address"
        }
      ],
      "name": "AddressEmptyCode",
      "type": "error"
    },
    {
      "inputs": [],
      "name": "AlreadyRegistered",
      "type": "error"
    },
    {
      "inputs": [
        {
          "internalType": "address",
          "name": "implementation",
          "type": "address"
        }
      ],
      "name": "ERC1967InvalidImplementation",
      "type": "error"
    },
    {
      "inputs": [],
      "name": "ERC1967NonPayable",
      "type": "error"
    },
    {
      "inputs": [],
      "name": "FailedCall",
      "type": "error"
    },
    {
      "inputs": [],
      "name": "InvalidInitialization",
      "type": "error"
    },
    {
      "inputs": [],
      "name": "NoAccessToRevoke",
      "type": "error"
    },
    {
      "inputs": [],
      "name": "NotAPatient",
      "type": "error"
    },
    {
      "inputs": [],
      "name": "NotAVerifiedDoctor",
      "type": "error"
    },
    {
      "inputs": [],
      "name": "NotAnAdmin",
      "type": "error"
    },
    {
      "inputs": [],
      "name": "NotAnInsuranceProvider",
      "type": "error"
    },
    {
      "inputs": [],
      "name": "NotAuthorized",
      "type": "error"
    },
    {
      "inputs": [],
      "name": "NotInitializing",
      "type": "error"
    },
    {
      "inputs": [],
      "name": "NotRegistered",
      "type": "error"
    },
    {
      "inputs": [
        {
          "internalType": "address",
          "name": "owner",
          "type": "address"
        }
      ],
      "name": "OwnableInvalidOwner",
      "type": "error"
    },
    {
      "inputs": [
        {
          "internalType": "address",
          "name": "account",
          "type": "address"
        }
      ],
      "name": "OwnableUnauthorizedAccount",
      "type": "error"
    },
    {
      "inputs": [],
      "name": "RequestNotFound",
      "type": "error"
    },
    {
      "inputs": [],
      "name": "UUPSUnauthorizedCallContext",
      "type": "error"
    },
    {
      "inputs": [
        {
          "internalType": "bytes32",
          "name": "slot",
          "type": "bytes32"
        }
      ],
      "name": "UUPSUnsupportedProxiableUUID",
      "type": "error"
    },
    {
      "inputs": [],
      "name": "UserNotFound",
      "type": "error"
    },
    {
      "anonymous": false,
      "inputs": [
        {
          "indexed": true,
          "internalType": "address",
          "name": "patient",
          "type": "address"
        },
        {
          "indexed": true,
          "internalType": "address",
          "name": "doctor",
          "type": "address"
        }
      ],
      "name": "AccessGranted",
      "type": "event"
    },
    {
      "anonymous": false,
      "inputs": [
        {
          "indexed": true,
          "internalType": "uint256",
          "name": "requestId",
          "type": "uint256"
        },
        {
          "indexed": true,
          "internalType": "address",
          "name": "patient",
          "type": "address"
        },
        {
          "indexed": true,
          "internalType": "address",
          "name": "provider",
          "type": "address"
        },
        {
          "indexed": false,
          "internalType": "string",
          "name": "claimId",
          "type": "string"
        }
      ],
      "name": "AccessRequested",
      "type": "event"
    },
    {
      "anonymous": false,
      "inputs": [
        {
          "indexed": true,
          "internalType": "address",
          "name": "patient",
          "type": "address"
        },
        {
          "indexed": true,
          "internalType": "address",
          "name": "doctor",
          "type": "address"
        }
      ],
      "name": "AccessRevoked",
      "type": "event"
    },
    {
      "anonymous": false,
      "inputs": [
        {
          "indexed": false,
          "internalType": "uint64",
          "name": "version",
          "type": "uint64"
        }
      ],
      "name": "Initialized",
      "type": "event"
    },
    {
      "anonymous": false,
      "inputs": [
        {
          "indexed": true,
          "internalType": "address",
          "name": "previousOwner",
          "type": "address"
        },
        {
          "indexed": true,
          "internalType": "address",
          "name": "newOwner",
          "type": "address"
        }
      ],
      "name": "OwnershipTransferred",
      "type": "event"
    },
    {
      "anonymous": false,
      "inputs": [
        {
          "indexed": true,
          "internalType": "address",
          "name": "user",
          "type": "address"
        },
        {
          "indexed": false,
          "internalType": "string",
          "name": "name",
          "type": "string"
        },
        {
          "indexed": false,
          "internalType": "string",
          "name": "contactInfo",
          "type": "string"
        },
        {
          "indexed": false,
          "internalType": "string",
          "name": "profileMetadataURI",
          "type": "string"
        }
      ],
      "name": "ProfileUpdated",
      "type": "event"
    },
    {
      "anonymous": false,
      "inputs": [
        {
          "indexed": true,
          "internalType": "address",
          "name": "patient",
          "type": "address"
        },
        {
          "indexed": false,
          "internalType": "string",
          "name": "ipfsHash",
          "type": "string"
        },
        {
          "indexed": false,
          "internalType": "uint256",
          "name": "timestamp",
          "type": "uint256"
        }
      ],
      "name": "RecordAdded",
      "type": "event"
    },
    {
      "anonymous": false,
      "inputs": [
        {
          "indexed": true,
          "internalType": "uint256",
          "name": "requestId",
          "type": "uint256"
        },
        {
          "indexed": true,
          "internalType": "address",
          "name": "patient",
          "type": "address"
        },
        {
          "indexed": false,
          "internalType": "uint256",
          "name": "accessDuration",
          "type": "uint256"
        }
      ],
      "name": "RequestApproved",
      "type": "event"
    },
    {
      "anonymous": false,
      "inputs": [
        {
          "indexed": true,
          "internalType": "address",
          "name": "patient",
          "type": "address"
        },
        {
          "indexed": false,
          "internalType": "uint256",
          "name": "newLength",
          "type": "uint256"
        }
      ],
      "name": "RequestArrayUpdated",
      "type": "event"
    },
    {
      "anonymous": false,
      "inputs": [
        {
          "indexed": true,
          "internalType": "address",
          "name": "implementation",
          "type": "address"
        }
      ],
      "name": "Upgraded",
      "type": "event"
    },
    {
      "anonymous": false,
      "inputs": [
        {
          "indexed": true,
          "internalType": "address",
          "name": "userAddress",
          "type": "address"
        },
        {
          "indexed": false,
          "internalType": "string",
          "name": "name",
          "type": "string"
        },
        {
          "indexed": false,
          "internalType": "enum Roles.Role",
          "name": "role",
          "type": "uint8"
        }
      ],
      "name": "UserRegistered",
      "type": "event"
    },
    {
      "anonymous": false,
      "inputs": [
        {
          "indexed": true,
          "internalType": "address",
          "name": "admin",
          "type": "address"
        },
        {
          "indexed": true,
          "internalType": "address",
          "name": "userAddress",
          "type": "address"
        }
      ],
      "name": "UserVerified",
      "type": "event"
    },
    {
      "inputs": [],
      "name": "UPGRADE_INTERFACE_VERSION",
      "outputs": [
        {
          "internalType": "string",
          "name": "",
          "type": "string"
        }
      ],
      "stateMutability": "view",
      "type": "function"
    },
    {
      "inputs": [
        {
          "internalType": "address",
          "name": "",
          "type": "address"
        },
        {
          "internalType": "address",
          "name": "",
          "type": "address"
        }
      ],
      "name": "accessPermissions",
      "outputs": [
        {
          "internalType": "uint256",
          "name": "",
          "type": "uint256"
        }
      ],
      "stateMutability": "view",
      "type": "function"
    },
    {
      "inputs": [
        {
          "internalType": "address",
          "name": "_newAdmin",
          "type": "address"
        },
        {
          "internalType": "string",
          "name": "_name",
          "type": "string"
        }
      ],
      "name": "addHospitalAdmin",
      "outputs": [],
      "stateMutability": "nonpayable",
      "type": "function"
    },
    {
      "inputs": [
        {
          "internalType": "string",
          "name": "_ipfsHash",
          "type": "string"
        }
      ],
      "name": "addRecord",
      "outputs": [],
      "stateMutability": "nonpayable",
      "type": "function"
    },
    {
      "inputs": [
        {
          "internalType": "uint256",
          "name": "_requestId",
          "type": "uint256"
        },
        {
          "internalType": "uint256",
          "name": "_durationInDays",
          "type": "uint256"
        }
      ],
      "name": "approveRequest",
      "outputs": [],
      "stateMutability": "nonpayable",
      "type": "function"
    },
    {
      "inputs": [
        {
          "internalType": "address",
          "name": "_patientAddress",
          "type": "address"
        },
        {
          "internalType": "address",
          "name": "_doctorAddress",
          "type": "address"
        }
      ],
      "name": "checkAccess",
      "outputs": [
        {
          "internalType": "bool",
          "name": "",
          "type": "bool"
        }
      ],
      "stateMutability": "view",
      "type": "function"
    },
    {
      "inputs": [
        {
          "internalType": "address",
          "name": "_patientAddress",
          "type": "address"
        }
      ],
      "name": "getAccessList",
      "outputs": [
        {
          "internalType": "address[]",
          "name": "",
          "type": "address[]"
        }
      ],
      "stateMutability": "view",
      "type": "function"
    },
    {
      "inputs": [
        {
          "internalType": "address",
          "name": "_patientAddress",
          "type": "address"
        }
      ],
      "name": "getPatientRecords",
      "outputs": [
        {
          "components": [
            {
              "internalType": "string",
              "name": "ipfsHash",
              "type": "string"
            },
            {
              "internalType": "uint256",
              "name": "timestamp",
              "type": "uint256"
            },
            {
              "internalType": "address",
              "name": "uploadedBy",
              "type": "address"
            }
          ],
          "internalType": "struct MedicalRecords.Record[]",
          "name": "",
          "type": "tuple[]"
        }
      ],
      "stateMutability": "view",
      "type": "function"
    },
    {
      "inputs": [
        {
          "internalType": "address",
          "name": "_patientAddress",
          "type": "address"
        },
        {
          "internalType": "uint256",
          "name": "_index",
          "type": "uint256"
        }
      ],
      "name": "getPatientRequestAtIndex",
      "outputs": [
        {
          "components": [
            {
              "internalType": "uint256",
              "name": "id",
              "type": "uint256"
            },
            {
              "internalType": "address",
              "name": "patient",
              "type": "address"
            },
            {
              "internalType": "address",
              "name": "provider",
              "type": "address"
            },
            {
              "internalType": "string",
              "name": "claimId",
              "type": "string"
            },
            {
              "internalType": "enum AccessControl.RequestStatus",
              "name": "status",
              "type": "uint8"
            }
          ],
          "internalType": "struct AccessControl.AccessRequest",
          "name": "",
          "type": "tuple"
        }
      ],
      "stateMutability": "view",
      "type": "function"
    },
    {
      "inputs": [
        {
          "internalType": "address",
          "name": "_patientAddress",
          "type": "address"
        }
      ],
      "name": "getPatientRequestsCount",
      "outputs": [
        {
          "internalType": "uint256",
          "name": "",
          "type": "uint256"
        }
      ],
      "stateMutability": "view",
      "type": "function"
    },
    {
      "inputs": [
        {
          "internalType": "address",
          "name": "_doctorAddress",
          "type": "address"
        }
      ],
      "name": "grantAccess",
      "outputs": [],
      "stateMutability": "nonpayable",
      "type": "function"
    },
    {
      "inputs": [
        {
          "internalType": "address",
          "name": "initialOwner",
          "type": "address"
        }
      ],
      "name": "initialize",
      "outputs": [],
      "stateMutability": "nonpayable",
      "type": "function"
    },
    {
      "inputs": [],
      "name": "owner",
      "outputs": [
        {
          "internalType": "address",
          "name": "",
          "type": "address"
        }
      ],
      "stateMutability": "view",
      "type": "function"
    },
    {
      "inputs": [
        {
          "internalType": "address",
          "name": "",
          "type": "address"
        },
        {
          "internalType": "uint256",
          "name": "",
          "type": "uint256"
        }
      ],
      "name": "patientRecords",
      "outputs": [
        {
          "internalType": "string",
          "name": "ipfsHash",
          "type": "string"
        },
        {
          "internalType": "uint256",
          "name": "timestamp",
          "type": "uint256"
        },
        {
          "internalType": "address",
          "name": "uploadedBy",
          "type": "address"
        }
      ],
      "stateMutability": "view",
      "type": "function"
    },
    {
      "inputs": [
        {
          "internalType": "address",
          "name": "",
          "type": "address"
        },
        {
          "internalType": "uint256",
          "name": "",
          "type": "uint256"
        }
      ],
      "name": "patientRequests",
      "outputs": [
        {
          "internalType": "uint256",
          "name": "id",
          "type": "uint256"
        },
        {
          "internalType": "address",
          "name": "patient",
          "type": "address"
        },
        {
          "internalType": "address",
          "name": "provider",
          "type": "address"
        },
        {
          "internalType": "string",
          "name": "claimId",
          "type": "string"
        },
        {
          "internalType": "enum AccessControl.RequestStatus",
          "name": "status",
          "type": "uint8"
        }
      ],
      "stateMutability": "view",
      "type": "function"
    },
    {
      "inputs": [],
      "name": "proxiableUUID",
      "outputs": [
        {
          "internalType": "bytes32",
          "name": "",
          "type": "bytes32"
        }
      ],
      "stateMutability": "view",
      "type": "function"
    },
    {
      "inputs": [
        {
          "internalType": "string",
          "name": "_name",
          "type": "string"
        },
        {
          "internalType": "enum Roles.Role",
          "name": "_role",
          "type": "uint8"
        }
      ],
      "name": "registerUser",
      "outputs": [],
      "stateMutability": "nonpayable",
      "type": "function"
    },
    {
      "inputs": [],
      "name": "renounceOwnership",
      "outputs": [],
      "stateMutability": "nonpayable",
      "type": "function"
    },
    {
      "inputs": [
        {
          "internalType": "address",
          "name": "_patientAddress",
          "type": "address"
        },
        {
          "internalType": "string",
          "name": "_claimId",
          "type": "string"
        }
      ],
      "name": "requestAccess",
      "outputs": [],
      "stateMutability": "nonpayable",
      "type": "function"
    },
    {
      "inputs": [
        {
          "internalType": "address",
          "name": "_userAddress",
          "type": "address"
        }
      ],
      "name": "revokeAccess",
      "outputs": [],
      "stateMutability": "nonpayable",
      "type": "function"
    },
    {
      "inputs": [
        {
          "internalType": "address",
          "name": "newOwner",
          "type": "address"
        }
      ],
      "name": "transferOwnership",
      "outputs": [],
      "stateMutability": "nonpayable",
      "type": "function"
    },
    {
      "inputs": [
        {
          "internalType": "string",
          "name": "_name",
          "type": "string"
        },
        {
          "internalType": "string",
          "name": "_contactInfo",
          "type": "string"
        },
        {
          "internalType": "string",
          "name": "_profileMetadataURI",
          "type": "string"
        }
      ],
      "name": "updateUserProfile",
      "outputs": [],
      "stateMutability": "nonpayable",
      "type": "function"
    },
    {
      "inputs": [
        {
          "internalType": "address",
          "name": "newImplementation",
          "type": "address"
        },
        {
          "internalType": "bytes",
          "name": "data",
          "type": "bytes"
        }
      ],
      "name": "upgradeToAndCall",
      "outputs": [],
      "stateMutability": "payable",
      "type": "function"
    },
    {
      "inputs": [
        {
          "internalType": "address",
          "name": "",
          "type": "address"
        }
      ],
      "name": "userProfiles",
      "outputs": [
        {
          "internalType": "string",
          "name": "name",
          "type": "string"
        },
        {
          "internalType": "string",
          "name": "contactInfo",
          "type": "string"
        },
        {
          "internalType": "string",
          "name": "profileMetadataURI",
          "type": "string"
        }
      ],
      "stateMutability": "view",
      "type": "function"
    },
    {
      "inputs": [
        {
          "internalType": "address",
          "name": "",
          "type": "address"
        }
      ],
      "name": "users",
      "outputs": [
        {
          "internalType": "address",
          "name": "walletAddress",
          "type": "address"
        },
        {
          "internalType": "string",
          "name": "name",
          "type": "string"
        },
        {
          "internalType": "enum Roles.Role",
          "name": "role",
          "type": "uint8"
        },
        {
          "internalType": "bool",
          "name": "isVerified",
          "type": "bool"
        }
      ],
      "stateMutability": "view",
      "type": "function"
    },
    {
      "inputs": [
        {
          "internalType": "address",
          "name": "_userToVerify",
          "type": "address"
        }
      ],
      "name": "verifyUser",
      "outputs": [],
      "stateMutability": "nonpayable",
      "type": "function"
    }
  ],
  "bytecode": "0x60a06040523073ffffffffffffffffffffffffffffffffffffffff1660809073ffffffffffffffffffffffffffffffffffffffff168152503480156200004457600080fd5b50620000556200005b60201b60201c565b620001ee565b60006200006d6200016560201b60201c565b90508060000160089054906101000a900460ff1615620000b9576040517ff92ee8a900000000000000000000000000000000000000000000000000000000815260040160405180910390fd5b67ffffffffffffffff80168160000160009054906101000a900467ffffffffffffffff1667ffffffffffffffff1614620001625767ffffffffffffffff8160000160006101000a81548167ffffffffffffffff021916908367ffffffffffffffff1602179055507fc7f505b2f371ae2175ee4913f4499e1f2633a7b5936321eed1cdaeb6115181d267ffffffffffffffff604051620001599190620001d1565b60405180910390a15b50565b600080620001786200018160201b60201c565b90508091505090565b60007ff0c57e16840df040f15088dc2f81fe391c3923bec73e23a9662efc9c229c6a0060001b905090565b600067ffffffffffffffff82169050919050565b620001cb81620001ac565b82525050565b6000602082019050620001e86000830184620001c0565b92915050565b6080516157a262000218600039600081816139f301528181613a480152613c0301526157a26000f3fe6080604052600436106101815760003560e01c806364b3b525116100d15780639afd8efe1161008a578063bace029011610064578063bace0290146105c6578063c4d66de8146105ef578063d81aa8c414610618578063f2fde38b1461064157610181565b80639afd8efe1461051e578063a87430ba1461055b578063ad3cb1cc1461059b57610181565b806364b3b525146103fa578063715018a61461043757806380efcb3c1461044e57806385e685311461048b5780638da5cb5b146104b457806394f0df61146104df57610181565b8063332d56d71161013e5780634f1ef286116101185780634f1ef2861461033957806352d1902d146103555780635af28ce31461038057806362e1f745146103bd57610181565b8063332d56d7146102a8578063338e12eb146102e75780634d8131201461031057610181565b80630ae5e7391461018657806318bd4847146101af5780631fbe3784146101ec5780632c0a90a9146102155780632f6d4a591461023e5780633217bc7214610267575b600080fd5b34801561019257600080fd5b506101ad60048036038101906101a8919061430e565b61066a565b005b3480156101bb57600080fd5b506101d660048036038101906101d1919061430e565b610afb565b6040516101e39190614505565b60405180910390f35b3480156101f857600080fd5b50610213600480360381019061020e919061465c565b610f10565b005b34801561022157600080fd5b5061023c600480360381019061023791906146e4565b61122c565b005b34801561024a57600080fd5b506102656004803603810190610260919061465c565b6116f5565b005b34801561027357600080fd5b5061028e60048036038101906102899190614724565b611a81565b60405161029f959493929190614843565b60405180910390f35b3480156102b457600080fd5b506102cf60048036038101906102ca919061430e565b611ba9565b6040516102de9392919061489d565b60405180910390f35b3480156102f357600080fd5b5061030e6004803603810190610309919061490e565b611d6b565b005b34801561031c57600080fd5b506103376004803603810190610332919061430e565b6120e4565b005b610353600480360381019061034e9190614a0b565b61242e565b005b34801561036157600080fd5b5061036a61244d565b6040516103779190614a80565b60405180910390f35b34801561038c57600080fd5b506103a760048036038101906103a2919061430e565b612480565b6040516103b49190614a9b565b60405180910390f35b3480156103c957600080fd5b506103e460048036038101906103df9190614ab6565b612531565b6040516103f19190614b11565b60405180910390f35b34801561040657600080fd5b50610421600480360381019061041c9190614ab6565b6125ba565b60405161042e9190614a9b565b60405180910390f35b34801561044357600080fd5b5061044c6125df565b005b34801561045a57600080fd5b506104756004803603810190610470919061430e565b6125f3565b6040516104829190614bdb565b60405180910390f35b34801561049757600080fd5b506104b260048036038101906104ad919061430e565b612725565b005b3480156104c057600080fd5b506104c9612cee565b6040516104d69190614bfd565b60405180910390f35b3480156104eb57600080fd5b5061050660048036038101906105019190614724565b612d26565b60405161051593929190614c18565b60405180910390f35b34801561052a57600080fd5b5061054560048036038101906105409190614724565b612e15565b6040516105529190614cdb565b60405180910390f35b34801561056757600080fd5b50610582600480360381019061057d919061430e565b613077565b6040516105929493929190614d45565b60405180910390f35b3480156105a757600080fd5b506105b0613169565b6040516105bd9190614d91565b60405180910390f35b3480156105d257600080fd5b506105ed60048036038101906105e89190614e13565b6131a2565b005b3480156105fb57600080fd5b506106166004803603810190610611919061430e565b613485565b005b34801561062457600080fd5b5061063f600480360381019061063a9190614ec7565b61361c565b005b34801561064d57600080fd5b506106686004803603810190610663919061430e565b6138e4565b005b6000600681111561067e5761067d6147cc565b5b6000803373ffffffffffffffffffffffffffffffffffffffff1673ffffffffffffffffffffffffffffffffffffffff16815260200190815260200160002060020160009054906101000a900460ff1660068111156106df576106de6147cc565b5b14610716576040517f8251137800000000000000000000000000000000000000000000000000000000815260040160405180910390fd5b60008060008373ffffffffffffffffffffffffffffffffffffffff1673ffffffffffffffffffffffffffffffffffffffff16815260200190815260200160002090506001600681111561076c5761076b6147cc565b5b8160020160009054906101000a900460ff1660068111156107905761078f6147cc565b5b1415806107ac57508060020160019054906101000a900460ff16155b156107e3576040517fe8dc534400000000000000000000000000000000000000000000000000000000815260040160405180910390fd5b42600260003373ffffffffffffffffffffffffffffffffffffffff1673ffffffffffffffffffffffffffffffffffffffff16815260200190815260200160002060008473ffffffffffffffffffffffffffffffffffffffff1673ffffffffffffffffffffffffffffffffffffffff168152602001908152602001600020541115610899576040517f857dd8aa00000000000000000000000000000000000000000000000000000000815260040160405180910390fd5b7fffffffffffffffffffffffffffffffffffffffffffffffffffffffffffffffff600260003373ffffffffffffffffffffffffffffffffffffffff1673ffffffffffffffffffffffffffffffffffffffff16815260200190815260200160002060008473ffffffffffffffffffffffffffffffffffffffff1673ffffffffffffffffffffffffffffffffffffffff16815260200190815260200160002081905550600560003373ffffffffffffffffffffffffffffffffffffffff1673ffffffffffffffffffffffffffffffffffffffff168152602001908152602001600020829080600181540180825580915050600190039060005260206000200160009091909190916101000a81548173ffffffffffffffffffffffffffffffffffffffff021916908373ffffffffffffffffffffffffffffffffffffffff160217905550600560003373ffffffffffffffffffffffffffffffffffffffff1673ffffffffffffffffffffffffffffffffffffffff16815260200190815260200160002080549050600660003373ffffffffffffffffffffffffffffffffffffffff1673ffffffffffffffffffffffffffffffffffffffff16815260200190815260200160002060008473ffffffffffffffffffffffffffffffffffffffff1673ffffffffffffffffffffffffffffffffffffffff168152602001908152602001600020819055508173ffffffffffffffffffffffffffffffffffffffff163373ffffffffffffffffffffffffffffffffffffffff167f9f520b3bfc56d06f7065d10b4683b3f57ac8895d5026cd176dee95ce1454cb8d60405160405180910390a35050565b60608173ffffffffffffffffffffffffffffffffffffffff163373ffffffffffffffffffffffffffffffffffffffff1603610cbe57600760008373ffffffffffffffffffffffffffffffffffffffff1673ffffffffffffffffffffffffffffffffffffffff168152602001908152602001600020805480602002602001604051908101604052809291908181526020016000905b82821015610cb35783829060005260206000209060030201604051806060016040529081600082018054610bc290614f3f565b80601f0160208091040260200160405190810160405280929190818152602001828054610bee90614f3f565b8015610c3b5780601f10610c1057610100808354040283529160200191610c3b565b820191906000526020600020905b815481529060010190602001808311610c1e57829003601f168201915b50505050508152602001600182015481526020016002820160009054906101000a900473ffffffffffffffffffffffffffffffffffffffff1673ffffffffffffffffffffffffffffffffffffffff1673ffffffffffffffffffffffffffffffffffffffff168152505081526020019060010190610b8f565b505050509050610f0b565b42600260008473ffffffffffffffffffffffffffffffffffffffff1673ffffffffffffffffffffffffffffffffffffffff16815260200190815260200160002060003373ffffffffffffffffffffffffffffffffffffffff1673ffffffffffffffffffffffffffffffffffffffff168152602001908152602001600020541115610ed057600760008373ffffffffffffffffffffffffffffffffffffffff1673ffffffffffffffffffffffffffffffffffffffff168152602001908152602001600020805480602002602001604051908101604052809291908181526020016000905b82821015610ec55783829060005260206000209060030201604051806060016040529081600082018054610dd490614f3f565b80601f0160208091040260200160405190810160405280929190818152602001828054610e0090614f3f565b8015610e4d5780601f10610e2257610100808354040283529160200191610e4d565b820191906000526020600020905b815481529060010190602001808311610e3057829003601f168201915b50505050508152602001600182015481526020016002820160009054906101000a900473ffffffffffffffffffffffffffffffffffffffff1673ffffffffffffffffffffffffffffffffffffffff1673ffffffffffffffffffffffffffffffffffffffff168152505081526020019060010190610da1565b505050509050610f0b565b6040517f08c379a0000000000000000000000000000000000000000000000000000000008152600401610f0290614fe2565b60405180910390fd5b919050565b610f1861396a565b600073ffffffffffffffffffffffffffffffffffffffff166000808473ffffffffffffffffffffffffffffffffffffffff1673ffffffffffffffffffffffffffffffffffffffff16815260200190815260200160002060000160009054906101000a900473ffffffffffffffffffffffffffffffffffffffff1673ffffffffffffffffffffffffffffffffffffffff1614610fdf576040517f3a81d6fc00000000000000000000000000000000000000000000000000000000815260040160405180910390fd5b60405180608001604052808373ffffffffffffffffffffffffffffffffffffffff168152602001828152602001600260068111156110205761101f6147cc565b5b8152602001600115158152506000808473ffffffffffffffffffffffffffffffffffffffff1673ffffffffffffffffffffffffffffffffffffffff16815260200190815260200160002060008201518160000160006101000a81548173ffffffffffffffffffffffffffffffffffffffff021916908373ffffffffffffffffffffffffffffffffffffffff16021790555060208201518160010190816110c691906151ae565b5060408201518160020160006101000a81548160ff021916908360068111156110f2576110f16147cc565b5b021790555060608201518160020160016101000a81548160ff021916908315150217905550905050604051806060016040528082815260200160405180602001604052806000815250815260200160405180602001604052806000815250815250600160008473ffffffffffffffffffffffffffffffffffffffff1673ffffffffffffffffffffffffffffffffffffffff16815260200190815260200160002060008201518160000190816111a791906151ae565b5060208201518160010190816111bd91906151ae565b5060408201518160020190816111d391906151ae565b509050508173ffffffffffffffffffffffffffffffffffffffff167fc2e5d5da58bd71d1a2d14cdef02a4256d971b728088f8190d067ccfbae3bd73e826002604051611220929190615280565b60405180910390a25050565b600060068111156112405761123f6147cc565b5b6000803373ffffffffffffffffffffffffffffffffffffffff1673ffffffffffffffffffffffffffffffffffffffff16815260200190815260200160002060020160009054906101000a900460ff1660068111156112a1576112a06147cc565b5b146112d8576040517f8251137800000000000000000000000000000000000000000000000000000000815260040160405180910390fd5b6000600360003373ffffffffffffffffffffffffffffffffffffffff1673ffffffffffffffffffffffffffffffffffffffff16815260200190815260200160002090506000805b82805490508110156116b7578483828154811061133f5761133e6152b0565b5b9060005260206000209060050201600001541480156113b357506000600281111561136d5761136c6147cc565b5b8382815481106113805761137f6152b0565b5b906000526020600020906005020160040160009054906101000a900460ff1660028111156113b1576113b06147cc565b5b145b156116aa5760018382815481106113cd576113cc6152b0565b5b906000526020600020906005020160040160006101000a81548160ff02191690836002811115611400576113ff6147cc565b5b021790555060006201518085611416919061530e565b426114219190615350565b90506000848381548110611438576114376152b0565b5b906000526020600020906005020160020160009054906101000a900473ffffffffffffffffffffffffffffffffffffffff16905081600260003373ffffffffffffffffffffffffffffffffffffffff1673ffffffffffffffffffffffffffffffffffffffff16815260200190815260200160002060008373ffffffffffffffffffffffffffffffffffffffff1673ffffffffffffffffffffffffffffffffffffffff16815260200190815260200160002081905550600560003373ffffffffffffffffffffffffffffffffffffffff1673ffffffffffffffffffffffffffffffffffffffff168152602001908152602001600020819080600181540180825580915050600190039060005260206000200160009091909190916101000a81548173ffffffffffffffffffffffffffffffffffffffff021916908373ffffffffffffffffffffffffffffffffffffffff160217905550600560003373ffffffffffffffffffffffffffffffffffffffff1673ffffffffffffffffffffffffffffffffffffffff16815260200190815260200160002080549050600660003373ffffffffffffffffffffffffffffffffffffffff1673ffffffffffffffffffffffffffffffffffffffff16815260200190815260200160002060008373ffffffffffffffffffffffffffffffffffffffff1673ffffffffffffffffffffffffffffffffffffffff16815260200190815260200160002081905550600193503373ffffffffffffffffffffffffffffffffffffffff16877f4def62da440b39db2661de60aa3dad0479ac27d4c22597d6e14c7441774f8a318860405161169b9190614a9b565b60405180910390a350506116b7565b808060010191505061131f565b50806116ef576040517f4b13b31e00000000000000000000000000000000000000000000000000000000815260040160405180910390fd5b50505050565b60036006811115611709576117086147cc565b5b6000803373ffffffffffffffffffffffffffffffffffffffff1673ffffffffffffffffffffffffffffffffffffffff16815260200190815260200160002060020160009054906101000a900460ff16600681111561176a576117696147cc565b5b146117a1576040517f354a448400000000000000000000000000000000000000000000000000000000815260040160405180910390fd5b600060068111156117b5576117b46147cc565b5b6000808473ffffffffffffffffffffffffffffffffffffffff1673ffffffffffffffffffffffffffffffffffffffff16815260200190815260200160002060020160009054906101000a900460ff166006811115611816576118156147cc565b5b1461184d576040517f8251137800000000000000000000000000000000000000000000000000000000815260040160405180910390fd5b60006004600081548092919061186290615384565b919050559050600360008473ffffffffffffffffffffffffffffffffffffffff1673ffffffffffffffffffffffffffffffffffffffff1681526020019081526020016000206040518060a001604052808381526020018573ffffffffffffffffffffffffffffffffffffffff1681526020013373ffffffffffffffffffffffffffffffffffffffff1681526020018481526020016000600281111561190a576119096147cc565b5b81525090806001815401808255809150506001900390600052602060002090600502016000909190919091506000820151816000015560208201518160010160006101000a81548173ffffffffffffffffffffffffffffffffffffffff021916908373ffffffffffffffffffffffffffffffffffffffff16021790555060408201518160020160006101000a81548173ffffffffffffffffffffffffffffffffffffffff021916908373ffffffffffffffffffffffffffffffffffffffff16021790555060608201518160030190816119e391906151ae565b5060808201518160040160006101000a81548160ff02191690836002811115611a0f57611a0e6147cc565b5b021790555050503373ffffffffffffffffffffffffffffffffffffffff168373ffffffffffffffffffffffffffffffffffffffff16827f21eb886073c5fec0f227f76ef8335d82939c7aa4b537be2e0943f4c1dc74553e85604051611a749190614d91565b60405180910390a4505050565b60036020528160005260406000208181548110611a9d57600080fd5b9060005260206000209060050201600091509150508060000154908060010160009054906101000a900473ffffffffffffffffffffffffffffffffffffffff16908060020160009054906101000a900473ffffffffffffffffffffffffffffffffffffffff1690806003018054611b1390614f3f565b80601f0160208091040260200160405190810160405280929190818152602001828054611b3f90614f3f565b8015611b8c5780601f10611b6157610100808354040283529160200191611b8c565b820191906000526020600020905b815481529060010190602001808311611b6f57829003601f168201915b5050505050908060040160009054906101000a900460ff16905085565b6001602052806000526040600020600091509050806000018054611bcc90614f3f565b80601f0160208091040260200160405190810160405280929190818152602001828054611bf890614f3f565b8015611c455780601f10611c1a57610100808354040283529160200191611c45565b820191906000526020600020905b815481529060010190602001808311611c2857829003601f168201915b505050505090806001018054611c5a90614f3f565b80601f0160208091040260200160405190810160405280929190818152602001828054611c8690614f3f565b8015611cd35780601f10611ca857610100808354040283529160200191611cd3565b820191906000526020600020905b815481529060010190602001808311611cb657829003601f168201915b505050505090806002018054611ce890614f3f565b80601f0160208091040260200160405190810160405280929190818152602001828054611d1490614f3f565b8015611d615780601f10611d3657610100808354040283529160200191611d61565b820191906000526020600020905b815481529060010190602001808311611d4457829003601f168201915b5050505050905083565b600073ffffffffffffffffffffffffffffffffffffffff166000803373ffffffffffffffffffffffffffffffffffffffff1673ffffffffffffffffffffffffffffffffffffffff16815260200190815260200160002060000160009054906101000a900473ffffffffffffffffffffffffffffffffffffffff1673ffffffffffffffffffffffffffffffffffffffff1614611e32576040517f3a81d6fc00000000000000000000000000000000000000000000000000000000815260040160405180910390fd5b60026006811115611e4657611e456147cc565b5b816006811115611e5957611e586147cc565b5b03611e99576040517f08c379a0000000000000000000000000000000000000000000000000000000008152600401611e909061543e565b60405180910390fd5b60405180608001604052803373ffffffffffffffffffffffffffffffffffffffff168152602001838152602001826006811115611ed957611ed86147cc565b5b8152602001600015158152506000803373ffffffffffffffffffffffffffffffffffffffff1673ffffffffffffffffffffffffffffffffffffffff16815260200190815260200160002060008201518160000160006101000a81548173ffffffffffffffffffffffffffffffffffffffff021916908373ffffffffffffffffffffffffffffffffffffffff1602179055506020820151816001019081611f7f91906151ae565b5060408201518160020160006101000a81548160ff02191690836006811115611fab57611faa6147cc565b5b021790555060608201518160020160016101000a81548160ff021916908315150217905550905050604051806060016040528083815260200160405180602001604052806000815250815260200160405180602001604052806000815250815250600160003373ffffffffffffffffffffffffffffffffffffffff1673ffffffffffffffffffffffffffffffffffffffff168152602001908152602001600020600082015181600001908161206091906151ae565b50602082015181600101908161207691906151ae565b50604082015181600201908161208c91906151ae565b509050503373ffffffffffffffffffffffffffffffffffffffff167fc2e5d5da58bd71d1a2d14cdef02a4256d971b728088f8190d067ccfbae3bd73e83836040516120d8929190615280565b60405180910390a25050565b600073ffffffffffffffffffffffffffffffffffffffff166000803373ffffffffffffffffffffffffffffffffffffffff1673ffffffffffffffffffffffffffffffffffffffff16815260200190815260200160002060000160009054906101000a900473ffffffffffffffffffffffffffffffffffffffff1673ffffffffffffffffffffffffffffffffffffffff16036121ab576040517faba4733900000000000000000000000000000000000000000000000000000000815260040160405180910390fd5b600260068111156121bf576121be6147cc565b5b6000803373ffffffffffffffffffffffffffffffffffffffff1673ffffffffffffffffffffffffffffffffffffffff16815260200190815260200160002060020160009054906101000a900460ff1660068111156122205761221f6147cc565b5b14158061227957506000803373ffffffffffffffffffffffffffffffffffffffff1673ffffffffffffffffffffffffffffffffffffffff16815260200190815260200160002060020160019054906101000a900460ff16155b156122b0576040517f55098f2700000000000000000000000000000000000000000000000000000000815260040160405180910390fd5b600073ffffffffffffffffffffffffffffffffffffffff166000808373ffffffffffffffffffffffffffffffffffffffff1673ffffffffffffffffffffffffffffffffffffffff16815260200190815260200160002060000160009054906101000a900473ffffffffffffffffffffffffffffffffffffffff1673ffffffffffffffffffffffffffffffffffffffff1603612377576040517f670a68cc00000000000000000000000000000000000000000000000000000000815260040160405180910390fd5b60016000808373ffffffffffffffffffffffffffffffffffffffff1673ffffffffffffffffffffffffffffffffffffffff16815260200190815260200160002060020160016101000a81548160ff0219169083151502179055508073ffffffffffffffffffffffffffffffffffffffff163373ffffffffffffffffffffffffffffffffffffffff167fbfb2fa25f828a712fda370028ecc8813c7082c69b239a579753b10e24dd472cc60405160405180910390a350565b6124366139f1565b61243f82613ad7565b6124498282613ae2565b5050565b6000612457613c01565b7f360894a13ba1a3210667c828492db98dca3e2076cc3735a920a3ca505d382bbc60001b905090565b60008173ffffffffffffffffffffffffffffffffffffffff163373ffffffffffffffffffffffffffffffffffffffff16146124e7576040517fea8e4eb500000000000000000000000000000000000000000000000000000000815260040160405180910390fd5b600360008373ffffffffffffffffffffffffffffffffffffffff1673ffffffffffffffffffffffffffffffffffffffff168152602001908152602001600020805490509050919050565b600042600260008573ffffffffffffffffffffffffffffffffffffffff1673ffffffffffffffffffffffffffffffffffffffff16815260200190815260200160002060008473ffffffffffffffffffffffffffffffffffffffff1673ffffffffffffffffffffffffffffffffffffffff1681526020019081526020016000205411905092915050565b6002602052816000526040600020602052806000526040600020600091509150505481565b6125e761396a565b6125f16000613c88565b565b60608173ffffffffffffffffffffffffffffffffffffffff163373ffffffffffffffffffffffffffffffffffffffff161461265a576040517fea8e4eb500000000000000000000000000000000000000000000000000000000815260040160405180910390fd5b600560008373ffffffffffffffffffffffffffffffffffffffff1673ffffffffffffffffffffffffffffffffffffffff16815260200190815260200160002080548060200260200160405190810160405280929190818152602001828054801561271957602002820191906000526020600020905b8160009054906101000a900473ffffffffffffffffffffffffffffffffffffffff1673ffffffffffffffffffffffffffffffffffffffff16815260200190600101908083116126cf575b50505050509050919050565b60006006811115612739576127386147cc565b5b6000803373ffffffffffffffffffffffffffffffffffffffff1673ffffffffffffffffffffffffffffffffffffffff16815260200190815260200160002060020160009054906101000a900460ff16600681111561279a576127996147cc565b5b146127d1576040517f8251137800000000000000000000000000000000000000000000000000000000815260040160405180910390fd5b42600260003373ffffffffffffffffffffffffffffffffffffffff1673ffffffffffffffffffffffffffffffffffffffff16815260200190815260200160002060008373ffffffffffffffffffffffffffffffffffffffff1673ffffffffffffffffffffffffffffffffffffffff168152602001908152602001600020541015612887576040517f9cf4448900000000000000000000000000000000000000000000000000000000815260040160405180910390fd5b6000600260003373ffffffffffffffffffffffffffffffffffffffff1673ffffffffffffffffffffffffffffffffffffffff16815260200190815260200160002060008373ffffffffffffffffffffffffffffffffffffffff1673ffffffffffffffffffffffffffffffffffffffff1681526020019081526020016000208190555060006001600660003373ffffffffffffffffffffffffffffffffffffffff1673ffffffffffffffffffffffffffffffffffffffff16815260200190815260200160002060008473ffffffffffffffffffffffffffffffffffffffff1673ffffffffffffffffffffffffffffffffffffffff16815260200190815260200160002054612994919061545e565b90506000600560003373ffffffffffffffffffffffffffffffffffffffff1673ffffffffffffffffffffffffffffffffffffffff1681526020019081526020016000206001600560003373ffffffffffffffffffffffffffffffffffffffff1673ffffffffffffffffffffffffffffffffffffffff16815260200190815260200160002080549050612a26919061545e565b81548110612a3757612a366152b0565b5b9060005260206000200160009054906101000a900473ffffffffffffffffffffffffffffffffffffffff16905080600560003373ffffffffffffffffffffffffffffffffffffffff1673ffffffffffffffffffffffffffffffffffffffff1681526020019081526020016000208381548110612ab657612ab56152b0565b5b9060005260206000200160006101000a81548173ffffffffffffffffffffffffffffffffffffffff021916908373ffffffffffffffffffffffffffffffffffffffff160217905550600182612b0b9190615350565b600660003373ffffffffffffffffffffffffffffffffffffffff1673ffffffffffffffffffffffffffffffffffffffff16815260200190815260200160002060008373ffffffffffffffffffffffffffffffffffffffff1673ffffffffffffffffffffffffffffffffffffffff16815260200190815260200160002081905550600560003373ffffffffffffffffffffffffffffffffffffffff1673ffffffffffffffffffffffffffffffffffffffff168152602001908152602001600020805480612bda57612bd9615492565b5b6001900381819060005260206000200160006101000a81549073ffffffffffffffffffffffffffffffffffffffff02191690559055600660003373ffffffffffffffffffffffffffffffffffffffff1673ffffffffffffffffffffffffffffffffffffffff16815260200190815260200160002060008473ffffffffffffffffffffffffffffffffffffffff1673ffffffffffffffffffffffffffffffffffffffff168152602001908152602001600020600090558273ffffffffffffffffffffffffffffffffffffffff163373ffffffffffffffffffffffffffffffffffffffff167f825c8be24eb0df19500f63e86c29e7d0d951e73056b889b891d85e40938d9b6e60405160405180910390a3505050565b600080612cf9613d5f565b90508060000160009054906101000a900473ffffffffffffffffffffffffffffffffffffffff1691505090565b60076020528160005260406000208181548110612d4257600080fd5b906000526020600020906003020160009150915050806000018054612d6690614f3f565b80601f0160208091040260200160405190810160405280929190818152602001828054612d9290614f3f565b8015612ddf5780601f10612db457610100808354040283529160200191612ddf565b820191906000526020600020905b815481529060010190602001808311612dc257829003601f168201915b5050505050908060010154908060020160009054906101000a900473ffffffffffffffffffffffffffffffffffffffff16905083565b612e1d61422f565b8273ffffffffffffffffffffffffffffffffffffffff163373ffffffffffffffffffffffffffffffffffffffff1614612e82576040517fea8e4eb500000000000000000000000000000000000000000000000000000000815260040160405180910390fd5b600360008473ffffffffffffffffffffffffffffffffffffffff1673ffffffffffffffffffffffffffffffffffffffff1681526020019081526020016000208281548110612ed357612ed26152b0565b5b90600052602060002090600502016040518060a0016040529081600082015481526020016001820160009054906101000a900473ffffffffffffffffffffffffffffffffffffffff1673ffffffffffffffffffffffffffffffffffffffff1673ffffffffffffffffffffffffffffffffffffffff1681526020016002820160009054906101000a900473ffffffffffffffffffffffffffffffffffffffff1673ffffffffffffffffffffffffffffffffffffffff1673ffffffffffffffffffffffffffffffffffffffff168152602001600382018054612fb290614f3f565b80601f0160208091040260200160405190810160405280929190818152602001828054612fde90614f3f565b801561302b5780601f106130005761010080835404028352916020019161302b565b820191906000526020600020905b81548152906001019060200180831161300e57829003601f168201915b505050505081526020016004820160009054906101000a900460ff166002811115613059576130586147cc565b5b600281111561306b5761306a6147cc565b5b81525050905092915050565b60006020528060005260406000206000915090508060000160009054906101000a900473ffffffffffffffffffffffffffffffffffffffff16908060010180546130c090614f3f565b80601f01602080910402602001604051908101604052809291908181526020018280546130ec90614f3f565b80156131395780601f1061310e57610100808354040283529160200191613139565b820191906000526020600020905b81548152906001019060200180831161311c57829003601f168201915b5050505050908060020160009054906101000a900460ff16908060020160019054906101000a900460ff16905084565b6040518060400160405280600581526020017f352e302e3000000000000000000000000000000000000000000000000000000081525081565b600073ffffffffffffffffffffffffffffffffffffffff166000803373ffffffffffffffffffffffffffffffffffffffff1673ffffffffffffffffffffffffffffffffffffffff16815260200190815260200160002060000160009054906101000a900473ffffffffffffffffffffffffffffffffffffffff1673ffffffffffffffffffffffffffffffffffffffff1603613269576040517faba4733900000000000000000000000000000000000000000000000000000000815260040160405180910390fd5b604051806060016040528087878080601f016020809104026020016040519081016040528093929190818152602001838380828437600081840152601f19601f82011690508083019250505050505050815260200185858080601f016020809104026020016040519081016040528093929190818152602001838380828437600081840152601f19601f82011690508083019250505050505050815260200183838080601f016020809104026020016040519081016040528093929190818152602001838380828437600081840152601f19601f82011690508083019250505050505050815250600160003373ffffffffffffffffffffffffffffffffffffffff1673ffffffffffffffffffffffffffffffffffffffff16815260200190815260200160002060008201518160000190816133a491906151ae565b5060208201518160010190816133ba91906151ae565b5060408201518160020190816133d091906151ae565b5090505085856000803373ffffffffffffffffffffffffffffffffffffffff1673ffffffffffffffffffffffffffffffffffffffff16815260200190815260200160002060010191826134249291906154cc565b503373ffffffffffffffffffffffffffffffffffffffff167f6420daf1b58438e85465ef21dee378d307a509caab491149e3f066c5caf1266d878787878787604051613475969594939291906155c9565b60405180910390a2505050505050565b600061348f613d87565b905060008160000160089054906101000a900460ff1615905060008260000160009054906101000a900467ffffffffffffffff1690506000808267ffffffffffffffff161480156134dd5750825b9050600060018367ffffffffffffffff16148015613512575060003073ffffffffffffffffffffffffffffffffffffffff163b145b905081158015613520575080155b15613557576040517ff92ee8a900000000000000000000000000000000000000000000000000000000815260040160405180910390fd5b60018560000160006101000a81548167ffffffffffffffff021916908367ffffffffffffffff16021790555083156135a75760018560000160086101000a81548160ff0219169083151502179055505b6135b086613d9b565b6135b8613daf565b83156136145760008560000160086101000a81548160ff0219169083151502179055507fc7f505b2f371ae2175ee4913f4499e1f2633a7b5936321eed1cdaeb6115181d2600160405161360b919061566a565b60405180910390a15b505050505050565b600073ffffffffffffffffffffffffffffffffffffffff166000803373ffffffffffffffffffffffffffffffffffffffff1673ffffffffffffffffffffffffffffffffffffffff16815260200190815260200160002060000160009054906101000a900473ffffffffffffffffffffffffffffffffffffffff1673ffffffffffffffffffffffffffffffffffffffff16036136e3576040517faba4733900000000000000000000000000000000000000000000000000000000815260040160405180910390fd5b600060068111156136f7576136f66147cc565b5b6000803373ffffffffffffffffffffffffffffffffffffffff1673ffffffffffffffffffffffffffffffffffffffff16815260200190815260200160002060020160009054906101000a900460ff166006811115613758576137576147cc565b5b1461378f576040517f8251137800000000000000000000000000000000000000000000000000000000815260040160405180910390fd5b600760003373ffffffffffffffffffffffffffffffffffffffff1673ffffffffffffffffffffffffffffffffffffffff16815260200190815260200160002060405180606001604052808381526020014281526020013373ffffffffffffffffffffffffffffffffffffffff168152509080600181540180825580915050600190039060005260206000209060030201600090919091909150600082015181600001908161383d91906151ae565b506020820151816001015560408201518160020160006101000a81548173ffffffffffffffffffffffffffffffffffffffff021916908373ffffffffffffffffffffffffffffffffffffffff16021790555050503373ffffffffffffffffffffffffffffffffffffffff167f4b92a41aaac1d087148ec39a65a261cc6ac88ed7765dece5374bb3893fcfcf9e82426040516138d9929190615685565b60405180910390a250565b6138ec61396a565b600073ffffffffffffffffffffffffffffffffffffffff168173ffffffffffffffffffffffffffffffffffffffff160361395e5760006040517f1e4fbdf70000000000000000000000000000000000000000000000000000000081526004016139559190614bfd565b60405180910390fd5b61396781613c88565b50565b613972613db9565b73ffffffffffffffffffffffffffffffffffffffff16613990612cee565b73ffffffffffffffffffffffffffffffffffffffff16146139ef576139b3613db9565b6040517f118cdaa70000000000000000000000000000000000000000000000000000000081526004016139e69190614bfd565b60405180910390fd5b565b7f000000000000000000000000000000000000000000000000000000000000000073ffffffffffffffffffffffffffffffffffffffff163073ffffffffffffffffffffffffffffffffffffffff161480613a9e57507f000000000000000000000000000000000000000000000000000000000000000073ffffffffffffffffffffffffffffffffffffffff16613a85613dc1565b73ffffffffffffffffffffffffffffffffffffffff1614155b15613ad5576040517fe07c8dba00000000000000000000000000000000000000000000000000000000815260040160405180910390fd5b565b613adf61396a565b50565b8173ffffffffffffffffffffffffffffffffffffffff166352d1902d6040518163ffffffff1660e01b8152600401602060405180830381865afa925050508015613b4a57506040513d601f19601f82011682018060405250810190613b4791906156e1565b60015b613b8b57816040517f4c9c8ce3000000000000000000000000000000000000000000000000000000008152600401613b829190614bfd565b60405180910390fd5b7f360894a13ba1a3210667c828492db98dca3e2076cc3735a920a3ca505d382bbc60001b8114613bf257806040517faa1d49a4000000000000000000000000000000000000000000000000000000008152600401613be99190614a80565b60405180910390fd5b613bfc8383613e18565b505050565b7f000000000000000000000000000000000000000000000000000000000000000073ffffffffffffffffffffffffffffffffffffffff163073ffffffffffffffffffffffffffffffffffffffff1614613c86576040517fe07c8dba00000000000000000000000000000000000000000000000000000000815260040160405180910390fd5b565b6000613c92613d5f565b905060008160000160009054906101000a900473ffffffffffffffffffffffffffffffffffffffff169050828260000160006101000a81548173ffffffffffffffffffffffffffffffffffffffff021916908373ffffffffffffffffffffffffffffffffffffffff1602179055508273ffffffffffffffffffffffffffffffffffffffff168173ffffffffffffffffffffffffffffffffffffffff167f8be0079c531659141344cd1fd0a4f28419497f9722a3daafe3b4186f6b6457e060405160405180910390a3505050565b60007f9016d09d72d40fdae2fd8ceac6b6234c7706214fd39c1cd1e609a0528c199300905090565b600080613d92613e8b565b90508091505090565b613da3613eb6565b613dac81613ef6565b50565b613db7613eb6565b565b600033905090565b6000613def7f360894a13ba1a3210667c828492db98dca3e2076cc3735a920a3ca505d382bbc60001b613f0a565b60000160009054906101000a900473ffffffffffffffffffffffffffffffffffffffff16905090565b613e2182613f14565b8173ffffffffffffffffffffffffffffffffffffffff167fbc7cd75a20ee27fd9adebab32041f755214dbc6bffa90cc0225b39da2e5c2d3b60405160405180910390a2600081511115613e7e57613e788282613fe1565b50613e87565b613e86614065565b5b5050565b60007ff0c57e16840df040f15088dc2f81fe391c3923bec73e23a9662efc9c229c6a0060001b905090565b613ebe6140a2565b613ef4576040517fd7e6bcf800000000000000000000000000000000000000000000000000000000815260040160405180910390fd5b565b613efe613eb6565b613f07816140c2565b50565b6000819050919050565b60008173ffffffffffffffffffffffffffffffffffffffff163b03613f7057806040517f4c9c8ce3000000000000000000000000000000000000000000000000000000008152600401613f679190614bfd565b60405180910390fd5b80613f9d7f360894a13ba1a3210667c828492db98dca3e2076cc3735a920a3ca505d382bbc60001b613f0a565b60000160006101000a81548173ffffffffffffffffffffffffffffffffffffffff021916908373ffffffffffffffffffffffffffffffffffffffff16021790555050565b60606000808473ffffffffffffffffffffffffffffffffffffffff168460405161400b9190615755565b600060405180830381855af49150503d8060008114614046576040519150601f19603f3d011682016040523d82523d6000602084013e61404b565b606091505b509150915061405b8583836140d6565b9250505092915050565b60003411156140a0576040517fb398979f00000000000000000000000000000000000000000000000000000000815260040160405180910390fd5b565b60006140ac613d87565b60000160089054906101000a900460ff16905090565b6140ca613eb6565b6140d381614165565b50565b6060826140eb576140e6826141eb565b61415d565b60008251148015614113575060008473ffffffffffffffffffffffffffffffffffffffff163b145b1561415557836040517f9996b31500000000000000000000000000000000000000000000000000000000815260040161414c9190614bfd565b60405180910390fd5b81905061415e565b5b9392505050565b61416d613eb6565b600073ffffffffffffffffffffffffffffffffffffffff168173ffffffffffffffffffffffffffffffffffffffff16036141df5760006040517f1e4fbdf70000000000000000000000000000000000000000000000000000000081526004016141d69190614bfd565b60405180910390fd5b6141e881613c88565b50565b6000815111156141fd57805160208201fd5b6040517fd6bda27500000000000000000000000000000000000000000000000000000000815260040160405180910390fd5b6040518060a0016040528060008152602001600073ffffffffffffffffffffffffffffffffffffffff168152602001600073ffffffffffffffffffffffffffffffffffffffff1681526020016060815260200160006002811115614296576142956147cc565b5b81525090565b6000604051905090565b600080fd5b600080fd5b600073ffffffffffffffffffffffffffffffffffffffff82169050919050565b60006142db826142b0565b9050919050565b6142eb816142d0565b81146142f657600080fd5b50565b600081359050614308816142e2565b92915050565b600060208284031215614324576143236142a6565b5b6000614332848285016142f9565b91505092915050565b600081519050919050565b600082825260208201905092915050565b6000819050602082019050919050565b600081519050919050565b600082825260208201905092915050565b60005b838110156143a1578082015181840152602081019050614386565b60008484015250505050565b6000601f19601f8301169050919050565b60006143c982614367565b6143d38185614372565b93506143e3818560208601614383565b6143ec816143ad565b840191505092915050565b6000819050919050565b61440a816143f7565b82525050565b614419816142d0565b82525050565b6000606083016000830151848203600086015261443c82826143be565b91505060208301516144516020860182614401565b5060408301516144646040860182614410565b508091505092915050565b600061447b838361441f565b905092915050565b6000602082019050919050565b600061449b8261433b565b6144a58185614346565b9350836020820285016144b785614357565b8060005b858110156144f357848403895281516144d4858261446f565b94506144df83614483565b925060208a019950506001810190506144bb565b50829750879550505050505092915050565b6000602082019050818103600083015261451f8184614490565b905092915050565b600080fd5b600080fd5b7f4e487b7100000000000000000000000000000000000000000000000000000000600052604160045260246000fd5b614569826143ad565b810181811067ffffffffffffffff8211171561458857614587614531565b5b80604052505050565b600061459b61429c565b90506145a78282614560565b919050565b600067ffffffffffffffff8211156145c7576145c6614531565b5b6145d0826143ad565b9050602081019050919050565b82818337600083830152505050565b60006145ff6145fa846145ac565b614591565b90508281526020810184848401111561461b5761461a61452c565b5b6146268482856145dd565b509392505050565b600082601f83011261464357614642614527565b5b81356146538482602086016145ec565b91505092915050565b60008060408385031215614673576146726142a6565b5b6000614681858286016142f9565b925050602083013567ffffffffffffffff8111156146a2576146a16142ab565b5b6146ae8582860161462e565b9150509250929050565b6146c1816143f7565b81146146cc57600080fd5b50565b6000813590506146de816146b8565b92915050565b600080604083850312156146fb576146fa6142a6565b5b6000614709858286016146cf565b925050602061471a858286016146cf565b9150509250929050565b6000806040838503121561473b5761473a6142a6565b5b6000614749858286016142f9565b925050602061475a858286016146cf565b9150509250929050565b61476d816143f7565b82525050565b61477c816142d0565b82525050565b600082825260208201905092915050565b600061479e82614367565b6147a88185614782565b93506147b8818560208601614383565b6147c1816143ad565b840191505092915050565b7f4e487b7100000000000000000000000000000000000000000000000000000000600052602160045260246000fd5b6003811061480c5761480b6147cc565b5b50565b600081905061481d826147fb565b919050565b600061482d8261480f565b9050919050565b61483d81614822565b82525050565b600060a0820190506148586000830188614764565b6148656020830187614773565b6148726040830186614773565b81810360608301526148848185614793565b90506148936080830184614834565b9695505050505050565b600060608201905081810360008301526148b78186614793565b905081810360208301526148cb8185614793565b905081810360408301526148df8184614793565b9050949350505050565b600781106148f657600080fd5b50565b600081359050614908816148e9565b92915050565b60008060408385031215614925576149246142a6565b5b600083013567ffffffffffffffff811115614943576149426142ab565b5b61494f8582860161462e565b9250506020614960858286016148f9565b9150509250929050565b600067ffffffffffffffff82111561498557614984614531565b5b61498e826143ad565b9050602081019050919050565b60006149ae6149a98461496a565b614591565b9050828152602081018484840111156149ca576149c961452c565b5b6149d58482856145dd565b509392505050565b600082601f8301126149f2576149f1614527565b5b8135614a0284826020860161499b565b91505092915050565b60008060408385031215614a2257614a216142a6565b5b6000614a30858286016142f9565b925050602083013567ffffffffffffffff811115614a5157614a506142ab565b5b614a5d858286016149dd565b9150509250929050565b6000819050919050565b614a7a81614a67565b82525050565b6000602082019050614a956000830184614a71565b92915050565b6000602082019050614ab06000830184614764565b92915050565b60008060408385031215614acd57614acc6142a6565b5b6000614adb858286016142f9565b9250506020614aec858286016142f9565b9150509250929050565b60008115159050919050565b614b0b81614af6565b82525050565b6000602082019050614b266000830184614b02565b92915050565b600081519050919050565b600082825260208201905092915050565b6000819050602082019050919050565b6000614b648383614410565b60208301905092915050565b6000602082019050919050565b6000614b8882614b2c565b614b928185614b37565b9350614b9d83614b48565b8060005b83811015614bce578151614bb58882614b58565b9750614bc083614b70565b925050600181019050614ba1565b5085935050505092915050565b60006020820190508181036000830152614bf58184614b7d565b905092915050565b6000602082019050614c126000830184614773565b92915050565b60006060820190508181036000830152614c328186614793565b9050614c416020830185614764565b614c4e6040830184614773565b949350505050565b614c5f81614822565b82525050565b600060a083016000830151614c7d6000860182614401565b506020830151614c906020860182614410565b506040830151614ca36040860182614410565b5060608301518482036060860152614cbb82826143be565b9150506080830151614cd06080860182614c56565b508091505092915050565b60006020820190508181036000830152614cf58184614c65565b905092915050565b60078110614d0e57614d0d6147cc565b5b50565b6000819050614d1f82614cfd565b919050565b6000614d2f82614d11565b9050919050565b614d3f81614d24565b82525050565b6000608082019050614d5a6000830187614773565b8181036020830152614d6c8186614793565b9050614d7b6040830185614d36565b614d886060830184614b02565b95945050505050565b60006020820190508181036000830152614dab8184614793565b905092915050565b600080fd5b600080fd5b60008083601f840112614dd357614dd2614527565b5b8235905067ffffffffffffffff811115614df057614def614db3565b5b602083019150836001820283011115614e0c57614e0b614db8565b5b9250929050565b60008060008060008060608789031215614e3057614e2f6142a6565b5b600087013567ffffffffffffffff811115614e4e57614e4d6142ab565b5b614e5a89828a01614dbd565b9650965050602087013567ffffffffffffffff811115614e7d57614e7c6142ab565b5b614e8989828a01614dbd565b9450945050604087013567ffffffffffffffff811115614eac57614eab6142ab565b5b614eb889828a01614dbd565b92509250509295509295509295565b600060208284031215614edd57614edc6142a6565b5b600082013567ffffffffffffffff811115614efb57614efa6142ab565b5b614f078482850161462e565b91505092915050565b7f4e487b7100000000000000000000000000000000000000000000000000000000600052602260045260246000fd5b60006002820490506001821680614f5757607f821691505b602082108103614f6a57614f69614f10565b5b50919050565b7f596f7520646f206e6f742068617665207065726d697373696f6e20746f20766960008201527f6577207468657365207265636f7264732e000000000000000000000000000000602082015250565b6000614fcc603183614782565b9150614fd782614f70565b604082019050919050565b60006020820190508181036000830152614ffb81614fbf565b9050919050565b60008190508160005260206000209050919050565b60006020601f8301049050919050565b600082821b905092915050565b6000600883026150647fffffffffffffffffffffffffffffffffffffffffffffffffffffffffffffffff82615027565b61506e8683615027565b95508019841693508086168417925050509392505050565b6000819050919050565b60006150ab6150a66150a1846143f7565b615086565b6143f7565b9050919050565b6000819050919050565b6150c583615090565b6150d96150d1826150b2565b848454615034565b825550505050565b600090565b6150ee6150e1565b6150f98184846150bc565b505050565b5b8181101561511d576151126000826150e6565b6001810190506150ff565b5050565b601f8211156151625761513381615002565b61513c84615017565b8101602085101561514b578190505b61515f61515785615017565b8301826150fe565b50505b505050565b600082821c905092915050565b600061518560001984600802615167565b1980831691505092915050565b600061519e8383615174565b9150826002028217905092915050565b6151b782614367565b67ffffffffffffffff8111156151d0576151cf614531565b5b6151da8254614f3f565b6151e5828285615121565b600060209050601f8311600181146152185760008415615206578287015190505b6152108582615192565b865550615278565b601f19841661522686615002565b60005b8281101561524e57848901518255600182019150602085019450602081019050615229565b8683101561526b5784890151615267601f891682615174565b8355505b6001600288020188555050505b505050505050565b6000604082019050818103600083015261529a8185614793565b90506152a96020830184614d36565b9392505050565b7f4e487b7100000000000000000000000000000000000000000000000000000000600052603260045260246000fd5b7f4e487b7100000000000000000000000000000000000000000000000000000000600052601160045260246000fd5b6000615319826143f7565b9150615324836143f7565b9250828202615332816143f7565b91508282048414831517615349576153486152df565b5b5092915050565b600061535b826143f7565b9150615366836143f7565b925082820190508082111561537e5761537d6152df565b5b92915050565b600061538f826143f7565b91507fffffffffffffffffffffffffffffffffffffffffffffffffffffffffffffffff82036153c1576153c06152df565b5b600182019050919050565b7f43616e6e6f742072656769737465722061732041646d696e206469726563746c60008201527f792e000000000000000000000000000000000000000000000000000000000000602082015250565b6000615428602283614782565b9150615433826153cc565b604082019050919050565b600060208201905081810360008301526154578161541b565b9050919050565b6000615469826143f7565b9150615474836143f7565b925082820390508181111561548c5761548b6152df565b5b92915050565b7f4e487b7100000000000000000000000000000000000000000000000000000000600052603160045260246000fd5b600082905092915050565b6154d683836154c1565b67ffffffffffffffff8111156154ef576154ee614531565b5b6154f98254614f3f565b615504828285615121565b6000601f8311600181146155335760008415615521578287013590505b61552b8582615192565b865550615593565b601f19841661554186615002565b60005b8281101561556957848901358255600182019150602085019450602081019050615544565b868310156155865784890135615582601f891682615174565b8355505b6001600288020188555050505b50505050505050565b60006155a88385614782565b93506155b58385846145dd565b6155be836143ad565b840190509392505050565b600060608201905081810360008301526155e481888a61559c565b905081810360208301526155f981868861559c565b9050818103604083015261560e81848661559c565b9050979650505050505050565b6000819050919050565b600067ffffffffffffffff82169050919050565b600061565461564f61564a8461561b565b615086565b615625565b9050919050565b61566481615639565b82525050565b600060208201905061567f600083018461565b565b92915050565b6000604082019050818103600083015261569f8185614793565b90506156ae6020830184614764565b9392505050565b6156be81614a67565b81146156c957600080fd5b50565b6000815190506156db816156b5565b92915050565b6000602082840312156156f7576156f66142a6565b5b6000615705848285016156cc565b91505092915050565b600081519050919050565b600081905092915050565b600061572f8261570e565b6157398185615719565b9350615749818560208601614383565b80840191505092915050565b60006157618284615724565b91508190509291505056fea26469706673582212206ca43e842def784f96fb1cdabd4a2fdece3a3d4cbea40447d1726606ef3d596864736f6c63430008180033",
  "linkReferences": {},
  "deployedLinkReferences": {}
}