{
  "_format": "hh-sol-artifact-1",
  "contractName": "MedicalRecords",
  "sourceName": "contracts/MedicalRecords.sol",
  "abi": [
    {
      "inputs": [],
      "stateMutability": "nonpayable",
      "type": "constructor"
    },
    {
      "inputs": [],
      "name": "AccessAlreadyGranted",
      "type": "error"
    },
    {
      "inputs": [
        {
          "internalType": "address",
          "name": "target",
          "type": "address"
        }
      ],
      "name": "AddressEmptyCode",
      "type": "error"
    },
    {
      "inputs": [],
      "name": "AlreadyRegistered",
      "type": "error"
    },
    {
      "inputs": [],
      "name": "CannotRegisterAsAdmin",
      "type": "error"
    },
    {
      "inputs": [
        {
          "internalType": "address",
          "name": "implementation",
          "type": "address"
        }
      ],
      "name": "ERC1967InvalidImplementation",
      "type": "error"
    },
    {
      "inputs": [],
      "name": "ERC1967NonPayable",
      "type": "error"
    },
    {
      "inputs": [],
      "name": "FailedCall",
      "type": "error"
    },
    {
      "inputs": [],
      "name": "InputArrayLengthMismatch",
      "type": "error"
    },
    {
      "inputs": [],
      "name": "InvalidInitialization",
      "type": "error"
    },
    {
      "inputs": [],
      "name": "NoAccessToRevoke",
      "type": "error"
    },
    {
      "inputs": [],
      "name": "NotAPatient",
      "type": "error"
    },
    {
      "inputs": [],
      "name": "NotAVerifiedProfessional",
      "type": "error"
    },
    {
      "inputs": [],
      "name": "NotAnInsuranceProvider",
      "type": "error"
    },
    {
      "inputs": [],
      "name": "NotAuthorized",
      "type": "error"
    },
    {
      "inputs": [],
      "name": "NotHospitalAdmin",
      "type": "error"
    },
    {
      "inputs": [],
      "name": "NotInitializing",
      "type": "error"
    },
    {
      "inputs": [],
      "name": "NotRecordOwner",
      "type": "error"
    },
    {
      "inputs": [],
      "name": "NotRegistered",
      "type": "error"
    },
    {
      "inputs": [],
      "name": "NotSuperAdmin",
      "type": "error"
    },
    {
      "inputs": [
        {
          "internalType": "address",
          "name": "owner",
          "type": "address"
        }
      ],
      "name": "OwnableInvalidOwner",
      "type": "error"
    },
    {
      "inputs": [
        {
          "internalType": "address",
          "name": "account",
          "type": "address"
        }
      ],
      "name": "OwnableUnauthorizedAccount",
      "type": "error"
    },
    {
      "inputs": [],
      "name": "PublicKeyAlreadySet",
      "type": "error"
    },
    {
      "inputs": [],
      "name": "RecordNotFound",
      "type": "error"
    },
    {
      "inputs": [],
      "name": "RequestNotFound",
      "type": "error"
    },
    {
      "inputs": [],
      "name": "RequestNotFoundOrAlreadyHandled",
      "type": "error"
    },
    {
      "inputs": [],
      "name": "RoleNotAllowed",
      "type": "error"
    },
    {
      "inputs": [],
      "name": "UUPSUnauthorizedCallContext",
      "type": "error"
    },
    {
      "inputs": [
        {
          "internalType": "bytes32",
          "name": "slot",
          "type": "bytes32"
        }
      ],
      "name": "UUPSUnsupportedProxiableUUID",
      "type": "error"
    },
    {
      "inputs": [],
      "name": "UserAlreadyInHospital",
      "type": "error"
    },
    {
      "inputs": [],
      "name": "UserNotFound",
      "type": "error"
    },
    {
      "inputs": [],
      "name": "UserNotInHospital",
      "type": "error"
    },
    {
      "anonymous": false,
      "inputs": [
        {
          "indexed": true,
          "internalType": "uint256",
          "name": "recordId",
          "type": "uint256"
        },
        {
          "indexed": true,
          "internalType": "address",
          "name": "owner",
          "type": "address"
        },
        {
          "indexed": true,
          "internalType": "address",
          "name": "grantee",
          "type": "address"
        },
        {
          "indexed": false,
          "internalType": "uint256",
          "name": "expiration",
          "type": "uint256"
        },
        {
          "indexed": false,
          "internalType": "bytes",
          "name": "encryptedDek",
          "type": "bytes"
        }
      ],
      "name": "AccessGranted",
      "type": "event"
    },
    {
      "anonymous": false,
      "inputs": [
        {
          "indexed": true,
          "internalType": "uint256",
          "name": "requestId",
          "type": "uint256"
        },
        {
          "indexed": true,
          "internalType": "address",
          "name": "patient",
          "type": "address"
        },
        {
          "indexed": true,
          "internalType": "address",
          "name": "provider",
          "type": "address"
        },
        {
          "indexed": false,
          "internalType": "string",
          "name": "claimId",
          "type": "string"
        }
      ],
      "name": "AccessRequested",
      "type": "event"
    },
    {
      "anonymous": false,
      "inputs": [
        {
          "indexed": true,
          "internalType": "uint256",
          "name": "hospitalId",
          "type": "uint256"
        },
        {
          "indexed": true,
          "internalType": "address",
          "name": "adminAddress",
          "type": "address"
        }
      ],
      "name": "HospitalVerified",
      "type": "event"
    },
    {
      "anonymous": false,
      "inputs": [
        {
          "indexed": false,
          "internalType": "uint64",
          "name": "version",
          "type": "uint64"
        }
      ],
      "name": "Initialized",
      "type": "event"
    },
    {
      "anonymous": false,
      "inputs": [
        {
          "indexed": true,
          "internalType": "address",
          "name": "previousOwner",
          "type": "address"
        },
        {
          "indexed": true,
          "internalType": "address",
          "name": "newOwner",
          "type": "address"
        }
      ],
      "name": "OwnershipTransferred",
      "type": "event"
    },
    {
      "anonymous": false,
      "inputs": [
        {
          "indexed": true,
          "internalType": "address",
          "name": "user",
          "type": "address"
        },
        {
          "indexed": false,
          "internalType": "string",
          "name": "name",
          "type": "string"
        },
        {
          "indexed": false,
          "internalType": "string",
          "name": "contactInfo",
          "type": "string"
        },
        {
          "indexed": false,
          "internalType": "string",
          "name": "profileMetadataURI",
          "type": "string"
        }
      ],
      "name": "ProfileUpdated",
      "type": "event"
    },
    {
      "anonymous": false,
      "inputs": [
        {
          "indexed": true,
          "internalType": "address",
          "name": "user",
          "type": "address"
        }
      ],
      "name": "PublicKeySaved",
      "type": "event"
    },
    {
      "anonymous": false,
      "inputs": [
        {
          "indexed": true,
          "internalType": "uint256",
          "name": "recordId",
          "type": "uint256"
        },
        {
          "indexed": true,
          "internalType": "address",
          "name": "professionalAddress",
          "type": "address"
        }
      ],
      "name": "RecordAccessRevoked",
      "type": "event"
    },
    {
      "anonymous": false,
      "inputs": [
        {
          "indexed": true,
          "internalType": "uint256",
          "name": "recordId",
          "type": "uint256"
        },
        {
          "indexed": true,
          "internalType": "address",
          "name": "patient",
          "type": "address"
        },
        {
          "indexed": true,
          "internalType": "address",
          "name": "uploadedBy",
          "type": "address"
        },
        {
          "indexed": false,
          "internalType": "string",
          "name": "category",
          "type": "string"
        },
        {
          "indexed": false,
          "internalType": "bool",
          "name": "isVerified",
          "type": "bool"
        }
      ],
      "name": "RecordAdded",
      "type": "event"
    },
    {
      "anonymous": false,
      "inputs": [
        {
          "indexed": true,
          "internalType": "uint256",
          "name": "hospitalId",
          "type": "uint256"
        },
        {
          "indexed": false,
          "internalType": "string",
          "name": "name",
          "type": "string"
        },
        {
          "indexed": true,
          "internalType": "address",
          "name": "requester",
          "type": "address"
        }
      ],
      "name": "RegistrationRequested",
      "type": "event"
    },
    {
      "anonymous": false,
      "inputs": [
        {
          "indexed": true,
          "internalType": "uint256",
          "name": "requestId",
          "type": "uint256"
        },
        {
          "indexed": true,
          "internalType": "address",
          "name": "patient",
          "type": "address"
        },
        {
          "indexed": false,
          "internalType": "uint256",
          "name": "accessDuration",
          "type": "uint256"
        }
      ],
      "name": "RequestApproved",
      "type": "event"
    },
    {
      "anonymous": false,
      "inputs": [
        {
          "indexed": true,
          "internalType": "address",
          "name": "user",
          "type": "address"
        },
        {
          "indexed": false,
          "internalType": "enum Storage.Role",
          "name": "role",
          "type": "uint8"
        },
        {
          "indexed": true,
          "internalType": "uint256",
          "name": "hospitalId",
          "type": "uint256"
        }
      ],
      "name": "RoleAssigned",
      "type": "event"
    },
    {
      "anonymous": false,
      "inputs": [
        {
          "indexed": true,
          "internalType": "address",
          "name": "user",
          "type": "address"
        },
        {
          "indexed": false,
          "internalType": "enum Storage.Role",
          "name": "role",
          "type": "uint8"
        },
        {
          "indexed": true,
          "internalType": "uint256",
          "name": "hospitalId",
          "type": "uint256"
        }
      ],
      "name": "RoleRevoked",
      "type": "event"
    },
    {
      "anonymous": false,
      "inputs": [
        {
          "indexed": true,
          "internalType": "address",
          "name": "implementation",
          "type": "address"
        }
      ],
      "name": "Upgraded",
      "type": "event"
    },
    {
      "anonymous": false,
      "inputs": [
        {
          "indexed": true,
          "internalType": "address",
          "name": "userAddress",
          "type": "address"
        },
        {
          "indexed": false,
          "internalType": "string",
          "name": "name",
          "type": "string"
        },
        {
          "indexed": false,
          "internalType": "enum Storage.Role",
          "name": "role",
          "type": "uint8"
        }
      ],
      "name": "UserRegistered",
      "type": "event"
    },
    {
      "anonymous": false,
      "inputs": [
        {
          "indexed": true,
          "internalType": "address",
          "name": "admin",
          "type": "address"
        },
        {
          "indexed": true,
          "internalType": "address",
          "name": "userAddress",
          "type": "address"
        }
      ],
      "name": "UserVerified",
      "type": "event"
    },
    {
      "inputs": [],
      "name": "UPGRADE_INTERFACE_VERSION",
      "outputs": [
        {
          "internalType": "string",
          "name": "",
          "type": "string"
        }
      ],
      "stateMutability": "view",
      "type": "function"
    },
    {
      "inputs": [
        {
          "internalType": "string",
          "name": "_ipfsHash",
          "type": "string"
        },
        {
          "internalType": "string",
          "name": "_category",
          "type": "string"
        }
      ],
      "name": "addSelfUploadedRecord",
      "outputs": [],
      "stateMutability": "nonpayable",
      "type": "function"
    },
    {
      "inputs": [
        {
          "internalType": "address",
          "name": "_patient",
          "type": "address"
        },
        {
          "internalType": "string",
          "name": "_ipfsHash",
          "type": "string"
        },
        {
          "internalType": "string",
          "name": "_category",
          "type": "string"
        }
      ],
      "name": "addVerifiedRecord",
      "outputs": [],
      "stateMutability": "nonpayable",
      "type": "function"
    },
    {
      "inputs": [
        {
          "internalType": "uint256",
          "name": "_requestId",
          "type": "uint256"
        },
        {
          "internalType": "uint256",
          "name": "_durationInDays",
          "type": "uint256"
        }
      ],
      "name": "approveRequest",
      "outputs": [],
      "stateMutability": "nonpayable",
      "type": "function"
    },
    {
      "inputs": [
        {
          "internalType": "address",
          "name": "user",
          "type": "address"
        },
        {
          "internalType": "enum Storage.Role",
          "name": "role",
          "type": "uint8"
        },
        {
          "internalType": "uint256",
          "name": "hospitalId",
          "type": "uint256"
        }
      ],
      "name": "assignRole",
      "outputs": [],
      "stateMutability": "nonpayable",
      "type": "function"
    },
    {
      "inputs": [
        {
          "internalType": "uint256",
          "name": "_recordId",
          "type": "uint256"
        },
        {
          "internalType": "address",
          "name": "_viewer",
          "type": "address"
        }
      ],
      "name": "checkRecordAccess",
      "outputs": [
        {
          "internalType": "bool",
          "name": "",
          "type": "bool"
        }
      ],
      "stateMutability": "view",
      "type": "function"
    },
    {
      "inputs": [
        {
          "internalType": "address",
          "name": "_patientAddress",
          "type": "address"
        }
      ],
      "name": "getPatientRecordIds",
      "outputs": [
        {
          "internalType": "uint256[]",
          "name": "",
          "type": "uint256[]"
        }
      ],
      "stateMutability": "view",
      "type": "function"
    },
    {
      "inputs": [
        {
          "internalType": "address",
          "name": "_patientAddress",
          "type": "address"
        },
        {
          "internalType": "uint256",
          "name": "_index",
          "type": "uint256"
        }
      ],
      "name": "getPatientRequestAtIndex",
      "outputs": [
        {
          "components": [
            {
              "internalType": "uint256",
              "name": "id",
              "type": "uint256"
            },
            {
              "internalType": "address",
              "name": "patient",
              "type": "address"
            },
            {
              "internalType": "address",
              "name": "provider",
              "type": "address"
            },
            {
              "internalType": "string",
              "name": "claimId",
              "type": "string"
            },
            {
              "internalType": "enum Storage.RequestStatus",
              "name": "status",
              "type": "uint8"
            }
          ],
          "internalType": "struct Storage.AccessRequest",
          "name": "",
          "type": "tuple"
        }
      ],
      "stateMutability": "view",
      "type": "function"
    },
    {
      "inputs": [
        {
          "internalType": "address",
          "name": "_patientAddress",
          "type": "address"
        }
      ],
      "name": "getPatientRequestsCount",
      "outputs": [
        {
          "internalType": "uint256",
          "name": "",
          "type": "uint256"
        }
      ],
      "stateMutability": "view",
      "type": "function"
    },
    {
      "inputs": [
        {
          "internalType": "uint256",
          "name": "_recordId",
          "type": "uint256"
        }
      ],
      "name": "getRecordById",
      "outputs": [
        {
          "components": [
            {
              "internalType": "uint256",
              "name": "id",
              "type": "uint256"
            },
            {
              "internalType": "string",
              "name": "ipfsHash",
              "type": "string"
            },
            {
              "internalType": "uint256",
              "name": "timestamp",
              "type": "uint256"
            },
            {
              "internalType": "address",
              "name": "uploadedBy",
              "type": "address"
            },
            {
              "internalType": "address",
              "name": "owner",
              "type": "address"
            },
            {
              "internalType": "bool",
              "name": "isVerified",
              "type": "bool"
            },
            {
              "internalType": "string",
              "name": "category",
              "type": "string"
            }
          ],
          "internalType": "struct Storage.Record",
          "name": "",
          "type": "tuple"
        }
      ],
      "stateMutability": "view",
      "type": "function"
    },
    {
      "inputs": [
        {
          "internalType": "uint256[]",
          "name": "_recordIds",
          "type": "uint256[]"
        },
        {
          "internalType": "address",
          "name": "_grantee",
          "type": "address"
        },
        {
          "internalType": "uint256",
          "name": "_durationInDays",
          "type": "uint256"
        },
        {
          "internalType": "bytes[]",
          "name": "_encryptedDeks",
          "type": "bytes[]"
        }
      ],
      "name": "grantMultipleRecordAccess",
      "outputs": [],
      "stateMutability": "nonpayable",
      "type": "function"
    },
    {
      "inputs": [
        {
          "internalType": "uint256",
          "name": "_recordId",
          "type": "uint256"
        },
        {
          "internalType": "address",
          "name": "_grantee",
          "type": "address"
        },
        {
          "internalType": "uint256",
          "name": "_durationInDays",
          "type": "uint256"
        },
        {
          "internalType": "bytes",
          "name": "_encryptedDek",
          "type": "bytes"
        }
      ],
      "name": "grantRecordAccess",
      "outputs": [],
      "stateMutability": "nonpayable",
      "type": "function"
    },
    {
      "inputs": [],
      "name": "hospitalIdCounter",
      "outputs": [
        {
          "internalType": "uint256",
          "name": "",
          "type": "uint256"
        }
      ],
      "stateMutability": "view",
      "type": "function"
    },
    {
      "inputs": [
        {
          "internalType": "uint256",
          "name": "",
          "type": "uint256"
        }
      ],
      "name": "hospitals",
      "outputs": [
        {
          "internalType": "uint256",
          "name": "hospitalId",
          "type": "uint256"
        },
        {
          "internalType": "string",
          "name": "name",
          "type": "string"
        },
        {
          "internalType": "address",
          "name": "adminAddress",
          "type": "address"
        },
        {
          "internalType": "bool",
          "name": "isVerified",
          "type": "bool"
        }
      ],
      "stateMutability": "view",
      "type": "function"
    },
    {
      "inputs": [
        {
          "internalType": "address",
          "name": "initialOwner",
          "type": "address"
        }
      ],
      "name": "initialize",
      "outputs": [],
      "stateMutability": "nonpayable",
      "type": "function"
    },
    {
      "inputs": [],
      "name": "owner",
      "outputs": [
        {
          "internalType": "address",
          "name": "",
          "type": "address"
        }
      ],
      "stateMutability": "view",
      "type": "function"
    },
    {
      "inputs": [
        {
          "internalType": "address",
          "name": "",
          "type": "address"
        },
        {
          "internalType": "uint256",
          "name": "",
          "type": "uint256"
        }
      ],
      "name": "patientRecordIds",
      "outputs": [
        {
          "internalType": "uint256",
          "name": "",
          "type": "uint256"
        }
      ],
      "stateMutability": "view",
      "type": "function"
    },
    {
      "inputs": [
        {
          "internalType": "address",
          "name": "",
          "type": "address"
        },
        {
          "internalType": "uint256",
          "name": "",
          "type": "uint256"
        }
      ],
      "name": "patientRequests",
      "outputs": [
        {
          "internalType": "uint256",
          "name": "id",
          "type": "uint256"
        },
        {
          "internalType": "address",
          "name": "patient",
          "type": "address"
        },
        {
          "internalType": "address",
          "name": "provider",
          "type": "address"
        },
        {
          "internalType": "string",
          "name": "claimId",
          "type": "string"
        },
        {
          "internalType": "enum Storage.RequestStatus",
          "name": "status",
          "type": "uint8"
        }
      ],
      "stateMutability": "view",
      "type": "function"
    },
    {
      "inputs": [],
      "name": "proxiableUUID",
      "outputs": [
        {
          "internalType": "bytes32",
          "name": "",
          "type": "bytes32"
        }
      ],
      "stateMutability": "view",
      "type": "function"
    },
    {
      "inputs": [
        {
          "internalType": "uint256",
          "name": "",
          "type": "uint256"
        },
        {
          "internalType": "address",
          "name": "",
          "type": "address"
        }
      ],
      "name": "recordAccess",
      "outputs": [
        {
          "internalType": "uint256",
          "name": "",
          "type": "uint256"
        }
      ],
      "stateMutability": "view",
      "type": "function"
    },
    {
      "inputs": [
        {
          "internalType": "uint256",
          "name": "",
          "type": "uint256"
        }
      ],
      "name": "records",
      "outputs": [
        {
          "internalType": "uint256",
          "name": "id",
          "type": "uint256"
        },
        {
          "internalType": "string",
          "name": "ipfsHash",
          "type": "string"
        },
        {
          "internalType": "uint256",
          "name": "timestamp",
          "type": "uint256"
        },
        {
          "internalType": "address",
          "name": "uploadedBy",
          "type": "address"
        },
        {
          "internalType": "address",
          "name": "owner",
          "type": "address"
        },
        {
          "internalType": "bool",
          "name": "isVerified",
          "type": "bool"
        },
        {
          "internalType": "string",
          "name": "category",
          "type": "string"
        }
      ],
      "stateMutability": "view",
      "type": "function"
    },
    {
      "inputs": [
        {
          "internalType": "string",
          "name": "_name",
          "type": "string"
        },
        {
          "internalType": "enum Storage.Role",
          "name": "_role",
          "type": "uint8"
        }
      ],
      "name": "registerUser",
      "outputs": [],
      "stateMutability": "nonpayable",
      "type": "function"
    },
    {
      "inputs": [
        {
          "internalType": "uint256",
          "name": "",
          "type": "uint256"
        }
      ],
      "name": "registrationRequests",
      "outputs": [
        {
          "internalType": "uint256",
          "name": "hospitalId",
          "type": "uint256"
        },
        {
          "internalType": "string",
          "name": "name",
          "type": "string"
        },
        {
          "internalType": "address",
          "name": "requesterAddress",
          "type": "address"
        },
        {
          "internalType": "enum Storage.RequestStatus",
          "name": "status",
          "type": "uint8"
        }
      ],
      "stateMutability": "view",
      "type": "function"
    },
    {
      "inputs": [],
      "name": "renounceOwnership",
      "outputs": [],
      "stateMutability": "nonpayable",
      "type": "function"
    },
    {
      "inputs": [
        {
          "internalType": "address",
          "name": "_patientAddress",
          "type": "address"
        },
        {
          "internalType": "string",
          "name": "_claimId",
          "type": "string"
        }
      ],
      "name": "requestAccess",
      "outputs": [],
      "stateMutability": "nonpayable",
      "type": "function"
    },
    {
      "inputs": [
        {
          "internalType": "string",
          "name": "hospitalName",
          "type": "string"
        }
      ],
      "name": "requestRegistration",
      "outputs": [],
      "stateMutability": "nonpayable",
      "type": "function"
    },
    {
      "inputs": [
        {
          "internalType": "uint256",
          "name": "recordId",
          "type": "uint256"
        },
        {
          "internalType": "address",
          "name": "professionalAddress",
          "type": "address"
        }
      ],
      "name": "revokeRecordAccess",
      "outputs": [],
      "stateMutability": "nonpayable",
      "type": "function"
    },
    {
      "inputs": [
        {
          "internalType": "address",
          "name": "user",
          "type": "address"
        },
        {
          "internalType": "enum Storage.Role",
          "name": "role",
          "type": "uint8"
        },
        {
          "internalType": "uint256",
          "name": "hospitalId",
          "type": "uint256"
        }
      ],
      "name": "revokeRole",
      "outputs": [],
      "stateMutability": "nonpayable",
      "type": "function"
    },
    {
      "inputs": [
        {
          "internalType": "string",
          "name": "_publicKey",
          "type": "string"
        }
      ],
      "name": "savePublicKey",
      "outputs": [],
      "stateMutability": "nonpayable",
      "type": "function"
    },
    {
      "inputs": [
        {
          "internalType": "address",
          "name": "newOwner",
          "type": "address"
        }
      ],
      "name": "transferOwnership",
      "outputs": [],
      "stateMutability": "nonpayable",
      "type": "function"
    },
    {
      "inputs": [
        {
          "internalType": "string",
          "name": "_name",
          "type": "string"
        },
        {
          "internalType": "string",
          "name": "_contactInfo",
          "type": "string"
        },
        {
          "internalType": "string",
          "name": "_profileMetadataURI",
          "type": "string"
        }
      ],
      "name": "updateUserProfile",
      "outputs": [],
      "stateMutability": "nonpayable",
      "type": "function"
    },
    {
      "inputs": [
        {
          "internalType": "address",
          "name": "newImplementation",
          "type": "address"
        },
        {
          "internalType": "bytes",
          "name": "data",
          "type": "bytes"
        }
      ],
      "name": "upgradeToAndCall",
      "outputs": [],
      "stateMutability": "payable",
      "type": "function"
    },
    {
      "inputs": [
        {
          "internalType": "address",
          "name": "",
          "type": "address"
        }
      ],
      "name": "userProfiles",
      "outputs": [
        {
          "internalType": "string",
          "name": "name",
          "type": "string"
        },
        {
          "internalType": "string",
          "name": "contactInfo",
          "type": "string"
        },
        {
          "internalType": "string",
          "name": "profileMetadataURI",
          "type": "string"
        }
      ],
      "stateMutability": "view",
      "type": "function"
    },
    {
      "inputs": [
        {
          "internalType": "address",
          "name": "",
          "type": "address"
        }
      ],
      "name": "userToHospital",
      "outputs": [
        {
          "internalType": "uint256",
          "name": "",
          "type": "uint256"
        }
      ],
      "stateMutability": "view",
      "type": "function"
    },
    {
      "inputs": [
        {
          "internalType": "address",
          "name": "",
          "type": "address"
        }
      ],
      "name": "users",
      "outputs": [
        {
          "internalType": "address",
          "name": "walletAddress",
          "type": "address"
        },
        {
          "internalType": "string",
          "name": "name",
          "type": "string"
        },
        {
          "internalType": "enum Storage.Role",
          "name": "role",
          "type": "uint8"
        },
        {
          "internalType": "bool",
          "name": "isVerified",
          "type": "bool"
        },
        {
          "internalType": "string",
          "name": "publicKey",
          "type": "string"
        }
      ],
      "stateMutability": "view",
      "type": "function"
    },
    {
      "inputs": [
        {
          "internalType": "uint256",
          "name": "hospitalId",
          "type": "uint256"
        },
        {
          "internalType": "address",
          "name": "adminAddress",
          "type": "address"
        }
      ],
      "name": "verifyHospital",
      "outputs": [],
      "stateMutability": "nonpayable",
      "type": "function"
    }
  ],
  "bytecode": "0x60a0604052306080523480156200001557600080fd5b506200002062000026565b620000da565b7ff0c57e16840df040f15088dc2f81fe391c3923bec73e23a9662efc9c229c6a00805468010000000000000000900460ff1615620000775760405163f92ee8a960e01b815260040160405180910390fd5b80546001600160401b0390811614620000d75780546001600160401b0319166001600160401b0390811782556040519081527fc7f505b2f371ae2175ee4913f4499e1f2633a7b5936321eed1cdaeb6115181d29060200160405180910390a15b50565b6080516140fc6200010460003960008181612e7401528181612e9d0152612fe301526140fc6000f3fe60806040526004361061020f5760003560e01c80638da5cb5b11610118578063c4d66de8116100a0578063e6e8c76b1161006f578063e6e8c76b146106b7578063e75b8b23146106e4578063ea4d598e14610711578063f2fde38b14610731578063f79051381461075157600080fd5b8063c4d66de814610637578063cbf47a7e14610657578063d8eb8e9014610677578063e699ffcd1461069757600080fd5b8063ad3cb1cc116100e7578063ad3cb1cc14610561578063b8604fba1461059f578063bace0290146105bf578063c3f1a949146105df578063c459a8ce146105ff57600080fd5b80638da5cb5b1461049c5780639afd8efe146104e3578063a00977bf14610510578063a87430ba1461053057600080fd5b806352d1902d1161019b5780636248204e1161016a5780636248204e146103da5780636b3c6fd614610407578063715018a61461043757806381dc6fd21461044c5780638c544c291461047c57600080fd5b806352d1902d146103655780635a82375b1461037a5780635af28ce31461039a5780635e2547f2146103ba57600080fd5b8063332d56d7116101e2578063332d56d7146102b0578063338e12eb146102df57806334461067146102ff57806343624376146103325780634f1ef2861461035257600080fd5b806328f183a1146102145780632c0a90a91461023d5780632f6d4a591461025f5780633217bc721461027f575b600080fd5b34801561022057600080fd5b5061022a60085481565b6040519081526020015b60405180910390f35b34801561024957600080fd5b5061025d61025836600461336f565b610781565b005b34801561026b57600080fd5b5061025d61027a366004613462565b610a05565b34801561028b57600080fd5b5061029f61029a3660046134af565b610bcb565b604051610234959493929190613553565b3480156102bc57600080fd5b506102d06102cb36600461359e565b610cb2565b604051610234939291906135b9565b3480156102eb57600080fd5b5061025d6102fa366004613601565b610e6c565b34801561030b57600080fd5b5061031f61031a36600461364e565b611093565b6040516102349796959493929190613667565b34801561033e57600080fd5b5061025d61034d3660046136c6565b611207565b61025d610360366004613462565b61125d565b34801561037157600080fd5b5061022a611278565b34801561038657600080fd5b5061025d6103953660046137d1565b611295565b3480156103a657600080fd5b5061022a6103b536600461359e565b611504565b3480156103c657600080fd5b5061022a6103d53660046134af565b61154b565b3480156103e657600080fd5b506103fa6103f536600461359e565b61157c565b60405161023491906138a6565b34801561041357600080fd5b5061042761042236600461364e565b611611565b60405161023494939291906138ea565b34801561044357600080fd5b5061025d6116d2565b34801561045857600080fd5b5061046c61046736600461364e565b6116e6565b6040516102349493929190613921565b34801561048857600080fd5b5061025d61049736600461395b565b611708565b3480156104a857600080fd5b507f9016d09d72d40fdae2fd8ceac6b6234c7706214fd39c1cd1e609a0528c199300546040516001600160a01b039091168152602001610234565b3480156104ef57600080fd5b506105036104fe3660046134af565b61181f565b60405161023491906139ce565b34801561051c57600080fd5b5061025d61052b366004613a32565b6119b9565b34801561053c57600080fd5b5061055061054b36600461359e565b611ad5565b604051610234959493929190613a7e565b34801561056d57600080fd5b50610592604051806040016040528060058152602001640352e302e360dc1b81525081565b6040516102349190613ad5565b3480156105ab57600080fd5b5061025d6105ba366004613ae8565b611c27565b3480156105cb57600080fd5b5061025d6105da366004613b6c565b611da1565b3480156105eb57600080fd5b5061025d6105fa366004613c05565b611ea0565b34801561060b57600080fd5b5061022a61061a366004613c05565b600460209081526000928352604080842090915290825290205481565b34801561064357600080fd5b5061025d61065236600461359e565b612273565b34801561066357600080fd5b5061025d610672366004613c28565b612375565b34801561068357600080fd5b5061025d610692366004613a32565b6125b6565b3480156106a357600080fd5b5061025d6106b2366004613ae8565b612675565b3480156106c357600080fd5b5061022a6106d236600461359e565b600a6020526000908152604090205481565b3480156106f057600080fd5b506107046106ff36600461364e565b6128b7565b6040516102349190613c7c565b34801561071d57600080fd5b5061025d61072c366004613c05565b612ab8565b34801561073d57600080fd5b5061025d61074c36600461359e565b612bc6565b34801561075d57600080fd5b5061077161076c366004613c05565b612c09565b6040519015158152602001610234565b3360009081526020819052604081206002015460ff1660088111156107a8576107a8613529565b146107c65760405163104a226f60e31b815260040160405180910390fd5b33600090815260056020526040812090805b82548110156109e057848382815481106107f4576107f4613cf8565b90600052602060002090600502016000015414801561084c5750600083828154811061082257610822613cf8565b600091825260209091206004600590920201015460ff16600281111561084a5761084a613529565b145b156109d857600183828154811061086557610865613cf8565b60009182526020909120600460059092020101805460ff1916600183600281111561089257610892613529565b021790555060006108a68562015180613d24565b6108b09042613d3b565b905060008483815481106108c6576108c6613cf8565b60009182526020808320600260059093020191909101543383526003909152604082206001600160a01b039091169250905b815481101561099457600082828154811061091557610915613cf8565b6000918252602080832091909101548083526004825260408084206001600160a01b0389168086529084528185208a905581518a8152938401829052908301939093529250339083907f1c795c24f232a1e8a341c63546a2631ab532f7bf10169ff1b3c74187ad48a0f19060600160405180910390a4506001016108f8565b5060405187815260019550339089907f4def62da440b39db2661de60aa3dad0479ac27d4c22597d6e14c7441774f8a319060200160405180910390a35050506109e0565b6001016107d8565b50806109ff57604051632589d98f60e11b815260040160405180910390fd5b50505050565b60033360009081526020819052604090206002015460ff166008811115610a2e57610a2e613529565b14610a4c57604051630d52912160e21b815260040160405180910390fd5b6001600160a01b03821660009081526020819052604081206002015460ff166008811115610a7c57610a7c613529565b14610a9a5760405163104a226f60e31b815260040160405180910390fd5b6006805460009182610aab83613d4e565b909155506001600160a01b038481166000818152600560208181526040808420815160a08101835288815280840196875233928101928352606081018b81526080820187905282546001808201855593885294909620815194909502909401928355945194820180549587166001600160a01b031996871617905551600282018054919096169416939093179093555192935090916003820190610b4f9082613de9565b50608082015160048201805460ff19166001836002811115610b7357610b73613529565b02179055505050336001600160a01b0316836001600160a01b0316827f21eb886073c5fec0f227f76ef8335d82939c7aa4b537be2e0943f4c1dc74553e85604051610bbe9190613ad5565b60405180910390a4505050565b60056020528160005260406000208181548110610be757600080fd5b600091825260209091206005909102018054600182015460028301546003840180549396506001600160a01b03928316955091169291610c2690613d67565b80601f0160208091040260200160405190810160405280929190818152602001828054610c5290613d67565b8015610c9f5780601f10610c7457610100808354040283529160200191610c9f565b820191906000526020600020905b815481529060010190602001808311610c8257829003601f168201915b5050506004909301549192505060ff1685565b600160205260009081526040902080548190610ccd90613d67565b80601f0160208091040260200160405190810160405280929190818152602001828054610cf990613d67565b8015610d465780601f10610d1b57610100808354040283529160200191610d46565b820191906000526020600020905b815481529060010190602001808311610d2957829003601f168201915b505050505090806001018054610d5b90613d67565b80601f0160208091040260200160405190810160405280929190818152602001828054610d8790613d67565b8015610dd45780601f10610da957610100808354040283529160200191610dd4565b820191906000526020600020905b815481529060010190602001808311610db757829003601f168201915b505050505090806002018054610de990613d67565b80601f0160208091040260200160405190810160405280929190818152602001828054610e1590613d67565b8015610e625780601f10610e3757610100808354040283529160200191610e62565b820191906000526020600020905b815481529060010190602001808311610e4557829003601f168201915b5050505050905083565b336000908152602081905260409020546001600160a01b031615610ea357604051630ea075bf60e21b815260040160405180910390fd5b6002816008811115610eb757610eb7613529565b1480610ed457506008816008811115610ed257610ed2613529565b145b15610ef257604051630bc9e58560e31b815260040160405180910390fd5b6040518060a00160405280336001600160a01b03168152602001838152602001826008811115610f2457610f24613529565b81526000602080830182905260408051808301825283815293810193909352338252818152919020825181546001600160a01b0319166001600160a01b03909116178155908201516001820190610f7b9082613de9565b50604082015160028201805460ff19166001836008811115610f9f57610f9f613529565b021790555060608201516002820180549115156101000261ff001990921691909117905560808201516003820190610fd79082613de9565b5050604080516060810182528481528151602081810184526000808352818401929092528351808201855282815283850152338252600190529190912081519192509081906110269082613de9565b506020820151600182019061103b9082613de9565b50604082015160028201906110509082613de9565b50506040513391507fc2e5d5da58bd71d1a2d14cdef02a4256d971b728088f8190d067ccfbae3bd73e906110879085908590613ea8565b60405180910390a25050565b600281815481106110a357600080fd5b600091825260209091206006909102018054600182018054919350906110c890613d67565b80601f01602080910402602001604051908101604052809291908181526020018280546110f490613d67565b80156111415780601f1061111657610100808354040283529160200191611141565b820191906000526020600020905b81548152906001019060200180831161112457829003601f168201915b50505050600283015460038401546004850154600586018054959693956001600160a01b03938416955092821693600160a01b90920460ff169261118490613d67565b80601f01602080910402602001604051908101604052809291908181526020018280546111b090613d67565b80156111fd5780601f106111d2576101008083540402835291602001916111fd565b820191906000526020600020905b8154815290600101906020018083116111e057829003601f168201915b5050505050905087565b3360009081526020819052604081206002015460ff16600881111561122e5761122e613529565b1461124c5760405163104a226f60e31b815260040160405180910390fd5b6112593383836000612cad565b5050565b611265612e69565b61126e82612f0e565b6112598282612f16565b6000611282612fd8565b506000805160206140a783398151915290565b80518451146112b7576040516343714afd60e01b815260040160405180910390fd5b6001600160a01b03831660009081526020819052604090206001600282015460ff1660088111156112ea576112ea613529565b1415801561131157506007600282015460ff16600881111561130e5761130e613529565b14155b801561133657506003600282015460ff16600881111561133357611333613529565b14155b801561135b57506004600282015460ff16600881111561135857611358613529565b14155b801561138057506005600282015460ff16600881111561137d5761137d613529565b14155b8061139557506002810154610100900460ff16155b156113b357604051635f10e00b60e01b815260040160405180910390fd5b60006113c28462015180613d24565b6113cc9042613d3b565b905060005b86518110156114fb5760008782815181106113ee576113ee613cf8565b60200260200101519050600280549050811080156114435750336001600160a01b03166002828154811061142457611424613cf8565b60009182526020909120600460069092020101546001600160a01b0316145b156114f25760008181526004602090815260408083206001600160a01b038b16845290915290205442106114f25760008181526004602090815260408083206001600160a01b038b1680855292529091208490558551339083907f1c795c24f232a1e8a341c63546a2631ab532f7bf10169ff1b3c74187ad48a0f19087908a90889081106114d3576114d3613cf8565b60200260200101516040516114e9929190613eca565b60405180910390a45b506001016113d1565b50505050505050565b6000336001600160a01b0383161461152f5760405163ea8e4eb560e01b815260040160405180910390fd5b506001600160a01b031660009081526005602052604090205490565b6003602052816000526040600020818154811061156757600080fd5b90600052602060002001600091509150505481565b6060336001600160a01b038316146115a75760405163ea8e4eb560e01b815260040160405180910390fd5b6001600160a01b0382166000908152600360209081526040918290208054835181840281018401909452808452909183018282801561160557602002820191906000526020600020905b8154815260200190600101908083116115f1575b50505050509050919050565b6009602052600090815260409020805460018201805491929161163390613d67565b80601f016020809104026020016040519081016040528092919081815260200182805461165f90613d67565b80156116ac5780601f10611681576101008083540402835291602001916116ac565b820191906000526020600020905b81548152906001019060200180831161168f57829003601f168201915b505050600290930154919250506001600160a01b0381169060ff600160a01b9091041684565b6116da613021565b6116e4600061307c565b565b6007602052600090815260409020805460018201805491929161163390613d67565b6001600160a01b0383811660009081526020819052604090205416611740576040516319c29a3360e21b815260040160405180910390fd5b6001600160a01b03831660009081526020819052604081206002015460ff16600881111561177057611770613529565b1461178e5760405163104a226f60e31b815260040160405180910390fd5b3360009081526020819052604090206001600282015460ff1660088111156117b8576117b8613529565b141580156117df57506007600282015460ff1660088111156117dc576117dc613529565b14155b806117f457506002810154610100900460ff16155b1561181257604051635f10e00b60e01b815260040160405180910390fd5b6109ff8484846001612cad565b61184d6040805160a08101825260008082526020820181905291810182905260608082015290608082015290565b336001600160a01b038416146118765760405163ea8e4eb560e01b815260040160405180910390fd5b6001600160a01b03831660009081526005602052604090208054839081106118a0576118a0613cf8565b60009182526020918290206040805160a08101825260059093029091018054835260018101546001600160a01b03908116948401949094526002810154909316908201526003820180549192916060840191906118fc90613d67565b80601f016020809104026020016040519081016040528092919081815260200182805461192890613d67565b80156119755780601f1061194a57610100808354040283529160200191611975565b820191906000526020600020905b81548152906001019060200180831161195857829003601f168201915b5050509183525050600482015460209091019060ff16600281111561199c5761199c613529565b60028111156119ad576119ad613529565b90525090505b92915050565b60088054600091826119ca83613d4e565b9190505590506040518060800160405280828152602001838152602001336001600160a01b0316815260200160006002811115611a0957611a09613529565b9052600082815260096020908152604090912082518155908201516001820190611a339082613de9565b506040820151600280830180546001600160a01b039093166001600160a01b031984168117825560608601519391926001600160a81b03199092161790600160a01b908490811115611a8757611a87613529565b0217905550905050336001600160a01b0316817fbf61b5cace25ee4d225724bee5d3875a59e7468e6524c619b1bcc3361ba9a8e684604051611ac99190613ad5565b60405180910390a35050565b600060208190529081526040902080546001820180546001600160a01b039092169291611b0190613d67565b80601f0160208091040260200160405190810160405280929190818152602001828054611b2d90613d67565b8015611b7a5780601f10611b4f57610100808354040283529160200191611b7a565b820191906000526020600020905b815481529060010190602001808311611b5d57829003601f168201915b505050506002830154600384018054939460ff8084169561010090940416935091611ba490613d67565b80601f0160208091040260200160405190810160405280929190818152602001828054611bd090613d67565b8015611c1d5780601f10611bf257610100808354040283529160200191611c1d565b820191906000526020600020905b815481529060010190602001808311611c0057829003601f168201915b5050505050905085565b60023360009081526020819052604090206002015460ff166008811115611c5057611c50613529565b141580611c75575033600090815260208190526040902060020154610100900460ff16155b15611c935760405163248b437160e21b815260040160405180910390fd5b336000908152600a60205260409020548114611cc25760405163ea8e4eb560e01b815260040160405180910390fd5b6001600160a01b0383811660009081526020819052604090205416611cfa576040516319c29a3360e21b815260040160405180910390fd5b6001600160a01b0383166000908152600a60205260409020548114611d3257604051637aa3308d60e11b815260040160405180910390fd5b6001600160a01b038316600081815260208181526040808320600201805461ffff19169055600a90915280822091909155518291907f656386f7fbf5fbd79ebb5d508870678c1d0ba774d3af78f5971f7d32d0da18bd90611d94908690613ee3565b60405180910390a3505050565b336000908152602081905260409020546001600160a01b0316611dd75760405163aba4733960e01b815260040160405180910390fd5b336000908152600160205260409020611df1868883613ef1565b5033600090815260016020819052604090912001611e10848683613ef1565b50336000908152600160205260409020600201611e2e828483613ef1565b50336000908152602081905260409020600101611e4c868883613ef1565b50336001600160a01b03167f6420daf1b58438e85465ef21dee378d307a509caab491149e3f066c5caf1266d878787878787604051611e9096959493929190613fda565b60405180910390a2505050505050565b611ea8613021565b600080838152600960205260409020600290810154600160a01b900460ff1690811115611ed757611ed7613529565b14611ef5576040516317f4986760e31b815260040160405180910390fd5b6001600160a01b038181166000908152602081905260409020541615611f2e57604051630ea075bf60e21b815260040160405180910390fd5b600082815260096020818152604080842060028101805460ff60a01b1916600160a01b17905581516080810190925286825293869052918152600190920180549192830191611f7c90613d67565b80601f0160208091040260200160405190810160405280929190818152602001828054611fa890613d67565b8015611ff55780601f10611fca57610100808354040283529160200191611ff5565b820191906000526020600020905b815481529060010190602001808311611fd857829003601f168201915b50505091835250506001600160a01b03831660208083019190915260016040928301819052600086815260078352929092208351815590830151909182019061203e9082613de9565b50604082810151600292830180546060909501511515600160a01b026001600160a81b03199095166001600160a01b039283161794909417909355805160a081018252928416835280518082018252600581526420b236b4b760d91b6020828101919091528401528201908152600160208083018290526040805180830182526000808252948201526001600160a01b0386811685528483529320845181546001600160a01b0319169416939093178355830151908201906121009082613de9565b50604082015160028201805460ff1916600183600881111561212457612124613529565b021790555060608201516002820180549115156101000261ff00199092169190911790556080820151600382019061215c9082613de9565b50506040805160a0810182526005606082019081526420b236b4b760d91b6080830152815281516020818101845260008083528184019290925283518082018552828152838501526001600160a01b0386168252600190529190912081519192509081906121ca9082613de9565b50602082015160018201906121df9082613de9565b50604082015160028201906121f49082613de9565b5050506001600160a01b0381166000818152600a60205260408082208590555184917f1421bdc12a61f8ad34351cd7dd151822ac06730e7b43ee4bdfd4aaeb1ff5311c91a3806001600160a01b03167fc2e5d5da58bd71d1a2d14cdef02a4256d971b728088f8190d067ccfbae3bd73e60026040516110879190614023565b600061227d6130ed565b805490915060ff600160401b82041615906001600160401b03166000811580156122a45750825b90506000826001600160401b031660011480156122c05750303b155b9050811580156122ce575080155b156122ec5760405163f92ee8a960e01b815260040160405180910390fd5b845467ffffffffffffffff19166001178555831561231657845460ff60401b1916600160401b1785555b61231f86613116565b612327613127565b831561236d57845460ff60401b19168555604051600181527fc7f505b2f371ae2175ee4913f4499e1f2633a7b5936321eed1cdaeb6115181d29060200160405180910390a15b505050505050565b600254841061239757604051633e07f1a160e01b815260040160405180910390fd5b6000600285815481106123ac576123ac613cf8565b600091825260209091206004600690920201908101549091506001600160a01b031633146123ed57604051635e27834560e01b815260040160405180910390fd5b6001600160a01b03841660009081526020819052604090206001600282015460ff16600881111561242057612420613529565b1415801561244757506007600282015460ff16600881111561244457612444613529565b14155b801561246c57506003600282015460ff16600881111561246957612469613529565b14155b801561249157506004600282015460ff16600881111561248e5761248e613529565b14155b80156124b657506005600282015460ff1660088111156124b3576124b3613529565b14155b806124cb57506002810154610100900460ff16155b156124e957604051635f10e00b60e01b815260040160405180910390fd5b60008681526004602090815260408083206001600160a01b038916845290915290205442101561252c576040516342beec5560e11b815260040160405180910390fd5b600061253b8562015180613d24565b6125459042613d3b565b60008881526004602090815260408083206001600160a01b038b16808552925291829020839055905191925090339089907f1c795c24f232a1e8a341c63546a2631ab532f7bf10169ff1b3c74187ad48a0f1906125a59086908a90613eca565b60405180910390a450505050505050565b336000908152602081905260409020546001600160a01b03166125ec5760405163aba4733960e01b815260040160405180910390fd5b336000908152602081905260408120600301805461260990613d67565b9050111561262a576040516303b3cf9760e41b815260040160405180910390fd5b3360009081526020819052604090206003016126468282613de9565b5060405133907f6cf02651ef9f7a72105bbc0f5800cb97cf05271672cc25280ab53491280c827e90600090a250565b60023360009081526020819052604090206002015460ff16600881111561269e5761269e613529565b1415806126c3575033600090815260208190526040902060020154610100900460ff16155b156126e15760405163248b437160e21b815260040160405180910390fd5b336000908152600a602052604090205481146127105760405163ea8e4eb560e01b815260040160405180910390fd5b600182600881111561272457612724613529565b141580156127445750600782600881111561274157612741613529565b14155b1561276257604051631b32d0dd60e11b815260040160405180910390fd5b6001600160a01b038381166000908152602081905260409020541661279a576040516319c29a3360e21b815260040160405180910390fd5b6001600160a01b0383166000908152600a6020526040902054156127d1576040516339e5825f60e11b815260040160405180910390fd5b6001600160a01b0383166000908152602081905260409020600201805483919060ff1916600183600881111561280957612809613529565b02179055506001600160a01b038316600081815260208181526040808320600201805461ff001916610100179055600a90915290819020839055518291907fb7f677009e40b63d956ecadcfcb1f65c754aa8f19532b58a315c47d23dfcbdcb90612874908690613ee3565b60405180910390a36040516001600160a01b0384169033907fbfb2fa25f828a712fda370028ecc8813c7082c69b239a579753b10e24dd472cc90600090a3505050565b6040805160e08101825260008082526060602083018190529282018190528282018190526080820181905260a082015260c08101919091526128f98233612c09565b6129165760405163ea8e4eb560e01b815260040160405180910390fd5b6002828154811061292957612929613cf8565b90600052602060002090600602016040518060e00160405290816000820154815260200160018201805461295c90613d67565b80601f016020809104026020016040519081016040528092919081815260200182805461298890613d67565b80156129d55780601f106129aa576101008083540402835291602001916129d5565b820191906000526020600020905b8154815290600101906020018083116129b857829003601f168201915b50505091835250506002820154602082015260038201546001600160a01b03908116604083015260048301549081166060830152600160a01b900460ff161515608082015260058201805460a090920191612a2f90613d67565b80601f0160208091040260200160405190810160405280929190818152602001828054612a5b90613d67565b8015612aa85780601f10612a7d57610100808354040283529160200191612aa8565b820191906000526020600020905b815481529060010190602001808311612a8b57829003601f168201915b5050505050815250509050919050565b6002548210612ada57604051633e07f1a160e01b815260040160405180910390fd5b600060028381548110612aef57612aef613cf8565b600091825260209091206004600690920201908101549091506001600160a01b03163314612b3057604051635e27834560e01b815260040160405180910390fd5b60008381526004602090815260408083206001600160a01b03861684529091528120549003612b7257604051639cf4448960e01b815260040160405180910390fd5b60008381526004602090815260408083206001600160a01b038616808552925280832083905551909185917f07aca9e88df76b26773787218a5664b178842e080be07be33d29f8a84853ecbc9190a3505050565b612bce613021565b6001600160a01b038116612bfd57604051631e4fbdf760e01b8152600060048201526024015b60405180910390fd5b612c068161307c565b50565b6002546000908310612c1d575060006119b3565b600060028481548110612c3257612c32613cf8565b6000918252602090912060069091020160048101549091506001600160a01b0384811691161480612c72575060038101546001600160a01b038481169116145b15612c815760019150506119b3565b505060009182526004602090815260408084206001600160a01b03939093168452919052902054421090565b600280546040805160e0810182528281526020810187815242928201929092523360608201526001600160a01b038816608082015284151560a082015260c081018690526001830184556000939093528251600683027f405787fa12a823e0f2b7631cc41b3ba8828b3321ca811111fa75cd3aa3bb5ace8101918255915192939290917f405787fa12a823e0f2b7631cc41b3ba8828b3321ca811111fa75cd3aa3bb5acf0190612d5d9082613de9565b506040820151600282015560608201516003820180546001600160a01b0319166001600160a01b03928316179055608083015160048301805460a0860151929093166001600160a81b031990931692909217600160a01b9115159190910217905560c08201516005820190612dd29082613de9565b5050506001600160a01b038516600081815260036020908152604080832080546001810182559084528284200185905584835260048252808320848452909152808220600019908190553380845292829020555190919083907f9301aab79e18963a94932baee4a5f8ce91c80e552e8c5b01935859c1697595f490612e5a908890889061404d565b60405180910390a45050505050565b306001600160a01b037f0000000000000000000000000000000000000000000000000000000000000000161480612ef057507f00000000000000000000000000000000000000000000000000000000000000006001600160a01b0316612ee46000805160206140a7833981519152546001600160a01b031690565b6001600160a01b031614155b156116e45760405163703e46dd60e11b815260040160405180910390fd5b612c06613021565b816001600160a01b03166352d1902d6040518163ffffffff1660e01b8152600401602060405180830381865afa925050508015612f70575060408051601f3d908101601f19168201909252612f6d91810190614071565b60015b612f9857604051634c9c8ce360e01b81526001600160a01b0383166004820152602401612bf4565b6000805160206140a78339815191528114612fc957604051632a87526960e21b815260048101829052602401612bf4565b612fd3838361312f565b505050565b306001600160a01b037f000000000000000000000000000000000000000000000000000000000000000016146116e45760405163703e46dd60e11b815260040160405180910390fd5b336130537f9016d09d72d40fdae2fd8ceac6b6234c7706214fd39c1cd1e609a0528c199300546001600160a01b031690565b6001600160a01b0316146116e45760405163118cdaa760e01b8152336004820152602401612bf4565b7f9016d09d72d40fdae2fd8ceac6b6234c7706214fd39c1cd1e609a0528c19930080546001600160a01b031981166001600160a01b03848116918217845560405192169182907f8be0079c531659141344cd1fd0a4f28419497f9722a3daafe3b4186f6b6457e090600090a3505050565b6000807ff0c57e16840df040f15088dc2f81fe391c3923bec73e23a9662efc9c229c6a006119b3565b61311e613185565b612c06816131aa565b6116e4613185565b613138826131bb565b6040516001600160a01b038316907fbc7cd75a20ee27fd9adebab32041f755214dbc6bffa90cc0225b39da2e5c2d3b90600090a280511561317d57612fd38282613220565b611259613296565b61318d6132b5565b6116e457604051631afcd79f60e31b815260040160405180910390fd5b6131b2613185565b612c06816132cf565b806001600160a01b03163b6000036131f157604051634c9c8ce360e01b81526001600160a01b0382166004820152602401612bf4565b6000805160206140a783398151915280546001600160a01b0319166001600160a01b0392909216919091179055565b6060600080846001600160a01b03168460405161323d919061408a565b600060405180830381855af49150503d8060008114613278576040519150601f19603f3d011682016040523d82523d6000602084013e61327d565b606091505b509150915061328d8583836132e0565b95945050505050565b34156116e45760405163b398979f60e01b815260040160405180910390fd5b60006132bf6130ed565b54600160401b900460ff16919050565b6132d7613185565b612c068161333f565b6060826132f5576132f082613347565b613338565b815115801561330c57506001600160a01b0384163b155b1561333557604051639996b31560e01b81526001600160a01b0385166004820152602401612bf4565b50805b9392505050565b612bce613185565b80511561335657805160208201fd5b60405163d6bda27560e01b815260040160405180910390fd5b6000806040838503121561338257600080fd5b50508035926020909101359150565b80356001600160a01b03811681146133a857600080fd5b919050565b634e487b7160e01b600052604160045260246000fd5b604051601f8201601f191681016001600160401b03811182821017156133eb576133eb6133ad565b604052919050565b600082601f83011261340457600080fd5b81356001600160401b0381111561341d5761341d6133ad565b613430601f8201601f19166020016133c3565b81815284602083860101111561344557600080fd5b816020850160208301376000918101602001919091529392505050565b6000806040838503121561347557600080fd5b61347e83613391565b915060208301356001600160401b0381111561349957600080fd5b6134a5858286016133f3565b9150509250929050565b600080604083850312156134c257600080fd5b6134cb83613391565b946020939093013593505050565b60005b838110156134f45781810151838201526020016134dc565b50506000910152565b600081518084526135158160208601602086016134d9565b601f01601f19169290920160200192915050565b634e487b7160e01b600052602160045260246000fd5b6003811061354f5761354f613529565b9052565b8581526001600160a01b0385811660208301528416604082015260a060608201819052600090613585908301856134fd565b9050613594608083018461353f565b9695505050505050565b6000602082840312156135b057600080fd5b61333882613391565b6060815260006135cc60608301866134fd565b82810360208401526135de81866134fd565b9050828103604084015261359481856134fd565b8035600981106133a857600080fd5b6000806040838503121561361457600080fd5b82356001600160401b0381111561362a57600080fd5b613636858286016133f3565b925050613645602084016135f2565b90509250929050565b60006020828403121561366057600080fd5b5035919050565b87815260e06020820152600061368060e08301896134fd565b604083018890526001600160a01b0387811660608501528616608084015284151560a084015282810360c08401526136b881856134fd565b9a9950505050505050505050565b600080604083850312156136d957600080fd5b82356001600160401b03808211156136f057600080fd5b6136fc868387016133f3565b9350602085013591508082111561371257600080fd5b506134a5858286016133f3565b60006001600160401b03821115613738576137386133ad565b5060051b60200190565b600082601f83011261375357600080fd5b813560206137686137638361371f565b6133c3565b82815260059290921b8401810191818101908684111561378757600080fd5b8286015b848110156137c65780356001600160401b038111156137aa5760008081fd5b6137b88986838b01016133f3565b84525091830191830161378b565b509695505050505050565b600080600080608085870312156137e757600080fd5b84356001600160401b03808211156137fe57600080fd5b818701915087601f83011261381257600080fd5b813560206138226137638361371f565b82815260059290921b8401810191818101908b84111561384157600080fd5b948201945b8386101561385f57853582529482019490820190613846565b985061386e9050898201613391565b9650505060408701359350606087013591508082111561388d57600080fd5b5061389a87828801613742565b91505092959194509250565b6020808252825182820181905260009190848201906040850190845b818110156138de578351835292840192918401916001016138c2565b50909695505050505050565b84815260806020820152600061390360808301866134fd565b6001600160a01b0385166040840152905061328d606083018461353f565b84815260806020820152600061393a60808301866134fd565b6001600160a01b039490941660408301525090151560609091015292915050565b60008060006060848603121561397057600080fd5b61397984613391565b925060208401356001600160401b038082111561399557600080fd5b6139a1878388016133f3565b935060408601359150808211156139b757600080fd5b506139c4868287016133f3565b9150509250925092565b60208152815160208201526000602083015160018060a01b0380821660408501528060408601511660608501525050606083015160a06080840152613a1660c08401826134fd565b90506080840151613a2a60a085018261353f565b509392505050565b600060208284031215613a4457600080fd5b81356001600160401b03811115613a5a57600080fd5b613a66848285016133f3565b949350505050565b6009811061354f5761354f613529565b6001600160a01b038616815260a060208201819052600090613aa2908301876134fd565b613aaf6040840187613a6e565b84151560608401528281036080840152613ac981856134fd565b98975050505050505050565b60208152600061333860208301846134fd565b600080600060608486031215613afd57600080fd5b613b0684613391565b9250613b14602085016135f2565b9150604084013590509250925092565b60008083601f840112613b3657600080fd5b5081356001600160401b03811115613b4d57600080fd5b602083019150836020828501011115613b6557600080fd5b9250929050565b60008060008060008060608789031215613b8557600080fd5b86356001600160401b0380821115613b9c57600080fd5b613ba88a838b01613b24565b90985096506020890135915080821115613bc157600080fd5b613bcd8a838b01613b24565b90965094506040890135915080821115613be657600080fd5b50613bf389828a01613b24565b979a9699509497509295939492505050565b60008060408385031215613c1857600080fd5b8235915061364560208401613391565b60008060008060808587031215613c3e57600080fd5b84359350613c4e60208601613391565b92506040850135915060608501356001600160401b03811115613c7057600080fd5b61389a878288016133f3565b60208152815160208201526000602083015160e06040840152613ca36101008401826134fd565b905060408401516060840152606084015160018060a01b0380821660808601528060808701511660a0860152505060a0840151151560c084015260c0840151601f198483030160e085015261328d82826134fd565b634e487b7160e01b600052603260045260246000fd5b634e487b7160e01b600052601160045260246000fd5b80820281158282048414176119b3576119b3613d0e565b808201808211156119b3576119b3613d0e565b600060018201613d6057613d60613d0e565b5060010190565b600181811c90821680613d7b57607f821691505b602082108103613d9b57634e487b7160e01b600052602260045260246000fd5b50919050565b601f821115612fd3576000816000526020600020601f850160051c81016020861015613dca5750805b601f850160051c820191505b8181101561236d57828155600101613dd6565b81516001600160401b03811115613e0257613e026133ad565b613e1681613e108454613d67565b84613da1565b602080601f831160018114613e4b5760008415613e335750858301515b600019600386901b1c1916600185901b17855561236d565b600085815260208120601f198616915b82811015613e7a57888601518255948401946001909101908401613e5b565b5085821015613e985787850151600019600388901b60f8161c191681555b5050505050600190811b01905550565b604081526000613ebb60408301856134fd565b90506133386020830184613a6e565b828152604060208201526000613a6660408301846134fd565b602081016119b38284613a6e565b6001600160401b03831115613f0857613f086133ad565b613f1c83613f168354613d67565b83613da1565b6000601f841160018114613f505760008515613f385750838201355b600019600387901b1c1916600186901b178355613faa565b600083815260209020601f19861690835b82811015613f815786850135825560209485019460019092019101613f61565b5086821015613f9e5760001960f88860031b161c19848701351681555b505060018560011b0183555b5050505050565b81835281816020850137506000828201602090810191909152601f909101601f19169091010190565b606081526000613fee60608301888a613fb1565b8281036020840152614001818789613fb1565b90508281036040840152614016818587613fb1565b9998505050505050505050565b60408082526005908201526420b236b4b760d91b6060820152608081016119b36020830184613a6e565b60408152600061406060408301856134fd565b905082151560208301529392505050565b60006020828403121561408357600080fd5b5051919050565b6000825161409c8184602087016134d9565b919091019291505056fe360894a13ba1a3210667c828492db98dca3e2076cc3735a920a3ca505d382bbca2646970667358221220153dbee8fd6ca74de6ff2cf3789dbb3f3d1235ab41ba2ac4202111aff899fc2364736f6c63430008180033",
  "linkReferences": {},
  "deployedLinkReferences": {}
}