{
  "_format": "hh-sol-artifact-1",
  "contractName": "MedicalRecords",
  "sourceName": "contracts/MedicalRecords.sol",
  "abi": [
    {
      "inputs": [],
      "stateMutability": "nonpayable",
      "type": "constructor"
    },
    {
      "inputs": [],
      "name": "AccessAlreadyGranted",
      "type": "error"
    },
    {
      "inputs": [
        {
          "internalType": "address",
          "name": "target",
          "type": "address"
        }
      ],
      "name": "AddressEmptyCode",
      "type": "error"
    },
    {
      "inputs": [],
      "name": "AlreadyRegistered",
      "type": "error"
    },
    {
      "inputs": [],
      "name": "CannotRegisterAsAdmin",
      "type": "error"
    },
    {
      "inputs": [
        {
          "internalType": "address",
          "name": "implementation",
          "type": "address"
        }
      ],
      "name": "ERC1967InvalidImplementation",
      "type": "error"
    },
    {
      "inputs": [],
      "name": "ERC1967NonPayable",
      "type": "error"
    },
    {
      "inputs": [],
      "name": "FailedCall",
      "type": "error"
    },
    {
      "inputs": [],
      "name": "HospitalNotVerified",
      "type": "error"
    },
    {
      "inputs": [],
      "name": "InputArrayLengthMismatch",
      "type": "error"
    },
    {
      "inputs": [],
      "name": "InvalidInitialization",
      "type": "error"
    },
    {
      "inputs": [],
      "name": "NoAccessToRevoke",
      "type": "error"
    },
    {
      "inputs": [],
      "name": "NotAPatient",
      "type": "error"
    },
    {
      "inputs": [],
      "name": "NotAVerifiedProfessional",
      "type": "error"
    },
    {
      "inputs": [],
      "name": "NotAnInsuranceProvider",
      "type": "error"
    },
    {
      "inputs": [],
      "name": "NotAuthorized",
      "type": "error"
    },
    {
      "inputs": [],
      "name": "NotHospitalAdmin",
      "type": "error"
    },
    {
      "inputs": [],
      "name": "NotInitializing",
      "type": "error"
    },
    {
      "inputs": [],
      "name": "NotRecordOwner",
      "type": "error"
    },
    {
      "inputs": [],
      "name": "NotRegistered",
      "type": "error"
    },
    {
      "inputs": [],
      "name": "NotSuperAdmin",
      "type": "error"
    },
    {
      "inputs": [
        {
          "internalType": "address",
          "name": "owner",
          "type": "address"
        }
      ],
      "name": "OwnableInvalidOwner",
      "type": "error"
    },
    {
      "inputs": [
        {
          "internalType": "address",
          "name": "account",
          "type": "address"
        }
      ],
      "name": "OwnableUnauthorizedAccount",
      "type": "error"
    },
    {
      "inputs": [],
      "name": "PublicKeyAlreadySet",
      "type": "error"
    },
    {
      "inputs": [],
      "name": "RecordNotFound",
      "type": "error"
    },
    {
      "inputs": [],
      "name": "RequestNotFound",
      "type": "error"
    },
    {
      "inputs": [],
      "name": "RequestNotFoundOrAlreadyHandled",
      "type": "error"
    },
    {
      "inputs": [],
      "name": "RoleNotAllowed",
      "type": "error"
    },
    {
      "inputs": [],
      "name": "UUPSUnauthorizedCallContext",
      "type": "error"
    },
    {
      "inputs": [
        {
          "internalType": "bytes32",
          "name": "slot",
          "type": "bytes32"
        }
      ],
      "name": "UUPSUnsupportedProxiableUUID",
      "type": "error"
    },
    {
      "inputs": [],
      "name": "UserAlreadyInHospital",
      "type": "error"
    },
    {
      "inputs": [],
      "name": "UserNotFound",
      "type": "error"
    },
    {
      "inputs": [],
      "name": "UserNotInHospital",
      "type": "error"
    },
    {
      "anonymous": false,
      "inputs": [
        {
          "indexed": true,
          "internalType": "uint256",
          "name": "recordId",
          "type": "uint256"
        },
        {
          "indexed": true,
          "internalType": "address",
          "name": "owner",
          "type": "address"
        },
        {
          "indexed": true,
          "internalType": "address",
          "name": "grantee",
          "type": "address"
        },
        {
          "indexed": false,
          "internalType": "uint256",
          "name": "expiration",
          "type": "uint256"
        },
        {
          "indexed": false,
          "internalType": "bytes",
          "name": "encryptedDek",
          "type": "bytes"
        }
      ],
      "name": "AccessGranted",
      "type": "event"
    },
    {
      "anonymous": false,
      "inputs": [
        {
          "indexed": true,
          "internalType": "uint256",
          "name": "requestId",
          "type": "uint256"
        },
        {
          "indexed": true,
          "internalType": "address",
          "name": "patient",
          "type": "address"
        },
        {
          "indexed": true,
          "internalType": "address",
          "name": "provider",
          "type": "address"
        },
        {
          "indexed": false,
          "internalType": "string",
          "name": "claimId",
          "type": "string"
        }
      ],
      "name": "AccessRequested",
      "type": "event"
    },
    {
      "anonymous": false,
      "inputs": [
        {
          "indexed": true,
          "internalType": "uint256",
          "name": "hospitalId",
          "type": "uint256"
        }
      ],
      "name": "HospitalRevoked",
      "type": "event"
    },
    {
      "anonymous": false,
      "inputs": [
        {
          "indexed": true,
          "internalType": "uint256",
          "name": "hospitalId",
          "type": "uint256"
        },
        {
          "indexed": true,
          "internalType": "address",
          "name": "adminAddress",
          "type": "address"
        }
      ],
      "name": "HospitalVerified",
      "type": "event"
    },
    {
      "anonymous": false,
      "inputs": [
        {
          "indexed": false,
          "internalType": "uint64",
          "name": "version",
          "type": "uint64"
        }
      ],
      "name": "Initialized",
      "type": "event"
    },
    {
      "anonymous": false,
      "inputs": [
        {
          "indexed": true,
          "internalType": "address",
          "name": "previousOwner",
          "type": "address"
        },
        {
          "indexed": true,
          "internalType": "address",
          "name": "newOwner",
          "type": "address"
        }
      ],
      "name": "OwnershipTransferred",
      "type": "event"
    },
    {
      "anonymous": false,
      "inputs": [
        {
          "indexed": true,
          "internalType": "address",
          "name": "user",
          "type": "address"
        },
        {
          "indexed": false,
          "internalType": "string",
          "name": "name",
          "type": "string"
        },
        {
          "indexed": false,
          "internalType": "string",
          "name": "contactInfo",
          "type": "string"
        },
        {
          "indexed": false,
          "internalType": "string",
          "name": "profileMetadataURI",
          "type": "string"
        }
      ],
      "name": "ProfileUpdated",
      "type": "event"
    },
    {
      "anonymous": false,
      "inputs": [
        {
          "indexed": true,
          "internalType": "address",
          "name": "user",
          "type": "address"
        }
      ],
      "name": "PublicKeySaved",
      "type": "event"
    },
    {
      "anonymous": false,
      "inputs": [
        {
          "indexed": true,
          "internalType": "uint256",
          "name": "recordId",
          "type": "uint256"
        },
        {
          "indexed": true,
          "internalType": "address",
          "name": "professionalAddress",
          "type": "address"
        }
      ],
      "name": "RecordAccessRevoked",
      "type": "event"
    },
    {
      "anonymous": false,
      "inputs": [
        {
          "indexed": true,
          "internalType": "uint256",
          "name": "recordId",
          "type": "uint256"
        },
        {
          "indexed": true,
          "internalType": "address",
          "name": "patient",
          "type": "address"
        },
        {
          "indexed": true,
          "internalType": "address",
          "name": "uploadedBy",
          "type": "address"
        },
        {
          "indexed": false,
          "internalType": "string",
          "name": "category",
          "type": "string"
        },
        {
          "indexed": false,
          "internalType": "bool",
          "name": "isVerified",
          "type": "bool"
        }
      ],
      "name": "RecordAdded",
      "type": "event"
    },
    {
      "anonymous": false,
      "inputs": [
        {
          "indexed": true,
          "internalType": "uint256",
          "name": "hospitalId",
          "type": "uint256"
        },
        {
          "indexed": false,
          "internalType": "string",
          "name": "name",
          "type": "string"
        },
        {
          "indexed": true,
          "internalType": "address",
          "name": "requester",
          "type": "address"
        }
      ],
      "name": "RegistrationRequested",
      "type": "event"
    },
    {
      "anonymous": false,
      "inputs": [
        {
          "indexed": true,
          "internalType": "uint256",
          "name": "requestId",
          "type": "uint256"
        },
        {
          "indexed": true,
          "internalType": "address",
          "name": "patient",
          "type": "address"
        },
        {
          "indexed": false,
          "internalType": "uint256",
          "name": "accessDuration",
          "type": "uint256"
        }
      ],
      "name": "RequestApproved",
      "type": "event"
    },
    {
      "anonymous": false,
      "inputs": [
        {
          "indexed": true,
          "internalType": "address",
          "name": "user",
          "type": "address"
        },
        {
          "indexed": false,
          "internalType": "enum Storage.Role",
          "name": "role",
          "type": "uint8"
        },
        {
          "indexed": true,
          "internalType": "uint256",
          "name": "hospitalId",
          "type": "uint256"
        }
      ],
      "name": "RoleAssigned",
      "type": "event"
    },
    {
      "anonymous": false,
      "inputs": [
        {
          "indexed": true,
          "internalType": "address",
          "name": "user",
          "type": "address"
        },
        {
          "indexed": false,
          "internalType": "enum Storage.Role",
          "name": "role",
          "type": "uint8"
        },
        {
          "indexed": true,
          "internalType": "uint256",
          "name": "hospitalId",
          "type": "uint256"
        }
      ],
      "name": "RoleRevoked",
      "type": "event"
    },
    {
      "anonymous": false,
      "inputs": [
        {
          "indexed": true,
          "internalType": "address",
          "name": "implementation",
          "type": "address"
        }
      ],
      "name": "Upgraded",
      "type": "event"
    },
    {
      "anonymous": false,
      "inputs": [
        {
          "indexed": true,
          "internalType": "address",
          "name": "userAddress",
          "type": "address"
        },
        {
          "indexed": false,
          "internalType": "string",
          "name": "name",
          "type": "string"
        },
        {
          "indexed": false,
          "internalType": "enum Storage.Role",
          "name": "role",
          "type": "uint8"
        }
      ],
      "name": "UserRegistered",
      "type": "event"
    },
    {
      "anonymous": false,
      "inputs": [
        {
          "indexed": true,
          "internalType": "address",
          "name": "admin",
          "type": "address"
        },
        {
          "indexed": true,
          "internalType": "address",
          "name": "userAddress",
          "type": "address"
        }
      ],
      "name": "UserVerified",
      "type": "event"
    },
    {
      "inputs": [],
      "name": "UPGRADE_INTERFACE_VERSION",
      "outputs": [
        {
          "internalType": "string",
          "name": "",
          "type": "string"
        }
      ],
      "stateMutability": "view",
      "type": "function"
    },
    {
      "inputs": [
        {
          "internalType": "string",
          "name": "_ipfsHash",
          "type": "string"
        },
        {
          "internalType": "string",
          "name": "_category",
          "type": "string"
        }
      ],
      "name": "addSelfUploadedRecord",
      "outputs": [],
      "stateMutability": "nonpayable",
      "type": "function"
    },
    {
      "inputs": [
        {
          "internalType": "address",
          "name": "_patient",
          "type": "address"
        },
        {
          "internalType": "string",
          "name": "_ipfsHash",
          "type": "string"
        },
        {
          "internalType": "string",
          "name": "_category",
          "type": "string"
        }
      ],
      "name": "addVerifiedRecord",
      "outputs": [],
      "stateMutability": "nonpayable",
      "type": "function"
    },
    {
      "inputs": [
        {
          "internalType": "uint256",
          "name": "_requestId",
          "type": "uint256"
        },
        {
          "internalType": "uint256",
          "name": "_durationInDays",
          "type": "uint256"
        }
      ],
      "name": "approveRequest",
      "outputs": [],
      "stateMutability": "nonpayable",
      "type": "function"
    },
    {
      "inputs": [
        {
          "internalType": "address",
          "name": "user",
          "type": "address"
        },
        {
          "internalType": "enum Storage.Role",
          "name": "role",
          "type": "uint8"
        },
        {
          "internalType": "uint256",
          "name": "hospitalId",
          "type": "uint256"
        }
      ],
      "name": "assignRole",
      "outputs": [],
      "stateMutability": "nonpayable",
      "type": "function"
    },
    {
      "inputs": [
        {
          "internalType": "uint256",
          "name": "_recordId",
          "type": "uint256"
        },
        {
          "internalType": "address",
          "name": "_viewer",
          "type": "address"
        }
      ],
      "name": "checkRecordAccess",
      "outputs": [
        {
          "internalType": "bool",
          "name": "",
          "type": "bool"
        }
      ],
      "stateMutability": "view",
      "type": "function"
    },
    {
      "inputs": [
        {
          "internalType": "address",
          "name": "_patientAddress",
          "type": "address"
        }
      ],
      "name": "getPatientRecordIds",
      "outputs": [
        {
          "internalType": "uint256[]",
          "name": "",
          "type": "uint256[]"
        }
      ],
      "stateMutability": "view",
      "type": "function"
    },
    {
      "inputs": [
        {
          "internalType": "address",
          "name": "_patientAddress",
          "type": "address"
        },
        {
          "internalType": "uint256",
          "name": "_index",
          "type": "uint256"
        }
      ],
      "name": "getPatientRequestAtIndex",
      "outputs": [
        {
          "components": [
            {
              "internalType": "uint256",
              "name": "id",
              "type": "uint256"
            },
            {
              "internalType": "address",
              "name": "patient",
              "type": "address"
            },
            {
              "internalType": "address",
              "name": "provider",
              "type": "address"
            },
            {
              "internalType": "string",
              "name": "claimId",
              "type": "string"
            },
            {
              "internalType": "enum Storage.RequestStatus",
              "name": "status",
              "type": "uint8"
            }
          ],
          "internalType": "struct Storage.AccessRequest",
          "name": "",
          "type": "tuple"
        }
      ],
      "stateMutability": "view",
      "type": "function"
    },
    {
      "inputs": [
        {
          "internalType": "address",
          "name": "_patientAddress",
          "type": "address"
        }
      ],
      "name": "getPatientRequestsCount",
      "outputs": [
        {
          "internalType": "uint256",
          "name": "",
          "type": "uint256"
        }
      ],
      "stateMutability": "view",
      "type": "function"
    },
    {
      "inputs": [
        {
          "internalType": "uint256",
          "name": "_recordId",
          "type": "uint256"
        }
      ],
      "name": "getRecordById",
      "outputs": [
        {
          "components": [
            {
              "internalType": "uint256",
              "name": "id",
              "type": "uint256"
            },
            {
              "internalType": "string",
              "name": "ipfsHash",
              "type": "string"
            },
            {
              "internalType": "uint256",
              "name": "timestamp",
              "type": "uint256"
            },
            {
              "internalType": "address",
              "name": "uploadedBy",
              "type": "address"
            },
            {
              "internalType": "address",
              "name": "owner",
              "type": "address"
            },
            {
              "internalType": "bool",
              "name": "isVerified",
              "type": "bool"
            },
            {
              "internalType": "string",
              "name": "category",
              "type": "string"
            }
          ],
          "internalType": "struct Storage.Record",
          "name": "",
          "type": "tuple"
        }
      ],
      "stateMutability": "view",
      "type": "function"
    },
    {
      "inputs": [
        {
          "internalType": "uint256[]",
          "name": "_recordIds",
          "type": "uint256[]"
        },
        {
          "internalType": "address",
          "name": "_grantee",
          "type": "address"
        },
        {
          "internalType": "uint256",
          "name": "_durationInDays",
          "type": "uint256"
        },
        {
          "internalType": "bytes[]",
          "name": "_encryptedDeks",
          "type": "bytes[]"
        }
      ],
      "name": "grantMultipleRecordAccess",
      "outputs": [],
      "stateMutability": "nonpayable",
      "type": "function"
    },
    {
      "inputs": [
        {
          "internalType": "uint256",
          "name": "_recordId",
          "type": "uint256"
        },
        {
          "internalType": "address",
          "name": "_grantee",
          "type": "address"
        },
        {
          "internalType": "uint256",
          "name": "_durationInDays",
          "type": "uint256"
        },
        {
          "internalType": "bytes",
          "name": "_encryptedDek",
          "type": "bytes"
        }
      ],
      "name": "grantRecordAccess",
      "outputs": [],
      "stateMutability": "nonpayable",
      "type": "function"
    },
    {
      "inputs": [],
      "name": "hospitalIdCounter",
      "outputs": [
        {
          "internalType": "uint256",
          "name": "",
          "type": "uint256"
        }
      ],
      "stateMutability": "view",
      "type": "function"
    },
    {
      "inputs": [
        {
          "internalType": "uint256",
          "name": "",
          "type": "uint256"
        }
      ],
      "name": "hospitals",
      "outputs": [
        {
          "internalType": "uint256",
          "name": "hospitalId",
          "type": "uint256"
        },
        {
          "internalType": "string",
          "name": "name",
          "type": "string"
        },
        {
          "internalType": "address",
          "name": "adminAddress",
          "type": "address"
        },
        {
          "internalType": "bool",
          "name": "isVerified",
          "type": "bool"
        }
      ],
      "stateMutability": "view",
      "type": "function"
    },
    {
      "inputs": [
        {
          "internalType": "address",
          "name": "initialOwner",
          "type": "address"
        }
      ],
      "name": "initialize",
      "outputs": [],
      "stateMutability": "nonpayable",
      "type": "function"
    },
    {
      "inputs": [],
      "name": "owner",
      "outputs": [
        {
          "internalType": "address",
          "name": "",
          "type": "address"
        }
      ],
      "stateMutability": "view",
      "type": "function"
    },
    {
      "inputs": [
        {
          "internalType": "address",
          "name": "",
          "type": "address"
        },
        {
          "internalType": "uint256",
          "name": "",
          "type": "uint256"
        }
      ],
      "name": "patientRecordIds",
      "outputs": [
        {
          "internalType": "uint256",
          "name": "",
          "type": "uint256"
        }
      ],
      "stateMutability": "view",
      "type": "function"
    },
    {
      "inputs": [
        {
          "internalType": "address",
          "name": "",
          "type": "address"
        },
        {
          "internalType": "uint256",
          "name": "",
          "type": "uint256"
        }
      ],
      "name": "patientRequests",
      "outputs": [
        {
          "internalType": "uint256",
          "name": "id",
          "type": "uint256"
        },
        {
          "internalType": "address",
          "name": "patient",
          "type": "address"
        },
        {
          "internalType": "address",
          "name": "provider",
          "type": "address"
        },
        {
          "internalType": "string",
          "name": "claimId",
          "type": "string"
        },
        {
          "internalType": "enum Storage.RequestStatus",
          "name": "status",
          "type": "uint8"
        }
      ],
      "stateMutability": "view",
      "type": "function"
    },
    {
      "inputs": [],
      "name": "proxiableUUID",
      "outputs": [
        {
          "internalType": "bytes32",
          "name": "",
          "type": "bytes32"
        }
      ],
      "stateMutability": "view",
      "type": "function"
    },
    {
      "inputs": [
        {
          "internalType": "uint256",
          "name": "",
          "type": "uint256"
        },
        {
          "internalType": "address",
          "name": "",
          "type": "address"
        }
      ],
      "name": "recordAccess",
      "outputs": [
        {
          "internalType": "uint256",
          "name": "",
          "type": "uint256"
        }
      ],
      "stateMutability": "view",
      "type": "function"
    },
    {
      "inputs": [
        {
          "internalType": "uint256",
          "name": "",
          "type": "uint256"
        }
      ],
      "name": "records",
      "outputs": [
        {
          "internalType": "uint256",
          "name": "id",
          "type": "uint256"
        },
        {
          "internalType": "string",
          "name": "ipfsHash",
          "type": "string"
        },
        {
          "internalType": "uint256",
          "name": "timestamp",
          "type": "uint256"
        },
        {
          "internalType": "address",
          "name": "uploadedBy",
          "type": "address"
        },
        {
          "internalType": "address",
          "name": "owner",
          "type": "address"
        },
        {
          "internalType": "bool",
          "name": "isVerified",
          "type": "bool"
        },
        {
          "internalType": "string",
          "name": "category",
          "type": "string"
        }
      ],
      "stateMutability": "view",
      "type": "function"
    },
    {
      "inputs": [
        {
          "internalType": "string",
          "name": "_name",
          "type": "string"
        },
        {
          "internalType": "enum Storage.Role",
          "name": "_role",
          "type": "uint8"
        }
      ],
      "name": "registerUser",
      "outputs": [],
      "stateMutability": "nonpayable",
      "type": "function"
    },
    {
      "inputs": [
        {
          "internalType": "uint256",
          "name": "",
          "type": "uint256"
        }
      ],
      "name": "registrationRequests",
      "outputs": [
        {
          "internalType": "uint256",
          "name": "hospitalId",
          "type": "uint256"
        },
        {
          "internalType": "string",
          "name": "name",
          "type": "string"
        },
        {
          "internalType": "address",
          "name": "requesterAddress",
          "type": "address"
        },
        {
          "internalType": "enum Storage.RequestStatus",
          "name": "status",
          "type": "uint8"
        }
      ],
      "stateMutability": "view",
      "type": "function"
    },
    {
      "inputs": [],
      "name": "renounceOwnership",
      "outputs": [],
      "stateMutability": "nonpayable",
      "type": "function"
    },
    {
      "inputs": [
        {
          "internalType": "address",
          "name": "_patientAddress",
          "type": "address"
        },
        {
          "internalType": "string",
          "name": "_claimId",
          "type": "string"
        }
      ],
      "name": "requestAccess",
      "outputs": [],
      "stateMutability": "nonpayable",
      "type": "function"
    },
    {
      "inputs": [
        {
          "internalType": "string",
          "name": "hospitalName",
          "type": "string"
        }
      ],
      "name": "requestRegistration",
      "outputs": [],
      "stateMutability": "nonpayable",
      "type": "function"
    },
    {
      "inputs": [
        {
          "internalType": "uint256",
          "name": "hospitalId",
          "type": "uint256"
        }
      ],
      "name": "revokeHospital",
      "outputs": [],
      "stateMutability": "nonpayable",
      "type": "function"
    },
    {
      "inputs": [
        {
          "internalType": "uint256",
          "name": "recordId",
          "type": "uint256"
        },
        {
          "internalType": "address",
          "name": "professionalAddress",
          "type": "address"
        }
      ],
      "name": "revokeRecordAccess",
      "outputs": [],
      "stateMutability": "nonpayable",
      "type": "function"
    },
    {
      "inputs": [
        {
          "internalType": "address",
          "name": "user",
          "type": "address"
        },
        {
          "internalType": "enum Storage.Role",
          "name": "role",
          "type": "uint8"
        },
        {
          "internalType": "uint256",
          "name": "hospitalId",
          "type": "uint256"
        }
      ],
      "name": "revokeRole",
      "outputs": [],
      "stateMutability": "nonpayable",
      "type": "function"
    },
    {
      "inputs": [
        {
          "internalType": "string",
          "name": "_publicKey",
          "type": "string"
        }
      ],
      "name": "savePublicKey",
      "outputs": [],
      "stateMutability": "nonpayable",
      "type": "function"
    },
    {
      "inputs": [
        {
          "internalType": "address",
          "name": "newOwner",
          "type": "address"
        }
      ],
      "name": "transferOwnership",
      "outputs": [],
      "stateMutability": "nonpayable",
      "type": "function"
    },
    {
      "inputs": [
        {
          "internalType": "string",
          "name": "_name",
          "type": "string"
        },
        {
          "internalType": "string",
          "name": "_contactInfo",
          "type": "string"
        },
        {
          "internalType": "string",
          "name": "_profileMetadataURI",
          "type": "string"
        }
      ],
      "name": "updateUserProfile",
      "outputs": [],
      "stateMutability": "nonpayable",
      "type": "function"
    },
    {
      "inputs": [
        {
          "internalType": "address",
          "name": "newImplementation",
          "type": "address"
        },
        {
          "internalType": "bytes",
          "name": "data",
          "type": "bytes"
        }
      ],
      "name": "upgradeToAndCall",
      "outputs": [],
      "stateMutability": "payable",
      "type": "function"
    },
    {
      "inputs": [
        {
          "internalType": "address",
          "name": "",
          "type": "address"
        }
      ],
      "name": "userProfiles",
      "outputs": [
        {
          "internalType": "string",
          "name": "name",
          "type": "string"
        },
        {
          "internalType": "string",
          "name": "contactInfo",
          "type": "string"
        },
        {
          "internalType": "string",
          "name": "profileMetadataURI",
          "type": "string"
        }
      ],
      "stateMutability": "view",
      "type": "function"
    },
    {
      "inputs": [
        {
          "internalType": "address",
          "name": "",
          "type": "address"
        }
      ],
      "name": "userToHospital",
      "outputs": [
        {
          "internalType": "uint256",
          "name": "",
          "type": "uint256"
        }
      ],
      "stateMutability": "view",
      "type": "function"
    },
    {
      "inputs": [
        {
          "internalType": "address",
          "name": "",
          "type": "address"
        }
      ],
      "name": "users",
      "outputs": [
        {
          "internalType": "address",
          "name": "walletAddress",
          "type": "address"
        },
        {
          "internalType": "string",
          "name": "name",
          "type": "string"
        },
        {
          "internalType": "enum Storage.Role",
          "name": "role",
          "type": "uint8"
        },
        {
          "internalType": "bool",
          "name": "isVerified",
          "type": "bool"
        },
        {
          "internalType": "string",
          "name": "publicKey",
          "type": "string"
        }
      ],
      "stateMutability": "view",
      "type": "function"
    },
    {
      "inputs": [
        {
          "internalType": "uint256",
          "name": "hospitalId",
          "type": "uint256"
        },
        {
          "internalType": "address",
          "name": "adminAddress",
          "type": "address"
        }
      ],
      "name": "verifyHospital",
      "outputs": [],
      "stateMutability": "nonpayable",
      "type": "function"
    }
  ],
  "bytecode": "0x60a0604052306080523480156200001557600080fd5b506200002062000026565b620000da565b7ff0c57e16840df040f15088dc2f81fe391c3923bec73e23a9662efc9c229c6a00805468010000000000000000900460ff1615620000775760405163f92ee8a960e01b815260040160405180910390fd5b80546001600160401b0390811614620000d75780546001600160401b0319166001600160401b0390811782556040519081527fc7f505b2f371ae2175ee4913f4499e1f2633a7b5936321eed1cdaeb6115181d29060200160405180910390a15b50565b6080516141ae6200010460003960008181612f2601528181612f4f015261309501526141ae6000f3fe60806040526004361061021a5760003560e01c80638da5cb5b11610123578063c459a8ce116100ab578063e6e8c76b1161006f578063e6e8c76b146106e2578063e75b8b231461070f578063ea4d598e1461073c578063f2fde38b1461075c578063f79051381461077c57600080fd5b8063c459a8ce1461062a578063c4d66de814610662578063cbf47a7e14610682578063d8eb8e90146106a2578063e699ffcd146106c257600080fd5b8063ad3cb1cc116100f2578063ad3cb1cc1461056c578063b8604fba146105aa578063bace0290146105ca578063beccc1c8146105ea578063c3f1a9491461060a57600080fd5b80638da5cb5b146104a75780639afd8efe146104ee578063a00977bf1461051b578063a87430ba1461053b57600080fd5b806352d1902d116101a65780636248204e116101755780636248204e146103e55780636b3c6fd614610412578063715018a61461044257806381dc6fd2146104575780638c544c291461048757600080fd5b806352d1902d146103705780635a82375b146103855780635af28ce3146103a55780635e2547f2146103c557600080fd5b8063332d56d7116101ed578063332d56d7146102bb578063338e12eb146102ea578063344610671461030a578063436243761461033d5780634f1ef2861461035d57600080fd5b806328f183a11461021f5780632c0a90a9146102485780632f6d4a591461026a5780633217bc721461028a575b600080fd5b34801561022b57600080fd5b5061023560085481565b6040519081526020015b60405180910390f35b34801561025457600080fd5b50610268610263366004613421565b6107ac565b005b34801561027657600080fd5b50610268610285366004613514565b610a30565b34801561029657600080fd5b506102aa6102a5366004613561565b610bf6565b60405161023f959493929190613605565b3480156102c757600080fd5b506102db6102d6366004613650565b610cdd565b60405161023f9392919061366b565b3480156102f657600080fd5b506102686103053660046136b3565b610e97565b34801561031657600080fd5b5061032a610325366004613700565b6110be565b60405161023f9796959493929190613719565b34801561034957600080fd5b50610268610358366004613778565b611232565b61026861036b366004613514565b611288565b34801561037c57600080fd5b506102356112a3565b34801561039157600080fd5b506102686103a0366004613883565b6112c0565b3480156103b157600080fd5b506102356103c0366004613650565b61152f565b3480156103d157600080fd5b506102356103e0366004613561565b611576565b3480156103f157600080fd5b50610405610400366004613650565b6115a7565b60405161023f9190613958565b34801561041e57600080fd5b5061043261042d366004613700565b61163c565b60405161023f949392919061399c565b34801561044e57600080fd5b506102686116fd565b34801561046357600080fd5b50610477610472366004613700565b611711565b60405161023f94939291906139d3565b34801561049357600080fd5b506102686104a2366004613a0d565b611733565b3480156104b357600080fd5b507f9016d09d72d40fdae2fd8ceac6b6234c7706214fd39c1cd1e609a0528c199300546040516001600160a01b03909116815260200161023f565b3480156104fa57600080fd5b5061050e610509366004613561565b61184a565b60405161023f9190613a80565b34801561052757600080fd5b50610268610536366004613ae4565b6119e4565b34801561054757600080fd5b5061055b610556366004613650565b611b00565b60405161023f959493929190613b30565b34801561057857600080fd5b5061059d604051806040016040528060058152602001640352e302e360dc1b81525081565b60405161023f9190613b87565b3480156105b657600080fd5b506102686105c5366004613b9a565b611c52565b3480156105d657600080fd5b506102686105e5366004613c1e565b611dcc565b3480156105f657600080fd5b50610268610605366004613700565b611ecb565b34801561061657600080fd5b50610268610625366004613cb7565b611f52565b34801561063657600080fd5b50610235610645366004613cb7565b600460209081526000928352604080842090915290825290205481565b34801561066e57600080fd5b5061026861067d366004613650565b612325565b34801561068e57600080fd5b5061026861069d366004613cda565b612427565b3480156106ae57600080fd5b506102686106bd366004613ae4565b612668565b3480156106ce57600080fd5b506102686106dd366004613b9a565b612727565b3480156106ee57600080fd5b506102356106fd366004613650565b600a6020526000908152604090205481565b34801561071b57600080fd5b5061072f61072a366004613700565b612969565b60405161023f9190613d2e565b34801561074857600080fd5b50610268610757366004613cb7565b612b6a565b34801561076857600080fd5b50610268610777366004613650565b612c78565b34801561078857600080fd5b5061079c610797366004613cb7565b612cbb565b604051901515815260200161023f565b3360009081526020819052604081206002015460ff1660088111156107d3576107d36135db565b146107f15760405163104a226f60e31b815260040160405180910390fd5b33600090815260056020526040812090805b8254811015610a0b578483828154811061081f5761081f613daa565b9060005260206000209060050201600001541480156108775750600083828154811061084d5761084d613daa565b600091825260209091206004600590920201015460ff166002811115610875576108756135db565b145b15610a0357600183828154811061089057610890613daa565b60009182526020909120600460059092020101805460ff191660018360028111156108bd576108bd6135db565b021790555060006108d18562015180613dd6565b6108db9042613ded565b905060008483815481106108f1576108f1613daa565b60009182526020808320600260059093020191909101543383526003909152604082206001600160a01b039091169250905b81548110156109bf57600082828154811061094057610940613daa565b6000918252602080832091909101548083526004825260408084206001600160a01b0389168086529084528185208a905581518a8152938401829052908301939093529250339083907f1c795c24f232a1e8a341c63546a2631ab532f7bf10169ff1b3c74187ad48a0f19060600160405180910390a450600101610923565b5060405187815260019550339089907f4def62da440b39db2661de60aa3dad0479ac27d4c22597d6e14c7441774f8a319060200160405180910390a3505050610a0b565b600101610803565b5080610a2a57604051632589d98f60e11b815260040160405180910390fd5b50505050565b60033360009081526020819052604090206002015460ff166008811115610a5957610a596135db565b14610a7757604051630d52912160e21b815260040160405180910390fd5b6001600160a01b03821660009081526020819052604081206002015460ff166008811115610aa757610aa76135db565b14610ac55760405163104a226f60e31b815260040160405180910390fd5b6006805460009182610ad683613e00565b909155506001600160a01b038481166000818152600560208181526040808420815160a08101835288815280840196875233928101928352606081018b81526080820187905282546001808201855593885294909620815194909502909401928355945194820180549587166001600160a01b031996871617905551600282018054919096169416939093179093555192935090916003820190610b7a9082613e9b565b50608082015160048201805460ff19166001836002811115610b9e57610b9e6135db565b02179055505050336001600160a01b0316836001600160a01b0316827f21eb886073c5fec0f227f76ef8335d82939c7aa4b537be2e0943f4c1dc74553e85604051610be99190613b87565b60405180910390a4505050565b60056020528160005260406000208181548110610c1257600080fd5b600091825260209091206005909102018054600182015460028301546003840180549396506001600160a01b03928316955091169291610c5190613e19565b80601f0160208091040260200160405190810160405280929190818152602001828054610c7d90613e19565b8015610cca5780601f10610c9f57610100808354040283529160200191610cca565b820191906000526020600020905b815481529060010190602001808311610cad57829003601f168201915b5050506004909301549192505060ff1685565b600160205260009081526040902080548190610cf890613e19565b80601f0160208091040260200160405190810160405280929190818152602001828054610d2490613e19565b8015610d715780601f10610d4657610100808354040283529160200191610d71565b820191906000526020600020905b815481529060010190602001808311610d5457829003601f168201915b505050505090806001018054610d8690613e19565b80601f0160208091040260200160405190810160405280929190818152602001828054610db290613e19565b8015610dff5780601f10610dd457610100808354040283529160200191610dff565b820191906000526020600020905b815481529060010190602001808311610de257829003601f168201915b505050505090806002018054610e1490613e19565b80601f0160208091040260200160405190810160405280929190818152602001828054610e4090613e19565b8015610e8d5780601f10610e6257610100808354040283529160200191610e8d565b820191906000526020600020905b815481529060010190602001808311610e7057829003601f168201915b5050505050905083565b336000908152602081905260409020546001600160a01b031615610ece57604051630ea075bf60e21b815260040160405180910390fd5b6002816008811115610ee257610ee26135db565b1480610eff57506008816008811115610efd57610efd6135db565b145b15610f1d57604051630bc9e58560e31b815260040160405180910390fd5b6040518060a00160405280336001600160a01b03168152602001838152602001826008811115610f4f57610f4f6135db565b81526000602080830182905260408051808301825283815293810193909352338252818152919020825181546001600160a01b0319166001600160a01b03909116178155908201516001820190610fa69082613e9b565b50604082015160028201805460ff19166001836008811115610fca57610fca6135db565b021790555060608201516002820180549115156101000261ff0019909216919091179055608082015160038201906110029082613e9b565b5050604080516060810182528481528151602081810184526000808352818401929092528351808201855282815283850152338252600190529190912081519192509081906110519082613e9b565b50602082015160018201906110669082613e9b565b506040820151600282019061107b9082613e9b565b50506040513391507fc2e5d5da58bd71d1a2d14cdef02a4256d971b728088f8190d067ccfbae3bd73e906110b29085908590613f5a565b60405180910390a25050565b600281815481106110ce57600080fd5b600091825260209091206006909102018054600182018054919350906110f390613e19565b80601f016020809104026020016040519081016040528092919081815260200182805461111f90613e19565b801561116c5780601f106111415761010080835404028352916020019161116c565b820191906000526020600020905b81548152906001019060200180831161114f57829003601f168201915b50505050600283015460038401546004850154600586018054959693956001600160a01b03938416955092821693600160a01b90920460ff16926111af90613e19565b80601f01602080910402602001604051908101604052809291908181526020018280546111db90613e19565b80156112285780601f106111fd57610100808354040283529160200191611228565b820191906000526020600020905b81548152906001019060200180831161120b57829003601f168201915b5050505050905087565b3360009081526020819052604081206002015460ff166008811115611259576112596135db565b146112775760405163104a226f60e31b815260040160405180910390fd5b6112843383836000612d5f565b5050565b611290612f1b565b61129982612fc0565b6112848282612fc8565b60006112ad61308a565b5060008051602061415983398151915290565b80518451146112e2576040516343714afd60e01b815260040160405180910390fd5b6001600160a01b03831660009081526020819052604090206001600282015460ff166008811115611315576113156135db565b1415801561133c57506007600282015460ff166008811115611339576113396135db565b14155b801561136157506003600282015460ff16600881111561135e5761135e6135db565b14155b801561138657506004600282015460ff166008811115611383576113836135db565b14155b80156113ab57506005600282015460ff1660088111156113a8576113a86135db565b14155b806113c057506002810154610100900460ff16155b156113de57604051635f10e00b60e01b815260040160405180910390fd5b60006113ed8462015180613dd6565b6113f79042613ded565b905060005b865181101561152657600087828151811061141957611419613daa565b602002602001015190506002805490508110801561146e5750336001600160a01b03166002828154811061144f5761144f613daa565b60009182526020909120600460069092020101546001600160a01b0316145b1561151d5760008181526004602090815260408083206001600160a01b038b168452909152902054421061151d5760008181526004602090815260408083206001600160a01b038b1680855292529091208490558551339083907f1c795c24f232a1e8a341c63546a2631ab532f7bf10169ff1b3c74187ad48a0f19087908a90889081106114fe576114fe613daa565b6020026020010151604051611514929190613f7c565b60405180910390a45b506001016113fc565b50505050505050565b6000336001600160a01b0383161461155a5760405163ea8e4eb560e01b815260040160405180910390fd5b506001600160a01b031660009081526005602052604090205490565b6003602052816000526040600020818154811061159257600080fd5b90600052602060002001600091509150505481565b6060336001600160a01b038316146115d25760405163ea8e4eb560e01b815260040160405180910390fd5b6001600160a01b0382166000908152600360209081526040918290208054835181840281018401909452808452909183018282801561163057602002820191906000526020600020905b81548152602001906001019080831161161c575b50505050509050919050565b6009602052600090815260409020805460018201805491929161165e90613e19565b80601f016020809104026020016040519081016040528092919081815260200182805461168a90613e19565b80156116d75780601f106116ac576101008083540402835291602001916116d7565b820191906000526020600020905b8154815290600101906020018083116116ba57829003601f168201915b505050600290930154919250506001600160a01b0381169060ff600160a01b9091041684565b6117056130d3565b61170f600061312e565b565b6007602052600090815260409020805460018201805491929161165e90613e19565b6001600160a01b038381166000908152602081905260409020541661176b576040516319c29a3360e21b815260040160405180910390fd5b6001600160a01b03831660009081526020819052604081206002015460ff16600881111561179b5761179b6135db565b146117b95760405163104a226f60e31b815260040160405180910390fd5b3360009081526020819052604090206001600282015460ff1660088111156117e3576117e36135db565b1415801561180a57506007600282015460ff166008811115611807576118076135db565b14155b8061181f57506002810154610100900460ff16155b1561183d57604051635f10e00b60e01b815260040160405180910390fd5b610a2a8484846001612d5f565b6118786040805160a08101825260008082526020820181905291810182905260608082015290608082015290565b336001600160a01b038416146118a15760405163ea8e4eb560e01b815260040160405180910390fd5b6001600160a01b03831660009081526005602052604090208054839081106118cb576118cb613daa565b60009182526020918290206040805160a08101825260059093029091018054835260018101546001600160a01b039081169484019490945260028101549093169082015260038201805491929160608401919061192790613e19565b80601f016020809104026020016040519081016040528092919081815260200182805461195390613e19565b80156119a05780601f10611975576101008083540402835291602001916119a0565b820191906000526020600020905b81548152906001019060200180831161198357829003601f168201915b5050509183525050600482015460209091019060ff1660028111156119c7576119c76135db565b60028111156119d8576119d86135db565b90525090505b92915050565b60088054600091826119f583613e00565b9190505590506040518060800160405280828152602001838152602001336001600160a01b0316815260200160006002811115611a3457611a346135db565b9052600082815260096020908152604090912082518155908201516001820190611a5e9082613e9b565b506040820151600280830180546001600160a01b039093166001600160a01b031984168117825560608601519391926001600160a81b03199092161790600160a01b908490811115611ab257611ab26135db565b0217905550905050336001600160a01b0316817fbf61b5cace25ee4d225724bee5d3875a59e7468e6524c619b1bcc3361ba9a8e684604051611af49190613b87565b60405180910390a35050565b600060208190529081526040902080546001820180546001600160a01b039092169291611b2c90613e19565b80601f0160208091040260200160405190810160405280929190818152602001828054611b5890613e19565b8015611ba55780601f10611b7a57610100808354040283529160200191611ba5565b820191906000526020600020905b815481529060010190602001808311611b8857829003601f168201915b505050506002830154600384018054939460ff8084169561010090940416935091611bcf90613e19565b80601f0160208091040260200160405190810160405280929190818152602001828054611bfb90613e19565b8015611c485780601f10611c1d57610100808354040283529160200191611c48565b820191906000526020600020905b815481529060010190602001808311611c2b57829003601f168201915b5050505050905085565b60023360009081526020819052604090206002015460ff166008811115611c7b57611c7b6135db565b141580611ca0575033600090815260208190526040902060020154610100900460ff16155b15611cbe5760405163248b437160e21b815260040160405180910390fd5b336000908152600a60205260409020548114611ced5760405163ea8e4eb560e01b815260040160405180910390fd5b6001600160a01b0383811660009081526020819052604090205416611d25576040516319c29a3360e21b815260040160405180910390fd5b6001600160a01b0383166000908152600a60205260409020548114611d5d57604051637aa3308d60e11b815260040160405180910390fd5b6001600160a01b038316600081815260208181526040808320600201805461ffff19169055600a90915280822091909155518291907f656386f7fbf5fbd79ebb5d508870678c1d0ba774d3af78f5971f7d32d0da18bd90611dbf908690613f95565b60405180910390a3505050565b336000908152602081905260409020546001600160a01b0316611e025760405163aba4733960e01b815260040160405180910390fd5b336000908152600160205260409020611e1c868883613fa3565b5033600090815260016020819052604090912001611e3b848683613fa3565b50336000908152600160205260409020600201611e59828483613fa3565b50336000908152602081905260409020600101611e77868883613fa3565b50336001600160a01b03167f6420daf1b58438e85465ef21dee378d307a509caab491149e3f066c5caf1266d878787878787604051611ebb9695949392919061408c565b60405180910390a2505050505050565b611ed36130d3565b600081815260076020526040902060020154600160a01b900460ff16611f0c57604051634d2310eb60e11b815260040160405180910390fd5b600081815260076020526040808220600201805460ff60a01b191690555182917fde3170d9273315de9a8b381190baac26e017d2c9ac99d1ca5b428bea7161f89291a250565b611f5a6130d3565b600080838152600960205260409020600290810154600160a01b900460ff1690811115611f8957611f896135db565b14611fa7576040516317f4986760e31b815260040160405180910390fd5b6001600160a01b038181166000908152602081905260409020541615611fe057604051630ea075bf60e21b815260040160405180910390fd5b600082815260096020818152604080842060028101805460ff60a01b1916600160a01b1790558151608081019092528682529386905291815260019092018054919283019161202e90613e19565b80601f016020809104026020016040519081016040528092919081815260200182805461205a90613e19565b80156120a75780601f1061207c576101008083540402835291602001916120a7565b820191906000526020600020905b81548152906001019060200180831161208a57829003601f168201915b50505091835250506001600160a01b0383166020808301919091526001604092830181905260008681526007835292909220835181559083015190918201906120f09082613e9b565b50604082810151600292830180546060909501511515600160a01b026001600160a81b03199095166001600160a01b039283161794909417909355805160a081018252928416835280518082018252600581526420b236b4b760d91b6020828101919091528401528201908152600160208083018290526040805180830182526000808252948201526001600160a01b0386811685528483529320845181546001600160a01b0319169416939093178355830151908201906121b29082613e9b565b50604082015160028201805460ff191660018360088111156121d6576121d66135db565b021790555060608201516002820180549115156101000261ff00199092169190911790556080820151600382019061220e9082613e9b565b50506040805160a0810182526005606082019081526420b236b4b760d91b6080830152815281516020818101845260008083528184019290925283518082018552828152838501526001600160a01b03861682526001905291909120815191925090819061227c9082613e9b565b50602082015160018201906122919082613e9b565b50604082015160028201906122a69082613e9b565b5050506001600160a01b0381166000818152600a60205260408082208590555184917f1421bdc12a61f8ad34351cd7dd151822ac06730e7b43ee4bdfd4aaeb1ff5311c91a3806001600160a01b03167fc2e5d5da58bd71d1a2d14cdef02a4256d971b728088f8190d067ccfbae3bd73e60026040516110b291906140d5565b600061232f61319f565b805490915060ff600160401b82041615906001600160401b03166000811580156123565750825b90506000826001600160401b031660011480156123725750303b155b905081158015612380575080155b1561239e5760405163f92ee8a960e01b815260040160405180910390fd5b845467ffffffffffffffff1916600117855583156123c857845460ff60401b1916600160401b1785555b6123d1866131c8565b6123d96131d9565b831561241f57845460ff60401b19168555604051600181527fc7f505b2f371ae2175ee4913f4499e1f2633a7b5936321eed1cdaeb6115181d29060200160405180910390a15b505050505050565b600254841061244957604051633e07f1a160e01b815260040160405180910390fd5b60006002858154811061245e5761245e613daa565b600091825260209091206004600690920201908101549091506001600160a01b0316331461249f57604051635e27834560e01b815260040160405180910390fd5b6001600160a01b03841660009081526020819052604090206001600282015460ff1660088111156124d2576124d26135db565b141580156124f957506007600282015460ff1660088111156124f6576124f66135db565b14155b801561251e57506003600282015460ff16600881111561251b5761251b6135db565b14155b801561254357506004600282015460ff166008811115612540576125406135db565b14155b801561256857506005600282015460ff166008811115612565576125656135db565b14155b8061257d57506002810154610100900460ff16155b1561259b57604051635f10e00b60e01b815260040160405180910390fd5b60008681526004602090815260408083206001600160a01b03891684529091529020544210156125de576040516342beec5560e11b815260040160405180910390fd5b60006125ed8562015180613dd6565b6125f79042613ded565b60008881526004602090815260408083206001600160a01b038b16808552925291829020839055905191925090339089907f1c795c24f232a1e8a341c63546a2631ab532f7bf10169ff1b3c74187ad48a0f1906126579086908a90613f7c565b60405180910390a450505050505050565b336000908152602081905260409020546001600160a01b031661269e5760405163aba4733960e01b815260040160405180910390fd5b33600090815260208190526040812060030180546126bb90613e19565b905011156126dc576040516303b3cf9760e41b815260040160405180910390fd5b3360009081526020819052604090206003016126f88282613e9b565b5060405133907f6cf02651ef9f7a72105bbc0f5800cb97cf05271672cc25280ab53491280c827e90600090a250565b60023360009081526020819052604090206002015460ff166008811115612750576127506135db565b141580612775575033600090815260208190526040902060020154610100900460ff16155b156127935760405163248b437160e21b815260040160405180910390fd5b336000908152600a602052604090205481146127c25760405163ea8e4eb560e01b815260040160405180910390fd5b60018260088111156127d6576127d66135db565b141580156127f6575060078260088111156127f3576127f36135db565b14155b1561281457604051631b32d0dd60e11b815260040160405180910390fd5b6001600160a01b038381166000908152602081905260409020541661284c576040516319c29a3360e21b815260040160405180910390fd5b6001600160a01b0383166000908152600a602052604090205415612883576040516339e5825f60e11b815260040160405180910390fd5b6001600160a01b0383166000908152602081905260409020600201805483919060ff191660018360088111156128bb576128bb6135db565b02179055506001600160a01b038316600081815260208181526040808320600201805461ff001916610100179055600a90915290819020839055518291907fb7f677009e40b63d956ecadcfcb1f65c754aa8f19532b58a315c47d23dfcbdcb90612926908690613f95565b60405180910390a36040516001600160a01b0384169033907fbfb2fa25f828a712fda370028ecc8813c7082c69b239a579753b10e24dd472cc90600090a3505050565b6040805160e08101825260008082526060602083018190529282018190528282018190526080820181905260a082015260c08101919091526129ab8233612cbb565b6129c85760405163ea8e4eb560e01b815260040160405180910390fd5b600282815481106129db576129db613daa565b90600052602060002090600602016040518060e001604052908160008201548152602001600182018054612a0e90613e19565b80601f0160208091040260200160405190810160405280929190818152602001828054612a3a90613e19565b8015612a875780601f10612a5c57610100808354040283529160200191612a87565b820191906000526020600020905b815481529060010190602001808311612a6a57829003601f168201915b50505091835250506002820154602082015260038201546001600160a01b03908116604083015260048301549081166060830152600160a01b900460ff161515608082015260058201805460a090920191612ae190613e19565b80601f0160208091040260200160405190810160405280929190818152602001828054612b0d90613e19565b8015612b5a5780601f10612b2f57610100808354040283529160200191612b5a565b820191906000526020600020905b815481529060010190602001808311612b3d57829003601f168201915b5050505050815250509050919050565b6002548210612b8c57604051633e07f1a160e01b815260040160405180910390fd5b600060028381548110612ba157612ba1613daa565b600091825260209091206004600690920201908101549091506001600160a01b03163314612be257604051635e27834560e01b815260040160405180910390fd5b60008381526004602090815260408083206001600160a01b03861684529091528120549003612c2457604051639cf4448960e01b815260040160405180910390fd5b60008381526004602090815260408083206001600160a01b038616808552925280832083905551909185917f07aca9e88df76b26773787218a5664b178842e080be07be33d29f8a84853ecbc9190a3505050565b612c806130d3565b6001600160a01b038116612caf57604051631e4fbdf760e01b8152600060048201526024015b60405180910390fd5b612cb88161312e565b50565b6002546000908310612ccf575060006119de565b600060028481548110612ce457612ce4613daa565b6000918252602090912060069091020160048101549091506001600160a01b0384811691161480612d24575060038101546001600160a01b038481169116145b15612d335760019150506119de565b505060009182526004602090815260408084206001600160a01b03939093168452919052902054421090565b600280546040805160e0810182528281526020810187815242928201929092523360608201526001600160a01b038816608082015284151560a082015260c081018690526001830184556000939093528251600683027f405787fa12a823e0f2b7631cc41b3ba8828b3321ca811111fa75cd3aa3bb5ace8101918255915192939290917f405787fa12a823e0f2b7631cc41b3ba8828b3321ca811111fa75cd3aa3bb5acf0190612e0f9082613e9b565b506040820151600282015560608201516003820180546001600160a01b0319166001600160a01b03928316179055608083015160048301805460a0860151929093166001600160a81b031990931692909217600160a01b9115159190910217905560c08201516005820190612e849082613e9b565b5050506001600160a01b038516600081815260036020908152604080832080546001810182559084528284200185905584835260048252808320848452909152808220600019908190553380845292829020555190919083907f9301aab79e18963a94932baee4a5f8ce91c80e552e8c5b01935859c1697595f490612f0c90889088906140ff565b60405180910390a45050505050565b306001600160a01b037f0000000000000000000000000000000000000000000000000000000000000000161480612fa257507f00000000000000000000000000000000000000000000000000000000000000006001600160a01b0316612f96600080516020614159833981519152546001600160a01b031690565b6001600160a01b031614155b1561170f5760405163703e46dd60e11b815260040160405180910390fd5b612cb86130d3565b816001600160a01b03166352d1902d6040518163ffffffff1660e01b8152600401602060405180830381865afa925050508015613022575060408051601f3d908101601f1916820190925261301f91810190614123565b60015b61304a57604051634c9c8ce360e01b81526001600160a01b0383166004820152602401612ca6565b600080516020614159833981519152811461307b57604051632a87526960e21b815260048101829052602401612ca6565b61308583836131e1565b505050565b306001600160a01b037f0000000000000000000000000000000000000000000000000000000000000000161461170f5760405163703e46dd60e11b815260040160405180910390fd5b336131057f9016d09d72d40fdae2fd8ceac6b6234c7706214fd39c1cd1e609a0528c199300546001600160a01b031690565b6001600160a01b03161461170f5760405163118cdaa760e01b8152336004820152602401612ca6565b7f9016d09d72d40fdae2fd8ceac6b6234c7706214fd39c1cd1e609a0528c19930080546001600160a01b031981166001600160a01b03848116918217845560405192169182907f8be0079c531659141344cd1fd0a4f28419497f9722a3daafe3b4186f6b6457e090600090a3505050565b6000807ff0c57e16840df040f15088dc2f81fe391c3923bec73e23a9662efc9c229c6a006119de565b6131d0613237565b612cb88161325c565b61170f613237565b6131ea8261326d565b6040516001600160a01b038316907fbc7cd75a20ee27fd9adebab32041f755214dbc6bffa90cc0225b39da2e5c2d3b90600090a280511561322f5761308582826132d2565b611284613348565b61323f613367565b61170f57604051631afcd79f60e31b815260040160405180910390fd5b613264613237565b612cb881613381565b806001600160a01b03163b6000036132a357604051634c9c8ce360e01b81526001600160a01b0382166004820152602401612ca6565b60008051602061415983398151915280546001600160a01b0319166001600160a01b0392909216919091179055565b6060600080846001600160a01b0316846040516132ef919061413c565b600060405180830381855af49150503d806000811461332a576040519150601f19603f3d011682016040523d82523d6000602084013e61332f565b606091505b509150915061333f858383613392565b95945050505050565b341561170f5760405163b398979f60e01b815260040160405180910390fd5b600061337161319f565b54600160401b900460ff16919050565b613389613237565b612cb8816133f1565b6060826133a7576133a2826133f9565b6133ea565b81511580156133be57506001600160a01b0384163b155b156133e757604051639996b31560e01b81526001600160a01b0385166004820152602401612ca6565b50805b9392505050565b612c80613237565b80511561340857805160208201fd5b60405163d6bda27560e01b815260040160405180910390fd5b6000806040838503121561343457600080fd5b50508035926020909101359150565b80356001600160a01b038116811461345a57600080fd5b919050565b634e487b7160e01b600052604160045260246000fd5b604051601f8201601f191681016001600160401b038111828210171561349d5761349d61345f565b604052919050565b600082601f8301126134b657600080fd5b81356001600160401b038111156134cf576134cf61345f565b6134e2601f8201601f1916602001613475565b8181528460208386010111156134f757600080fd5b816020850160208301376000918101602001919091529392505050565b6000806040838503121561352757600080fd5b61353083613443565b915060208301356001600160401b0381111561354b57600080fd5b613557858286016134a5565b9150509250929050565b6000806040838503121561357457600080fd5b61357d83613443565b946020939093013593505050565b60005b838110156135a657818101518382015260200161358e565b50506000910152565b600081518084526135c781602086016020860161358b565b601f01601f19169290920160200192915050565b634e487b7160e01b600052602160045260246000fd5b60038110613601576136016135db565b9052565b8581526001600160a01b0385811660208301528416604082015260a060608201819052600090613637908301856135af565b905061364660808301846135f1565b9695505050505050565b60006020828403121561366257600080fd5b6133ea82613443565b60608152600061367e60608301866135af565b828103602084015261369081866135af565b9050828103604084015261364681856135af565b80356009811061345a57600080fd5b600080604083850312156136c657600080fd5b82356001600160401b038111156136dc57600080fd5b6136e8858286016134a5565b9250506136f7602084016136a4565b90509250929050565b60006020828403121561371257600080fd5b5035919050565b87815260e06020820152600061373260e08301896135af565b604083018890526001600160a01b0387811660608501528616608084015284151560a084015282810360c084015261376a81856135af565b9a9950505050505050505050565b6000806040838503121561378b57600080fd5b82356001600160401b03808211156137a257600080fd5b6137ae868387016134a5565b935060208501359150808211156137c457600080fd5b50613557858286016134a5565b60006001600160401b038211156137ea576137ea61345f565b5060051b60200190565b600082601f83011261380557600080fd5b8135602061381a613815836137d1565b613475565b82815260059290921b8401810191818101908684111561383957600080fd5b8286015b848110156138785780356001600160401b0381111561385c5760008081fd5b61386a8986838b01016134a5565b84525091830191830161383d565b509695505050505050565b6000806000806080858703121561389957600080fd5b84356001600160401b03808211156138b057600080fd5b818701915087601f8301126138c457600080fd5b813560206138d4613815836137d1565b82815260059290921b8401810191818101908b8411156138f357600080fd5b948201945b83861015613911578535825294820194908201906138f8565b98506139209050898201613443565b9650505060408701359350606087013591508082111561393f57600080fd5b5061394c878288016137f4565b91505092959194509250565b6020808252825182820181905260009190848201906040850190845b8181101561399057835183529284019291840191600101613974565b50909695505050505050565b8481526080602082015260006139b560808301866135af565b6001600160a01b0385166040840152905061333f60608301846135f1565b8481526080602082015260006139ec60808301866135af565b6001600160a01b039490941660408301525090151560609091015292915050565b600080600060608486031215613a2257600080fd5b613a2b84613443565b925060208401356001600160401b0380821115613a4757600080fd5b613a53878388016134a5565b93506040860135915080821115613a6957600080fd5b50613a76868287016134a5565b9150509250925092565b60208152815160208201526000602083015160018060a01b0380821660408501528060408601511660608501525050606083015160a06080840152613ac860c08401826135af565b90506080840151613adc60a08501826135f1565b509392505050565b600060208284031215613af657600080fd5b81356001600160401b03811115613b0c57600080fd5b613b18848285016134a5565b949350505050565b60098110613601576136016135db565b6001600160a01b038616815260a060208201819052600090613b54908301876135af565b613b616040840187613b20565b84151560608401528281036080840152613b7b81856135af565b98975050505050505050565b6020815260006133ea60208301846135af565b600080600060608486031215613baf57600080fd5b613bb884613443565b9250613bc6602085016136a4565b9150604084013590509250925092565b60008083601f840112613be857600080fd5b5081356001600160401b03811115613bff57600080fd5b602083019150836020828501011115613c1757600080fd5b9250929050565b60008060008060008060608789031215613c3757600080fd5b86356001600160401b0380821115613c4e57600080fd5b613c5a8a838b01613bd6565b90985096506020890135915080821115613c7357600080fd5b613c7f8a838b01613bd6565b90965094506040890135915080821115613c9857600080fd5b50613ca589828a01613bd6565b979a9699509497509295939492505050565b60008060408385031215613cca57600080fd5b823591506136f760208401613443565b60008060008060808587031215613cf057600080fd5b84359350613d0060208601613443565b92506040850135915060608501356001600160401b03811115613d2257600080fd5b61394c878288016134a5565b60208152815160208201526000602083015160e06040840152613d556101008401826135af565b905060408401516060840152606084015160018060a01b0380821660808601528060808701511660a0860152505060a0840151151560c084015260c0840151601f198483030160e085015261333f82826135af565b634e487b7160e01b600052603260045260246000fd5b634e487b7160e01b600052601160045260246000fd5b80820281158282048414176119de576119de613dc0565b808201808211156119de576119de613dc0565b600060018201613e1257613e12613dc0565b5060010190565b600181811c90821680613e2d57607f821691505b602082108103613e4d57634e487b7160e01b600052602260045260246000fd5b50919050565b601f821115613085576000816000526020600020601f850160051c81016020861015613e7c5750805b601f850160051c820191505b8181101561241f57828155600101613e88565b81516001600160401b03811115613eb457613eb461345f565b613ec881613ec28454613e19565b84613e53565b602080601f831160018114613efd5760008415613ee55750858301515b600019600386901b1c1916600185901b17855561241f565b600085815260208120601f198616915b82811015613f2c57888601518255948401946001909101908401613f0d565b5085821015613f4a5787850151600019600388901b60f8161c191681555b5050505050600190811b01905550565b604081526000613f6d60408301856135af565b90506133ea6020830184613b20565b828152604060208201526000613b1860408301846135af565b602081016119de8284613b20565b6001600160401b03831115613fba57613fba61345f565b613fce83613fc88354613e19565b83613e53565b6000601f8411600181146140025760008515613fea5750838201355b600019600387901b1c1916600186901b17835561405c565b600083815260209020601f19861690835b828110156140335786850135825560209485019460019092019101614013565b50868210156140505760001960f88860031b161c19848701351681555b505060018560011b0183555b5050505050565b81835281816020850137506000828201602090810191909152601f909101601f19169091010190565b6060815260006140a060608301888a614063565b82810360208401526140b3818789614063565b905082810360408401526140c8818587614063565b9998505050505050505050565b60408082526005908201526420b236b4b760d91b6060820152608081016119de6020830184613b20565b60408152600061411260408301856135af565b905082151560208301529392505050565b60006020828403121561413557600080fd5b5051919050565b6000825161414e81846020870161358b565b919091019291505056fe360894a13ba1a3210667c828492db98dca3e2076cc3735a920a3ca505d382bbca2646970667358221220dc06f91b77fd5564d06d6af6dfaec6a29790731d6d8e631fdf7eff09c404fb0064736f6c63430008180033",
  "linkReferences": {},
  "deployedLinkReferences": {}
}