{
  "_format": "hh-sol-artifact-1",
  "contractName": "MedicalRecords",
  "sourceName": "contracts/MedicalRecords.sol",
  "abi": [
    {
      "inputs": [],
      "stateMutability": "nonpayable",
      "type": "constructor"
    },
    {
      "inputs": [],
      "name": "AccessAlreadyGranted",
      "type": "error"
    },
    {
      "inputs": [
        {
          "internalType": "address",
          "name": "target",
          "type": "address"
        }
      ],
      "name": "AddressEmptyCode",
      "type": "error"
    },
    {
      "inputs": [],
      "name": "AlreadyRegistered",
      "type": "error"
    },
    {
      "inputs": [
        {
          "internalType": "address",
          "name": "implementation",
          "type": "address"
        }
      ],
      "name": "ERC1967InvalidImplementation",
      "type": "error"
    },
    {
      "inputs": [],
      "name": "ERC1967NonPayable",
      "type": "error"
    },
    {
      "inputs": [],
      "name": "FailedCall",
      "type": "error"
    },
    {
      "inputs": [],
      "name": "InvalidInitialization",
      "type": "error"
    },
    {
      "inputs": [],
      "name": "NoAccessToRevoke",
      "type": "error"
    },
    {
      "inputs": [],
      "name": "NotAPatient",
      "type": "error"
    },
    {
      "inputs": [],
      "name": "NotAVerifiedProfessional",
      "type": "error"
    },
    {
      "inputs": [],
      "name": "NotAnAdmin",
      "type": "error"
    },
    {
      "inputs": [],
      "name": "NotAnInsuranceProvider",
      "type": "error"
    },
    {
      "inputs": [],
      "name": "NotAuthorized",
      "type": "error"
    },
    {
      "inputs": [],
      "name": "NotInitializing",
      "type": "error"
    },
    {
      "inputs": [],
      "name": "NotRecordOwner",
      "type": "error"
    },
    {
      "inputs": [],
      "name": "NotRegistered",
      "type": "error"
    },
    {
      "inputs": [
        {
          "internalType": "address",
          "name": "owner",
          "type": "address"
        }
      ],
      "name": "OwnableInvalidOwner",
      "type": "error"
    },
    {
      "inputs": [
        {
          "internalType": "address",
          "name": "account",
          "type": "address"
        }
      ],
      "name": "OwnableUnauthorizedAccount",
      "type": "error"
    },
    {
      "inputs": [],
      "name": "PublicKeyAlreadySet",
      "type": "error"
    },
    {
      "inputs": [],
      "name": "RecordNotFound",
      "type": "error"
    },
    {
      "inputs": [],
      "name": "RequestNotFound",
      "type": "error"
    },
    {
      "inputs": [],
      "name": "UUPSUnauthorizedCallContext",
      "type": "error"
    },
    {
      "inputs": [
        {
          "internalType": "bytes32",
          "name": "slot",
          "type": "bytes32"
        }
      ],
      "name": "UUPSUnsupportedProxiableUUID",
      "type": "error"
    },
    {
      "inputs": [],
      "name": "UserNotFound",
      "type": "error"
    },
    {
      "anonymous": false,
      "inputs": [
        {
          "indexed": true,
          "internalType": "uint256",
          "name": "recordId",
          "type": "uint256"
        },
        {
          "indexed": true,
          "internalType": "address",
          "name": "owner",
          "type": "address"
        },
        {
          "indexed": true,
          "internalType": "address",
          "name": "grantee",
          "type": "address"
        },
        {
          "indexed": false,
          "internalType": "uint256",
          "name": "expiration",
          "type": "uint256"
        }
      ],
      "name": "AccessGranted",
      "type": "event"
    },
    {
      "anonymous": false,
      "inputs": [
        {
          "indexed": true,
          "internalType": "uint256",
          "name": "requestId",
          "type": "uint256"
        },
        {
          "indexed": true,
          "internalType": "address",
          "name": "patient",
          "type": "address"
        },
        {
          "indexed": true,
          "internalType": "address",
          "name": "provider",
          "type": "address"
        },
        {
          "indexed": false,
          "internalType": "string",
          "name": "claimId",
          "type": "string"
        }
      ],
      "name": "AccessRequested",
      "type": "event"
    },
    {
      "anonymous": false,
      "inputs": [
        {
          "indexed": true,
          "internalType": "uint256",
          "name": "recordId",
          "type": "uint256"
        },
        {
          "indexed": true,
          "internalType": "address",
          "name": "owner",
          "type": "address"
        },
        {
          "indexed": true,
          "internalType": "address",
          "name": "grantee",
          "type": "address"
        }
      ],
      "name": "AccessRevoked",
      "type": "event"
    },
    {
      "anonymous": false,
      "inputs": [
        {
          "indexed": false,
          "internalType": "uint64",
          "name": "version",
          "type": "uint64"
        }
      ],
      "name": "Initialized",
      "type": "event"
    },
    {
      "anonymous": false,
      "inputs": [
        {
          "indexed": true,
          "internalType": "address",
          "name": "previousOwner",
          "type": "address"
        },
        {
          "indexed": true,
          "internalType": "address",
          "name": "newOwner",
          "type": "address"
        }
      ],
      "name": "OwnershipTransferred",
      "type": "event"
    },
    {
      "anonymous": false,
      "inputs": [
        {
          "indexed": true,
          "internalType": "address",
          "name": "user",
          "type": "address"
        },
        {
          "indexed": false,
          "internalType": "string",
          "name": "name",
          "type": "string"
        },
        {
          "indexed": false,
          "internalType": "string",
          "name": "contactInfo",
          "type": "string"
        },
        {
          "indexed": false,
          "internalType": "string",
          "name": "profileMetadataURI",
          "type": "string"
        }
      ],
      "name": "ProfileUpdated",
      "type": "event"
    },
    {
      "anonymous": false,
      "inputs": [
        {
          "indexed": true,
          "internalType": "address",
          "name": "user",
          "type": "address"
        }
      ],
      "name": "PublicKeySaved",
      "type": "event"
    },
    {
      "anonymous": false,
      "inputs": [
        {
          "indexed": true,
          "internalType": "uint256",
          "name": "recordId",
          "type": "uint256"
        },
        {
          "indexed": true,
          "internalType": "address",
          "name": "patient",
          "type": "address"
        },
        {
          "indexed": true,
          "internalType": "address",
          "name": "uploadedBy",
          "type": "address"
        },
        {
          "indexed": false,
          "internalType": "string",
          "name": "category",
          "type": "string"
        },
        {
          "indexed": false,
          "internalType": "bool",
          "name": "isVerified",
          "type": "bool"
        }
      ],
      "name": "RecordAdded",
      "type": "event"
    },
    {
      "anonymous": false,
      "inputs": [
        {
          "indexed": true,
          "internalType": "uint256",
          "name": "requestId",
          "type": "uint256"
        },
        {
          "indexed": true,
          "internalType": "address",
          "name": "patient",
          "type": "address"
        },
        {
          "indexed": false,
          "internalType": "uint256",
          "name": "accessDuration",
          "type": "uint256"
        }
      ],
      "name": "RequestApproved",
      "type": "event"
    },
    {
      "anonymous": false,
      "inputs": [
        {
          "indexed": true,
          "internalType": "address",
          "name": "implementation",
          "type": "address"
        }
      ],
      "name": "Upgraded",
      "type": "event"
    },
    {
      "anonymous": false,
      "inputs": [
        {
          "indexed": true,
          "internalType": "address",
          "name": "userAddress",
          "type": "address"
        },
        {
          "indexed": false,
          "internalType": "string",
          "name": "name",
          "type": "string"
        },
        {
          "indexed": false,
          "internalType": "enum Storage.Role",
          "name": "role",
          "type": "uint8"
        }
      ],
      "name": "UserRegistered",
      "type": "event"
    },
    {
      "anonymous": false,
      "inputs": [
        {
          "indexed": true,
          "internalType": "address",
          "name": "admin",
          "type": "address"
        },
        {
          "indexed": true,
          "internalType": "address",
          "name": "userAddress",
          "type": "address"
        }
      ],
      "name": "UserVerified",
      "type": "event"
    },
    {
      "inputs": [],
      "name": "UPGRADE_INTERFACE_VERSION",
      "outputs": [
        {
          "internalType": "string",
          "name": "",
          "type": "string"
        }
      ],
      "stateMutability": "view",
      "type": "function"
    },
    {
      "inputs": [
        {
          "internalType": "address",
          "name": "_newAdmin",
          "type": "address"
        },
        {
          "internalType": "string",
          "name": "_name",
          "type": "string"
        }
      ],
      "name": "addHospitalAdmin",
      "outputs": [],
      "stateMutability": "nonpayable",
      "type": "function"
    },
    {
      "inputs": [
        {
          "internalType": "string",
          "name": "_ipfsHash",
          "type": "string"
        },
        {
          "internalType": "string",
          "name": "_category",
          "type": "string"
        }
      ],
      "name": "addSelfUploadedRecord",
      "outputs": [],
      "stateMutability": "nonpayable",
      "type": "function"
    },
    {
      "inputs": [
        {
          "internalType": "address",
          "name": "_patient",
          "type": "address"
        },
        {
          "internalType": "string",
          "name": "_ipfsHash",
          "type": "string"
        },
        {
          "internalType": "string",
          "name": "_category",
          "type": "string"
        }
      ],
      "name": "addVerifiedRecord",
      "outputs": [],
      "stateMutability": "nonpayable",
      "type": "function"
    },
    {
      "inputs": [
        {
          "internalType": "uint256",
          "name": "_requestId",
          "type": "uint256"
        },
        {
          "internalType": "uint256",
          "name": "_durationInDays",
          "type": "uint256"
        }
      ],
      "name": "approveRequest",
      "outputs": [],
      "stateMutability": "nonpayable",
      "type": "function"
    },
    {
      "inputs": [
        {
          "internalType": "uint256",
          "name": "_recordId",
          "type": "uint256"
        },
        {
          "internalType": "address",
          "name": "_viewer",
          "type": "address"
        }
      ],
      "name": "checkRecordAccess",
      "outputs": [
        {
          "internalType": "bool",
          "name": "",
          "type": "bool"
        }
      ],
      "stateMutability": "view",
      "type": "function"
    },
    {
      "inputs": [
        {
          "internalType": "address",
          "name": "_patientAddress",
          "type": "address"
        }
      ],
      "name": "getPatientRecordIds",
      "outputs": [
        {
          "internalType": "uint256[]",
          "name": "",
          "type": "uint256[]"
        }
      ],
      "stateMutability": "view",
      "type": "function"
    },
    {
      "inputs": [
        {
          "internalType": "address",
          "name": "_patientAddress",
          "type": "address"
        },
        {
          "internalType": "uint256",
          "name": "_index",
          "type": "uint256"
        }
      ],
      "name": "getPatientRequestAtIndex",
      "outputs": [
        {
          "components": [
            {
              "internalType": "uint256",
              "name": "id",
              "type": "uint256"
            },
            {
              "internalType": "address",
              "name": "patient",
              "type": "address"
            },
            {
              "internalType": "address",
              "name": "provider",
              "type": "address"
            },
            {
              "internalType": "string",
              "name": "claimId",
              "type": "string"
            },
            {
              "internalType": "enum Storage.RequestStatus",
              "name": "status",
              "type": "uint8"
            }
          ],
          "internalType": "struct Storage.AccessRequest",
          "name": "",
          "type": "tuple"
        }
      ],
      "stateMutability": "view",
      "type": "function"
    },
    {
      "inputs": [
        {
          "internalType": "address",
          "name": "_patientAddress",
          "type": "address"
        }
      ],
      "name": "getPatientRequestsCount",
      "outputs": [
        {
          "internalType": "uint256",
          "name": "",
          "type": "uint256"
        }
      ],
      "stateMutability": "view",
      "type": "function"
    },
    {
      "inputs": [
        {
          "internalType": "uint256",
          "name": "_recordId",
          "type": "uint256"
        }
      ],
      "name": "getRecordById",
      "outputs": [
        {
          "components": [
            {
              "internalType": "uint256",
              "name": "id",
              "type": "uint256"
            },
            {
              "internalType": "string",
              "name": "ipfsHash",
              "type": "string"
            },
            {
              "internalType": "uint256",
              "name": "timestamp",
              "type": "uint256"
            },
            {
              "internalType": "address",
              "name": "uploadedBy",
              "type": "address"
            },
            {
              "internalType": "address",
              "name": "owner",
              "type": "address"
            },
            {
              "internalType": "bool",
              "name": "isVerified",
              "type": "bool"
            },
            {
              "internalType": "string",
              "name": "category",
              "type": "string"
            }
          ],
          "internalType": "struct Storage.Record",
          "name": "",
          "type": "tuple"
        }
      ],
      "stateMutability": "view",
      "type": "function"
    },
    {
      "inputs": [
        {
          "internalType": "uint256[]",
          "name": "_recordIds",
          "type": "uint256[]"
        },
        {
          "internalType": "address",
          "name": "_grantee",
          "type": "address"
        },
        {
          "internalType": "uint256",
          "name": "_durationInDays",
          "type": "uint256"
        }
      ],
      "name": "grantMultipleRecordAccess",
      "outputs": [],
      "stateMutability": "nonpayable",
      "type": "function"
    },
    {
      "inputs": [
        {
          "internalType": "uint256",
          "name": "_recordId",
          "type": "uint256"
        },
        {
          "internalType": "address",
          "name": "_grantee",
          "type": "address"
        },
        {
          "internalType": "uint256",
          "name": "_durationInDays",
          "type": "uint256"
        }
      ],
      "name": "grantRecordAccess",
      "outputs": [],
      "stateMutability": "nonpayable",
      "type": "function"
    },
    {
      "inputs": [
        {
          "internalType": "address",
          "name": "initialOwner",
          "type": "address"
        }
      ],
      "name": "initialize",
      "outputs": [],
      "stateMutability": "nonpayable",
      "type": "function"
    },
    {
      "inputs": [],
      "name": "owner",
      "outputs": [
        {
          "internalType": "address",
          "name": "",
          "type": "address"
        }
      ],
      "stateMutability": "view",
      "type": "function"
    },
    {
      "inputs": [
        {
          "internalType": "address",
          "name": "",
          "type": "address"
        },
        {
          "internalType": "uint256",
          "name": "",
          "type": "uint256"
        }
      ],
      "name": "patientRecordIds",
      "outputs": [
        {
          "internalType": "uint256",
          "name": "",
          "type": "uint256"
        }
      ],
      "stateMutability": "view",
      "type": "function"
    },
    {
      "inputs": [
        {
          "internalType": "address",
          "name": "",
          "type": "address"
        },
        {
          "internalType": "uint256",
          "name": "",
          "type": "uint256"
        }
      ],
      "name": "patientRequests",
      "outputs": [
        {
          "internalType": "uint256",
          "name": "id",
          "type": "uint256"
        },
        {
          "internalType": "address",
          "name": "patient",
          "type": "address"
        },
        {
          "internalType": "address",
          "name": "provider",
          "type": "address"
        },
        {
          "internalType": "string",
          "name": "claimId",
          "type": "string"
        },
        {
          "internalType": "enum Storage.RequestStatus",
          "name": "status",
          "type": "uint8"
        }
      ],
      "stateMutability": "view",
      "type": "function"
    },
    {
      "inputs": [],
      "name": "proxiableUUID",
      "outputs": [
        {
          "internalType": "bytes32",
          "name": "",
          "type": "bytes32"
        }
      ],
      "stateMutability": "view",
      "type": "function"
    },
    {
      "inputs": [
        {
          "internalType": "uint256",
          "name": "",
          "type": "uint256"
        },
        {
          "internalType": "address",
          "name": "",
          "type": "address"
        }
      ],
      "name": "recordAccess",
      "outputs": [
        {
          "internalType": "uint256",
          "name": "",
          "type": "uint256"
        }
      ],
      "stateMutability": "view",
      "type": "function"
    },
    {
      "inputs": [
        {
          "internalType": "uint256",
          "name": "",
          "type": "uint256"
        }
      ],
      "name": "records",
      "outputs": [
        {
          "internalType": "uint256",
          "name": "id",
          "type": "uint256"
        },
        {
          "internalType": "string",
          "name": "ipfsHash",
          "type": "string"
        },
        {
          "internalType": "uint256",
          "name": "timestamp",
          "type": "uint256"
        },
        {
          "internalType": "address",
          "name": "uploadedBy",
          "type": "address"
        },
        {
          "internalType": "address",
          "name": "owner",
          "type": "address"
        },
        {
          "internalType": "bool",
          "name": "isVerified",
          "type": "bool"
        },
        {
          "internalType": "string",
          "name": "category",
          "type": "string"
        }
      ],
      "stateMutability": "view",
      "type": "function"
    },
    {
      "inputs": [
        {
          "internalType": "string",
          "name": "_name",
          "type": "string"
        },
        {
          "internalType": "enum Storage.Role",
          "name": "_role",
          "type": "uint8"
        }
      ],
      "name": "registerUser",
      "outputs": [],
      "stateMutability": "nonpayable",
      "type": "function"
    },
    {
      "inputs": [],
      "name": "renounceOwnership",
      "outputs": [],
      "stateMutability": "nonpayable",
      "type": "function"
    },
    {
      "inputs": [
        {
          "internalType": "address",
          "name": "_patientAddress",
          "type": "address"
        },
        {
          "internalType": "string",
          "name": "_claimId",
          "type": "string"
        }
      ],
      "name": "requestAccess",
      "outputs": [],
      "stateMutability": "nonpayable",
      "type": "function"
    },
    {
      "inputs": [
        {
          "internalType": "uint256",
          "name": "_recordId",
          "type": "uint256"
        },
        {
          "internalType": "address",
          "name": "_grantee",
          "type": "address"
        }
      ],
      "name": "revokeRecordAccess",
      "outputs": [],
      "stateMutability": "nonpayable",
      "type": "function"
    },
    {
      "inputs": [
        {
          "internalType": "string",
          "name": "_publicKey",
          "type": "string"
        }
      ],
      "name": "savePublicKey",
      "outputs": [],
      "stateMutability": "nonpayable",
      "type": "function"
    },
    {
      "inputs": [
        {
          "internalType": "address",
          "name": "newOwner",
          "type": "address"
        }
      ],
      "name": "transferOwnership",
      "outputs": [],
      "stateMutability": "nonpayable",
      "type": "function"
    },
    {
      "inputs": [
        {
          "internalType": "string",
          "name": "_name",
          "type": "string"
        },
        {
          "internalType": "string",
          "name": "_contactInfo",
          "type": "string"
        },
        {
          "internalType": "string",
          "name": "_profileMetadataURI",
          "type": "string"
        }
      ],
      "name": "updateUserProfile",
      "outputs": [],
      "stateMutability": "nonpayable",
      "type": "function"
    },
    {
      "inputs": [
        {
          "internalType": "address",
          "name": "newImplementation",
          "type": "address"
        },
        {
          "internalType": "bytes",
          "name": "data",
          "type": "bytes"
        }
      ],
      "name": "upgradeToAndCall",
      "outputs": [],
      "stateMutability": "payable",
      "type": "function"
    },
    {
      "inputs": [
        {
          "internalType": "address",
          "name": "",
          "type": "address"
        }
      ],
      "name": "userProfiles",
      "outputs": [
        {
          "internalType": "string",
          "name": "name",
          "type": "string"
        },
        {
          "internalType": "string",
          "name": "contactInfo",
          "type": "string"
        },
        {
          "internalType": "string",
          "name": "profileMetadataURI",
          "type": "string"
        }
      ],
      "stateMutability": "view",
      "type": "function"
    },
    {
      "inputs": [
        {
          "internalType": "address",
          "name": "",
          "type": "address"
        }
      ],
      "name": "users",
      "outputs": [
        {
          "internalType": "address",
          "name": "walletAddress",
          "type": "address"
        },
        {
          "internalType": "string",
          "name": "name",
          "type": "string"
        },
        {
          "internalType": "enum Storage.Role",
          "name": "role",
          "type": "uint8"
        },
        {
          "internalType": "bool",
          "name": "isVerified",
          "type": "bool"
        },
        {
          "internalType": "string",
          "name": "publicKey",
          "type": "string"
        }
      ],
      "stateMutability": "view",
      "type": "function"
    },
    {
      "inputs": [
        {
          "internalType": "address",
          "name": "_userToVerify",
          "type": "address"
        }
      ],
      "name": "verifyUser",
      "outputs": [],
      "stateMutability": "nonpayable",
      "type": "function"
    }
  ],
  "bytecode": "0x60a06040523073ffffffffffffffffffffffffffffffffffffffff1660809073ffffffffffffffffffffffffffffffffffffffff168152503480156200004457600080fd5b50620000556200005b60201b60201c565b620001ee565b60006200006d6200016560201b60201c565b90508060000160089054906101000a900460ff1615620000b9576040517ff92ee8a900000000000000000000000000000000000000000000000000000000815260040160405180910390fd5b67ffffffffffffffff80168160000160009054906101000a900467ffffffffffffffff1667ffffffffffffffff1614620001625767ffffffffffffffff8160000160006101000a81548167ffffffffffffffff021916908367ffffffffffffffff1602179055507fc7f505b2f371ae2175ee4913f4499e1f2633a7b5936321eed1cdaeb6115181d267ffffffffffffffff604051620001599190620001d1565b60405180910390a15b50565b600080620001786200018160201b60201c565b90508091505090565b60007ff0c57e16840df040f15088dc2f81fe391c3923bec73e23a9662efc9c229c6a0060001b905090565b600067ffffffffffffffff82169050919050565b620001cb81620001ac565b82525050565b6000602082019050620001e86000830184620001c0565b92915050565b608051615f9f6200021860003960008181613fd10152818161402601526141e10152615f9f6000f3fe6080604052600436106101cd5760003560e01c80638c544c29116100f7578063c459a8ce11610095578063ea4d598e11610064578063ea4d598e146106bb578063f2fde38b146106e4578063f79051381461070d578063fb4719f91461074a576101cd565b8063c459a8ce146105ef578063c4d66de81461062c578063d8eb8e9014610655578063e75b8b231461067e576101cd565b8063a87430ba116100d1578063a87430ba14610531578063ac88194c14610572578063ad3cb1cc1461059b578063bace0290146105c6576101cd565b80638c544c29146104a05780638da5cb5b146104c95780639afd8efe146104f4576101cd565b8063436243761161016f5780635af28ce31161013e5780635af28ce3146103d25780635e2547f21461040f5780636248204e1461044c578063715018a614610489576101cd565b806343624376146103395780634d813120146103625780634f1ef2861461038b57806352d1902d146103a7576101cd565b80633217bc72116101ab5780633217bc721461024d578063332d56d71461028e578063338e12eb146102cd57806334461067146102f6576101cd565b80631fbe3784146101d25780632c0a90a9146101fb5780632f6d4a5914610224575b600080fd5b3480156101de57600080fd5b506101f960048036038101906101f49190614a9d565b610773565b005b34801561020757600080fd5b50610222600480360381019061021d9190614b2f565b610aba565b005b34801561023057600080fd5b5061024b60048036038101906102469190614a9d565b610ede565b005b34801561025957600080fd5b50610274600480360381019061026f9190614b6f565b61126a565b604051610285959493929190614cc3565b60405180910390f35b34801561029a57600080fd5b506102b560048036038101906102b09190614d1d565b611392565b6040516102c493929190614d4a565b60405180910390f35b3480156102d957600080fd5b506102f460048036038101906102ef9190614dbb565b611554565b005b34801561030257600080fd5b5061031d60048036038101906103189190614e17565b6118f8565b6040516103309796959493929190614e5f565b60405180910390f35b34801561034557600080fd5b50610360600480360381019061035b9190614edc565b611aa7565b005b34801561036e57600080fd5b5061038960048036038101906103849190614d1d565b611b64565b005b6103a560048036038101906103a09190614ff5565b611eae565b005b3480156103b357600080fd5b506103bc611ecd565b6040516103c9919061506a565b60405180910390f35b3480156103de57600080fd5b506103f960048036038101906103f49190614d1d565b611f00565b6040516104069190615085565b60405180910390f35b34801561041b57600080fd5b5061043660048036038101906104319190614b6f565b611fb1565b6040516104439190615085565b60405180910390f35b34801561045857600080fd5b50610473600480360381019061046e9190614d1d565b611fe2565b604051610480919061515e565b60405180910390f35b34801561049557600080fd5b5061049e6120de565b005b3480156104ac57600080fd5b506104c760048036038101906104c29190615180565b6120f2565b005b3480156104d557600080fd5b506104de612386565b6040516104eb919061520b565b60405180910390f35b34801561050057600080fd5b5061051b60048036038101906105169190614b6f565b6123be565b6040516105289190615304565b60405180910390f35b34801561053d57600080fd5b5061055860048036038101906105539190614d1d565b612620565b60405161056995949392919061536e565b60405180910390f35b34801561057e57600080fd5b50610599600480360381019061059491906153cf565b6127a0565b005b3480156105a757600080fd5b506105b0612b42565b6040516105bd9190615422565b60405180910390f35b3480156105d257600080fd5b506105ed60048036038101906105e891906154a4565b612b7b565b005b3480156105fb57600080fd5b5061061660048036038101906106119190615558565b612e5e565b6040516106239190615085565b60405180910390f35b34801561063857600080fd5b50610653600480360381019061064e9190614d1d565b612e83565b005b34801561066157600080fd5b5061067c60048036038101906106779190615598565b61301a565b005b34801561068a57600080fd5b506106a560048036038101906106a09190614e17565b6131fe565b6040516106b29190615693565b60405180910390f35b3480156106c757600080fd5b506106e260048036038101906106dd9190615558565b613479565b005b3480156106f057600080fd5b5061070b60048036038101906107069190614d1d565b6136a6565b005b34801561071957600080fd5b50610734600480360381019061072f9190615558565b61372c565b60405161074191906156b5565b60405180910390f35b34801561075657600080fd5b50610771600480360381019061076c9190615793565b613888565b005b61077b613c03565b600073ffffffffffffffffffffffffffffffffffffffff166000808473ffffffffffffffffffffffffffffffffffffffff1673ffffffffffffffffffffffffffffffffffffffff16815260200190815260200160002060000160009054906101000a900473ffffffffffffffffffffffffffffffffffffffff1673ffffffffffffffffffffffffffffffffffffffff1614610842576040517f3a81d6fc00000000000000000000000000000000000000000000000000000000815260040160405180910390fd5b6040518060a001604052808373ffffffffffffffffffffffffffffffffffffffff1681526020018281526020016002600781111561088357610882614c4c565b5b8152602001600115158152602001604051806020016040528060008152508152506000808473ffffffffffffffffffffffffffffffffffffffff1673ffffffffffffffffffffffffffffffffffffffff16815260200190815260200160002060008201518160000160006101000a81548173ffffffffffffffffffffffffffffffffffffffff021916908373ffffffffffffffffffffffffffffffffffffffff160217905550602082015181600101908161093e9190615a0e565b5060408201518160020160006101000a81548160ff0219169083600781111561096a57610969614c4c565b5b021790555060608201518160020160016101000a81548160ff02191690831515021790555060808201518160030190816109a49190615a0e565b50905050604051806060016040528082815260200160405180602001604052806000815250815260200160405180602001604052806000815250815250600160008473ffffffffffffffffffffffffffffffffffffffff1673ffffffffffffffffffffffffffffffffffffffff1681526020019081526020016000206000820151816000019081610a359190615a0e565b506020820151816001019081610a4b9190615a0e565b506040820151816002019081610a619190615a0e565b509050508173ffffffffffffffffffffffffffffffffffffffff167fc2e5d5da58bd71d1a2d14cdef02a4256d971b728088f8190d067ccfbae3bd73e826002604051610aae929190615ae0565b60405180910390a25050565b60006007811115610ace57610acd614c4c565b5b6000803373ffffffffffffffffffffffffffffffffffffffff1673ffffffffffffffffffffffffffffffffffffffff16815260200190815260200160002060020160009054906101000a900460ff166007811115610b2f57610b2e614c4c565b5b14610b66576040517f8251137800000000000000000000000000000000000000000000000000000000815260040160405180910390fd5b6000600560003373ffffffffffffffffffffffffffffffffffffffff1673ffffffffffffffffffffffffffffffffffffffff16815260200190815260200160002090506000805b8280549050811015610ea05784838281548110610bcd57610bcc615b10565b5b906000526020600020906005020160000154148015610c41575060006002811115610bfb57610bfa614c4c565b5b838281548110610c0e57610c0d615b10565b5b906000526020600020906005020160040160009054906101000a900460ff166002811115610c3f57610c3e614c4c565b5b145b15610e93576001838281548110610c5b57610c5a615b10565b5b906000526020600020906005020160040160006101000a81548160ff02191690836002811115610c8e57610c8d614c4c565b5b021790555060006201518085610ca49190615b6e565b42610caf9190615bb0565b90506000848381548110610cc657610cc5615b10565b5b906000526020600020906005020160020160009054906101000a900473ffffffffffffffffffffffffffffffffffffffff1690506000600360003373ffffffffffffffffffffffffffffffffffffffff1673ffffffffffffffffffffffffffffffffffffffff168152602001908152602001600020905060005b8180549050811015610e37576000828281548110610d6157610d60615b10565b5b90600052602060002001549050846004600083815260200190815260200160002060008673ffffffffffffffffffffffffffffffffffffffff1673ffffffffffffffffffffffffffffffffffffffff168152602001908152602001600020819055508373ffffffffffffffffffffffffffffffffffffffff163373ffffffffffffffffffffffffffffffffffffffff16827f9ffcf664651d52310aeb78c0f8382ca5078d2de7d3cf618cb5ce6e5cabf0099288604051610e219190615085565b60405180910390a4508080600101915050610d40565b50600194503373ffffffffffffffffffffffffffffffffffffffff16887f4def62da440b39db2661de60aa3dad0479ac27d4c22597d6e14c7441774f8a3189604051610e839190615085565b60405180910390a3505050610ea0565b8080600101915050610bad565b5080610ed8576040517f4b13b31e00000000000000000000000000000000000000000000000000000000815260040160405180910390fd5b50505050565b60036007811115610ef257610ef1614c4c565b5b6000803373ffffffffffffffffffffffffffffffffffffffff1673ffffffffffffffffffffffffffffffffffffffff16815260200190815260200160002060020160009054906101000a900460ff166007811115610f5357610f52614c4c565b5b14610f8a576040517f354a448400000000000000000000000000000000000000000000000000000000815260040160405180910390fd5b60006007811115610f9e57610f9d614c4c565b5b6000808473ffffffffffffffffffffffffffffffffffffffff1673ffffffffffffffffffffffffffffffffffffffff16815260200190815260200160002060020160009054906101000a900460ff166007811115610fff57610ffe614c4c565b5b14611036576040517f8251137800000000000000000000000000000000000000000000000000000000815260040160405180910390fd5b60006006600081548092919061104b90615be4565b919050559050600560008473ffffffffffffffffffffffffffffffffffffffff1673ffffffffffffffffffffffffffffffffffffffff1681526020019081526020016000206040518060a001604052808381526020018573ffffffffffffffffffffffffffffffffffffffff1681526020013373ffffffffffffffffffffffffffffffffffffffff168152602001848152602001600060028111156110f3576110f2614c4c565b5b81525090806001815401808255809150506001900390600052602060002090600502016000909190919091506000820151816000015560208201518160010160006101000a81548173ffffffffffffffffffffffffffffffffffffffff021916908373ffffffffffffffffffffffffffffffffffffffff16021790555060408201518160020160006101000a81548173ffffffffffffffffffffffffffffffffffffffff021916908373ffffffffffffffffffffffffffffffffffffffff16021790555060608201518160030190816111cc9190615a0e565b5060808201518160040160006101000a81548160ff021916908360028111156111f8576111f7614c4c565b5b021790555050503373ffffffffffffffffffffffffffffffffffffffff168373ffffffffffffffffffffffffffffffffffffffff16827f21eb886073c5fec0f227f76ef8335d82939c7aa4b537be2e0943f4c1dc74553e8560405161125d9190615422565b60405180910390a4505050565b6005602052816000526040600020818154811061128657600080fd5b9060005260206000209060050201600091509150508060000154908060010160009054906101000a900473ffffffffffffffffffffffffffffffffffffffff16908060020160009054906101000a900473ffffffffffffffffffffffffffffffffffffffff16908060030180546112fc90615831565b80601f016020809104026020016040519081016040528092919081815260200182805461132890615831565b80156113755780601f1061134a57610100808354040283529160200191611375565b820191906000526020600020905b81548152906001019060200180831161135857829003601f168201915b5050505050908060040160009054906101000a900460ff16905085565b60016020528060005260406000206000915090508060000180546113b590615831565b80601f01602080910402602001604051908101604052809291908181526020018280546113e190615831565b801561142e5780601f106114035761010080835404028352916020019161142e565b820191906000526020600020905b81548152906001019060200180831161141157829003601f168201915b50505050509080600101805461144390615831565b80601f016020809104026020016040519081016040528092919081815260200182805461146f90615831565b80156114bc5780601f10611491576101008083540402835291602001916114bc565b820191906000526020600020905b81548152906001019060200180831161149f57829003601f168201915b5050505050908060020180546114d190615831565b80601f01602080910402602001604051908101604052809291908181526020018280546114fd90615831565b801561154a5780601f1061151f5761010080835404028352916020019161154a565b820191906000526020600020905b81548152906001019060200180831161152d57829003601f168201915b5050505050905083565b600073ffffffffffffffffffffffffffffffffffffffff166000803373ffffffffffffffffffffffffffffffffffffffff1673ffffffffffffffffffffffffffffffffffffffff16815260200190815260200160002060000160009054906101000a900473ffffffffffffffffffffffffffffffffffffffff1673ffffffffffffffffffffffffffffffffffffffff161461161b576040517f3a81d6fc00000000000000000000000000000000000000000000000000000000815260040160405180910390fd5b6002600781111561162f5761162e614c4c565b5b81600781111561164257611641614c4c565b5b03611682576040517f08c379a000000000000000000000000000000000000000000000000000000000815260040161167990615c9e565b60405180910390fd5b6040518060a001604052803373ffffffffffffffffffffffffffffffffffffffff1681526020018381526020018260078111156116c2576116c1614c4c565b5b8152602001600015158152602001604051806020016040528060008152508152506000803373ffffffffffffffffffffffffffffffffffffffff1673ffffffffffffffffffffffffffffffffffffffff16815260200190815260200160002060008201518160000160006101000a81548173ffffffffffffffffffffffffffffffffffffffff021916908373ffffffffffffffffffffffffffffffffffffffff160217905550602082015181600101908161177d9190615a0e565b5060408201518160020160006101000a81548160ff021916908360078111156117a9576117a8614c4c565b5b021790555060608201518160020160016101000a81548160ff02191690831515021790555060808201518160030190816117e39190615a0e565b50905050604051806060016040528083815260200160405180602001604052806000815250815260200160405180602001604052806000815250815250600160003373ffffffffffffffffffffffffffffffffffffffff1673ffffffffffffffffffffffffffffffffffffffff16815260200190815260200160002060008201518160000190816118749190615a0e565b50602082015181600101908161188a9190615a0e565b5060408201518160020190816118a09190615a0e565b509050503373ffffffffffffffffffffffffffffffffffffffff167fc2e5d5da58bd71d1a2d14cdef02a4256d971b728088f8190d067ccfbae3bd73e83836040516118ec929190615ae0565b60405180910390a25050565b6002818154811061190857600080fd5b906000526020600020906006020160009150905080600001549080600101805461193190615831565b80601f016020809104026020016040519081016040528092919081815260200182805461195d90615831565b80156119aa5780601f1061197f576101008083540402835291602001916119aa565b820191906000526020600020905b81548152906001019060200180831161198d57829003601f168201915b5050505050908060020154908060030160009054906101000a900473ffffffffffffffffffffffffffffffffffffffff16908060040160009054906101000a900473ffffffffffffffffffffffffffffffffffffffff16908060040160149054906101000a900460ff1690806005018054611a2490615831565b80601f0160208091040260200160405190810160405280929190818152602001828054611a5090615831565b8015611a9d5780601f10611a7257610100808354040283529160200191611a9d565b820191906000526020600020905b815481529060010190602001808311611a8057829003601f168201915b5050505050905087565b60006007811115611abb57611aba614c4c565b5b6000803373ffffffffffffffffffffffffffffffffffffffff1673ffffffffffffffffffffffffffffffffffffffff16815260200190815260200160002060020160009054906101000a900460ff166007811115611b1c57611b1b614c4c565b5b14611b53576040517f8251137800000000000000000000000000000000000000000000000000000000815260040160405180910390fd5b611b603383836000613c8a565b5050565b600073ffffffffffffffffffffffffffffffffffffffff166000803373ffffffffffffffffffffffffffffffffffffffff1673ffffffffffffffffffffffffffffffffffffffff16815260200190815260200160002060000160009054906101000a900473ffffffffffffffffffffffffffffffffffffffff1673ffffffffffffffffffffffffffffffffffffffff1603611c2b576040517faba4733900000000000000000000000000000000000000000000000000000000815260040160405180910390fd5b60026007811115611c3f57611c3e614c4c565b5b6000803373ffffffffffffffffffffffffffffffffffffffff1673ffffffffffffffffffffffffffffffffffffffff16815260200190815260200160002060020160009054906101000a900460ff166007811115611ca057611c9f614c4c565b5b141580611cf957506000803373ffffffffffffffffffffffffffffffffffffffff1673ffffffffffffffffffffffffffffffffffffffff16815260200190815260200160002060020160019054906101000a900460ff16155b15611d30576040517f55098f2700000000000000000000000000000000000000000000000000000000815260040160405180910390fd5b600073ffffffffffffffffffffffffffffffffffffffff166000808373ffffffffffffffffffffffffffffffffffffffff1673ffffffffffffffffffffffffffffffffffffffff16815260200190815260200160002060000160009054906101000a900473ffffffffffffffffffffffffffffffffffffffff1673ffffffffffffffffffffffffffffffffffffffff1603611df7576040517f670a68cc00000000000000000000000000000000000000000000000000000000815260040160405180910390fd5b60016000808373ffffffffffffffffffffffffffffffffffffffff1673ffffffffffffffffffffffffffffffffffffffff16815260200190815260200160002060020160016101000a81548160ff0219169083151502179055508073ffffffffffffffffffffffffffffffffffffffff163373ffffffffffffffffffffffffffffffffffffffff167fbfb2fa25f828a712fda370028ecc8813c7082c69b239a579753b10e24dd472cc60405160405180910390a350565b611eb6613fcf565b611ebf826140b5565b611ec982826140c0565b5050565b6000611ed76141df565b7f360894a13ba1a3210667c828492db98dca3e2076cc3735a920a3ca505d382bbc60001b905090565b60008173ffffffffffffffffffffffffffffffffffffffff163373ffffffffffffffffffffffffffffffffffffffff1614611f67576040517fea8e4eb500000000000000000000000000000000000000000000000000000000815260040160405180910390fd5b600560008373ffffffffffffffffffffffffffffffffffffffff1673ffffffffffffffffffffffffffffffffffffffff168152602001908152602001600020805490509050919050565b60036020528160005260406000208181548110611fcd57600080fd5b90600052602060002001600091509150505481565b60608173ffffffffffffffffffffffffffffffffffffffff163373ffffffffffffffffffffffffffffffffffffffff1614612049576040517fea8e4eb500000000000000000000000000000000000000000000000000000000815260040160405180910390fd5b600360008373ffffffffffffffffffffffffffffffffffffffff1673ffffffffffffffffffffffffffffffffffffffff1681526020019081526020016000208054806020026020016040519081016040528092919081815260200182805480156120d257602002820191906000526020600020905b8154815260200190600101908083116120be575b50505050509050919050565b6120e6613c03565b6120f06000614266565b565b600073ffffffffffffffffffffffffffffffffffffffff166000808573ffffffffffffffffffffffffffffffffffffffff1673ffffffffffffffffffffffffffffffffffffffff16815260200190815260200160002060000160009054906101000a900473ffffffffffffffffffffffffffffffffffffffff1673ffffffffffffffffffffffffffffffffffffffff16036121b9576040517f670a68cc00000000000000000000000000000000000000000000000000000000815260040160405180910390fd5b600060078111156121cd576121cc614c4c565b5b6000808573ffffffffffffffffffffffffffffffffffffffff1673ffffffffffffffffffffffffffffffffffffffff16815260200190815260200160002060020160009054906101000a900460ff16600781111561222e5761222d614c4c565b5b14612265576040517f8251137800000000000000000000000000000000000000000000000000000000815260040160405180910390fd5b60008060003373ffffffffffffffffffffffffffffffffffffffff1673ffffffffffffffffffffffffffffffffffffffff1681526020019081526020016000209050600160078111156122bb576122ba614c4c565b5b8160020160009054906101000a900460ff1660078111156122df576122de614c4c565b5b1415801561232257506007808111156122fb576122fa614c4c565b5b8160020160009054906101000a900460ff16600781111561231f5761231e614c4c565b5b14155b8061233c57508060020160019054906101000a900460ff16155b15612373576040517f5f10e00b00000000000000000000000000000000000000000000000000000000815260040160405180910390fd5b6123808484846001613c8a565b50505050565b60008061239161433d565b90508060000160009054906101000a900473ffffffffffffffffffffffffffffffffffffffff1691505090565b6123c661480d565b8273ffffffffffffffffffffffffffffffffffffffff163373ffffffffffffffffffffffffffffffffffffffff161461242b576040517fea8e4eb500000000000000000000000000000000000000000000000000000000815260040160405180910390fd5b600560008473ffffffffffffffffffffffffffffffffffffffff1673ffffffffffffffffffffffffffffffffffffffff168152602001908152602001600020828154811061247c5761247b615b10565b5b90600052602060002090600502016040518060a0016040529081600082015481526020016001820160009054906101000a900473ffffffffffffffffffffffffffffffffffffffff1673ffffffffffffffffffffffffffffffffffffffff1673ffffffffffffffffffffffffffffffffffffffff1681526020016002820160009054906101000a900473ffffffffffffffffffffffffffffffffffffffff1673ffffffffffffffffffffffffffffffffffffffff1673ffffffffffffffffffffffffffffffffffffffff16815260200160038201805461255b90615831565b80601f016020809104026020016040519081016040528092919081815260200182805461258790615831565b80156125d45780601f106125a9576101008083540402835291602001916125d4565b820191906000526020600020905b8154815290600101906020018083116125b757829003601f168201915b505050505081526020016004820160009054906101000a900460ff16600281111561260257612601614c4c565b5b600281111561261457612613614c4c565b5b81525050905092915050565b60006020528060005260406000206000915090508060000160009054906101000a900473ffffffffffffffffffffffffffffffffffffffff169080600101805461266990615831565b80601f016020809104026020016040519081016040528092919081815260200182805461269590615831565b80156126e25780601f106126b7576101008083540402835291602001916126e2565b820191906000526020600020905b8154815290600101906020018083116126c557829003601f168201915b5050505050908060020160009054906101000a900460ff16908060020160019054906101000a900460ff169080600301805461271d90615831565b80601f016020809104026020016040519081016040528092919081815260200182805461274990615831565b80156127965780601f1061276b57610100808354040283529160200191612796565b820191906000526020600020905b81548152906001019060200180831161277957829003601f168201915b5050505050905085565b60028054905083106127de576040517f3e07f1a100000000000000000000000000000000000000000000000000000000815260040160405180910390fd5b6000600284815481106127f4576127f3615b10565b5b906000526020600020906006020190503373ffffffffffffffffffffffffffffffffffffffff168160040160009054906101000a900473ffffffffffffffffffffffffffffffffffffffff1673ffffffffffffffffffffffffffffffffffffffff161461288d576040517f5e27834500000000000000000000000000000000000000000000000000000000815260040160405180910390fd5b60008060008573ffffffffffffffffffffffffffffffffffffffff1673ffffffffffffffffffffffffffffffffffffffff1681526020019081526020016000209050600160078111156128e3576128e2614c4c565b5b8160020160009054906101000a900460ff16600781111561290757612906614c4c565b5b1415801561294a575060078081111561292357612922614c4c565b5b8160020160009054906101000a900460ff16600781111561294757612946614c4c565b5b14155b801561298c57506003600781111561296557612964614c4c565b5b8160020160009054906101000a900460ff16600781111561298957612988614c4c565b5b14155b80156129ce5750600460078111156129a7576129a6614c4c565b5b8160020160009054906101000a900460ff1660078111156129cb576129ca614c4c565b5b14155b8015612a105750600560078111156129e9576129e8614c4c565b5b8160020160009054906101000a900460ff166007811115612a0d57612a0c614c4c565b5b14155b80612a2a57508060020160019054906101000a900460ff16155b15612a61576040517f5f10e00b00000000000000000000000000000000000000000000000000000000815260040160405180910390fd5b60006201518084612a729190615b6e565b42612a7d9190615bb0565b9050806004600088815260200190815260200160002060008773ffffffffffffffffffffffffffffffffffffffff1673ffffffffffffffffffffffffffffffffffffffff168152602001908152602001600020819055508473ffffffffffffffffffffffffffffffffffffffff163373ffffffffffffffffffffffffffffffffffffffff16877f9ffcf664651d52310aeb78c0f8382ca5078d2de7d3cf618cb5ce6e5cabf0099284604051612b329190615085565b60405180910390a4505050505050565b6040518060400160405280600581526020017f352e302e3000000000000000000000000000000000000000000000000000000081525081565b600073ffffffffffffffffffffffffffffffffffffffff166000803373ffffffffffffffffffffffffffffffffffffffff1673ffffffffffffffffffffffffffffffffffffffff16815260200190815260200160002060000160009054906101000a900473ffffffffffffffffffffffffffffffffffffffff1673ffffffffffffffffffffffffffffffffffffffff1603612c42576040517faba4733900000000000000000000000000000000000000000000000000000000815260040160405180910390fd5b604051806060016040528087878080601f016020809104026020016040519081016040528093929190818152602001838380828437600081840152601f19601f82011690508083019250505050505050815260200185858080601f016020809104026020016040519081016040528093929190818152602001838380828437600081840152601f19601f82011690508083019250505050505050815260200183838080601f016020809104026020016040519081016040528093929190818152602001838380828437600081840152601f19601f82011690508083019250505050505050815250600160003373ffffffffffffffffffffffffffffffffffffffff1673ffffffffffffffffffffffffffffffffffffffff1681526020019081526020016000206000820151816000019081612d7d9190615a0e565b506020820151816001019081612d939190615a0e565b506040820151816002019081612da99190615a0e565b5090505085856000803373ffffffffffffffffffffffffffffffffffffffff1673ffffffffffffffffffffffffffffffffffffffff1681526020019081526020016000206001019182612dfd929190615cc9565b503373ffffffffffffffffffffffffffffffffffffffff167f6420daf1b58438e85465ef21dee378d307a509caab491149e3f066c5caf1266d878787878787604051612e4e96959493929190615dc6565b60405180910390a2505050505050565b6004602052816000526040600020602052806000526040600020600091509150505481565b6000612e8d614365565b905060008160000160089054906101000a900460ff1615905060008260000160009054906101000a900467ffffffffffffffff1690506000808267ffffffffffffffff16148015612edb5750825b9050600060018367ffffffffffffffff16148015612f10575060003073ffffffffffffffffffffffffffffffffffffffff163b145b905081158015612f1e575080155b15612f55576040517ff92ee8a900000000000000000000000000000000000000000000000000000000815260040160405180910390fd5b60018560000160006101000a81548167ffffffffffffffff021916908367ffffffffffffffff1602179055508315612fa55760018560000160086101000a81548160ff0219169083151502179055505b612fae86614379565b612fb661438d565b83156130125760008560000160086101000a81548160ff0219169083151502179055507fc7f505b2f371ae2175ee4913f4499e1f2633a7b5936321eed1cdaeb6115181d260016040516130099190615e67565b60405180910390a15b505050505050565b600073ffffffffffffffffffffffffffffffffffffffff166000803373ffffffffffffffffffffffffffffffffffffffff1673ffffffffffffffffffffffffffffffffffffffff16815260200190815260200160002060000160009054906101000a900473ffffffffffffffffffffffffffffffffffffffff1673ffffffffffffffffffffffffffffffffffffffff16036130e1576040517faba4733900000000000000000000000000000000000000000000000000000000815260040160405180910390fd5b60008060003373ffffffffffffffffffffffffffffffffffffffff1673ffffffffffffffffffffffffffffffffffffffff168152602001908152602001600020600301805461312f90615831565b90501115613169576040517f3b3cf97000000000000000000000000000000000000000000000000000000000815260040160405180910390fd5b806000803373ffffffffffffffffffffffffffffffffffffffff1673ffffffffffffffffffffffffffffffffffffffff16815260200190815260200160002060030190816131b79190615a0e565b503373ffffffffffffffffffffffffffffffffffffffff167f6cf02651ef9f7a72105bbc0f5800cb97cf05271672cc25280ab53491280c827e60405160405180910390a250565b61320661487a565b613210823361372c565b613246576040517fea8e4eb500000000000000000000000000000000000000000000000000000000815260040160405180910390fd5b6002828154811061325a57613259615b10565b5b90600052602060002090600602016040518060e00160405290816000820154815260200160018201805461328d90615831565b80601f01602080910402602001604051908101604052809291908181526020018280546132b990615831565b80156133065780601f106132db57610100808354040283529160200191613306565b820191906000526020600020905b8154815290600101906020018083116132e957829003601f168201915b50505050508152602001600282015481526020016003820160009054906101000a900473ffffffffffffffffffffffffffffffffffffffff1673ffffffffffffffffffffffffffffffffffffffff1673ffffffffffffffffffffffffffffffffffffffff1681526020016004820160009054906101000a900473ffffffffffffffffffffffffffffffffffffffff1673ffffffffffffffffffffffffffffffffffffffff1673ffffffffffffffffffffffffffffffffffffffff1681526020016004820160149054906101000a900460ff161515151581526020016005820180546133f090615831565b80601f016020809104026020016040519081016040528092919081815260200182805461341c90615831565b80156134695780601f1061343e57610100808354040283529160200191613469565b820191906000526020600020905b81548152906001019060200180831161344c57829003601f168201915b5050505050815250509050919050565b60028054905082106134b7576040517f3e07f1a100000000000000000000000000000000000000000000000000000000815260040160405180910390fd5b6000600283815481106134cd576134cc615b10565b5b906000526020600020906006020190503373ffffffffffffffffffffffffffffffffffffffff168160040160009054906101000a900473ffffffffffffffffffffffffffffffffffffffff1673ffffffffffffffffffffffffffffffffffffffff1614613566576040517f5e27834500000000000000000000000000000000000000000000000000000000815260040160405180910390fd5b60006004600085815260200190815260200160002060008473ffffffffffffffffffffffffffffffffffffffff1673ffffffffffffffffffffffffffffffffffffffff16815260200190815260200160002054036135f0576040517f9cf4448900000000000000000000000000000000000000000000000000000000815260040160405180910390fd5b60006004600085815260200190815260200160002060008473ffffffffffffffffffffffffffffffffffffffff1673ffffffffffffffffffffffffffffffffffffffff168152602001908152602001600020819055508173ffffffffffffffffffffffffffffffffffffffff163373ffffffffffffffffffffffffffffffffffffffff16847f260547d4038414ef72f081dcde91825693dff9bc433178f3e92ad36e0cd2275060405160405180910390a4505050565b6136ae613c03565b600073ffffffffffffffffffffffffffffffffffffffff168173ffffffffffffffffffffffffffffffffffffffff16036137205760006040517f1e4fbdf7000000000000000000000000000000000000000000000000000000008152600401613717919061520b565b60405180910390fd5b61372981614266565b50565b600060028054905083106137435760009050613882565b60006002848154811061375957613758615b10565b5b906000526020600020906006020190508273ffffffffffffffffffffffffffffffffffffffff168160040160009054906101000a900473ffffffffffffffffffffffffffffffffffffffff1673ffffffffffffffffffffffffffffffffffffffff16036137ca576001915050613882565b8273ffffffffffffffffffffffffffffffffffffffff168160030160009054906101000a900473ffffffffffffffffffffffffffffffffffffffff1673ffffffffffffffffffffffffffffffffffffffff160361382b576001915050613882565b426004600086815260200190815260200160002060008573ffffffffffffffffffffffffffffffffffffffff1673ffffffffffffffffffffffffffffffffffffffff16815260200190815260200160002054119150505b92915050565b60008060008473ffffffffffffffffffffffffffffffffffffffff1673ffffffffffffffffffffffffffffffffffffffff1681526020019081526020016000209050600160078111156138de576138dd614c4c565b5b8160020160009054906101000a900460ff16600781111561390257613901614c4c565b5b14158015613945575060078081111561391e5761391d614c4c565b5b8160020160009054906101000a900460ff16600781111561394257613941614c4c565b5b14155b80156139875750600360078111156139605761395f614c4c565b5b8160020160009054906101000a900460ff16600781111561398457613983614c4c565b5b14155b80156139c95750600460078111156139a2576139a1614c4c565b5b8160020160009054906101000a900460ff1660078111156139c6576139c5614c4c565b5b14155b8015613a0b5750600560078111156139e4576139e3614c4c565b5b8160020160009054906101000a900460ff166007811115613a0857613a07614c4c565b5b14155b80613a2557508060020160019054906101000a900460ff16155b15613a5c576040517f5f10e00b00000000000000000000000000000000000000000000000000000000815260040160405180910390fd5b60006201518083613a6d9190615b6e565b42613a789190615bb0565b905060005b8551811015613bfb576000868281518110613a9b57613a9a615b10565b5b60200260200101519050600280549050811015613bed57600060028281548110613ac857613ac7615b10565b5b906000526020600020906006020190503373ffffffffffffffffffffffffffffffffffffffff168160040160009054906101000a900473ffffffffffffffffffffffffffffffffffffffff1673ffffffffffffffffffffffffffffffffffffffff1603613beb57836004600084815260200190815260200160002060008973ffffffffffffffffffffffffffffffffffffffff1673ffffffffffffffffffffffffffffffffffffffff168152602001908152602001600020819055508673ffffffffffffffffffffffffffffffffffffffff163373ffffffffffffffffffffffffffffffffffffffff16837f9ffcf664651d52310aeb78c0f8382ca5078d2de7d3cf618cb5ce6e5cabf0099287604051613be29190615085565b60405180910390a45b505b508080600101915050613a7d565b505050505050565b613c0b614397565b73ffffffffffffffffffffffffffffffffffffffff16613c29612386565b73ffffffffffffffffffffffffffffffffffffffff1614613c8857613c4c614397565b6040517f118cdaa7000000000000000000000000000000000000000000000000000000008152600401613c7f919061520b565b60405180910390fd5b565b6000600280549050905060026040518060e001604052808381526020018681526020014281526020013373ffffffffffffffffffffffffffffffffffffffff1681526020018773ffffffffffffffffffffffffffffffffffffffff1681526020018415158152602001858152509080600181540180825580915050600190039060005260206000209060060201600090919091909150600082015181600001556020820151816001019081613d3f9190615a0e565b506040820151816002015560608201518160030160006101000a81548173ffffffffffffffffffffffffffffffffffffffff021916908373ffffffffffffffffffffffffffffffffffffffff16021790555060808201518160040160006101000a81548173ffffffffffffffffffffffffffffffffffffffff021916908373ffffffffffffffffffffffffffffffffffffffff16021790555060a08201518160040160146101000a81548160ff02191690831515021790555060c0820151816005019081613e0d9190615a0e565b505050600360008673ffffffffffffffffffffffffffffffffffffffff1673ffffffffffffffffffffffffffffffffffffffff1681526020019081526020016000208190806001815401808255809150506001900390600052602060002001600090919091909150557fffffffffffffffffffffffffffffffffffffffffffffffffffffffffffffffff6004600083815260200190815260200160002060008773ffffffffffffffffffffffffffffffffffffffff1673ffffffffffffffffffffffffffffffffffffffff168152602001908152602001600020819055507fffffffffffffffffffffffffffffffffffffffffffffffffffffffffffffffff6004600083815260200190815260200160002060003373ffffffffffffffffffffffffffffffffffffffff1673ffffffffffffffffffffffffffffffffffffffff168152602001908152602001600020819055503373ffffffffffffffffffffffffffffffffffffffff168573ffffffffffffffffffffffffffffffffffffffff16827f9301aab79e18963a94932baee4a5f8ce91c80e552e8c5b01935859c1697595f48686604051613fc0929190615e82565b60405180910390a45050505050565b7f000000000000000000000000000000000000000000000000000000000000000073ffffffffffffffffffffffffffffffffffffffff163073ffffffffffffffffffffffffffffffffffffffff16148061407c57507f000000000000000000000000000000000000000000000000000000000000000073ffffffffffffffffffffffffffffffffffffffff1661406361439f565b73ffffffffffffffffffffffffffffffffffffffff1614155b156140b3576040517fe07c8dba00000000000000000000000000000000000000000000000000000000815260040160405180910390fd5b565b6140bd613c03565b50565b8173ffffffffffffffffffffffffffffffffffffffff166352d1902d6040518163ffffffff1660e01b8152600401602060405180830381865afa92505050801561412857506040513d601f19601f820116820180604052508101906141259190615ede565b60015b61416957816040517f4c9c8ce3000000000000000000000000000000000000000000000000000000008152600401614160919061520b565b60405180910390fd5b7f360894a13ba1a3210667c828492db98dca3e2076cc3735a920a3ca505d382bbc60001b81146141d057806040517faa1d49a40000000000000000000000000000000000000000000000000000000081526004016141c7919061506a565b60405180910390fd5b6141da83836143f6565b505050565b7f000000000000000000000000000000000000000000000000000000000000000073ffffffffffffffffffffffffffffffffffffffff163073ffffffffffffffffffffffffffffffffffffffff1614614264576040517fe07c8dba00000000000000000000000000000000000000000000000000000000815260040160405180910390fd5b565b600061427061433d565b905060008160000160009054906101000a900473ffffffffffffffffffffffffffffffffffffffff169050828260000160006101000a81548173ffffffffffffffffffffffffffffffffffffffff021916908373ffffffffffffffffffffffffffffffffffffffff1602179055508273ffffffffffffffffffffffffffffffffffffffff168173ffffffffffffffffffffffffffffffffffffffff167f8be0079c531659141344cd1fd0a4f28419497f9722a3daafe3b4186f6b6457e060405160405180910390a3505050565b60007f9016d09d72d40fdae2fd8ceac6b6234c7706214fd39c1cd1e609a0528c199300905090565b600080614370614469565b90508091505090565b614381614494565b61438a816144d4565b50565b614395614494565b565b600033905090565b60006143cd7f360894a13ba1a3210667c828492db98dca3e2076cc3735a920a3ca505d382bbc60001b6144e8565b60000160009054906101000a900473ffffffffffffffffffffffffffffffffffffffff16905090565b6143ff826144f2565b8173ffffffffffffffffffffffffffffffffffffffff167fbc7cd75a20ee27fd9adebab32041f755214dbc6bffa90cc0225b39da2e5c2d3b60405160405180910390a260008151111561445c5761445682826145bf565b50614465565b614464614643565b5b5050565b60007ff0c57e16840df040f15088dc2f81fe391c3923bec73e23a9662efc9c229c6a0060001b905090565b61449c614680565b6144d2576040517fd7e6bcf800000000000000000000000000000000000000000000000000000000815260040160405180910390fd5b565b6144dc614494565b6144e5816146a0565b50565b6000819050919050565b60008173ffffffffffffffffffffffffffffffffffffffff163b0361454e57806040517f4c9c8ce3000000000000000000000000000000000000000000000000000000008152600401614545919061520b565b60405180910390fd5b8061457b7f360894a13ba1a3210667c828492db98dca3e2076cc3735a920a3ca505d382bbc60001b6144e8565b60000160006101000a81548173ffffffffffffffffffffffffffffffffffffffff021916908373ffffffffffffffffffffffffffffffffffffffff16021790555050565b60606000808473ffffffffffffffffffffffffffffffffffffffff16846040516145e99190615f52565b600060405180830381855af49150503d8060008114614624576040519150601f19603f3d011682016040523d82523d6000602084013e614629565b606091505b50915091506146398583836146b4565b9250505092915050565b600034111561467e576040517fb398979f00000000000000000000000000000000000000000000000000000000815260040160405180910390fd5b565b600061468a614365565b60000160089054906101000a900460ff16905090565b6146a8614494565b6146b181614743565b50565b6060826146c9576146c4826147c9565b61473b565b600082511480156146f1575060008473ffffffffffffffffffffffffffffffffffffffff163b145b1561473357836040517f9996b31500000000000000000000000000000000000000000000000000000000815260040161472a919061520b565b60405180910390fd5b81905061473c565b5b9392505050565b61474b614494565b600073ffffffffffffffffffffffffffffffffffffffff168173ffffffffffffffffffffffffffffffffffffffff16036147bd5760006040517f1e4fbdf70000000000000000000000000000000000000000000000000000000081526004016147b4919061520b565b60405180910390fd5b6147c681614266565b50565b6000815111156147db57805160208201fd5b6040517fd6bda27500000000000000000000000000000000000000000000000000000000815260040160405180910390fd5b6040518060a0016040528060008152602001600073ffffffffffffffffffffffffffffffffffffffff168152602001600073ffffffffffffffffffffffffffffffffffffffff168152602001606081526020016000600281111561487457614873614c4c565b5b81525090565b6040518060e00160405280600081526020016060815260200160008152602001600073ffffffffffffffffffffffffffffffffffffffff168152602001600073ffffffffffffffffffffffffffffffffffffffff168152602001600015158152602001606081525090565b6000604051905090565b600080fd5b600080fd5b600073ffffffffffffffffffffffffffffffffffffffff82169050919050565b6000614924826148f9565b9050919050565b61493481614919565b811461493f57600080fd5b50565b6000813590506149518161492b565b92915050565b600080fd5b600080fd5b6000601f19601f8301169050919050565b7f4e487b7100000000000000000000000000000000000000000000000000000000600052604160045260246000fd5b6149aa82614961565b810181811067ffffffffffffffff821117156149c9576149c8614972565b5b80604052505050565b60006149dc6148e5565b90506149e882826149a1565b919050565b600067ffffffffffffffff821115614a0857614a07614972565b5b614a1182614961565b9050602081019050919050565b82818337600083830152505050565b6000614a40614a3b846149ed565b6149d2565b905082815260208101848484011115614a5c57614a5b61495c565b5b614a67848285614a1e565b509392505050565b600082601f830112614a8457614a83614957565b5b8135614a94848260208601614a2d565b91505092915050565b60008060408385031215614ab457614ab36148ef565b5b6000614ac285828601614942565b925050602083013567ffffffffffffffff811115614ae357614ae26148f4565b5b614aef85828601614a6f565b9150509250929050565b6000819050919050565b614b0c81614af9565b8114614b1757600080fd5b50565b600081359050614b2981614b03565b92915050565b60008060408385031215614b4657614b456148ef565b5b6000614b5485828601614b1a565b9250506020614b6585828601614b1a565b9150509250929050565b60008060408385031215614b8657614b856148ef565b5b6000614b9485828601614942565b9250506020614ba585828601614b1a565b9150509250929050565b614bb881614af9565b82525050565b614bc781614919565b82525050565b600081519050919050565b600082825260208201905092915050565b60005b83811015614c07578082015181840152602081019050614bec565b60008484015250505050565b6000614c1e82614bcd565b614c288185614bd8565b9350614c38818560208601614be9565b614c4181614961565b840191505092915050565b7f4e487b7100000000000000000000000000000000000000000000000000000000600052602160045260246000fd5b60038110614c8c57614c8b614c4c565b5b50565b6000819050614c9d82614c7b565b919050565b6000614cad82614c8f565b9050919050565b614cbd81614ca2565b82525050565b600060a082019050614cd86000830188614baf565b614ce56020830187614bbe565b614cf26040830186614bbe565b8181036060830152614d048185614c13565b9050614d136080830184614cb4565b9695505050505050565b600060208284031215614d3357614d326148ef565b5b6000614d4184828501614942565b91505092915050565b60006060820190508181036000830152614d648186614c13565b90508181036020830152614d788185614c13565b90508181036040830152614d8c8184614c13565b9050949350505050565b60088110614da357600080fd5b50565b600081359050614db581614d96565b92915050565b60008060408385031215614dd257614dd16148ef565b5b600083013567ffffffffffffffff811115614df057614def6148f4565b5b614dfc85828601614a6f565b9250506020614e0d85828601614da6565b9150509250929050565b600060208284031215614e2d57614e2c6148ef565b5b6000614e3b84828501614b1a565b91505092915050565b60008115159050919050565b614e5981614e44565b82525050565b600060e082019050614e74600083018a614baf565b8181036020830152614e868189614c13565b9050614e956040830188614baf565b614ea26060830187614bbe565b614eaf6080830186614bbe565b614ebc60a0830185614e50565b81810360c0830152614ece8184614c13565b905098975050505050505050565b60008060408385031215614ef357614ef26148ef565b5b600083013567ffffffffffffffff811115614f1157614f106148f4565b5b614f1d85828601614a6f565b925050602083013567ffffffffffffffff811115614f3e57614f3d6148f4565b5b614f4a85828601614a6f565b9150509250929050565b600067ffffffffffffffff821115614f6f57614f6e614972565b5b614f7882614961565b9050602081019050919050565b6000614f98614f9384614f54565b6149d2565b905082815260208101848484011115614fb457614fb361495c565b5b614fbf848285614a1e565b509392505050565b600082601f830112614fdc57614fdb614957565b5b8135614fec848260208601614f85565b91505092915050565b6000806040838503121561500c5761500b6148ef565b5b600061501a85828601614942565b925050602083013567ffffffffffffffff81111561503b5761503a6148f4565b5b61504785828601614fc7565b9150509250929050565b6000819050919050565b61506481615051565b82525050565b600060208201905061507f600083018461505b565b92915050565b600060208201905061509a6000830184614baf565b92915050565b600081519050919050565b600082825260208201905092915050565b6000819050602082019050919050565b6150d581614af9565b82525050565b60006150e783836150cc565b60208301905092915050565b6000602082019050919050565b600061510b826150a0565b61511581856150ab565b9350615120836150bc565b8060005b8381101561515157815161513888826150db565b9750615143836150f3565b925050600181019050615124565b5085935050505092915050565b600060208201905081810360008301526151788184615100565b905092915050565b600080600060608486031215615199576151986148ef565b5b60006151a786828701614942565b935050602084013567ffffffffffffffff8111156151c8576151c76148f4565b5b6151d486828701614a6f565b925050604084013567ffffffffffffffff8111156151f5576151f46148f4565b5b61520186828701614a6f565b9150509250925092565b60006020820190506152206000830184614bbe565b92915050565b61522f81614919565b82525050565b600082825260208201905092915050565b600061525182614bcd565b61525b8185615235565b935061526b818560208601614be9565b61527481614961565b840191505092915050565b61528881614ca2565b82525050565b600060a0830160008301516152a660008601826150cc565b5060208301516152b96020860182615226565b5060408301516152cc6040860182615226565b50606083015184820360608601526152e48282615246565b91505060808301516152f9608086018261527f565b508091505092915050565b6000602082019050818103600083015261531e818461528e565b905092915050565b6008811061533757615336614c4c565b5b50565b600081905061534882615326565b919050565b60006153588261533a565b9050919050565b6153688161534d565b82525050565b600060a0820190506153836000830188614bbe565b81810360208301526153958187614c13565b90506153a4604083018661535f565b6153b16060830185614e50565b81810360808301526153c38184614c13565b90509695505050505050565b6000806000606084860312156153e8576153e76148ef565b5b60006153f686828701614b1a565b935050602061540786828701614942565b925050604061541886828701614b1a565b9150509250925092565b6000602082019050818103600083015261543c8184614c13565b905092915050565b600080fd5b600080fd5b60008083601f84011261546457615463614957565b5b8235905067ffffffffffffffff81111561548157615480615444565b5b60208301915083600182028301111561549d5761549c615449565b5b9250929050565b600080600080600080606087890312156154c1576154c06148ef565b5b600087013567ffffffffffffffff8111156154df576154de6148f4565b5b6154eb89828a0161544e565b9650965050602087013567ffffffffffffffff81111561550e5761550d6148f4565b5b61551a89828a0161544e565b9450945050604087013567ffffffffffffffff81111561553d5761553c6148f4565b5b61554989828a0161544e565b92509250509295509295509295565b6000806040838503121561556f5761556e6148ef565b5b600061557d85828601614b1a565b925050602061558e85828601614942565b9150509250929050565b6000602082840312156155ae576155ad6148ef565b5b600082013567ffffffffffffffff8111156155cc576155cb6148f4565b5b6155d884828501614a6f565b91505092915050565b6155ea81614e44565b82525050565b600060e08301600083015161560860008601826150cc565b50602083015184820360208601526156208282615246565b915050604083015161563560408601826150cc565b5060608301516156486060860182615226565b50608083015161565b6080860182615226565b5060a083015161566e60a08601826155e1565b5060c083015184820360c08601526156868282615246565b9150508091505092915050565b600060208201905081810360008301526156ad81846155f0565b905092915050565b60006020820190506156ca6000830184614e50565b92915050565b600067ffffffffffffffff8211156156eb576156ea614972565b5b602082029050602081019050919050565b600061570f61570a846156d0565b6149d2565b9050808382526020820190506020840283018581111561573257615731615449565b5b835b8181101561575b57806157478882614b1a565b845260208401935050602081019050615734565b5050509392505050565b600082601f83011261577a57615779614957565b5b813561578a8482602086016156fc565b91505092915050565b6000806000606084860312156157ac576157ab6148ef565b5b600084013567ffffffffffffffff8111156157ca576157c96148f4565b5b6157d686828701615765565b93505060206157e786828701614942565b92505060406157f886828701614b1a565b9150509250925092565b7f4e487b7100000000000000000000000000000000000000000000000000000000600052602260045260246000fd5b6000600282049050600182168061584957607f821691505b60208210810361585c5761585b615802565b5b50919050565b60008190508160005260206000209050919050565b60006020601f8301049050919050565b600082821b905092915050565b6000600883026158c47fffffffffffffffffffffffffffffffffffffffffffffffffffffffffffffffff82615887565b6158ce8683615887565b95508019841693508086168417925050509392505050565b6000819050919050565b600061590b61590661590184614af9565b6158e6565b614af9565b9050919050565b6000819050919050565b615925836158f0565b61593961593182615912565b848454615894565b825550505050565b600090565b61594e615941565b61595981848461591c565b505050565b5b8181101561597d57615972600082615946565b60018101905061595f565b5050565b601f8211156159c25761599381615862565b61599c84615877565b810160208510156159ab578190505b6159bf6159b785615877565b83018261595e565b50505b505050565b600082821c905092915050565b60006159e5600019846008026159c7565b1980831691505092915050565b60006159fe83836159d4565b9150826002028217905092915050565b615a1782614bcd565b67ffffffffffffffff811115615a3057615a2f614972565b5b615a3a8254615831565b615a45828285615981565b600060209050601f831160018114615a785760008415615a66578287015190505b615a7085826159f2565b865550615ad8565b601f198416615a8686615862565b60005b82811015615aae57848901518255600182019150602085019450602081019050615a89565b86831015615acb5784890151615ac7601f8916826159d4565b8355505b6001600288020188555050505b505050505050565b60006040820190508181036000830152615afa8185614c13565b9050615b09602083018461535f565b9392505050565b7f4e487b7100000000000000000000000000000000000000000000000000000000600052603260045260246000fd5b7f4e487b7100000000000000000000000000000000000000000000000000000000600052601160045260246000fd5b6000615b7982614af9565b9150615b8483614af9565b9250828202615b9281614af9565b91508282048414831517615ba957615ba8615b3f565b5b5092915050565b6000615bbb82614af9565b9150615bc683614af9565b9250828201905080821115615bde57615bdd615b3f565b5b92915050565b6000615bef82614af9565b91507fffffffffffffffffffffffffffffffffffffffffffffffffffffffffffffffff8203615c2157615c20615b3f565b5b600182019050919050565b7f43616e6e6f742072656769737465722061732041646d696e206469726563746c60008201527f792e000000000000000000000000000000000000000000000000000000000000602082015250565b6000615c88602283614bd8565b9150615c9382615c2c565b604082019050919050565b60006020820190508181036000830152615cb781615c7b565b9050919050565b600082905092915050565b615cd38383615cbe565b67ffffffffffffffff811115615cec57615ceb614972565b5b615cf68254615831565b615d01828285615981565b6000601f831160018114615d305760008415615d1e578287013590505b615d2885826159f2565b865550615d90565b601f198416615d3e86615862565b60005b82811015615d6657848901358255600182019150602085019450602081019050615d41565b86831015615d835784890135615d7f601f8916826159d4565b8355505b6001600288020188555050505b50505050505050565b6000615da58385614bd8565b9350615db2838584614a1e565b615dbb83614961565b840190509392505050565b60006060820190508181036000830152615de181888a615d99565b90508181036020830152615df6818688615d99565b90508181036040830152615e0b818486615d99565b9050979650505050505050565b6000819050919050565b600067ffffffffffffffff82169050919050565b6000615e51615e4c615e4784615e18565b6158e6565b615e22565b9050919050565b615e6181615e36565b82525050565b6000602082019050615e7c6000830184615e58565b92915050565b60006040820190508181036000830152615e9c8185614c13565b9050615eab6020830184614e50565b9392505050565b615ebb81615051565b8114615ec657600080fd5b50565b600081519050615ed881615eb2565b92915050565b600060208284031215615ef457615ef36148ef565b5b6000615f0284828501615ec9565b91505092915050565b600081519050919050565b600081905092915050565b6000615f2c82615f0b565b615f368185615f16565b9350615f46818560208601614be9565b80840191505092915050565b6000615f5e8284615f21565b91508190509291505056fea264697066735822122011d87a72c1e5f6f52709debfc9841b6b0080ddbc6e10d69f6abfc8c842e67e8464736f6c63430008180033",
  "linkReferences": {},
  "deployedLinkReferences": {}
}